{
  "address": "0xa82fF9aFd8f496c3d6ac40E2a0F282E47488CFc9",
  "abi": [
    {
      "inputs": [
        {
          "internalType": "string",
          "name": "_n",
          "type": "string"
        }
      ],
      "stateMutability": "nonpayable",
      "type": "constructor"
    },
    {
      "anonymous": false,
      "inputs": [
        {
          "indexed": true,
          "internalType": "address",
          "name": "owner",
          "type": "address"
        },
        {
          "indexed": true,
          "internalType": "address",
          "name": "spender",
          "type": "address"
        },
        {
          "indexed": false,
          "internalType": "uint256",
          "name": "value",
          "type": "uint256"
        }
      ],
      "name": "Approval",
      "type": "event"
    },
    {
      "anonymous": false,
      "inputs": [
        {
          "indexed": true,
          "internalType": "address",
          "name": "from",
          "type": "address"
        },
        {
          "indexed": true,
          "internalType": "address",
          "name": "to",
          "type": "address"
        },
        {
          "indexed": false,
          "internalType": "uint256",
          "name": "value",
          "type": "uint256"
        }
      ],
      "name": "Transfer",
      "type": "event"
    },
    {
      "inputs": [
        {
          "internalType": "address",
          "name": "owner",
          "type": "address"
        },
        {
          "internalType": "address",
          "name": "spender",
          "type": "address"
        }
      ],
      "name": "allowance",
      "outputs": [
        {
          "internalType": "uint256",
          "name": "",
          "type": "uint256"
        }
      ],
      "stateMutability": "view",
      "type": "function"
    },
    {
      "inputs": [
        {
          "internalType": "address",
          "name": "spender",
          "type": "address"
        },
        {
          "internalType": "uint256",
          "name": "amount",
          "type": "uint256"
        }
      ],
      "name": "approve",
      "outputs": [
        {
          "internalType": "bool",
          "name": "",
          "type": "bool"
        }
      ],
      "stateMutability": "nonpayable",
      "type": "function"
    },
    {
      "inputs": [
        {
          "internalType": "address",
          "name": "account",
          "type": "address"
        }
      ],
      "name": "balanceOf",
      "outputs": [
        {
          "internalType": "uint256",
          "name": "",
          "type": "uint256"
        }
      ],
      "stateMutability": "view",
      "type": "function"
    },
    {
      "inputs": [],
      "name": "decimals",
      "outputs": [
        {
          "internalType": "uint8",
          "name": "",
          "type": "uint8"
        }
      ],
      "stateMutability": "view",
      "type": "function"
    },
    {
      "inputs": [
        {
          "internalType": "address",
          "name": "spender",
          "type": "address"
        },
        {
          "internalType": "uint256",
          "name": "subtractedValue",
          "type": "uint256"
        }
      ],
      "name": "decreaseAllowance",
      "outputs": [
        {
          "internalType": "bool",
          "name": "",
          "type": "bool"
        }
      ],
      "stateMutability": "nonpayable",
      "type": "function"
    },
    {
      "inputs": [],
      "name": "deposit",
      "outputs": [],
      "stateMutability": "payable",
      "type": "function"
    },
    {
      "inputs": [],
      "name": "faucet",
      "outputs": [],
      "stateMutability": "nonpayable",
      "type": "function"
    },
    {
      "inputs": [],
      "name": "faucetAmount",
      "outputs": [
        {
          "internalType": "uint256",
          "name": "",
          "type": "uint256"
        }
      ],
      "stateMutability": "view",
      "type": "function"
    },
    {
      "inputs": [],
      "name": "faucetEnabled",
      "outputs": [
        {
          "internalType": "bool",
          "name": "",
          "type": "bool"
        }
      ],
      "stateMutability": "view",
      "type": "function"
    },
    {
      "inputs": [],
      "name": "faucetTotal",
      "outputs": [
        {
          "internalType": "uint256",
          "name": "",
          "type": "uint256"
        }
      ],
      "stateMutability": "view",
      "type": "function"
    },
    {
      "inputs": [],
      "name": "giveawayTotal",
      "outputs": [
        {
          "internalType": "uint256",
          "name": "",
          "type": "uint256"
        }
      ],
      "stateMutability": "view",
      "type": "function"
    },
    {
      "inputs": [
        {
          "internalType": "address",
          "name": "spender",
          "type": "address"
        },
        {
          "internalType": "uint256",
          "name": "addedValue",
          "type": "uint256"
        }
      ],
      "name": "increaseAllowance",
      "outputs": [
        {
          "internalType": "bool",
          "name": "",
          "type": "bool"
        }
      ],
      "stateMutability": "nonpayable",
      "type": "function"
    },
    {
      "inputs": [],
      "name": "interval",
      "outputs": [
        {
          "internalType": "uint256",
          "name": "",
          "type": "uint256"
        }
      ],
      "stateMutability": "view",
      "type": "function"
    },
    {
      "inputs": [
        {
          "internalType": "address",
          "name": "account",
          "type": "address"
        },
        {
          "internalType": "uint256",
          "name": "amount",
          "type": "uint256"
        }
      ],
      "name": "mint",
      "outputs": [],
      "stateMutability": "nonpayable",
      "type": "function"
    },
    {
      "inputs": [],
      "name": "name",
      "outputs": [
        {
          "internalType": "string",
          "name": "",
          "type": "string"
        }
      ],
      "stateMutability": "view",
      "type": "function"
    },
    {
      "inputs": [],
      "name": "openMint",
      "outputs": [
        {
          "internalType": "bool",
          "name": "",
          "type": "bool"
        }
      ],
      "stateMutability": "view",
      "type": "function"
    },
    {
      "inputs": [
        {
          "internalType": "uint256",
          "name": "_faucetAmount",
          "type": "uint256"
        }
      ],
      "name": "setFaucetAmount",
      "outputs": [],
      "stateMutability": "nonpayable",
      "type": "function"
    },
    {
      "inputs": [
        {
          "internalType": "bool",
          "name": "_faucetEnabled",
          "type": "bool"
        }
      ],
      "name": "setFaucetEnabled",
      "outputs": [],
      "stateMutability": "nonpayable",
      "type": "function"
    },
    {
      "inputs": [
        {
          "internalType": "uint256",
          "name": "_faucetTotal",
          "type": "uint256"
        }
      ],
      "name": "setFaucetTotal",
      "outputs": [],
      "stateMutability": "nonpayable",
      "type": "function"
    },
    {
      "inputs": [
        {
          "internalType": "uint256",
          "name": "_inverval",
          "type": "uint256"
        }
      ],
      "name": "setInterval",
      "outputs": [],
      "stateMutability": "nonpayable",
      "type": "function"
    },
    {
      "inputs": [
        {
          "internalType": "bool",
          "name": "open",
          "type": "bool"
        }
      ],
      "name": "setOpenMint",
      "outputs": [],
      "stateMutability": "nonpayable",
      "type": "function"
    },
    {
      "inputs": [],
      "name": "symbol",
      "outputs": [
        {
          "internalType": "string",
          "name": "",
          "type": "string"
        }
      ],
      "stateMutability": "view",
      "type": "function"
    },
    {
      "inputs": [],
      "name": "totalSupply",
      "outputs": [
        {
          "internalType": "uint256",
          "name": "",
          "type": "uint256"
        }
      ],
      "stateMutability": "view",
      "type": "function"
    },
    {
      "inputs": [
        {
          "internalType": "address",
          "name": "recipient",
          "type": "address"
        },
        {
          "internalType": "uint256",
          "name": "amount",
          "type": "uint256"
        }
      ],
      "name": "transfer",
      "outputs": [
        {
          "internalType": "bool",
          "name": "",
          "type": "bool"
        }
      ],
      "stateMutability": "nonpayable",
      "type": "function"
    },
    {
      "inputs": [
        {
          "internalType": "address",
          "name": "sender",
          "type": "address"
        },
        {
          "internalType": "address",
          "name": "recipient",
          "type": "address"
        },
        {
          "internalType": "uint256",
          "name": "amount",
          "type": "uint256"
        }
      ],
      "name": "transferFrom",
      "outputs": [
        {
          "internalType": "bool",
          "name": "",
          "type": "bool"
        }
      ],
      "stateMutability": "nonpayable",
      "type": "function"
    },
    {
      "inputs": [
        {
          "internalType": "uint256",
          "name": "amount",
          "type": "uint256"
        }
      ],
      "name": "withdraw",
      "outputs": [],
      "stateMutability": "nonpayable",
      "type": "function"
    },
    {
      "inputs": [
        {
          "internalType": "address",
          "name": "token",
          "type": "address"
        },
        {
          "internalType": "address",
          "name": "account",
          "type": "address"
        },
        {
          "internalType": "uint256",
          "name": "amount",
          "type": "uint256"
        }
      ],
      "name": "withdrawToken",
      "outputs": [],
      "stateMutability": "nonpayable",
      "type": "function"
    }
  ],
  "transactionHash": "0x97e5b30571a2639e80724ee02846fb1fe6985d606bff3fe3417c71c1873dc213",
  "args": [
    "DAI"
  ],
  "numDeployments": 1,
  "solcInputHash": "1fb095c2a8736afe292bad1aa4a33281",
  "bytecode": "0x6080604052600a805461ff001960ff19909116600117166101001790553480156200002957600080fd5b506040516200162638038062001626833981810160405260208110156200004f57600080fd5b81019080805160405193929190846401000000008211156200007057600080fd5b9083019060208201858111156200008657600080fd5b8251640100000000811182820188101715620000a157600080fd5b82525081516020918201929091019080838360005b83811015620000d0578181015183820152602001620000b6565b50505050905090810190601f168015620000fe5780820380516001836020036101000a031916815260200191505b50604052505081516200011a9150600390602084019062000168565b5080516200013090600490602084019062000168565b50506005805460ff19166012179055610e106006556a52b7d2dcc80cd2e400000060075569021e19e0c9bab240000060085562000204565b828054600181600116156101000203166002900490600052602060002090601f016020900481019282601f10620001ab57805160ff1916838001178555620001db565b82800160010185558215620001db579182015b82811115620001db578251825591602001919060010190620001be565b50620001e9929150620001ed565b5090565b5b80821115620001e95760008155600101620001ee565b61141280620002146000396000f3fe60806040526004361061013c5760003560e01c806301e336671461014157806306fdde0314610186578063095ea7b31461021057806318160ddd1461025d57806322a900821461028457806323b872dd146102ae578063294e4c66146102f15780632e1a7d4d14610306578063313ce56714610330578063395093511461035b57806340c10f19146103945780634c303cb2146103cd5780635d1c3f04146103e257806370a08231146103f757806381d2fd9c1461042a5780638f303e9614610454578063947a36fb1461048057806395d89b41146104955780639c281430146104aa578063a01c2d71146104bf578063a457c2d7146104e9578063a9059cbb14610522578063bce6d6721461055b578063d0e30db014610570578063dd62ed3e14610578578063de5f72fd146105b3578063e2af30f4146105c8575b600080fd5b34801561014d57600080fd5b506101846004803603606081101561016457600080fd5b506001600160a01b038135811691602081013590911690604001356105f4565b005b34801561019257600080fd5b5061019b61067c565b6040805160208082528351818301528351919283929083019185019080838360005b838110156101d55781810151838201526020016101bd565b50505050905090810190601f1680156102025780820380516001836020036101000a031916815260200191505b509250505060405180910390f35b34801561021c57600080fd5b506102496004803603604081101561023357600080fd5b506001600160a01b038135169060200135610712565b604080519115158252519081900360200190f35b34801561026957600080fd5b5061027261072f565b60408051918252519081900360200190f35b34801561029057600080fd5b50610184600480360360208110156102a757600080fd5b5035610735565b3480156102ba57600080fd5b50610249600480360360608110156102d157600080fd5b506001600160a01b03813581169160208101359091169060400135610797565b3480156102fd57600080fd5b5061027261081e565b34801561031257600080fd5b506101846004803603602081101561032957600080fd5b5035610824565b34801561033c57600080fd5b506103456108c1565b6040805160ff9092168252519081900360200190f35b34801561036757600080fd5b506102496004803603604081101561037e57600080fd5b506001600160a01b0381351690602001356108ca565b3480156103a057600080fd5b50610184600480360360408110156103b757600080fd5b506001600160a01b038135169060200135610918565b3480156103d957600080fd5b5061027261098e565b3480156103ee57600080fd5b50610249610994565b34801561040357600080fd5b506102726004803603602081101561041a57600080fd5b50356001600160a01b031661099d565b34801561043657600080fd5b506101846004803603602081101561044d57600080fd5b50356109b8565b34801561046057600080fd5b506101846004803603602081101561047757600080fd5b50351515610a1a565b34801561048c57600080fd5b50610272610a8a565b3480156104a157600080fd5b5061019b610a90565b3480156104b657600080fd5b50610272610af1565b3480156104cb57600080fd5b50610184600480360360208110156104e257600080fd5b5035610af7565b3480156104f557600080fd5b506102496004803603604081101561050c57600080fd5b506001600160a01b038135169060200135610afc565b34801561052e57600080fd5b506102496004803603604081101561054557600080fd5b506001600160a01b038135169060200135610b64565b34801561056757600080fd5b50610249610b78565b610184610b86565b34801561058457600080fd5b506102726004803603604081101561059b57600080fd5b506001600160a01b0381358116916020013516610b92565b3480156105bf57600080fd5b50610184610bbd565b3480156105d457600080fd5b50610184600480360360208110156105eb57600080fd5b50351515610d00565b826001600160a01b031663a9059cbb83836040518363ffffffff1660e01b815260040180836001600160a01b0316815260200182815260200192505050602060405180830381600087803b15801561064b57600080fd5b505af115801561065f573d6000803e3d6000fd5b505050506040513d602081101561067557600080fd5b5050505050565b60038054604080516020601f60026000196101006001881615020190951694909404938401819004810282018101909252828152606093909290918301828280156107085780601f106106dd57610100808354040283529160200191610708565b820191906000526020600020905b8154815290600101906020018083116106eb57829003601f168201915b5050505050905090565b600061072661071f610d1a565b8484610d1e565b50600192915050565b60025490565b61073d610d1a565b60055461010090046001600160a01b03908116911614610792576040805162461bcd60e51b81526020600482015260176024820152600080516020611259833981519152604482015290519081900360640190fd5b600655565b60006107a4848484610e0a565b610814846107b0610d1a565b61080f85604051806060016040528060288152602001611306602891396001600160a01b038a166000908152600160205260408120906107ee610d1a565b6001600160a01b031681526020810191909152604001600020549190610f53565b610d1e565b5060019392505050565b60095481565b33600090815260208190526040902054811115610886576040805162461bcd60e51b815260206004820152601b60248201527a546f6b656e3a20696e73756666696369656e742062616c616e636560281b604482015290519081900360640190fd5b6108903382610fea565b604051339082156108fc029083906000818181858888f193505050501580156108bd573d6000803e3d6000fd5b5050565b60055460ff1690565b60006107266108d7610d1a565b8461080f85600160006108e8610d1a565b6001600160a01b03908116825260208083019390935260409182016000908120918c1681529252902054906110d4565b600a54610100900460ff166109845761092f610d1a565b60055461010090046001600160a01b03908116911614610984576040805162461bcd60e51b81526020600482015260176024820152600080516020611259833981519152604482015290519081900360640190fd5b6108bd8282611133565b60075481565b600a5460ff1681565b6001600160a01b031660009081526020819052604090205490565b6109c0610d1a565b60055461010090046001600160a01b03908116911614610a15576040805162461bcd60e51b81526020600482015260176024820152600080516020611259833981519152604482015290519081900360640190fd5b600855565b610a22610d1a565b60055461010090046001600160a01b03908116911614610a77576040805162461bcd60e51b81526020600482015260176024820152600080516020611259833981519152604482015290519081900360640190fd5b600a805460ff1916911515919091179055565b60065481565b60048054604080516020601f60026000196101006001881615020190951694909404938401819004810282018101909252828152606093909290918301828280156107085780601f106106dd57610100808354040283529160200191610708565b60085481565b600755565b6000610726610b09610d1a565b8461080f856040518060600160405280602581526020016113b86025913960016000610b33610d1a565b6001600160a01b03908116825260208083019390935260409182016000908120918d16815292529020549190610f53565b6000610726610b71610d1a565b8484610e0a565b600a54610100900460ff1681565b610b903334611133565b565b6001600160a01b03918216600090815260016020908152604080832093909416825291909152205490565b600a5460ff16610c11576040805162461bcd60e51b815260206004820152601a6024820152792330bab1b2ba1034b9903737ba1032b730b13632b2103737bb9760311b604482015290519081900360640190fd5b600854600954016007541015610c6e576040805162461bcd60e51b815260206004820181905260248201527f46617563657420746f74616c2069732072756e6e696e67206f7574206e6f772e604482015290519081900360640190fd5b600654336000908152600b6020526040902054420311610cd5576040805162461bcd60e51b815260206004820152601f60248201527f46617563657420696e74657276616c206973206e6f7420657870697265642e00604482015290519081900360640190fd5b60088054600980549091019055336000818152600b602052604090204290559054610b909190611133565b600a80549115156101000261ff0019909216919091179055565b3390565b6001600160a01b038316610d635760405162461bcd60e51b81526004018080602001828103825260248152602001806113946024913960400191505060405180910390fd5b6001600160a01b038216610da85760405162461bcd60e51b81526004018080602001828103825260228152602001806112be6022913960400191505060405180910390fd5b6001600160a01b03808416600081815260016020908152604080832094871680845294825291829020859055815185815291517f8c5be1e5ebec7d5bd14f71427d1e84f3dd0314c0f7b2291e5b200ac8c7c3b9259281900390910190a3505050565b6001600160a01b038316610e4f5760405162461bcd60e51b815260040180806020018281038252602581526020018061136f6025913960400191505060405180910390fd5b6001600160a01b038216610e945760405162461bcd60e51b81526004018080602001828103825260238152602001806112796023913960400191505060405180910390fd5b610e9f838383611211565b610edc816040518060600160405280602681526020016112e0602691396001600160a01b0386166000908152602081905260409020549190610f53565b6001600160a01b038085166000908152602081905260408082209390935590841681522054610f0b90826110d4565b6001600160a01b0380841660008181526020818152604091829020949094558051858152905191939287169260008051602061132e83398151915292918290030190a3505050565b60008184841115610fe25760405162461bcd60e51b81526004018080602001828103825283818151815260200191508051906020019080838360005b83811015610fa7578181015183820152602001610f8f565b50505050905090810190601f168015610fd45780820380516001836020036101000a031916815260200191505b509250505060405180910390fd5b505050900390565b6001600160a01b03821661102f5760405162461bcd60e51b815260040180806020018281038252602181526020018061134e6021913960400191505060405180910390fd5b61103b82600083611211565b6110788160405180606001604052806022815260200161129c602291396001600160a01b0385166000908152602081905260409020549190610f53565b6001600160a01b03831660009081526020819052604090205560025461109e9082611216565b6002556040805182815290516000916001600160a01b0385169160008051602061132e8339815191529181900360200190a35050565b60008282018381101561112c576040805162461bcd60e51b815260206004820152601b60248201527a536166654d6174683a206164646974696f6e206f766572666c6f7760281b604482015290519081900360640190fd5b9392505050565b6001600160a01b03821661118e576040805162461bcd60e51b815260206004820152601f60248201527f45524332303a206d696e7420746f20746865207a65726f206164647265737300604482015290519081900360640190fd5b61119a60008383611211565b6002546111a790826110d4565b6002556001600160a01b0382166000908152602081905260409020546111cd90826110d4565b6001600160a01b03831660008181526020818152604080832094909455835185815293519293919260008051602061132e8339815191529281900390910190a35050565b505050565b600061112c83836040518060400160405280601e81526020017f536166654d6174683a207375627472616374696f6e206f766572666c6f770000815250610f5356fe43616c6c6572206973206e6f7420746865206f776e657200000000000000000045524332303a207472616e7366657220746f20746865207a65726f206164647265737345524332303a206275726e20616d6f756e7420657863656564732062616c616e636545524332303a20617070726f766520746f20746865207a65726f206164647265737345524332303a207472616e7366657220616d6f756e7420657863656564732062616c616e636545524332303a207472616e7366657220616d6f756e74206578636565647320616c6c6f77616e6365ddf252ad1be2c89b69c2b068fc378daa952ba7f163c4a11628f55a4df523b3ef45524332303a206275726e2066726f6d20746865207a65726f206164647265737345524332303a207472616e736665722066726f6d20746865207a65726f206164647265737345524332303a20617070726f76652066726f6d20746865207a65726f206164647265737345524332303a2064656372656173656420616c6c6f77616e63652062656c6f77207a65726fa26469706673582212206a3bb27011f532f77a54eecfd406525134e0ca76def59822cbb2713319ce0a9764736f6c634300060c0033",
  "devdoc": {
    "details": "Implementation of the {IERC20} interface. This implementation is agnostic to the way tokens are created. This means that a supply mechanism has to be added in a derived contract using {_mint}. For a generic mechanism see {ERC20PresetMinterPauser}. TIP: For a detailed writeup see our guide https://forum.zeppelin.solutions/t/how-to-implement-erc20-supply-mechanisms/226[How to implement supply mechanisms]. We have followed general OpenZeppelin guidelines: functions revert instead of returning `false` on failure. This behavior is nonetheless conventional and does not conflict with the expectations of ERC20 applications. Additionally, an {Approval} event is emitted on calls to {transferFrom}. This allows applications to reconstruct the allowance for all accounts just by listening to said events. Other implementations of the EIP may not emit these events, as it isn't required by the specification. Finally, the non-standard {decreaseAllowance} and {increaseAllowance} functions have been added to mitigate the well-known issues around setting allowances. See {IERC20-approve}.",
    "kind": "dev",
    "methods": {
      "allowance(address,address)": {
        "details": "See {IERC20-allowance}."
      },
      "approve(address,uint256)": {
        "details": "See {IERC20-approve}. Requirements: - `spender` cannot be the zero address."
      },
      "balanceOf(address)": {
        "details": "See {IERC20-balanceOf}."
      },
      "constructor": {
        "details": "Sets the values for {name} and {symbol}, initializes {decimals} with a default value of 18. To select a different value for {decimals}, use {_setupDecimals}. All three of these values are immutable: they can only be set once during construction."
      },
      "decimals()": {
        "details": "Returns the number of decimals used to get its user representation. For example, if `decimals` equals `2`, a balance of `505` tokens should be displayed to a user as `5,05` (`505 / 10 ** 2`). Tokens usually opt for a value of 18, imitating the relationship between Ether and Wei. This is the value {ERC20} uses, unless {_setupDecimals} is called. NOTE: This information is only used for _display_ purposes: it in no way affects any of the arithmetic of the contract, including {IERC20-balanceOf} and {IERC20-transfer}."
      },
      "decreaseAllowance(address,uint256)": {
        "details": "Atomically decreases the allowance granted to `spender` by the caller. This is an alternative to {approve} that can be used as a mitigation for problems described in {IERC20-approve}. Emits an {Approval} event indicating the updated allowance. Requirements: - `spender` cannot be the zero address. - `spender` must have allowance for the caller of at least `subtractedValue`."
      },
      "increaseAllowance(address,uint256)": {
        "details": "Atomically increases the allowance granted to `spender` by the caller. This is an alternative to {approve} that can be used as a mitigation for problems described in {IERC20-approve}. Emits an {Approval} event indicating the updated allowance. Requirements: - `spender` cannot be the zero address."
      },
      "name()": {
        "details": "Returns the name of the token."
      },
      "symbol()": {
        "details": "Returns the symbol of the token, usually a shorter version of the name."
      },
      "totalSupply()": {
        "details": "See {IERC20-totalSupply}."
      },
      "transfer(address,uint256)": {
        "details": "See {IERC20-transfer}. Requirements: - `recipient` cannot be the zero address. - the caller must have a balance of at least `amount`."
      },
      "transferFrom(address,address,uint256)": {
        "details": "See {IERC20-transferFrom}. Emits an {Approval} event indicating the updated allowance. This is not required by the EIP. See the note at the beginning of {ERC20}. Requirements: - `sender` and `recipient` cannot be the zero address. - `sender` must have a balance of at least `amount`. - the caller must have allowance for ``sender``'s tokens of at least `amount`."
      }
    },
    "version": 1
  },
  "userdoc": {
    "kind": "user",
    "methods": {},
    "version": 1
  },
  "storageLayout": {
    "storage": [
      {
        "astId": 15466,
        "contract": "contracts/mock/Token.sol:Token",
        "label": "_balances",
        "offset": 0,
        "slot": "0",
        "type": "t_mapping(t_address,t_uint256)"
      },
      {
        "astId": 15472,
        "contract": "contracts/mock/Token.sol:Token",
        "label": "_allowances",
        "offset": 0,
        "slot": "1",
        "type": "t_mapping(t_address,t_mapping(t_address,t_uint256))"
      },
      {
        "astId": 15474,
        "contract": "contracts/mock/Token.sol:Token",
        "label": "_totalSupply",
        "offset": 0,
        "slot": "2",
        "type": "t_uint256"
      },
      {
        "astId": 15476,
        "contract": "contracts/mock/Token.sol:Token",
        "label": "_name",
        "offset": 0,
        "slot": "3",
        "type": "t_string_storage"
      },
      {
        "astId": 15478,
        "contract": "contracts/mock/Token.sol:Token",
        "label": "_symbol",
        "offset": 0,
        "slot": "4",
        "type": "t_string_storage"
      },
      {
        "astId": 15480,
        "contract": "contracts/mock/Token.sol:Token",
        "label": "_decimals",
        "offset": 0,
        "slot": "5",
        "type": "t_uint8"
      },
      {
        "astId": 15482,
        "contract": "contracts/mock/Token.sol:Token",
        "label": "_owner",
        "offset": 1,
        "slot": "5",
        "type": "t_address"
      },
      {
        "astId": 15484,
        "contract": "contracts/mock/Token.sol:Token",
        "label": "interval",
        "offset": 0,
        "slot": "6",
        "type": "t_uint256"
      },
      {
        "astId": 15486,
        "contract": "contracts/mock/Token.sol:Token",
        "label": "faucetTotal",
        "offset": 0,
        "slot": "7",
        "type": "t_uint256"
      },
      {
        "astId": 15488,
        "contract": "contracts/mock/Token.sol:Token",
        "label": "faucetAmount",
        "offset": 0,
        "slot": "8",
        "type": "t_uint256"
      },
      {
        "astId": 15490,
        "contract": "contracts/mock/Token.sol:Token",
        "label": "giveawayTotal",
        "offset": 0,
        "slot": "9",
        "type": "t_uint256"
      },
      {
        "astId": 15493,
        "contract": "contracts/mock/Token.sol:Token",
        "label": "faucetEnabled",
        "offset": 0,
        "slot": "10",
        "type": "t_bool"
      },
      {
        "astId": 15496,
        "contract": "contracts/mock/Token.sol:Token",
        "label": "openMint",
        "offset": 1,
        "slot": "10",
        "type": "t_bool"
      },
      {
        "astId": 15500,
        "contract": "contracts/mock/Token.sol:Token",
        "label": "accountLastTime",
        "offset": 0,
        "slot": "11",
        "type": "t_mapping(t_address,t_uint256)"
      }
    ],
    "types": {
      "t_address": {
        "encoding": "inplace",
        "label": "address",
        "numberOfBytes": "20"
      },
      "t_bool": {
        "encoding": "inplace",
        "label": "bool",
        "numberOfBytes": "1"
      },
      "t_mapping(t_address,t_mapping(t_address,t_uint256))": {
        "encoding": "mapping",
        "key": "t_address",
        "label": "mapping(address => mapping(address => uint256))",
        "numberOfBytes": "32",
        "value": "t_mapping(t_address,t_uint256)"
      },
      "t_mapping(t_address,t_uint256)": {
        "encoding": "mapping",
        "key": "t_address",
        "label": "mapping(address => uint256)",
        "numberOfBytes": "32",
        "value": "t_uint256"
      },
      "t_string_storage": {
        "encoding": "bytes",
        "label": "string",
        "numberOfBytes": "32"
      },
      "t_uint256": {
        "encoding": "inplace",
        "label": "uint256",
        "numberOfBytes": "32"
      },
      "t_uint8": {
        "encoding": "inplace",
        "label": "uint8",
        "numberOfBytes": "1"
      }
    }
  }
}