{
  "address": "0x4ed7c70F96B99c776995fB64377f0d4aB3B0e1C1",
  "abi": [
    {
      "inputs": [
        {
          "internalType": "address",
          "name": "_vault",
          "type": "address"
        },
        {
          "internalType": "address",
          "name": "_usdm",
          "type": "address"
        },
        {
          "internalType": "address",
          "name": "_mlp",
          "type": "address"
        },
        {
          "internalType": "address",
          "name": "_shortsTracker",
          "type": "address"
        },
        {
          "internalType": "uint256",
          "name": "_cooldownDuration",
          "type": "uint256"
        }
      ],
      "stateMutability": "nonpayable",
      "type": "constructor"
    },
    {
      "inputs": [
        {
          "internalType": "address",
          "name": "_token",
          "type": "address"
        },
        {
          "internalType": "uint256",
          "name": "_amount",
          "type": "uint256"
        },
        {
          "internalType": "uint256",
          "name": "_minUsdm",
          "type": "uint256"
        },
        {
          "internalType": "uint256",
          "name": "_minMlp",
          "type": "uint256"
        }
      ],
      "name": "addLiquidity",
      "outputs": [
        {
          "internalType": "uint256",
          "name": "",
          "type": "uint256"
        }
      ],
      "stateMutability": "nonpayable",
      "type": "function"
    },
    {
      "inputs": [
        {
          "internalType": "address",
          "name": "_fundingAccount",
          "type": "address"
        },
        {
          "internalType": "address",
          "name": "_account",
          "type": "address"
        },
        {
          "internalType": "address",
          "name": "_token",
          "type": "address"
        },
        {
          "internalType": "uint256",
          "name": "_amount",
          "type": "uint256"
        },
        {
          "internalType": "uint256",
          "name": "_minUsdm",
          "type": "uint256"
        },
        {
          "internalType": "uint256",
          "name": "_minMlp",
          "type": "uint256"
        }
      ],
      "name": "addLiquidityForAccount",
      "outputs": [
        {
          "internalType": "uint256",
          "name": "",
          "type": "uint256"
        }
      ],
      "stateMutability": "nonpayable",
      "type": "function"
    },
    {
      "inputs": [],
      "name": "aumAddition",
      "outputs": [
        {
          "internalType": "uint256",
          "name": "",
          "type": "uint256"
        }
      ],
      "stateMutability": "view",
      "type": "function"
    },
    {
      "inputs": [],
      "name": "aumDeduction",
      "outputs": [
        {
          "internalType": "uint256",
          "name": "",
          "type": "uint256"
        }
      ],
      "stateMutability": "view",
      "type": "function"
    },
    {
      "inputs": [],
      "name": "cooldownDuration",
      "outputs": [
        {
          "internalType": "uint256",
          "name": "",
          "type": "uint256"
        }
      ],
      "stateMutability": "view",
      "type": "function"
    },
    {
      "inputs": [
        {
          "internalType": "bool",
          "name": "maximise",
          "type": "bool"
        }
      ],
      "name": "getAum",
      "outputs": [
        {
          "internalType": "uint256",
          "name": "",
          "type": "uint256"
        }
      ],
      "stateMutability": "view",
      "type": "function"
    },
    {
      "inputs": [
        {
          "internalType": "bool",
          "name": "maximise",
          "type": "bool"
        }
      ],
      "name": "getAumInUsdm",
      "outputs": [
        {
          "internalType": "uint256",
          "name": "",
          "type": "uint256"
        }
      ],
      "stateMutability": "view",
      "type": "function"
    },
    {
      "inputs": [
        {
          "internalType": "address",
          "name": "_token",
          "type": "address"
        }
      ],
      "name": "getGlobalShortAveragePrice",
      "outputs": [
        {
          "internalType": "uint256",
          "name": "",
          "type": "uint256"
        }
      ],
      "stateMutability": "view",
      "type": "function"
    },
    {
      "inputs": [
        {
          "internalType": "address",
          "name": "_token",
          "type": "address"
        },
        {
          "internalType": "uint256",
          "name": "_price",
          "type": "uint256"
        },
        {
          "internalType": "uint256",
          "name": "_size",
          "type": "uint256"
        }
      ],
      "name": "getGlobalShortDelta",
      "outputs": [
        {
          "internalType": "uint256",
          "name": "",
          "type": "uint256"
        },
        {
          "internalType": "bool",
          "name": "",
          "type": "bool"
        }
      ],
      "stateMutability": "view",
      "type": "function"
    },
    {
      "inputs": [],
      "name": "gov",
      "outputs": [
        {
          "internalType": "address",
          "name": "",
          "type": "address"
        }
      ],
      "stateMutability": "view",
      "type": "function"
    },
    {
      "inputs": [],
      "name": "inPrivateMode",
      "outputs": [
        {
          "internalType": "bool",
          "name": "",
          "type": "bool"
        }
      ],
      "stateMutability": "view",
      "type": "function"
    },
    {
      "inputs": [
        {
          "internalType": "address",
          "name": "",
          "type": "address"
        }
      ],
      "name": "isHandler",
      "outputs": [
        {
          "internalType": "bool",
          "name": "",
          "type": "bool"
        }
      ],
      "stateMutability": "view",
      "type": "function"
    },
    {
      "inputs": [
        {
          "internalType": "address",
          "name": "",
          "type": "address"
        }
      ],
      "name": "lastAddedAt",
      "outputs": [
        {
          "internalType": "uint256",
          "name": "",
          "type": "uint256"
        }
      ],
      "stateMutability": "view",
      "type": "function"
    },
    {
      "inputs": [],
      "name": "mlp",
      "outputs": [
        {
          "internalType": "address",
          "name": "",
          "type": "address"
        }
      ],
      "stateMutability": "view",
      "type": "function"
    },
    {
      "inputs": [
        {
          "internalType": "address",
          "name": "_tokenOut",
          "type": "address"
        },
        {
          "internalType": "uint256",
          "name": "_mlpAmount",
          "type": "uint256"
        },
        {
          "internalType": "uint256",
          "name": "_minOut",
          "type": "uint256"
        },
        {
          "internalType": "address",
          "name": "_receiver",
          "type": "address"
        }
      ],
      "name": "removeLiquidity",
      "outputs": [
        {
          "internalType": "uint256",
          "name": "",
          "type": "uint256"
        }
      ],
      "stateMutability": "nonpayable",
      "type": "function"
    },
    {
      "inputs": [
        {
          "internalType": "address",
          "name": "_account",
          "type": "address"
        },
        {
          "internalType": "address",
          "name": "_tokenOut",
          "type": "address"
        },
        {
          "internalType": "uint256",
          "name": "_mlpAmount",
          "type": "uint256"
        },
        {
          "internalType": "uint256",
          "name": "_minOut",
          "type": "uint256"
        },
        {
          "internalType": "address",
          "name": "_receiver",
          "type": "address"
        }
      ],
      "name": "removeLiquidityForAccount",
      "outputs": [
        {
          "internalType": "uint256",
          "name": "",
          "type": "uint256"
        }
      ],
      "stateMutability": "nonpayable",
      "type": "function"
    },
    {
      "inputs": [
        {
          "internalType": "uint256",
          "name": "_aumAddition",
          "type": "uint256"
        },
        {
          "internalType": "uint256",
          "name": "_aumDeduction",
          "type": "uint256"
        }
      ],
      "name": "setAumAdjustment",
      "outputs": [],
      "stateMutability": "nonpayable",
      "type": "function"
    },
    {
      "inputs": [
        {
          "internalType": "uint256",
          "name": "_cooldownDuration",
          "type": "uint256"
        }
      ],
      "name": "setCooldownDuration",
      "outputs": [],
      "stateMutability": "nonpayable",
      "type": "function"
    },
    {
      "inputs": [
        {
          "internalType": "address",
          "name": "_gov",
          "type": "address"
        }
      ],
      "name": "setGov",
      "outputs": [],
      "stateMutability": "nonpayable",
      "type": "function"
    },
    {
      "inputs": [
        {
          "internalType": "address",
          "name": "_handler",
          "type": "address"
        },
        {
          "internalType": "bool",
          "name": "_isActive",
          "type": "bool"
        }
      ],
      "name": "setHandler",
      "outputs": [],
      "stateMutability": "nonpayable",
      "type": "function"
    },
    {
      "inputs": [
        {
          "internalType": "bool",
          "name": "_inPrivateMode",
          "type": "bool"
        }
      ],
      "name": "setInPrivateMode",
      "outputs": [],
      "stateMutability": "nonpayable",
      "type": "function"
    },
    {
      "inputs": [
        {
          "internalType": "uint256",
          "name": "_shortsTrackerAveragePriceWeight",
          "type": "uint256"
        }
      ],
      "name": "setShortsTrackerAveragePriceWeight",
      "outputs": [],
      "stateMutability": "nonpayable",
      "type": "function"
    },
    {
      "inputs": [],
      "name": "shortsTracker",
      "outputs": [
        {
          "internalType": "contract IShortsTracker",
          "name": "",
          "type": "address"
        }
      ],
      "stateMutability": "view",
      "type": "function"
    },
    {
      "inputs": [],
      "name": "shortsTrackerAveragePriceWeight",
      "outputs": [
        {
          "internalType": "uint256",
          "name": "",
          "type": "uint256"
        }
      ],
      "stateMutability": "view",
      "type": "function"
    },
    {
      "inputs": [],
      "name": "usdm",
      "outputs": [
        {
          "internalType": "address",
          "name": "",
          "type": "address"
        }
      ],
      "stateMutability": "view",
      "type": "function"
    },
    {
      "inputs": [],
      "name": "vault",
      "outputs": [
        {
          "internalType": "contract IVault",
          "name": "",
          "type": "address"
        }
      ],
      "stateMutability": "view",
      "type": "function"
    }
  ],
  "transactionHash": "0xf927b1e3761decaf6b173289dc76fe7c58cfea4769d37aad336e6714ae37ae84",
  "args": [
    "0x5FbDB2315678afecb367f032d93F642f64180aa3",
    "0xe7f1725E7734CE288F8367e1Bb143E90bb3F0512",
    "0x59b670e9fA9D0A427751Af201D676719a970857b",
    "0x0000000000000000000000000000000000000000",
    0
  ],
  "numDeployments": 1,
  "solcInputHash": "1fb095c2a8736afe292bad1aa4a33281",
  "bytecode": "0x608060405234801561001057600080fd5b50604051612761380380612761833981810160405260a081101561003357600080fd5b5080516020820151604083015160608401516080909401516001600081905580546001600160a01b031990811633908117821617909155600280546001600160a01b03968716908316179055600380549486169482169490941790935560048054928516928416929092179091556005805493909416929091169190911790915560085561269b806100c66000396000f3fe608060405234801561001057600080fd5b506004361061013e5760003560e01c80630339147614610143578063070eacee1461017457806312d43a511461019057806317eb2a15146101b4578063196b68cb146101fc5780631ece366a14610204578063352693151461023c5780633e49e21314610244578063429e8fad1461024c578063440d828a1461026b57806346ea87af146102915780634f5f6b5e146102b757806364e6617f146102d6578063657bc5d0146102de5780636a86da19146102e657806371d597ad146103055780638b770e11146103495780638fed0b2c1461036f5780639116c4ae146103a9578063966be075146103cc5780639cb7de4b146103e9578063a1acd3d514610417578063b172bb0c14610462578063cfad57a21461046a578063ee138d0f14610490578063fbfa77cf14610498575b600080fd5b6101626004803603602081101561015957600080fd5b503515156104a0565b60408051918252519081900360200190f35b61017c610b1e565b604080519115158252519081900360200190f35b610198610b2e565b604080516001600160a01b039092168252519081900360200190f35b610162600480360360c08110156101ca57600080fd5b506001600160a01b03813581169160208101358216916040820135169060608101359060808101359060a00135610b3d565b610162610bb0565b6101626004803603608081101561021a57600080fd5b506001600160a01b038135169060208101359060408101359060600135610bb6565b610162610cd9565b610198610cdf565b6101626004803603602081101561026257600080fd5b50351515610cee565b6101626004803603602081101561028157600080fd5b50356001600160a01b0316610d25565b61017c600480360360208110156102a757600080fd5b50356001600160a01b0316611036565b6102d4600480360360208110156102cd57600080fd5b503561104b565b005b610162611125565b61019861112b565b6102d4600480360360208110156102fc57600080fd5b5035151561113a565b610162600480360360a081101561031b57600080fd5b506001600160a01b0381358116916020810135821691604082013591606081013591608090910135166111a5565b6101626004803603602081101561035f57600080fd5b50356001600160a01b0316611216565b6101626004803603608081101561038557600080fd5b506001600160a01b0381358116916020810135916040820135916060013516611228565b6102d4600480360360408110156103bf57600080fd5b50803590602001356112fa565b6102d4600480360360208110156103e257600080fd5b5035611352565b6102d4600480360360408110156103ff57600080fd5b506001600160a01b0381351690602001351515611411565b6104496004803603606081101561042d57600080fd5b506001600160a01b038135169060208101359060400135611489565b6040805192835290151560208301528051918290030190f35b6101626114dd565b6102d46004803603602081101561048057600080fd5b50356001600160a01b03166114e3565b610198611552565b610198611561565b600080600260009054906101000a90046001600160a01b03166001600160a01b0316630842b0766040518163ffffffff1660e01b815260040160206040518083038186803b1580156104f157600080fd5b505afa158015610505573d6000803e3d6000fd5b505050506040513d602081101561051b57600080fd5b5051600954600254919250906000906001600160a01b0316815b84811015610ad75760025460408051630e468baf60e41b81526004810184905290516000926001600160a01b03169163e468baf0916024808301926020929190829003018186803b15801561058957600080fd5b505afa15801561059d573d6000803e3d6000fd5b505050506040513d60208110156105b357600080fd5b505160025460408051630daf9c2160e41b81526001600160a01b0380851660048301529151939450600093919092169163daf9c210916024808301926020929190829003018186803b15801561060857600080fd5b505afa15801561061c573d6000803e3d6000fd5b505050506040513d602081101561063257600080fd5b5051905080610642575050610acf565b6000896106c757846001600160a01b03166381a612d6846040518263ffffffff1660e01b815260040180826001600160a01b0316815260200191505060206040518083038186803b15801561069657600080fd5b505afa1580156106aa573d6000803e3d6000fd5b505050506040513d60208110156106c057600080fd5b5051610741565b846001600160a01b031663e124e6d2846040518263ffffffff1660e01b815260040180826001600160a01b0316815260200191505060206040518083038186803b15801561071457600080fd5b505afa158015610728573d6000803e3d6000fd5b505050506040513d602081101561073e57600080fd5b50515b90506000856001600160a01b03166352f55eed856040518263ffffffff1660e01b815260040180826001600160a01b0316815260200191505060206040518083038186803b15801561079257600080fd5b505afa1580156107a6573d6000803e3d6000fd5b505050506040513d60208110156107bc57600080fd5b5051604080516323b95ceb60e21b81526001600160a01b038781166004830152915192935060009291891691638ee573ac91602480820192602092909190829003018186803b15801561080e57600080fd5b505afa158015610822573d6000803e3d6000fd5b505050506040513d602081101561083857600080fd5b5051604080516342b60b0360e01b81526001600160a01b0388811660048301529151929350908916916342b60b0391602480820192602092909190829003018186803b15801561088757600080fd5b505afa15801561089b573d6000803e3d6000fd5b505050506040513d60208110156108b157600080fd5b5051156108e1576108da6108d3600a83900a6108cd8587611570565b906115d2565b8a90611611565b9850610ac9565b6000876001600160a01b0316638a78daa8876040518263ffffffff1660e01b815260040180826001600160a01b0316815260200191505060206040518083038186803b15801561093057600080fd5b505afa158015610944573d6000803e3d6000fd5b505050506040513d602081101561095a57600080fd5b50519050801561099c57600080610972888785611489565b915091508061098c576109858c83611611565b9b50610999565b6109968b83611611565b9a505b50505b610a1f886001600160a01b031663f07456ce886040518263ffffffff1660e01b815260040180826001600160a01b0316815260200191505060206040518083038186803b1580156109ec57600080fd5b505afa158015610a00573d6000803e3d6000fd5b505050506040513d6020811015610a1657600080fd5b50518b90611611565b99506000886001600160a01b031663c3c7b9e9886040518263ffffffff1660e01b815260040180826001600160a01b0316815260200191505060206040518083038186803b158015610a7057600080fd5b505afa158015610a84573d6000803e3d6000fd5b505050506040513d6020811015610a9a57600080fd5b50519050610ac4610abd600a85900a6108cd88610ab78987611669565b90611570565b8c90611611565b9a5050505b50505050505b600101610535565b50828211610aee57610ae98383611669565b610af1565b60005b925082600a5411610b0f57600a54610b0a908490611669565b610b12565b60005b9450505050505b919050565b600554600160a01b900460ff1681565b6001546001600160a01b031681565b600060026000541415610b85576040805162461bcd60e51b815260206004820152601f60248201526000805160206124fd833981519152604482015290519081900360640190fd5b6002600055610b926116ab565b610ba087878787878761173c565b6001600055979650505050505050565b60095481565b600060026000541415610bfe576040805162461bcd60e51b815260206004820152601f60248201526000805160206124fd833981519152604482015290519081900360640190fd5b6002600055600554600160a01b900460ff1615610cbd576040518060400160405280601e81526020016000805160206125d883398151915281525060405162461bcd60e51b81526004018080602001828103825283818151815260200191508051906020019080838360005b83811015610c82578181015183820152602001610c6a565b50505050905090810190601f168015610caf5780820380516001836020036101000a031916815260200191505b509250505060405180910390fd5b610ccb33338787878761173c565b600160005595945050505050565b60085481565b6004546001600160a01b031681565b600080610cfa836104a0565b9050610d1e68327cb2734119d3b7a9601e1b6108cd83670de0b6b3a7640000611570565b9392505050565b6005546000906001600160a01b0316801580610da35750806001600160a01b0316639a11178f6040518163ffffffff1660e01b815260040160206040518083038186803b158015610d7557600080fd5b505afa158015610d89573d6000803e3d6000fd5b505050506040513d6020811015610d9f57600080fd5b5051155b15610e2a5760025460408051636274980360e01b81526001600160a01b038681166004830152915191909216916362749803916024808301926020929190829003018186803b158015610df557600080fd5b505afa158015610e09573d6000803e3d6000fd5b505050506040513d6020811015610e1f57600080fd5b50519150610b199050565b60065480610eb55760025460408051636274980360e01b81526001600160a01b038781166004830152915191909216916362749803916024808301926020929190829003018186803b158015610e7f57600080fd5b505afa158015610e93573d6000803e3d6000fd5b505050506040513d6020811015610ea957600080fd5b50519250610b19915050565b612710811415610f0c57816001600160a01b03166362749803856040518263ffffffff1660e01b815260040180826001600160a01b0316815260200191505060206040518083038186803b158015610e7f57600080fd5b60025460408051636274980360e01b81526001600160a01b03878116600483015291516000939290921691636274980391602480820192602092909190829003018186803b158015610f5d57600080fd5b505afa158015610f71573d6000803e3d6000fd5b505050506040513d6020811015610f8757600080fd5b505160408051636274980360e01b81526001600160a01b038881166004830152915192935060009291861691636274980391602480820192602092909190829003018186803b158015610fd957600080fd5b505afa158015610fed573d6000803e3d6000fd5b505050506040513d602081101561100357600080fd5b50519050610b126127106108cd61101a8487611570565b61103061102961271089611669565b8790611570565b90611611565b60076020526000908152604090205460ff1681565b6001546001600160a01b03163314611098576040805162461bcd60e51b8152602060048201526015602482015260008051602061251d833981519152604482015290519081900360640190fd5b61271060065411156040518060400160405280601a815260200179135b1c13585b9859d95c8e881a5b9d985b1a59081dd95a59da1d60321b8152509061111f5760405162461bcd60e51b8152602060048201818152835160248401528351909283926044909101919085019080838360008315610c82578181015183820152602001610c6a565b50600655565b60065481565b6005546001600160a01b031681565b6001546001600160a01b03163314611187576040805162461bcd60e51b8152602060048201526015602482015260008051602061251d833981519152604482015290519081900360640190fd5b60058054911515600160a01b0260ff60a01b19909216919091179055565b6000600260005414156111ed576040805162461bcd60e51b815260206004820152601f60248201526000805160206124fd833981519152604482015290519081900360640190fd5b60026000556111fa6116ab565b6112078686868686611b48565b60016000559695505050505050565b600b6020526000908152604090205481565b600060026000541415611270576040805162461bcd60e51b815260206004820152601f60248201526000805160206124fd833981519152604482015290519081900360640190fd5b6002600055600554600160a01b900460ff16156112ed57604080518082018252601e81526000805160206125d88339815191526020808301918252925162461bcd60e51b81526004810193845282516024820152825192939283926044909201919080838360008315610c82578181015183820152602001610c6a565b610ccb3386868686611b48565b6001546001600160a01b03163314611347576040805162461bcd60e51b8152602060048201526015602482015260008051602061251d833981519152604482015290519081900360640190fd5b600991909155600a55565b6001546001600160a01b0316331461139f576040805162461bcd60e51b8152602060048201526015602482015260008051602061251d833981519152604482015290519081900360640190fd5b6202a30081111560405180606001604052806025815260200161258f602591399061140b5760405162461bcd60e51b8152602060048201818152835160248401528351909283926044909101919085019080838360008315610c82578181015183820152602001610c6a565b50600855565b6001546001600160a01b0316331461145e576040805162461bcd60e51b8152602060048201526015602482015260008051602061251d833981519152604482015290519081900360640190fd5b6001600160a01b03919091166000908152600760205260409020805460ff1916911515919091179055565b600080600061149786610d25565b905060008582116114b1576114ac8683611669565b6114bb565b6114bb8287611669565b905060006114cd836108cd8885611570565b9450505084109050935093915050565b600a5481565b6001546001600160a01b03163314611530576040805162461bcd60e51b8152602060048201526015602482015260008051602061251d833981519152604482015290519081900360640190fd5b600180546001600160a01b0319166001600160a01b0392909216919091179055565b6003546001600160a01b031681565b6002546001600160a01b031681565b60008261157f575060006115cc565b8282028284828161158c57fe5b04146115c95760405162461bcd60e51b81526004018080602001828103825260218152602001806125f86021913960400191505060405180910390fd5b90505b92915050565b60006115c983836040518060400160405280601a815260200179536166654d6174683a206469766973696f6e206279207a65726f60301b815250612075565b6000828201838110156115c9576040805162461bcd60e51b815260206004820152601b60248201527a536166654d6174683a206164646974696f6e206f766572666c6f7760281b604482015290519081900360640190fd5b60006115c983836040518060400160405280601e81526020017f536166654d6174683a207375627472616374696f6e206f766572666c6f7700008152506120da565b33600090815260076020908152604091829020548251808401909352601583527426b63826b0b730b3b2b91d103337b93134b23232b760591b9183019190915260ff166117395760405162461bcd60e51b8152602060048201818152835160248401528351909283926044909101919085019080838360008315610c82578181015183820152602001610c6a565b50565b60008084116040518060400160405280601b81526020017a135b1c13585b9859d95c8e881a5b9d985b1a590817d85b5bdd5b9d602a1b815250906117c15760405162461bcd60e51b8152602060048201818152835160248401528351909283926044909101919085019080838360008315610c82578181015183820152602001610c6a565b5060006117ce6001610cee565b90506000600460009054906101000a90046001600160a01b03166001600160a01b03166318160ddd6040518163ffffffff1660e01b815260040160206040518083038186803b15801561182057600080fd5b505afa158015611834573d6000803e3d6000fd5b505050506040513d602081101561184a57600080fd5b505160025490915061186b906001600160a01b03898116918c911689612134565b600254604080516386284f5f60e01b81526001600160a01b038a81166004830152306024830152915160009392909216916386284f5f9160448082019260209290919082900301818787803b1580156118c357600080fd5b505af11580156118d7573d6000803e3d6000fd5b505050506040513d60208110156118ed57600080fd5b50516040805160608101909152602480825291925087831015916125b460208301399061195b5760405162461bcd60e51b8152602060048201818152835160248401528351909283926044909101919085019080838360008315610c82578181015183820152602001610c6a565b506000831580611969575082155b6119805761197b846108cd8486611570565b611982565b815b90506119b46040518060400160405280600e81526020016d11919036b4b73a20b6b7bab73a1d60911b81525082612194565b6119e16040518060400160405280600b81526020016a1191902fb6b4b726b6381d60a91b81525087612194565b858110156040518060600160405280602381526020016126196023913990611a4a5760405162461bcd60e51b8152602060048201818152835160248401528351909283926044909101919085019080838360008315610c82578181015183820152602001610c6a565b5060048054604080516340c10f1960e01b81526001600160a01b038e81169482019490945260248101859052905192909116916340c10f199160448082019260009290919082900301818387803b158015611aa457600080fd5b505af1158015611ab8573d6000803e3d6000fd5b5050506001600160a01b03808c166000818152600b60209081526040918290204290558151928352928d16928201929092528082018b9052606081018790526080810186905260a0810185905260c0810184905290517f38dc38b96482be64113daffd8d464ebda93e856b70ccfc605e69ccf892ab981e92509081900360e00190a19a9950505050505050505050565b60008084116040518060400160405280601e81526020017f4d6c704d616e616765723a20696e76616c6964205f6d6c70416d6f756e74000081525090611bcf5760405162461bcd60e51b8152602060048201818152835160248401528351909283926044909101919085019080838360008315610c82578181015183820152602001610c6a565b506008546001600160a01b0387166000908152600b60205260409020544291611bf89190611611565b11156040518060600160405280602c815260200161253d602c913990611c5f5760405162461bcd60e51b8152602060048201818152835160248401528351909283926044909101919085019080838360008315610c82578181015183820152602001610c6a565b506000611c6c6000610cee565b90506000600460009054906101000a90046001600160a01b03166001600160a01b03166318160ddd6040518163ffffffff1660e01b815260040160206040518083038186803b158015611cbe57600080fd5b505afa158015611cd2573d6000803e3d6000fd5b505050506040513d6020811015611ce857600080fd5b505190506000611cfc826108cd8986611570565b600354604080516370a0823160e01b815230600482015290519293506000926001600160a01b03909216916370a0823191602480820192602092909190829003018186803b158015611d4d57600080fd5b505afa158015611d61573d6000803e3d6000fd5b505050506040513d6020811015611d7757600080fd5b5051905080821115611dfe576003546001600160a01b03166340c10f1930611d9f8585611669565b6040518363ffffffff1660e01b815260040180836001600160a01b0316815260200182815260200192505050600060405180830381600087803b158015611de557600080fd5b505af1158015611df9573d6000803e3d6000fd5b505050505b6004805460408051632770a7eb60e21b81526001600160a01b038e811694820194909452602481018c905290519290911691639dc29fac9160448082019260009290919082900301818387803b158015611e5757600080fd5b505af1158015611e6b573d6000803e3d6000fd5b50506003546002546040805163a9059cbb60e01b81526001600160a01b03928316600482015260248101889052905191909216935063a9059cbb925060448083019260209291908290030181600087803b158015611ec857600080fd5b505af1158015611edc573d6000803e3d6000fd5b505050506040513d6020811015611ef257600080fd5b505060025460408051630125149f60e31b81526001600160a01b038c81166004830152898116602483015291516000939290921691630928a4f89160448082019260209290919082900301818787803b158015611f4e57600080fd5b505af1158015611f62573d6000803e3d6000fd5b505050506040513d6020811015611f7857600080fd5b505160408051808201909152601f81527f4d6c704d616e616765723a20696e73756666696369656e74206f7574707574006020820152909150888210156120005760405162461bcd60e51b8152602060048201818152835160248401528351909283926044909101919085019080838360008315610c82578181015183820152602001610c6a565b50604080516001600160a01b03808e1682528c1660208201528082018b9052606081018790526080810186905260a0810185905260c0810183905290517f87b9679bb9a4944bafa98c267e7cd4a00ab29fed48afdefae25f0fca5da279409181900360e00190a19a9950505050505050505050565b600081836120c45760405162461bcd60e51b8152602060048201818152835160248401528351909283926044909101919085019080838360008315610c82578181015183820152602001610c6a565b5060008385816120d057fe5b0495945050505050565b6000818484111561212c5760405162461bcd60e51b8152602060048201818152835160248401528351909283926044909101919085019080838360008315610c82578181015183820152602001610c6a565b505050900390565b604080516001600160a01b0380861660248301528416604482015260648082018490528251808303909101815260849091019091526020810180516001600160e01b03166323b872dd60e01b17905261218e908590612246565b50505050565b61224282826040516024018080602001838152602001828103825284818151815260200191508051906020019080838360005b838110156121df5781810151838201526020016121c7565b50505050905090810190601f16801561220c5780820380516001836020036101000a031916815260200191505b5060408051601f198184030181529190526020810180516001600160e01b03166309710a9d60e41b17905293506122fc92505050565b5050565b606061229b826040518060400160405280602081526020017f5361666545524332303a206c6f772d6c6576656c2063616c6c206661696c6564815250856001600160a01b031661231d9092919063ffffffff16565b8051909150156122f7578080602001905160208110156122ba57600080fd5b50516122f75760405162461bcd60e51b815260040180806020018281038252602a81526020018061263c602a913960400191505060405180910390fd5b505050565b80516a636f6e736f6c652e6c6f67602083016000808483855afa5050505050565b606061232c8484600085612334565b949350505050565b6060824710156123755760405162461bcd60e51b81526004018080602001828103825260268152602001806125696026913960400191505060405180910390fd5b61237e85612490565b6123cf576040805162461bcd60e51b815260206004820152601d60248201527f416464726573733a2063616c6c20746f206e6f6e2d636f6e7472616374000000604482015290519081900360640190fd5b60006060866001600160a01b031685876040518082805190602001908083835b6020831061240e5780518252601f1990920191602091820191016123ef565b6001836020036101000a03801982511681845116808217855250505050505090500191505060006040518083038185875af1925050503d8060008114612470576040519150601f19603f3d011682016040523d82523d6000602084013e612475565b606091505b5091509150612485828286612496565b979650505050505050565b3b151590565b606083156124a5575081610d1e565b8251156124b55782518084602001fd5b60405162461bcd60e51b8152602060048201818152845160248401528451859391928392604401919085019080838360008315610c82578181015183820152602001610c6a56fe5265656e7472616e637947756172643a207265656e7472616e742063616c6c00476f7665726e61626c653a20666f7262696464656e00000000000000000000004d6c704d616e616765723a20636f6f6c646f776e206475726174696f6e206e6f742079657420706173736564416464726573733a20696e73756666696369656e742062616c616e636520666f722063616c6c4d6c704d616e616765723a20696e76616c6964205f636f6f6c646f776e4475726174696f6e4d6c704d616e616765723a20696e73756666696369656e74205553444d206f75747075744d6c704d616e616765723a20616374696f6e206e6f7420656e61626c65640000536166654d6174683a206d756c7469706c69636174696f6e206f766572666c6f774d6c704d616e616765723a20696e73756666696369656e74204d4c50206f75747075745361666545524332303a204552433230206f7065726174696f6e20646964206e6f742073756363656564a2646970667358221220c9a9bca9990a625b9a1679b3ae398af264195052cd79019e6f8491d5f993f4f864736f6c634300060c0033",
  "devdoc": {
    "kind": "dev",
    "methods": {},
    "version": 1
  },
  "userdoc": {
    "kind": "user",
    "methods": {},
    "version": 1
  },
  "storageLayout": {
    "storage": [
      {
        "astId": 15423,
        "contract": "contracts/core/MlpManager.sol:MlpManager",
        "label": "_status",
        "offset": 0,
        "slot": "0",
        "type": "t_uint256"
      },
      {
        "astId": 3,
        "contract": "contracts/core/MlpManager.sol:MlpManager",
        "label": "gov",
        "offset": 0,
        "slot": "1",
        "type": "t_address"
      },
      {
        "astId": 12367,
        "contract": "contracts/core/MlpManager.sol:MlpManager",
        "label": "vault",
        "offset": 0,
        "slot": "2",
        "type": "t_contract(IVault)7332"
      },
      {
        "astId": 12370,
        "contract": "contracts/core/MlpManager.sol:MlpManager",
        "label": "usdm",
        "offset": 0,
        "slot": "3",
        "type": "t_address"
      },
      {
        "astId": 12372,
        "contract": "contracts/core/MlpManager.sol:MlpManager",
        "label": "mlp",
        "offset": 0,
        "slot": "4",
        "type": "t_address"
      },
      {
        "astId": 12374,
        "contract": "contracts/core/MlpManager.sol:MlpManager",
        "label": "shortsTracker",
        "offset": 0,
        "slot": "5",
        "type": "t_contract(IShortsTracker)6696"
      },
      {
        "astId": 12376,
        "contract": "contracts/core/MlpManager.sol:MlpManager",
        "label": "inPrivateMode",
        "offset": 20,
        "slot": "5",
        "type": "t_bool"
      },
      {
        "astId": 12378,
        "contract": "contracts/core/MlpManager.sol:MlpManager",
        "label": "shortsTrackerAveragePriceWeight",
        "offset": 0,
        "slot": "6",
        "type": "t_uint256"
      },
      {
        "astId": 12382,
        "contract": "contracts/core/MlpManager.sol:MlpManager",
        "label": "isHandler",
        "offset": 0,
        "slot": "7",
        "type": "t_mapping(t_address,t_bool)"
      },
      {
        "astId": 12385,
        "contract": "contracts/core/MlpManager.sol:MlpManager",
        "label": "cooldownDuration",
        "offset": 0,
        "slot": "8",
        "type": "t_uint256"
      },
      {
        "astId": 12387,
        "contract": "contracts/core/MlpManager.sol:MlpManager",
        "label": "aumAddition",
        "offset": 0,
        "slot": "9",
        "type": "t_uint256"
      },
      {
        "astId": 12389,
        "contract": "contracts/core/MlpManager.sol:MlpManager",
        "label": "aumDeduction",
        "offset": 0,
        "slot": "10",
        "type": "t_uint256"
      },
      {
        "astId": 12400,
        "contract": "contracts/core/MlpManager.sol:MlpManager",
        "label": "lastAddedAt",
        "offset": 0,
        "slot": "11",
        "type": "t_mapping(t_address,t_uint256)"
      }
    ],
    "types": {
      "t_address": {
        "encoding": "inplace",
        "label": "address",
        "numberOfBytes": "20"
      },
      "t_bool": {
        "encoding": "inplace",
        "label": "bool",
        "numberOfBytes": "1"
      },
      "t_contract(IShortsTracker)6696": {
        "encoding": "inplace",
        "label": "contract IShortsTracker",
        "numberOfBytes": "20"
      },
      "t_contract(IVault)7332": {
        "encoding": "inplace",
        "label": "contract IVault",
        "numberOfBytes": "20"
      },
      "t_mapping(t_address,t_bool)": {
        "encoding": "mapping",
        "key": "t_address",
        "label": "mapping(address => bool)",
        "numberOfBytes": "32",
        "value": "t_bool"
      },
      "t_mapping(t_address,t_uint256)": {
        "encoding": "mapping",
        "key": "t_address",
        "label": "mapping(address => uint256)",
        "numberOfBytes": "32",
        "value": "t_uint256"
      },
      "t_uint256": {
        "encoding": "inplace",
        "label": "uint256",
        "numberOfBytes": "32"
      }
    }
  }
}