{
  "address": "0x0DCd1Bf9A1b36cE34237eEaFef220932846BCD82",
  "abi": [
    {
      "inputs": [],
      "stateMutability": "nonpayable",
      "type": "constructor"
    },
    {
      "inputs": [],
      "name": "gov",
      "outputs": [
        {
          "internalType": "address",
          "name": "",
          "type": "address"
        }
      ],
      "stateMutability": "view",
      "type": "function"
    },
    {
      "inputs": [
        {
          "internalType": "address",
          "name": "_router",
          "type": "address"
        },
        {
          "internalType": "address",
          "name": "_vault",
          "type": "address"
        },
        {
          "internalType": "address",
          "name": "_weth",
          "type": "address"
        },
        {
          "internalType": "address",
          "name": "_usdm",
          "type": "address"
        },
        {
          "internalType": "uint256",
          "name": "_minExecutionFee",
          "type": "uint256"
        },
        {
          "internalType": "uint256",
          "name": "_minPurchaseTokenAmountUsd",
          "type": "uint256"
        }
      ],
      "name": "initialize",
      "outputs": [],
      "stateMutability": "nonpayable",
      "type": "function"
    },
    {
      "inputs": [],
      "name": "isInitialized",
      "outputs": [
        {
          "internalType": "bool",
          "name": "",
          "type": "bool"
        }
      ],
      "stateMutability": "view",
      "type": "function"
    },
    {
      "inputs": [],
      "name": "minExecutionFee",
      "outputs": [
        {
          "internalType": "uint256",
          "name": "",
          "type": "uint256"
        }
      ],
      "stateMutability": "view",
      "type": "function"
    },
    {
      "inputs": [],
      "name": "minPurchaseTokenAmountUsd",
      "outputs": [
        {
          "internalType": "uint256",
          "name": "",
          "type": "uint256"
        }
      ],
      "stateMutability": "view",
      "type": "function"
    },
    {
      "inputs": [],
      "name": "router",
      "outputs": [
        {
          "internalType": "address",
          "name": "",
          "type": "address"
        }
      ],
      "stateMutability": "view",
      "type": "function"
    },
    {
      "inputs": [
        {
          "internalType": "address",
          "name": "_gov",
          "type": "address"
        }
      ],
      "name": "setGov",
      "outputs": [],
      "stateMutability": "nonpayable",
      "type": "function"
    },
    {
      "inputs": [
        {
          "internalType": "uint256",
          "name": "_minExecutionFee",
          "type": "uint256"
        }
      ],
      "name": "setMinExecutionFee",
      "outputs": [],
      "stateMutability": "nonpayable",
      "type": "function"
    },
    {
      "inputs": [
        {
          "internalType": "uint256",
          "name": "_minPurchaseTokenAmountUsd",
          "type": "uint256"
        }
      ],
      "name": "setMinPurchaseTokenAmountUsd",
      "outputs": [],
      "stateMutability": "nonpayable",
      "type": "function"
    },
    {
      "inputs": [],
      "name": "usdm",
      "outputs": [
        {
          "internalType": "address",
          "name": "",
          "type": "address"
        }
      ],
      "stateMutability": "view",
      "type": "function"
    },
    {
      "inputs": [],
      "name": "vault",
      "outputs": [
        {
          "internalType": "address",
          "name": "",
          "type": "address"
        }
      ],
      "stateMutability": "view",
      "type": "function"
    },
    {
      "inputs": [],
      "name": "weth",
      "outputs": [
        {
          "internalType": "address",
          "name": "",
          "type": "address"
        }
      ],
      "stateMutability": "view",
      "type": "function"
    },
    {
      "stateMutability": "payable",
      "type": "receive"
    }
  ],
  "transactionHash": "0x1a625ac0c8e8abd19aee16c8ec2036361c3dcce5cfec23f2a89fa5b2da955f3d",
  "args": [],
  "numDeployments": 1,
  "solcInputHash": "1fb095c2a8736afe292bad1aa4a33281",
  "bytecode": "0x60806040526001805460ff1916905534801561001a57600080fd5b506001600055600780546001600160a01b0319163317905561080c806100416000396000f3fe60806040526004361061009b5760003560e01c80630d5cc9381461016f57806312d43a511461019b578063392e53cd146101cc5780633fc8cef3146101f557806363ae21031461020a5780638de10c2e14610231578063cfad57a214610246578063d7c41c7914610279578063ee138d0f146102d2578063f887ea40146102e7578063fbfa77cf146102fc578063fc2cee62146103115761016a565b3661016a5760035460408051808201909152601981527827b93232b92137b7b59d1034b73b30b634b21039b2b73232b960391b6020820152906001600160a01b031633146101675760405162461bcd60e51b81526004018080602001828103825283818151815260200191508051906020019080838360005b8381101561012c578181015183820152602001610114565b50505050905090810190601f1680156101595780820380516001836020036101000a031916815260200191505b509250505060405180910390fd5b50005b600080fd5b34801561017b57600080fd5b506101996004803603602081101561019257600080fd5b503561033b565b005b3480156101a757600080fd5b506101b06103fc565b604080516001600160a01b039092168252519081900360200190f35b3480156101d857600080fd5b506101e161040b565b604080519115158252519081900360200190f35b34801561020157600080fd5b506101b0610414565b34801561021657600080fd5b5061021f610423565b60408051918252519081900360200190f35b34801561023d57600080fd5b5061021f610429565b34801561025257600080fd5b506101996004803603602081101561026957600080fd5b50356001600160a01b031661042f565b34801561028557600080fd5b50610199600480360360c081101561029c57600080fd5b506001600160a01b0381358116916020810135821691604082013581169160608101359091169060808101359060a00135610509565b3480156102de57600080fd5b506101b06106e3565b3480156102f357600080fd5b506101b06106f2565b34801561030857600080fd5b506101b0610706565b34801561031d57600080fd5b506101996004803603602081101561033457600080fd5b5035610715565b60075460408051808201909152601481527327b93232b92137b7b59d103337b93134b23232b760611b6020820152906001600160a01b031633146103c05760405162461bcd60e51b815260206004820181815283516024840152835190928392604490910191908501908083836000831561012c578181015183820152602001610114565b5060068190556040805182815290517fe46d9daf6d25f7615efa1d0183b90ac6759d85014b598e409aadf0fd918d59a69181900360200190a150565b6007546001600160a01b031681565b60015460ff1681565b6003546001600160a01b031681565b60055481565b60065481565b60075460408051808201909152601481527327b93232b92137b7b59d103337b93134b23232b760611b6020820152906001600160a01b031633146104b45760405162461bcd60e51b815260206004820181815283516024840152835190928392604490910191908501908083836000831561012c578181015183820152602001610114565b50600780546001600160a01b0383166001600160a01b0319909116811790915560408051918252517fe24c39186e9137521953beaa8446e71f55b8f12296984f9d4273ceb1af728d909181900360200190a150565b60075460408051808201909152601481527327b93232b92137b7b59d103337b93134b23232b760611b6020820152906001600160a01b0316331461058e5760405162461bcd60e51b815260206004820181815283516024840152835190928392604490910191908501908083836000831561012c578181015183820152602001610114565b5060015460408051808201909152601e81527f4f72646572426f6f6b3a20616c726561647920696e697469616c697a6564000060208201529060ff16156106165760405162461bcd60e51b815260206004820181815283516024840152835190928392604490910191908501908083836000831561012c578181015183820152602001610114565b506001805460ff19168117610100600160a81b0319166101006001600160a01b0389811691820292909217909255600280546001600160a01b031990811689841690811790925560038054821689851690811790915560048054909216938816938417909155600586905560068590556040805194855260208501929092528382015260608301919091526080820184905260a08201839052517fcfb7ef8749fafc8da2af1ba3d025479ffc4e58f7dc420113e112512a3bda59639160c0908290030190a1505050505050565b6004546001600160a01b031681565b60015461010090046001600160a01b031681565b6002546001600160a01b031681565b60075460408051808201909152601481527327b93232b92137b7b59d103337b93134b23232b760611b6020820152906001600160a01b0316331461079a5760405162461bcd60e51b815260206004820181815283516024840152835190928392604490910191908501908083836000831561012c578181015183820152602001610114565b5060058190556040805182815290517fbde5eafdc37b81830d70124cddccaaa6d034e71dda3c8fc18a959ca76a7cbcfc9181900360200190a15056fea2646970667358221220d6296c14af54ca40f9bbb1d9e1857ca848aaafd4bf5d721e64d00933de2668a264736f6c634300060c0033",
  "devdoc": {
    "kind": "dev",
    "methods": {},
    "version": 1
  },
  "userdoc": {
    "kind": "user",
    "methods": {},
    "version": 1
  },
  "storageLayout": {
    "storage": [
      {
        "astId": 15423,
        "contract": "contracts/core/OrderBook.sol:OrderBook",
        "label": "_status",
        "offset": 0,
        "slot": "0",
        "type": "t_uint256"
      },
      {
        "astId": 12429,
        "contract": "contracts/core/OrderBook.sol:OrderBook",
        "label": "isInitialized",
        "offset": 0,
        "slot": "1",
        "type": "t_bool"
      },
      {
        "astId": 12431,
        "contract": "contracts/core/OrderBook.sol:OrderBook",
        "label": "router",
        "offset": 1,
        "slot": "1",
        "type": "t_address"
      },
      {
        "astId": 12433,
        "contract": "contracts/core/OrderBook.sol:OrderBook",
        "label": "vault",
        "offset": 0,
        "slot": "2",
        "type": "t_address"
      },
      {
        "astId": 12435,
        "contract": "contracts/core/OrderBook.sol:OrderBook",
        "label": "weth",
        "offset": 0,
        "slot": "3",
        "type": "t_address"
      },
      {
        "astId": 12437,
        "contract": "contracts/core/OrderBook.sol:OrderBook",
        "label": "usdm",
        "offset": 0,
        "slot": "4",
        "type": "t_address"
      },
      {
        "astId": 12439,
        "contract": "contracts/core/OrderBook.sol:OrderBook",
        "label": "minExecutionFee",
        "offset": 0,
        "slot": "5",
        "type": "t_uint256"
      },
      {
        "astId": 12441,
        "contract": "contracts/core/OrderBook.sol:OrderBook",
        "label": "minPurchaseTokenAmountUsd",
        "offset": 0,
        "slot": "6",
        "type": "t_uint256"
      },
      {
        "astId": 12443,
        "contract": "contracts/core/OrderBook.sol:OrderBook",
        "label": "gov",
        "offset": 0,
        "slot": "7",
        "type": "t_address"
      }
    ],
    "types": {
      "t_address": {
        "encoding": "inplace",
        "label": "address",
        "numberOfBytes": "20"
      },
      "t_bool": {
        "encoding": "inplace",
        "label": "bool",
        "numberOfBytes": "1"
      },
      "t_uint256": {
        "encoding": "inplace",
        "label": "uint256",
        "numberOfBytes": "32"
      }
    }
  }
}