{
  "address": "0x9A676e781A523b5d0C0e43731313A708CB607508",
  "abi": [
    {
      "inputs": [
        {
          "internalType": "address",
          "name": "_vault",
          "type": "address"
        },
        {
          "internalType": "address",
          "name": "_router",
          "type": "address"
        },
        {
          "internalType": "address",
          "name": "_shortsTracker",
          "type": "address"
        },
        {
          "internalType": "address",
          "name": "_weth",
          "type": "address"
        },
        {
          "internalType": "uint256",
          "name": "_depositFee",
          "type": "uint256"
        },
        {
          "internalType": "address",
          "name": "_orderBook",
          "type": "address"
        }
      ],
      "stateMutability": "nonpayable",
      "type": "constructor"
    },
    {
      "inputs": [],
      "name": "BASIS_POINTS_DIVISOR",
      "outputs": [
        {
          "internalType": "uint256",
          "name": "",
          "type": "uint256"
        }
      ],
      "stateMutability": "view",
      "type": "function"
    },
    {
      "inputs": [],
      "name": "admin",
      "outputs": [
        {
          "internalType": "address",
          "name": "",
          "type": "address"
        }
      ],
      "stateMutability": "view",
      "type": "function"
    },
    {
      "inputs": [
        {
          "internalType": "address",
          "name": "_token",
          "type": "address"
        },
        {
          "internalType": "address",
          "name": "_spender",
          "type": "address"
        },
        {
          "internalType": "uint256",
          "name": "_amount",
          "type": "uint256"
        }
      ],
      "name": "approve",
      "outputs": [],
      "stateMutability": "nonpayable",
      "type": "function"
    },
    {
      "inputs": [
        {
          "internalType": "address[]",
          "name": "_path",
          "type": "address[]"
        },
        {
          "internalType": "address",
          "name": "_indexToken",
          "type": "address"
        },
        {
          "internalType": "uint256",
          "name": "_collateralDelta",
          "type": "uint256"
        },
        {
          "internalType": "uint256",
          "name": "_sizeDelta",
          "type": "uint256"
        },
        {
          "internalType": "bool",
          "name": "_isLong",
          "type": "bool"
        },
        {
          "internalType": "address",
          "name": "_receiver",
          "type": "address"
        },
        {
          "internalType": "uint256",
          "name": "_price",
          "type": "uint256"
        },
        {
          "internalType": "uint256",
          "name": "_minOut",
          "type": "uint256"
        },
        {
          "internalType": "bool",
          "name": "_withdrawETH",
          "type": "bool"
        }
      ],
      "name": "decreasePosition",
      "outputs": [],
      "stateMutability": "nonpayable",
      "type": "function"
    },
    {
      "inputs": [],
      "name": "depositFee",
      "outputs": [
        {
          "internalType": "uint256",
          "name": "",
          "type": "uint256"
        }
      ],
      "stateMutability": "view",
      "type": "function"
    },
    {
      "inputs": [
        {
          "internalType": "address",
          "name": "",
          "type": "address"
        }
      ],
      "name": "feeReserves",
      "outputs": [
        {
          "internalType": "uint256",
          "name": "",
          "type": "uint256"
        }
      ],
      "stateMutability": "view",
      "type": "function"
    },
    {
      "inputs": [],
      "name": "gov",
      "outputs": [
        {
          "internalType": "address",
          "name": "",
          "type": "address"
        }
      ],
      "stateMutability": "view",
      "type": "function"
    },
    {
      "inputs": [
        {
          "internalType": "address[]",
          "name": "_path",
          "type": "address[]"
        },
        {
          "internalType": "address",
          "name": "_indexToken",
          "type": "address"
        },
        {
          "internalType": "uint256",
          "name": "_amountIn",
          "type": "uint256"
        },
        {
          "internalType": "uint256",
          "name": "_minOut",
          "type": "uint256"
        },
        {
          "internalType": "uint256",
          "name": "_sizeDelta",
          "type": "uint256"
        },
        {
          "internalType": "bool",
          "name": "_isLong",
          "type": "bool"
        },
        {
          "internalType": "uint256",
          "name": "_price",
          "type": "uint256"
        }
      ],
      "name": "increasePosition",
      "outputs": [],
      "stateMutability": "nonpayable",
      "type": "function"
    },
    {
      "inputs": [],
      "name": "increasePositionBufferBps",
      "outputs": [
        {
          "internalType": "uint256",
          "name": "",
          "type": "uint256"
        }
      ],
      "stateMutability": "view",
      "type": "function"
    },
    {
      "inputs": [
        {
          "internalType": "address[]",
          "name": "_path",
          "type": "address[]"
        },
        {
          "internalType": "address",
          "name": "_indexToken",
          "type": "address"
        },
        {
          "internalType": "uint256",
          "name": "_minOut",
          "type": "uint256"
        },
        {
          "internalType": "uint256",
          "name": "_sizeDelta",
          "type": "uint256"
        },
        {
          "internalType": "bool",
          "name": "_isLong",
          "type": "bool"
        },
        {
          "internalType": "uint256",
          "name": "_price",
          "type": "uint256"
        }
      ],
      "name": "increasePositionETH",
      "outputs": [],
      "stateMutability": "payable",
      "type": "function"
    },
    {
      "inputs": [
        {
          "internalType": "address",
          "name": "",
          "type": "address"
        }
      ],
      "name": "isLiquidator",
      "outputs": [
        {
          "internalType": "bool",
          "name": "",
          "type": "bool"
        }
      ],
      "stateMutability": "view",
      "type": "function"
    },
    {
      "inputs": [
        {
          "internalType": "address",
          "name": "",
          "type": "address"
        }
      ],
      "name": "isOrderKeeper",
      "outputs": [
        {
          "internalType": "bool",
          "name": "",
          "type": "bool"
        }
      ],
      "stateMutability": "view",
      "type": "function"
    },
    {
      "inputs": [
        {
          "internalType": "address",
          "name": "",
          "type": "address"
        }
      ],
      "name": "isPartner",
      "outputs": [
        {
          "internalType": "bool",
          "name": "",
          "type": "bool"
        }
      ],
      "stateMutability": "view",
      "type": "function"
    },
    {
      "inputs": [
        {
          "internalType": "address",
          "name": "_account",
          "type": "address"
        },
        {
          "internalType": "address",
          "name": "_collateralToken",
          "type": "address"
        },
        {
          "internalType": "address",
          "name": "_indexToken",
          "type": "address"
        },
        {
          "internalType": "bool",
          "name": "_isLong",
          "type": "bool"
        },
        {
          "internalType": "address",
          "name": "_feeReceiver",
          "type": "address"
        }
      ],
      "name": "liquidatePosition",
      "outputs": [],
      "stateMutability": "nonpayable",
      "type": "function"
    },
    {
      "inputs": [
        {
          "internalType": "address",
          "name": "",
          "type": "address"
        }
      ],
      "name": "maxGlobalLongSizes",
      "outputs": [
        {
          "internalType": "uint256",
          "name": "",
          "type": "uint256"
        }
      ],
      "stateMutability": "view",
      "type": "function"
    },
    {
      "inputs": [
        {
          "internalType": "address",
          "name": "",
          "type": "address"
        }
      ],
      "name": "maxGlobalShortSizes",
      "outputs": [
        {
          "internalType": "uint256",
          "name": "",
          "type": "uint256"
        }
      ],
      "stateMutability": "view",
      "type": "function"
    },
    {
      "inputs": [],
      "name": "opened",
      "outputs": [
        {
          "internalType": "bool",
          "name": "",
          "type": "bool"
        }
      ],
      "stateMutability": "view",
      "type": "function"
    },
    {
      "inputs": [],
      "name": "orderBook",
      "outputs": [
        {
          "internalType": "address",
          "name": "",
          "type": "address"
        }
      ],
      "stateMutability": "view",
      "type": "function"
    },
    {
      "inputs": [],
      "name": "referralStorage",
      "outputs": [
        {
          "internalType": "address",
          "name": "",
          "type": "address"
        }
      ],
      "stateMutability": "view",
      "type": "function"
    },
    {
      "inputs": [],
      "name": "router",
      "outputs": [
        {
          "internalType": "address",
          "name": "",
          "type": "address"
        }
      ],
      "stateMutability": "view",
      "type": "function"
    },
    {
      "inputs": [
        {
          "internalType": "address payable",
          "name": "_receiver",
          "type": "address"
        },
        {
          "internalType": "uint256",
          "name": "_amount",
          "type": "uint256"
        }
      ],
      "name": "sendValue",
      "outputs": [],
      "stateMutability": "nonpayable",
      "type": "function"
    },
    {
      "inputs": [
        {
          "internalType": "address",
          "name": "_admin",
          "type": "address"
        }
      ],
      "name": "setAdmin",
      "outputs": [],
      "stateMutability": "nonpayable",
      "type": "function"
    },
    {
      "inputs": [
        {
          "internalType": "uint256",
          "name": "_depositFee",
          "type": "uint256"
        }
      ],
      "name": "setDepositFee",
      "outputs": [],
      "stateMutability": "nonpayable",
      "type": "function"
    },
    {
      "inputs": [
        {
          "internalType": "address",
          "name": "_gov",
          "type": "address"
        }
      ],
      "name": "setGov",
      "outputs": [],
      "stateMutability": "nonpayable",
      "type": "function"
    },
    {
      "inputs": [
        {
          "internalType": "uint256",
          "name": "_increasePositionBufferBps",
          "type": "uint256"
        }
      ],
      "name": "setIncreasePositionBufferBps",
      "outputs": [],
      "stateMutability": "nonpayable",
      "type": "function"
    },
    {
      "inputs": [
        {
          "internalType": "address",
          "name": "_account",
          "type": "address"
        },
        {
          "internalType": "bool",
          "name": "_isActive",
          "type": "bool"
        }
      ],
      "name": "setLiquidator",
      "outputs": [],
      "stateMutability": "nonpayable",
      "type": "function"
    },
    {
      "inputs": [
        {
          "internalType": "address[]",
          "name": "_tokens",
          "type": "address[]"
        },
        {
          "internalType": "uint256[]",
          "name": "_longSizes",
          "type": "uint256[]"
        },
        {
          "internalType": "uint256[]",
          "name": "_shortSizes",
          "type": "uint256[]"
        }
      ],
      "name": "setMaxGlobalSizes",
      "outputs": [],
      "stateMutability": "nonpayable",
      "type": "function"
    },
    {
      "inputs": [
        {
          "internalType": "bool",
          "name": "_opened",
          "type": "bool"
        }
      ],
      "name": "setOpened",
      "outputs": [],
      "stateMutability": "nonpayable",
      "type": "function"
    },
    {
      "inputs": [
        {
          "internalType": "address",
          "name": "_account",
          "type": "address"
        },
        {
          "internalType": "bool",
          "name": "_isActive",
          "type": "bool"
        }
      ],
      "name": "setOrderKeeper",
      "outputs": [],
      "stateMutability": "nonpayable",
      "type": "function"
    },
    {
      "inputs": [
        {
          "internalType": "address",
          "name": "_account",
          "type": "address"
        },
        {
          "internalType": "bool",
          "name": "_isActive",
          "type": "bool"
        }
      ],
      "name": "setPartner",
      "outputs": [],
      "stateMutability": "nonpayable",
      "type": "function"
    },
    {
      "inputs": [
        {
          "internalType": "address",
          "name": "_referralStorage",
          "type": "address"
        }
      ],
      "name": "setReferralStorage",
      "outputs": [],
      "stateMutability": "nonpayable",
      "type": "function"
    },
    {
      "inputs": [
        {
          "internalType": "bool",
          "name": "_shouldValidateIncreaseOrder",
          "type": "bool"
        }
      ],
      "name": "setShouldValidateIncreaseOrder",
      "outputs": [],
      "stateMutability": "nonpayable",
      "type": "function"
    },
    {
      "inputs": [],
      "name": "shortsTracker",
      "outputs": [
        {
          "internalType": "address",
          "name": "",
          "type": "address"
        }
      ],
      "stateMutability": "view",
      "type": "function"
    },
    {
      "inputs": [],
      "name": "shouldValidateIncreaseOrder",
      "outputs": [
        {
          "internalType": "bool",
          "name": "",
          "type": "bool"
        }
      ],
      "stateMutability": "view",
      "type": "function"
    },
    {
      "inputs": [],
      "name": "vault",
      "outputs": [
        {
          "internalType": "address",
          "name": "",
          "type": "address"
        }
      ],
      "stateMutability": "view",
      "type": "function"
    },
    {
      "inputs": [],
      "name": "weth",
      "outputs": [
        {
          "internalType": "address",
          "name": "",
          "type": "address"
        }
      ],
      "stateMutability": "view",
      "type": "function"
    },
    {
      "inputs": [
        {
          "internalType": "address",
          "name": "_token",
          "type": "address"
        },
        {
          "internalType": "address",
          "name": "_receiver",
          "type": "address"
        }
      ],
      "name": "withdrawFees",
      "outputs": [],
      "stateMutability": "nonpayable",
      "type": "function"
    },
    {
      "stateMutability": "payable",
      "type": "receive"
    }
  ],
  "transactionHash": "0x20dd26658d56fa112ae26c734882ceeb8a8560140866ff18f01543241d24975c",
  "args": [
    "0x5FbDB2315678afecb367f032d93F642f64180aa3",
    "0xCf7Ed3AccA5a467e9e704C703E8D87F634fB0Fc9",
    "0xA51c1fc2f0D1a1b8494Ed1FE312d7C3a78Ed91C0",
    "0x9fE46736679d2D9a65F0992F2272dE9f3c7fa6e0",
    50,
    "0x0DCd1Bf9A1b36cE34237eEaFef220932846BCD82"
  ],
  "numDeployments": 1,
  "solcInputHash": "1fb095c2a8736afe292bad1aa4a33281",
  "bytecode": "0x60806040526002805461ff001916610100179055606460075534801561002457600080fd5b506040516141b73803806141b7833981810160405260c081101561004757600080fd5b508051602082015160408301516060840151608085015160a090950151600080546001600160a01b03199081163390811790925560018055600980546001600160a01b03988916908316179055600b805496881696821696909617909555600c805493871693861693909317909255600695909555600a805492851692841692909217909155600880549092161790556002805491909216620100000262010000600160b01b03199091161790556140b3806101046000396000f3fe6080604052600436106101ad5760003560e01c80626cc35e1461026c5780631045c74e1461029d578063126082cf146102e257806312d43a51146102f75780631b9043591461030c5780631ce9cb8f1461033a5780631e2615381461036d57806321acf659146103a8578063233bfe3b146103e357806324a084df1461040d5780633833f5f5146104465780633fc8cef31461048d5780634453a374146104a25780634584bd4b146104dd578063490ae210146104f2578063529a356f1461051c5780635f88eade1461054f578063657bc5d01461056457806367a5279314610579578063704b6c021461058e578063776af5ba146105c15780638c0f9aac146105d65780639698d25a1461060957806398d1e03a1461063c5780639a0a18bf14610651578063ae4d7f9a1461067d578063b32755de146106b0578063b7ddc99214610773578063cfad57a214610849578063de2ea9481461087c578063e1f21c67146108d1578063e7dae9fe14610914578063ef12c67e146109fc578063f255527814610bae578063f851a44014610be9578063f887ea4014610bfe578063fbfa77cf14610c1357610267565b3661026757600c54604080516060810190915260238082526001600160a01b0390921633149161400c6020830139906102645760405162461bcd60e51b81526004018080602001828103825283818151815260200191508051906020019080838360005b83811015610229578181015183820152602001610211565b50505050905090810190601f1680156102565780820380516001836020036101000a031916815260200191505b509250505060405180910390fd5b50005b600080fd5b34801561027857600080fd5b50610281610c28565b604080516001600160a01b039092168252519081900360200190f35b3480156102a957600080fd5b506102d0600480360360208110156102c057600080fd5b50356001600160a01b0316610c37565b60408051918252519081900360200190f35b3480156102ee57600080fd5b506102d0610c49565b34801561030357600080fd5b50610281610c4f565b34801561031857600080fd5b506103386004803603602081101561032f57600080fd5b50351515610c5e565b005b34801561034657600080fd5b506102d06004803603602081101561035d57600080fd5b50356001600160a01b0316610cfa565b34801561037957600080fd5b506103386004803603604081101561039057600080fd5b506001600160a01b0381351690602001351515610d0c565b3480156103b457600080fd5b50610338600480360360408110156103cb57600080fd5b506001600160a01b0381351690602001351515610db9565b3480156103ef57600080fd5b506103386004803603602081101561040657600080fd5b5035610e6a565b34801561041957600080fd5b506103386004803603604081101561043057600080fd5b506001600160a01b038135169060200135610ef2565b34801561045257600080fd5b506104796004803603602081101561046957600080fd5b50356001600160a01b0316610f56565b604080519115158252519081900360200190f35b34801561049957600080fd5b50610281610f6b565b3480156104ae57600080fd5b50610338600480360360408110156104c557600080fd5b506001600160a01b0381351690602001351515610f7a565b3480156104e957600080fd5b50610479611027565b3480156104fe57600080fd5b506103386004803603602081101561051557600080fd5b5035611035565b34801561052857600080fd5b506104796004803603602081101561053f57600080fd5b50356001600160a01b03166110bd565b34801561055b57600080fd5b506104796110d2565b34801561057057600080fd5b506102816110db565b34801561058557600080fd5b506102d06110ea565b34801561059a57600080fd5b50610338600480360360208110156105b157600080fd5b50356001600160a01b03166110f0565b3480156105cd57600080fd5b50610281611191565b3480156105e257600080fd5b50610479600480360360208110156105f957600080fd5b50356001600160a01b03166111a6565b34801561061557600080fd5b506102d06004803603602081101561062c57600080fd5b50356001600160a01b03166111bb565b34801561064857600080fd5b506102d06111cd565b34801561065d57600080fd5b506103386004803603602081101561067457600080fd5b503515156111d3565b34801561068957600080fd5b50610338600480360360208110156106a057600080fd5b50356001600160a01b0316611267565b610338600480360360c08110156106c657600080fd5b810190602081018135600160201b8111156106e057600080fd5b8201836020820111156106f257600080fd5b803590602001918460208302840111600160201b8311171561071357600080fd5b919080806020026020016040519081016040528093929190818152602001838360200280828437600092019190915250929550506001600160a01b0383351693505050602081013590604081013590606081013515159060800135611308565b34801561077f57600080fd5b50610338600480360360e081101561079657600080fd5b810190602081018135600160201b8111156107b057600080fd5b8201836020820111156107c257600080fd5b803590602001918460208302840111600160201b831117156107e357600080fd5b919080806020026020016040519081016040528093929190818152602001838360200280828437600092019190915250929550506001600160a01b0383351693505050602081013590604081013590606081013590608081013515159060a001356115cf565b34801561085557600080fd5b506103386004803603602081101561086c57600080fd5b50356001600160a01b0316611904565b34801561088857600080fd5b50610338600480360360a081101561089f57600080fd5b506001600160a01b03813581169160208101358216916040820135811691606081013515159160809091013516611973565b3480156108dd57600080fd5b50610338600480360360608110156108f457600080fd5b506001600160a01b03813581169160208101359091169060400135611e47565b34801561092057600080fd5b50610338600480360361012081101561093857600080fd5b810190602081018135600160201b81111561095257600080fd5b82018360208201111561096457600080fd5b803590602001918460208302840111600160201b8311171561098557600080fd5b919080806020026020016040519081016040528093929190818152602001838360200280828437600092019190915250929550505081356001600160a01b0390811693506020830135926040810135925060608101351515916080820135169060a08101359060c08101359060e001351515611f1c565b348015610a0857600080fd5b5061033860048036036060811015610a1f57600080fd5b810190602081018135600160201b811115610a3957600080fd5b820183602082011115610a4b57600080fd5b803590602001918460208302840111600160201b83111715610a6c57600080fd5b9190808060200260200160405190810160405280939291908181526020018383602002808284376000920191909152509295949360208101935035915050600160201b811115610abb57600080fd5b820183602082011115610acd57600080fd5b803590602001918460208302840111600160201b83111715610aee57600080fd5b9190808060200260200160405190810160405280939291908181526020018383602002808284376000920191909152509295949360208101935035915050600160201b811115610b3d57600080fd5b820183602082011115610b4f57600080fd5b803590602001918460208302840111600160201b83111715610b7057600080fd5b9190808060200260200160405190810160405280939291908181526020018383602002808284376000920191909152509295506121ba945050505050565b348015610bba57600080fd5b5061033860048036036040811015610bd157600080fd5b506001600160a01b03813581169160200135166123a9565b348015610bf557600080fd5b5061028161248d565b348015610c0a57600080fd5b5061028161249c565b348015610c1f57600080fd5b506102816124ab565b600d546001600160a01b031681565b600e6020526000908152604090205481565b61271081565b6000546001600160a01b031681565b6008546001600160a01b03163314610cab576040805162461bcd60e51b815260206004820152601e6024820152600080516020613f02833981519152604482015290519081900360640190fd5b60028054821515610100810261ff00199092169190911790915560408051918252517fa956222e37fe025ff51e5440ac729a9bd417ff91e485e14dcffa2c0ba8894f409181900360200190a150565b60106020526000908152604090205481565b6008546001600160a01b03163314610d59576040805162461bcd60e51b815260206004820152601e6024820152600080516020613f02833981519152604482015290519081900360640190fd5b6001600160a01b038216600081815260036020908152604091829020805460ff1916851515908117909155825190815291517f1d5bc0255b943d6a5b5279e8a55d74d620baccbceecb25e87a3558f14c4c118e9281900390910190a25050565b6008546001600160a01b03163314610e06576040805162461bcd60e51b815260206004820152601e6024820152600080516020613f02833981519152604482015290519081900360640190fd5b6001600160a01b038216600081815260046020908152604091829020805460ff191685151590811790915582519384529083015280517fa4e46c70ff429a91de7d1716d736e877c7cca1c22ac850b23d242530dd95e4749281900390910190a15050565b6008546001600160a01b03163314610eb7576040805162461bcd60e51b815260206004820152601e6024820152600080516020613f02833981519152604482015290519081900360640190fd5b60078190556040805182815290517f21167d0d4661af93817ebce920f18986eed3d75d5e1c03f2aed05efcbafbc4529181900360200190a150565b6000546001600160a01b03163314610f3f576040805162461bcd60e51b81526020600482015260156024820152600080516020613e27833981519152604482015290519081900360640190fd5b610f526001600160a01b038316826124ba565b5050565b60036020526000908152604090205460ff1681565b600c546001600160a01b031681565b6008546001600160a01b03163314610fc7576040805162461bcd60e51b815260206004820152601e6024820152600080516020613f02833981519152604482015290519081900360640190fd5b6001600160a01b038216600081815260056020908152604091829020805460ff1916851515908117909155825190815291517f8c0d56805c3b43d441481229dc64bee168253ffe4305f37ab7cfe63b1c4268c69281900390910190a25050565b600254610100900460ff1681565b6008546001600160a01b03163314611082576040805162461bcd60e51b815260206004820152601e6024820152600080516020613f02833981519152604482015290519081900360640190fd5b60068190556040805182815290517f974fd3c1fcb4653dfc4fb740c4c692cd212d55c28f163f310128cb64d83006759181900360200190a150565b60056020526000908152604090205460ff1681565b60025460ff1681565b600a546001600160a01b031681565b60065481565b6000546001600160a01b0316331461113d576040805162461bcd60e51b81526020600482015260156024820152600080516020613e27833981519152604482015290519081900360640190fd5b600880546001600160a01b0383166001600160a01b0319909116811790915560408051918252517f5a272403b402d892977df56625f4164ccaf70ca3863991c43ecfe76a6905b0a19181900360200190a150565b6002546201000090046001600160a01b031681565b60046020526000908152604090205460ff1681565b600f6020526000908152604090205481565b60075481565b6008546001600160a01b03163314611220576040805162461bcd60e51b815260206004820152601e6024820152600080516020613f02833981519152604482015290519081900360640190fd5b6002805482151560ff19909116811790915560408051918252517fb396a770d36909ca07c2b7d7d408f43c9bb74425c5d17caf44336c4f09c420949181900360200190a150565b6008546001600160a01b031633146112b4576040805162461bcd60e51b815260206004820152601e6024820152600080516020613f02833981519152604482015290519081900360640190fd5b600d80546001600160a01b0383166001600160a01b0319909116811790915560408051918252517f828abcccea18192c21d645e575652c49e20b986dab777906fc473d056b01b6a89181900360200190a150565b6002600154141561134e576040805162461bcd60e51b815260206004820152601f6024820152600080516020613e07833981519152604482015290519081900360640190fd5b60026001553360009081526004602052604090205460ff1680611373575060025460ff165b6040518060400160405280601a8152602001600080516020613fc3833981519152815250906113e35760405162461bcd60e51b8152602060048201818152835160248401528351909283926044909101919085019080838360008315610229578181015183820152602001610211565b508551600114806113f5575085516002145b604051806060016040528060258152602001614059602591399061145a5760405162461bcd60e51b8152602060048201818152835160248401528351909283926044909101919085019080838360008315610229578181015183820152602001610211565b50600c5486516001600160a01b0390911690879060009061147757fe5b60200260200101516001600160a01b0316146040518060400160405280601e8152602001600080516020613f22833981519152815250906114f95760405162461bcd60e51b8152602060048201818152835160248401528351909283926044909101919085019080838360008315610229578181015183820152602001610211565b50341561159e576115086125a4565b855134906001101561153f57600954600c54611531916001600160a01b03918216911634612610565b61153c878630612662565b90505b600061154f3389848a888a612710565b905061159b600960009054906101000a90046001600160a01b0316828a60018c51038151811061157b57fe5b60200260200101516001600160a01b03166126109092919063ffffffff16565b50505b6115c333876001895103815181106115b257fe5b6020026020010151878686866127ef565b50506001805550505050565b60026001541415611615576040805162461bcd60e51b815260206004820152601f6024820152600080516020613e07833981519152604482015290519081900360640190fd5b60026001553360009081526004602052604090205460ff168061163a575060025460ff165b6040518060400160405280601a8152602001600080516020613fc3833981519152815250906116aa5760405162461bcd60e51b8152602060048201818152835160248401528351909283926044909101919085019080838360008315610229578181015183820152602001610211565b508651600114806116bc575086516002145b60405180606001604052806025815260200161405960259139906117215760405162461bcd60e51b8152602060048201818152835160248401528351909283926044909101919085019080838360008315610229578181015183820152602001610211565b5084156118d2578651600114156117e257600b5487516001600160a01b0390911690631b82787890899060009061175457fe5b60200260200101513330896040518563ffffffff1660e01b815260040180856001600160a01b03168152602001846001600160a01b03168152602001836001600160a01b03168152602001828152602001945050505050600060405180830381600087803b1580156117c557600080fd5b505af11580156117d9573d6000803e3d6000fd5b50505050611894565b600b5487516001600160a01b0390911690631b82787890899060009061180457fe5b6020908102919091010151600954604080516001600160e01b031960e086901b1681526001600160a01b0393841660048201523360248201529290911660448301526064820189905251608480830192600092919082900301818387803b15801561186e57600080fd5b505af1158015611882573d6000803e3d6000fd5b50505050611891878530612662565b94505b60006118a43389888a8789612710565b90506118d0600960009054906101000a90046001600160a01b0316828a60018c51038151811061157b57fe5b505b6118f7338860018a5103815181106118e657fe5b6020026020010151888686866127ef565b5050600180555050505050565b6000546001600160a01b03163314611951576040805162461bcd60e51b81526020600482015260156024820152600080516020613e27833981519152604482015290519081900360640190fd5b600080546001600160a01b0319166001600160a01b0392909216919091179055565b600260015414156119b9576040805162461bcd60e51b815260206004820152601f6024820152600080516020613e07833981519152604482015290519081900360640190fd5b600260015533600090815260056020908152604091829020548251808401909352601a8352600080516020613fc38339815191529183019190915260ff16611a425760405162461bcd60e51b8152602060048201818152835160248401528351909283926044909101919085019080838360008315610229578181015183820152602001610211565b50600954604080516312d43a5160e01b815290516001600160a01b039092169160009183916312d43a5191600480820192602092909190829003018186803b158015611a8d57600080fd5b505afa158015611aa1573d6000803e3d6000fd5b505050506040513d6020811015611ab757600080fd5b505160095460408051634a3f088d60e01b81526001600160a01b038b811660048301528a811660248301528981166044830152881515606483015291519394506000939190921691634a3f088d91608480830192610100929190829003018186803b158015611b2557600080fd5b505afa158015611b39573d6000803e3d6000fd5b505050506040513d610100811015611b5057600080fd5b50519050600085611bd957836001600160a01b031663e124e6d2886040518263ffffffff1660e01b815260040180826001600160a01b0316815260200191505060206040518083038186803b158015611ba857600080fd5b505afa158015611bbc573d6000803e3d6000fd5b505050506040513d6020811015611bd257600080fd5b5051611c53565b836001600160a01b03166381a612d6886040518263ffffffff1660e01b815260040180826001600160a01b0316815260200191505060206040518083038186803b158015611c2657600080fd5b505afa158015611c3a573d6000803e3d6000fd5b505050506040513d6020811015611c5057600080fd5b50515b600a5460408051633cc8e33b60e21b81526001600160a01b038d811660048301528c811660248301528b811660448301528a151560648301526084820187905260a48201859052600060c4830181905292519495509092169263f3238cec9260e480820193929182900301818387803b158015611ccf57600080fd5b505af1158015611ce3573d6000803e3d6000fd5b50505050826001600160a01b0316636d63c1d0856040518263ffffffff1660e01b815260040180826001600160a01b03168152602001915050600060405180830381600087803b158015611d3657600080fd5b505af1158015611d4a573d6000803e3d6000fd5b505060408051631bc5d52960e31b81526001600160a01b038d811660048301528c811660248301528b811660448301528a1515606483015289811660848301529151918816935063de2ea948925060a48082019260009290919082900301818387803b158015611db957600080fd5b505af1158015611dcd573d6000803e3d6000fd5b50505050826001600160a01b031663d3c87bbb856040518263ffffffff1660e01b815260040180826001600160a01b03168152602001915050600060405180830381600087803b158015611e2057600080fd5b505af1158015611e34573d6000803e3d6000fd5b5050600180555050505050505050505050565b6000546001600160a01b03163314611e94576040805162461bcd60e51b81526020600482015260156024820152600080516020613e27833981519152604482015290519081900360640190fd5b826001600160a01b031663095ea7b383836040518363ffffffff1660e01b815260040180836001600160a01b0316815260200182815260200192505050602060405180830381600087803b158015611eeb57600080fd5b505af1158015611eff573d6000803e3d6000fd5b505050506040513d6020811015611f1557600080fd5b5050505050565b60026001541415611f62576040805162461bcd60e51b815260206004820152601f6024820152600080516020613e07833981519152604482015290519081900360640190fd5b60026001553360009081526004602052604090205460ff1680611f87575060025460ff165b6040518060400160405280601a8152602001600080516020613fc383398151915281525090611ff75760405162461bcd60e51b8152602060048201818152835160248401528351909283926044909101919085019080838360008315610229578181015183820152602001610211565b50885160011480612009575088516002145b604051806060016040528060258152602001614059602591399061206e5760405162461bcd60e51b8152602060048201818152835160248401528351909283926044909101919085019080838360008315610229578181015183820152602001610211565b50801561211a57600c5489516001600160a01b03909116908a90600019810190811061209657fe5b60200260200101516001600160a01b0316146040518060400160405280601e8152602001600080516020613f22833981519152815250906121185760405162461bcd60e51b8152602060048201818152835160248401528351909283926044909101919085019080838360008315610229578181015183820152602001610211565b505b6000612140338b60008151811061212d57fe5b60200260200101518b8b8b8b308b612c4b565b905080156121aa5760018a511115612180576009548a51612172916001600160a01b03169083908d9060009061157b57fe5b61217d8a8430612662565b90505b811561219557612190818661313b565b6121aa565b6121aa85828c60018e51038151811061157b57fe5b5050600180555050505050505050565b6008546001600160a01b03163314612207576040805162461bcd60e51b815260206004820152601e6024820152600080516020613f02833981519152604482015290519081900360640190fd5b60005b83518110156122a257600084828151811061222157fe5b6020026020010151905083828151811061223757fe5b6020026020010151600e6000836001600160a01b03166001600160a01b031681526020019081526020016000208190555082828151811061227457fe5b6020908102919091018101516001600160a01b039092166000908152600f909152604090205560010161220a565b507fae32d569b058895b9620d6552b09aaffedc9a6f396be4d595a224ad09f8b213983838360405180806020018060200180602001848103845287818151815260200191508051906020019060200280838360005b8381101561230f5781810151838201526020016122f7565b50505050905001848103835286818151815260200191508051906020019060200280838360005b8381101561234e578181015183820152602001612336565b50505050905001848103825285818151815260200191508051906020019060200280838360005b8381101561238d578181015183820152602001612375565b50505050905001965050505050505060405180910390a1505050565b6008546001600160a01b031633146123f6576040805162461bcd60e51b815260206004820152601e6024820152600080516020613f02833981519152604482015290519081900360640190fd5b6001600160a01b0382166000908152601060205260409020548061241a5750610f52565b6001600160a01b03831660008181526010602052604081205561243e908383612610565b604080516001600160a01b0380861682528416602082015280820183905290517f4f1b51dd7a2fcb861aa2670f668be66835c4ee12b4bbbf037e4d0018f39819e49181900360600190a1505050565b6008546001600160a01b031681565b600b546001600160a01b031681565b6009546001600160a01b031681565b8047101561250f576040805162461bcd60e51b815260206004820152601d60248201527f416464726573733a20696e73756666696369656e742062616c616e6365000000604482015290519081900360640190fd5b6040516000906001600160a01b0384169083908381818185875af1925050503d806000811461255a576040519150601f19603f3d011682016040523d82523d6000602084013e61255f565b606091505b505090508061259f5760405162461bcd60e51b815260040180806020018281038252603a815260200180613e72603a913960400191505060405180910390fd5b505050565b341561260e57600c60009054906101000a90046001600160a01b03166001600160a01b031663d0e30db0346040518263ffffffff1660e01b81526004016000604051808303818588803b1580156125fa57600080fd5b505af1158015611f15573d6000803e3d6000fd5b565b604080516001600160a01b038416602482015260448082018490528251808303909101815260649091019091526020810180516001600160e01b031663a9059cbb60e01b17905261259f9084906131d6565b60008351600214156126a9576126a28460008151811061267e57fe5b60200260200101518560018151811061269357fe5b60200260200101518585613287565b9050612709565b604051806060016040528060298152602001613fe36029913960405162461bcd60e51b8152602060048201818152835160248401528351909283926044909101919085019080838360008315610229578181015183820152602001610211565b9392505050565b600080612721888888888888613389565b905080156127e057600061275861271061275261274b60065461271061356690919063ffffffff16565b8a906135b1565b9061360a565b905060006127668883613566565b905060008960018b51038151811061277a57fe5b602002602001015190506127bc8260106000846001600160a01b03166001600160a01b031681526020019081526020016000205461364990919063ffffffff16565b6001600160a01b039091166000908152601060205260409020555091506127e59050565b859150505b9695505050505050565b6009546001600160a01b031660008361288057816001600160a01b03166381a612d6876040518263ffffffff1660e01b815260040180826001600160a01b0316815260200191505060206040518083038186803b15801561284f57600080fd5b505afa158015612863573d6000803e3d6000fd5b505050506040513d602081101561287957600080fd5b50516128fa565b816001600160a01b031663e124e6d2876040518263ffffffff1660e01b815260040180826001600160a01b0316815260200191505060206040518083038186803b1580156128cd57600080fd5b505afa1580156128e1573d6000803e3d6000fd5b505050506040513d60208110156128f757600080fd5b50515b905083156129715782811115604051806060016040528060318152602001613f92603191399061296b5760405162461bcd60e51b8152602060048201818152835160248401528351909283926044909101919085019080838360008315610229578181015183820152602001610211565b506129dc565b82811015604051806060016040528060308152602001613ed260309139906129da5760405162461bcd60e51b8152602060048201818152835160248401528351909283926044909101919085019080838360008315610229578181015183820152602001610211565b505b6129e78685876136a1565b6000826001600160a01b03166312d43a516040518163ffffffff1660e01b815260040160206040518083038186803b158015612a2257600080fd5b505afa158015612a36573d6000803e3d6000fd5b505050506040513d6020811015612a4c57600080fd5b5051600a5460408051633cc8e33b60e21b81526001600160a01b038d811660048301528c811660248301528b811660448301528915156064830152608482018b905260a48201879052600160c4830152915193945091169163f3238cec9160e48082019260009290919082900301818387803b158015612acb57600080fd5b505af1158015612adf573d6000803e3d6000fd5b50505050806001600160a01b0316636d63c1d0846040518263ffffffff1660e01b815260040180826001600160a01b03168152602001915050600060405180830381600087803b158015612b3257600080fd5b505af1158015612b46573d6000803e3d6000fd5b5050600b5460408051630f8ee8bb60e11b81526001600160a01b038e811660048301528d811660248301528c81166044830152606482018c90528a151560848301529151919092169350631f1dd176925060a480830192600092919082900301818387803b158015612bb757600080fd5b505af1158015612bcb573d6000803e3d6000fd5b50505050806001600160a01b031663d3c87bbb846040518263ffffffff1660e01b815260040180826001600160a01b03168152602001915050600060405180830381600087803b158015612c1e57600080fd5b505af1158015612c32573d6000803e3d6000fd5b50505050612c4089876138ab565b505050505050505050565b6009546000906001600160a01b03168185612cde57816001600160a01b031663e124e6d28a6040518263ffffffff1660e01b815260040180826001600160a01b0316815260200191505060206040518083038186803b158015612cad57600080fd5b505afa158015612cc1573d6000803e3d6000fd5b505050506040513d6020811015612cd757600080fd5b5051612d58565b816001600160a01b03166381a612d68a6040518263ffffffff1660e01b815260040180826001600160a01b0316815260200191505060206040518083038186803b158015612d2b57600080fd5b505afa158015612d3f573d6000803e3d6000fd5b505050506040513d6020811015612d5557600080fd5b50515b90508515612dcf5783811015604051806060016040528060308152602001613ed26030913990612dc95760405162461bcd60e51b8152602060048201818152835160248401528351909283926044909101919085019080838360008315610229578181015183820152602001610211565b50612e3a565b83811115604051806060016040528060318152602001613f926031913990612e385760405162461bcd60e51b8152602060048201818152835160248401528351909283926044909101919085019080838360008315610229578181015183820152602001610211565b505b6000826001600160a01b03166312d43a516040518163ffffffff1660e01b815260040160206040518083038186803b158015612e7557600080fd5b505afa158015612e89573d6000803e3d6000fd5b505050506040513d6020811015612e9f57600080fd5b81019080805190602001909291905050509050600a60009054906101000a90046001600160a01b03166001600160a01b031663f3238cec8d8d8d8b8d8860006040518863ffffffff1660e01b815260040180886001600160a01b03168152602001876001600160a01b03168152602001866001600160a01b0316815260200185151581526020018481526020018381526020018215158152602001975050505050505050600060405180830381600087803b158015612f5d57600080fd5b505af1158015612f71573d6000803e3d6000fd5b50505050806001600160a01b0316636d63c1d0846040518263ffffffff1660e01b815260040180826001600160a01b03168152602001915050600060405180830381600087803b158015612fc457600080fd5b505af1158015612fd8573d6000803e3d6000fd5b505050506000600b60009054906101000a90046001600160a01b03166001600160a01b0316632662166b8e8e8e8e8e8e8e6040518863ffffffff1660e01b815260040180886001600160a01b03168152602001876001600160a01b03168152602001866001600160a01b031681526020018581526020018481526020018315158152602001826001600160a01b03168152602001975050505050505050602060405180830381600087803b15801561308f57600080fd5b505af11580156130a3573d6000803e3d6000fd5b505050506040513d60208110156130b957600080fd5b50516040805163d3c87bbb60e01b81526001600160a01b03878116600483015291519293509084169163d3c87bbb9160248082019260009290919082900301818387803b15801561310957600080fd5b505af115801561311d573d6000803e3d6000fd5b5050505061312b8d8a613a1e565b9c9b505050505050505050505050565b600c5460408051632e1a7d4d60e01b81526004810185905290516001600160a01b0390921691632e1a7d4d9160248082019260009290919082900301818387803b15801561318857600080fd5b505af115801561319c573d6000803e3d6000fd5b50506040516001600160a01b038416925084156108fc02915084906000818181858888f1935050505015801561259f573d6000803e3d6000fd5b606061322b826040518060400160405280602081526020017f5361666545524332303a206c6f772d6c6576656c2063616c6c206661696c6564815250856001600160a01b0316613b3a9092919063ffffffff16565b80519091501561259f5780806020019051602081101561324a57600080fd5b505161259f5760405162461bcd60e51b815260040180806020018281038252602a81526020018061402f602a913960400191505060405180910390fd5b60095460408051634998b10960e11b81526001600160a01b03878116600483015286811660248301528481166044830152915160009384931691639331621291606480830192602092919082900301818787803b1580156132e757600080fd5b505af11580156132fb573d6000803e3d6000fd5b505050506040513d602081101561331157600080fd5b50516040805160608101909152602b8082529192508583101591613e4760208301399061337f5760405162461bcd60e51b8152602060048201818152835160248401528351909283926044909101919085019080838360008315610229578181015183820152602001610211565b5095945050505050565b600082613398575060006127e5565b816133a5575060016127e5565b6000866001885103815181106133b757fe5b602090810291909101015160095460408051634a3f088d60e01b81526001600160a01b038c81166004830152808516602483015289811660448301528815156064830152915193945091169160009182918491634a3f088d91608480830192610100929190829003018186803b15801561343057600080fd5b505afa158015613444573d6000803e3d6000fd5b505050506040513d61010081101561345b57600080fd5b50805160209091015190925090508161347b5760009450505050506127e5565b60006134878388613649565b90506000846001600160a01b0316630a48d5a9878d6040518363ffffffff1660e01b815260040180836001600160a01b031681526020018281526020019250505060206040518083038186803b1580156134e057600080fd5b505afa1580156134f4573d6000803e3d6000fd5b505050506040513d602081101561350a57600080fd5b50519050600061351a8483613649565b9050600061352e85612752886127106135b1565b9050600061354f8361275260075461271001886135b190919063ffffffff16565b919091109f9e505050505050505050505050505050565b60006135a883836040518060400160405280601e81526020017f536166654d6174683a207375627472616374696f6e206f766572666c6f770000815250613b51565b90505b92915050565b6000826135c0575060006135ab565b828202828482816135cd57fe5b04146135a85760405162461bcd60e51b8152600401808060200182810382526021815260200180613f716021913960400191505060405180910390fd5b60006135a883836040518060400160405280601a815260200179536166654d6174683a206469766973696f6e206279207a65726f60301b815250613bab565b6000828201838110156135a8576040805162461bcd60e51b815260206004820152601b60248201527a536166654d6174683a206164646974696f6e206f766572666c6f7760281b604482015290519081900360640190fd5b806136ab5761259f565b81156137c7576001600160a01b0383166000908152600e6020526040902054801580159061375c57506009546040805163783a2b6760e11b81526001600160a01b0387811660048301529151849361375a93879391169163f07456ce91602480820192602092909190829003018186803b15801561372857600080fd5b505afa15801561373c573d6000803e3d6000fd5b505050506040513d602081101561375257600080fd5b505190613649565b115b156137c1576040518060600160405280602e8152602001613dd9602e913960405162461bcd60e51b8152602060048201818152835160248401528351909283926044909101919085019080838360008315610229578181015183820152602001610211565b5061259f565b6001600160a01b0383166000908152600f6020526040902054801580159061384057506009546040805163114f1b5560e31b81526001600160a01b0387811660048301529151849361383e938793911691638a78daa891602480820192602092909190829003018186803b15801561372857600080fd5b115b156138a5576040518060600160405280602f8152602001613f42602f913960405162461bcd60e51b8152602060048201818152835160248401528351909283926044909101919085019080838360008315610229578181015183820152602001610211565b50505050565b600d546001600160a01b0316806138c25750610f52565b600080826001600160a01b031663534ef883866040518263ffffffff1660e01b815260040180826001600160a01b03168152602001915050604080518083038186803b15801561391157600080fd5b505afa158015613925573d6000803e3d6000fd5b505050506040513d604081101561393b57600080fd5b5080516020918201516009546040805163318bc68960e01b815290519396509194507fc2414023ce7002ee98557d1e7be21e5559073336f2217ee5f9b2e50fd85f71ee93899389936001600160a01b039093169263318bc689926004808301939192829003018186803b1580156139b157600080fd5b505afa1580156139c5573d6000803e3d6000fd5b505050506040513d60208110156139db57600080fd5b5051604080516001600160a01b03948516815260208101939093528281019190915260608201869052918416608082015290519081900360a00190a15050505050565b600d546001600160a01b031680613a355750610f52565b600080826001600160a01b031663534ef883866040518263ffffffff1660e01b815260040180826001600160a01b03168152602001915050604080518083038186803b158015613a8457600080fd5b505afa158015613a98573d6000803e3d6000fd5b505050506040513d6040811015613aae57600080fd5b508051602090910151909250905081613ac957505050610f52565b7f474c763ff84bf2c2039a6d9fea955ecd0f724030e3c365b91169c6a16fe751b78585600960009054906101000a90046001600160a01b03166001600160a01b031663318bc6896040518163ffffffff1660e01b815260040160206040518083038186803b1580156139b157600080fd5b6060613b498484600085613c10565b949350505050565b60008184841115613ba35760405162461bcd60e51b8152602060048201818152835160248401528351909283926044909101919085019080838360008315610229578181015183820152602001610211565b505050900390565b60008183613bfa5760405162461bcd60e51b8152602060048201818152835160248401528351909283926044909101919085019080838360008315610229578181015183820152602001610211565b506000838581613c0657fe5b0495945050505050565b606082471015613c515760405162461bcd60e51b8152600401808060200182810382526026815260200180613eac6026913960400191505060405180910390fd5b613c5a85613d6c565b613cab576040805162461bcd60e51b815260206004820152601d60248201527f416464726573733a2063616c6c20746f206e6f6e2d636f6e7472616374000000604482015290519081900360640190fd5b60006060866001600160a01b031685876040518082805190602001908083835b60208310613cea5780518252601f199092019160209182019101613ccb565b6001836020036101000a03801982511681845116808217855250505050505090500191505060006040518083038185875af1925050503d8060008114613d4c576040519150601f19603f3d011682016040523d82523d6000602084013e613d51565b606091505b5091509150613d61828286613d72565b979650505050505050565b3b151590565b60608315613d81575081612709565b825115613d915782518084602001fd5b60405162461bcd60e51b815260206004820181815284516024840152845185939192839260440191908501908083836000831561022957818101518382015260200161021156fe42617365506f736974696f6e4d616e616765723a206d617820676c6f62616c206c6f6e67732065786365656465645265656e7472616e637947756172643a207265656e7472616e742063616c6c00476f7665726e61626c653a20666f7262696464656e000000000000000000000042617365506f736974696f6e4d616e616765723a20696e73756666696369656e7420616d6f756e744f7574416464726573733a20756e61626c6520746f2073656e642076616c75652c20726563697069656e74206d61792068617665207265766572746564416464726573733a20696e73756666696369656e742062616c616e636520666f722063616c6c42617365506f736974696f6e4d616e616765723a206d61726b207072696365206c6f776572207468616e206c696d697442617365506f736974696f6e4d616e616765723a20666f7262696464656e0000506f736974696f6e4d616e616765723a20696e76616c6964205f70617468000042617365506f736974696f6e4d616e616765723a206d617820676c6f62616c2073686f727473206578636565646564536166654d6174683a206d756c7469706c69636174696f6e206f766572666c6f7742617365506f736974696f6e4d616e616765723a206d61726b20707269636520686967686572207468616e206c696d6974506f736974696f6e4d616e616765723a20666f7262696464656e00000000000042617365506f736974696f6e4d616e616765723a20696e76616c6964205f706174682e6c656e67746842617365506f736974696f6e4d616e616765723a20696e76616c69642073656e6465725361666545524332303a204552433230206f7065726174696f6e20646964206e6f742073756363656564506f736974696f6e4d616e616765723a20696e76616c6964205f706174682e6c656e677468a2646970667358221220d1415d5a184eb9c7b056c8306a4a5628c56dc9d3011bf862a46e07b1a29dbcbe64736f6c634300060c0033",
  "devdoc": {
    "kind": "dev",
    "methods": {},
    "version": 1
  },
  "userdoc": {
    "kind": "user",
    "methods": {},
    "version": 1
  },
  "storageLayout": {
    "storage": [
      {
        "astId": 3,
        "contract": "contracts/core/PositionManager.sol:PositionManager",
        "label": "gov",
        "offset": 0,
        "slot": "0",
        "type": "t_address"
      },
      {
        "astId": 15423,
        "contract": "contracts/core/PositionManager.sol:PositionManager",
        "label": "_status",
        "offset": 0,
        "slot": "1",
        "type": "t_uint256"
      },
      {
        "astId": 12471,
        "contract": "contracts/core/PositionManager.sol:PositionManager",
        "label": "opened",
        "offset": 0,
        "slot": "2",
        "type": "t_bool"
      },
      {
        "astId": 12474,
        "contract": "contracts/core/PositionManager.sol:PositionManager",
        "label": "shouldValidateIncreaseOrder",
        "offset": 1,
        "slot": "2",
        "type": "t_bool"
      },
      {
        "astId": 12476,
        "contract": "contracts/core/PositionManager.sol:PositionManager",
        "label": "orderBook",
        "offset": 2,
        "slot": "2",
        "type": "t_address"
      },
      {
        "astId": 12480,
        "contract": "contracts/core/PositionManager.sol:PositionManager",
        "label": "isOrderKeeper",
        "offset": 0,
        "slot": "3",
        "type": "t_mapping(t_address,t_bool)"
      },
      {
        "astId": 12484,
        "contract": "contracts/core/PositionManager.sol:PositionManager",
        "label": "isPartner",
        "offset": 0,
        "slot": "4",
        "type": "t_mapping(t_address,t_bool)"
      },
      {
        "astId": 12488,
        "contract": "contracts/core/PositionManager.sol:PositionManager",
        "label": "isLiquidator",
        "offset": 0,
        "slot": "5",
        "type": "t_mapping(t_address,t_bool)"
      },
      {
        "astId": 12274,
        "contract": "contracts/core/PositionManager.sol:PositionManager",
        "label": "depositFee",
        "offset": 0,
        "slot": "6",
        "type": "t_uint256"
      },
      {
        "astId": 12277,
        "contract": "contracts/core/PositionManager.sol:PositionManager",
        "label": "increasePositionBufferBps",
        "offset": 0,
        "slot": "7",
        "type": "t_uint256"
      },
      {
        "astId": 12279,
        "contract": "contracts/core/PositionManager.sol:PositionManager",
        "label": "admin",
        "offset": 0,
        "slot": "8",
        "type": "t_address"
      },
      {
        "astId": 12281,
        "contract": "contracts/core/PositionManager.sol:PositionManager",
        "label": "vault",
        "offset": 0,
        "slot": "9",
        "type": "t_address"
      },
      {
        "astId": 12283,
        "contract": "contracts/core/PositionManager.sol:PositionManager",
        "label": "shortsTracker",
        "offset": 0,
        "slot": "10",
        "type": "t_address"
      },
      {
        "astId": 12285,
        "contract": "contracts/core/PositionManager.sol:PositionManager",
        "label": "router",
        "offset": 0,
        "slot": "11",
        "type": "t_address"
      },
      {
        "astId": 12287,
        "contract": "contracts/core/PositionManager.sol:PositionManager",
        "label": "weth",
        "offset": 0,
        "slot": "12",
        "type": "t_address"
      },
      {
        "astId": 12289,
        "contract": "contracts/core/PositionManager.sol:PositionManager",
        "label": "referralStorage",
        "offset": 0,
        "slot": "13",
        "type": "t_address"
      },
      {
        "astId": 12294,
        "contract": "contracts/core/PositionManager.sol:PositionManager",
        "label": "maxGlobalLongSizes",
        "offset": 0,
        "slot": "14",
        "type": "t_mapping(t_address,t_uint256)"
      },
      {
        "astId": 12299,
        "contract": "contracts/core/PositionManager.sol:PositionManager",
        "label": "maxGlobalShortSizes",
        "offset": 0,
        "slot": "15",
        "type": "t_mapping(t_address,t_uint256)"
      },
      {
        "astId": 12303,
        "contract": "contracts/core/PositionManager.sol:PositionManager",
        "label": "feeReserves",
        "offset": 0,
        "slot": "16",
        "type": "t_mapping(t_address,t_uint256)"
      }
    ],
    "types": {
      "t_address": {
        "encoding": "inplace",
        "label": "address",
        "numberOfBytes": "20"
      },
      "t_bool": {
        "encoding": "inplace",
        "label": "bool",
        "numberOfBytes": "1"
      },
      "t_mapping(t_address,t_bool)": {
        "encoding": "mapping",
        "key": "t_address",
        "label": "mapping(address => bool)",
        "numberOfBytes": "32",
        "value": "t_bool"
      },
      "t_mapping(t_address,t_uint256)": {
        "encoding": "mapping",
        "key": "t_address",
        "label": "mapping(address => uint256)",
        "numberOfBytes": "32",
        "value": "t_uint256"
      },
      "t_uint256": {
        "encoding": "inplace",
        "label": "uint256",
        "numberOfBytes": "32"
      }
    }
  }
}