{
  "address": "0x4A679253410272dd5232B3Ff7cF5dbB88f295319",
  "abi": [
    {
      "inputs": [],
      "name": "BASIS_POINTS_DIVISOR",
      "outputs": [
        {
          "internalType": "uint256",
          "name": "",
          "type": "uint256"
        }
      ],
      "stateMutability": "view",
      "type": "function"
    },
    {
      "inputs": [],
      "name": "POSITION_PROPS_LENGTH",
      "outputs": [
        {
          "internalType": "uint256",
          "name": "",
          "type": "uint256"
        }
      ],
      "stateMutability": "view",
      "type": "function"
    },
    {
      "inputs": [],
      "name": "PRICE_PRECISION",
      "outputs": [
        {
          "internalType": "uint256",
          "name": "",
          "type": "uint256"
        }
      ],
      "stateMutability": "view",
      "type": "function"
    },
    {
      "inputs": [],
      "name": "USDM_DECIMALS",
      "outputs": [
        {
          "internalType": "uint256",
          "name": "",
          "type": "uint256"
        }
      ],
      "stateMutability": "view",
      "type": "function"
    },
    {
      "inputs": [
        {
          "internalType": "contract IVault",
          "name": "_vault",
          "type": "address"
        },
        {
          "internalType": "address",
          "name": "_tokenIn",
          "type": "address"
        },
        {
          "internalType": "address",
          "name": "_tokenOut",
          "type": "address"
        },
        {
          "internalType": "uint256",
          "name": "_amountIn",
          "type": "uint256"
        }
      ],
      "name": "getAmountOut",
      "outputs": [
        {
          "internalType": "uint256",
          "name": "",
          "type": "uint256"
        },
        {
          "internalType": "uint256",
          "name": "",
          "type": "uint256"
        }
      ],
      "stateMutability": "view",
      "type": "function"
    },
    {
      "inputs": [
        {
          "internalType": "contract IVault",
          "name": "_vault",
          "type": "address"
        },
        {
          "internalType": "address",
          "name": "_tokenIn",
          "type": "address"
        },
        {
          "internalType": "address",
          "name": "_tokenOut",
          "type": "address"
        },
        {
          "internalType": "uint256",
          "name": "_amountIn",
          "type": "uint256"
        }
      ],
      "name": "getFeeBasisPoints",
      "outputs": [
        {
          "internalType": "uint256",
          "name": "",
          "type": "uint256"
        },
        {
          "internalType": "uint256",
          "name": "",
          "type": "uint256"
        },
        {
          "internalType": "uint256",
          "name": "",
          "type": "uint256"
        }
      ],
      "stateMutability": "view",
      "type": "function"
    },
    {
      "inputs": [
        {
          "internalType": "address",
          "name": "_vault",
          "type": "address"
        },
        {
          "internalType": "address[]",
          "name": "_tokens",
          "type": "address[]"
        }
      ],
      "name": "getFees",
      "outputs": [
        {
          "internalType": "uint256[]",
          "name": "",
          "type": "uint256[]"
        }
      ],
      "stateMutability": "view",
      "type": "function"
    },
    {
      "inputs": [
        {
          "internalType": "address",
          "name": "_vault",
          "type": "address"
        },
        {
          "internalType": "address",
          "name": "_weth",
          "type": "address"
        },
        {
          "internalType": "uint256",
          "name": "_usdmAmount",
          "type": "uint256"
        },
        {
          "internalType": "address[]",
          "name": "_tokens",
          "type": "address[]"
        }
      ],
      "name": "getFullVaultTokenInfo",
      "outputs": [
        {
          "internalType": "uint256[]",
          "name": "",
          "type": "uint256[]"
        }
      ],
      "stateMutability": "view",
      "type": "function"
    },
    {
      "inputs": [
        {
          "internalType": "address",
          "name": "_vault",
          "type": "address"
        },
        {
          "internalType": "address",
          "name": "_weth",
          "type": "address"
        },
        {
          "internalType": "address[]",
          "name": "_tokens",
          "type": "address[]"
        }
      ],
      "name": "getFundingRates",
      "outputs": [
        {
          "internalType": "uint256[]",
          "name": "",
          "type": "uint256[]"
        }
      ],
      "stateMutability": "view",
      "type": "function"
    },
    {
      "inputs": [
        {
          "internalType": "contract IVault",
          "name": "_vault",
          "type": "address"
        },
        {
          "internalType": "address",
          "name": "_tokenIn",
          "type": "address"
        },
        {
          "internalType": "address",
          "name": "_tokenOut",
          "type": "address"
        }
      ],
      "name": "getMaxAmountIn",
      "outputs": [
        {
          "internalType": "uint256",
          "name": "",
          "type": "uint256"
        }
      ],
      "stateMutability": "view",
      "type": "function"
    },
    {
      "inputs": [
        {
          "internalType": "address",
          "name": "_factory",
          "type": "address"
        },
        {
          "internalType": "address[]",
          "name": "_tokens",
          "type": "address[]"
        }
      ],
      "name": "getPairInfo",
      "outputs": [
        {
          "internalType": "uint256[]",
          "name": "",
          "type": "uint256[]"
        }
      ],
      "stateMutability": "view",
      "type": "function"
    },
    {
      "inputs": [
        {
          "internalType": "address",
          "name": "_vault",
          "type": "address"
        },
        {
          "internalType": "address",
          "name": "_account",
          "type": "address"
        },
        {
          "internalType": "address[]",
          "name": "_collateralTokens",
          "type": "address[]"
        },
        {
          "internalType": "address[]",
          "name": "_indexTokens",
          "type": "address[]"
        },
        {
          "internalType": "bool[]",
          "name": "_isLong",
          "type": "bool[]"
        }
      ],
      "name": "getPositions",
      "outputs": [
        {
          "internalType": "uint256[]",
          "name": "",
          "type": "uint256[]"
        }
      ],
      "stateMutability": "view",
      "type": "function"
    },
    {
      "inputs": [
        {
          "internalType": "contract IVaultPriceFeed",
          "name": "_priceFeed",
          "type": "address"
        },
        {
          "internalType": "address[]",
          "name": "_tokens",
          "type": "address[]"
        }
      ],
      "name": "getPrices",
      "outputs": [
        {
          "internalType": "uint256[]",
          "name": "",
          "type": "uint256[]"
        }
      ],
      "stateMutability": "view",
      "type": "function"
    },
    {
      "inputs": [
        {
          "internalType": "address",
          "name": "_account",
          "type": "address"
        },
        {
          "internalType": "address[]",
          "name": "_yieldTrackers",
          "type": "address[]"
        }
      ],
      "name": "getStakingInfo",
      "outputs": [
        {
          "internalType": "uint256[]",
          "name": "",
          "type": "uint256[]"
        }
      ],
      "stateMutability": "view",
      "type": "function"
    },
    {
      "inputs": [
        {
          "internalType": "address",
          "name": "_account",
          "type": "address"
        },
        {
          "internalType": "address[]",
          "name": "_tokens",
          "type": "address[]"
        }
      ],
      "name": "getTokenBalances",
      "outputs": [
        {
          "internalType": "uint256[]",
          "name": "",
          "type": "uint256[]"
        }
      ],
      "stateMutability": "view",
      "type": "function"
    },
    {
      "inputs": [
        {
          "internalType": "address",
          "name": "_account",
          "type": "address"
        },
        {
          "internalType": "address[]",
          "name": "_tokens",
          "type": "address[]"
        }
      ],
      "name": "getTokenBalancesWithSupplies",
      "outputs": [
        {
          "internalType": "uint256[]",
          "name": "",
          "type": "uint256[]"
        }
      ],
      "stateMutability": "view",
      "type": "function"
    },
    {
      "inputs": [
        {
          "internalType": "contract IERC20",
          "name": "_token",
          "type": "address"
        },
        {
          "internalType": "address[]",
          "name": "_excludedAccounts",
          "type": "address[]"
        }
      ],
      "name": "getTokenSupply",
      "outputs": [
        {
          "internalType": "uint256",
          "name": "",
          "type": "uint256"
        }
      ],
      "stateMutability": "view",
      "type": "function"
    },
    {
      "inputs": [
        {
          "internalType": "contract IERC20",
          "name": "_token",
          "type": "address"
        },
        {
          "internalType": "address[]",
          "name": "_accounts",
          "type": "address[]"
        }
      ],
      "name": "getTotalBalance",
      "outputs": [
        {
          "internalType": "uint256",
          "name": "",
          "type": "uint256"
        }
      ],
      "stateMutability": "view",
      "type": "function"
    },
    {
      "inputs": [
        {
          "internalType": "address[]",
          "name": "_yieldTokens",
          "type": "address[]"
        }
      ],
      "name": "getTotalStaked",
      "outputs": [
        {
          "internalType": "uint256[]",
          "name": "",
          "type": "uint256[]"
        }
      ],
      "stateMutability": "view",
      "type": "function"
    },
    {
      "inputs": [
        {
          "internalType": "address",
          "name": "_vault",
          "type": "address"
        },
        {
          "internalType": "address",
          "name": "_weth",
          "type": "address"
        },
        {
          "internalType": "uint256",
          "name": "_usdmAmount",
          "type": "uint256"
        },
        {
          "internalType": "address[]",
          "name": "_tokens",
          "type": "address[]"
        }
      ],
      "name": "getVaultTokenInfo",
      "outputs": [
        {
          "internalType": "uint256[]",
          "name": "",
          "type": "uint256[]"
        }
      ],
      "stateMutability": "view",
      "type": "function"
    },
    {
      "inputs": [
        {
          "internalType": "address",
          "name": "_vault",
          "type": "address"
        },
        {
          "internalType": "address",
          "name": "_weth",
          "type": "address"
        },
        {
          "internalType": "uint256",
          "name": "_usdmAmount",
          "type": "uint256"
        },
        {
          "internalType": "address[]",
          "name": "_tokens",
          "type": "address[]"
        }
      ],
      "name": "getVaultTokenInfoV2",
      "outputs": [
        {
          "internalType": "uint256[]",
          "name": "",
          "type": "uint256[]"
        }
      ],
      "stateMutability": "view",
      "type": "function"
    },
    {
      "inputs": [
        {
          "internalType": "address",
          "name": "_account",
          "type": "address"
        },
        {
          "internalType": "address[]",
          "name": "_vesters",
          "type": "address[]"
        }
      ],
      "name": "getVestingInfo",
      "outputs": [
        {
          "internalType": "uint256[]",
          "name": "",
          "type": "uint256[]"
        }
      ],
      "stateMutability": "view",
      "type": "function"
    },
    {
      "inputs": [],
      "name": "gov",
      "outputs": [
        {
          "internalType": "address",
          "name": "",
          "type": "address"
        }
      ],
      "stateMutability": "view",
      "type": "function"
    },
    {
      "inputs": [],
      "name": "hasMaxGlobalShortSizes",
      "outputs": [
        {
          "internalType": "bool",
          "name": "",
          "type": "bool"
        }
      ],
      "stateMutability": "view",
      "type": "function"
    },
    {
      "inputs": [
        {
          "internalType": "bool",
          "name": "_hasMaxGlobalShortSizes",
          "type": "bool"
        }
      ],
      "name": "setConfig",
      "outputs": [],
      "stateMutability": "nonpayable",
      "type": "function"
    },
    {
      "inputs": [
        {
          "internalType": "address",
          "name": "_gov",
          "type": "address"
        }
      ],
      "name": "setGov",
      "outputs": [],
      "stateMutability": "nonpayable",
      "type": "function"
    }
  ],
  "transactionHash": "0xbfa9a06c678a56726ace36554f8ba00b1ad20f873cbbedfdede06c4bca0bec0e",
  "args": [],
  "numDeployments": 1,
  "solcInputHash": "1fb095c2a8736afe292bad1aa4a33281",
  "bytecode": "0x608060405234801561001057600080fd5b50600080546001600160a01b031916331790556159ff80620000336000396000f3fe608060405234801561001057600080fd5b506004361061013e5760003560e01c8063126082cf1461014357806312d43a511461015d57806320542568146101815780632413c8c1146102925780632ac0184c146103335780632e3e3342146103e4578063302a8141146104955780633613d5271461049d578063440f018c1461054e57806348211934146105a85780637b906e931461065957806386d4d0f51461071a5780638e83ca32146107cb578063937a0be81461088c57806395082d251461093d57806395a7535a146109455780639b0183c3146109ff578063a4543ead14610a20578063ad7e549714610ad1578063c6f1d67614610ad9578063cfad57a214610af5578063d7176ca914610b1b578063d802178e14610b70578063dc383cab14610c21578063f3535e6c14610ddf578063fbdb05ca14610e17575b600080fd5b61014b610ec8565b60408051918252519081900360200190f35b610165610ece565b604080516001600160a01b039092168252519081900360200190f35b6102426004803603608081101561019757600080fd5b6001600160a01b03823581169260208101359091169160408201359190810190608081016060820135600160201b8111156101d157600080fd5b8201836020820111156101e357600080fd5b803590602001918460208302840111600160201b8311171561020457600080fd5b919080806020026020016040519081016040528093929190818152602001838360200280828437600092019190915250929550610edd945050505050565b60408051602080825283518183015283519192839290830191858101910280838360005b8381101561027e578181015183820152602001610266565b505050509050019250505060405180910390f35b610242600480360360208110156102a857600080fd5b810190602081018135600160201b8111156102c257600080fd5b8201836020820111156102d457600080fd5b803590602001918460208302840111600160201b831117156102f557600080fd5b9190808060200260200160405190810160405280939291908181526020018383602002808284376000920191909152509295506115eb945050505050565b61014b6004803603604081101561034957600080fd5b6001600160a01b038235169190810190604081016020820135600160201b81111561037357600080fd5b82018360208201111561038557600080fd5b803590602001918460208302840111600160201b831117156103a657600080fd5b9190808060200260200160405190810160405280939291908181526020018383602002808284376000920191909152509295506116e4945050505050565b610242600480360360408110156103fa57600080fd5b6001600160a01b038235169190810190604081016020820135600160201b81111561042457600080fd5b82018360208201111561043657600080fd5b803590602001918460208302840111600160201b8311171561045757600080fd5b91908080602002602001604051908101604052809392919081815260200183836020028082843760009201919091525092955061180f945050505050565b61014b611a14565b610242600480360360408110156104b357600080fd5b6001600160a01b038235169190810190604081016020820135600160201b8111156104dd57600080fd5b8201836020820111156104ef57600080fd5b803590602001918460208302840111600160201b8311171561051057600080fd5b919080806020026020016040519081016040528093929190818152602001838360200280828437600092019190915250929550611a19945050505050565b61058a6004803603608081101561056457600080fd5b506001600160a01b03813581169160208101358216916040820135169060600135611e53565b60408051938452602084019290925282820152519081900360600190f35b610242600480360360408110156105be57600080fd5b6001600160a01b038235169190810190604081016020820135600160201b8111156105e857600080fd5b8201836020820111156105fa57600080fd5b803590602001918460208302840111600160201b8311171561061b57600080fd5b9190808060200260200160405190810160405280939291908181526020018383602002808284376000920191909152509295506123b8945050505050565b6102426004803603608081101561066f57600080fd5b6001600160a01b03823581169260208101359091169160408201359190810190608081016060820135600160201b8111156106a957600080fd5b8201836020820111156106bb57600080fd5b803590602001918460208302840111600160201b831117156106dc57600080fd5b91908080602002602001604051908101604052809392919081815260200183836020028082843760009201919091525092955061286c945050505050565b6102426004803603604081101561073057600080fd5b6001600160a01b038235169190810190604081016020820135600160201b81111561075a57600080fd5b82018360208201111561076c57600080fd5b803590602001918460208302840111600160201b8311171561078d57600080fd5b91908080602002602001604051908101604052809392919081815260200183836020028082843760009201919091525092955061309d945050505050565b610242600480360360808110156107e157600080fd5b6001600160a01b03823581169260208101359091169160408201359190810190608081016060820135600160201b81111561081b57600080fd5b82018360208201111561082d57600080fd5b803590602001918460208302840111600160201b8311171561084e57600080fd5b91908080602002602001604051908101604052809392919081815260200183836020028082843760009201919091525092955061319d945050505050565b610242600480360360408110156108a257600080fd5b6001600160a01b038235169190810190604081016020820135600160201b8111156108cc57600080fd5b8201836020820111156108de57600080fd5b803590602001918460208302840111600160201b831117156108ff57600080fd5b919080806020026020016040519081016040528093929190818152602001838360200280828437600092019190915250929550613b1a945050505050565b61014b613caf565b6102426004803603606081101561095b57600080fd5b6001600160a01b038235811692602081013590911691810190606081016040820135600160201b81111561098e57600080fd5b8201836020820111156109a057600080fd5b803590602001918460208302840111600160201b831117156109c157600080fd5b919080806020026020016040519081016040528093929190818152602001838360200280828437600092019190915250929550613cbf945050505050565b610a1e60048036036020811015610a1557600080fd5b5035151561418d565b005b61024260048036036040811015610a3657600080fd5b6001600160a01b038235169190810190604081016020820135600160201b811115610a6057600080fd5b820183602082011115610a7257600080fd5b803590602001918460208302840111600160201b83111715610a9357600080fd5b919080806020026020016040519081016040528093929190818152602001838360200280828437600092019190915250929550614202945050505050565b61014b61446e565b610ae1614473565b604080519115158252519081900360200190f35b610a1e60048036036020811015610b0b57600080fd5b50356001600160a01b0316614483565b610b5760048036036080811015610b3157600080fd5b506001600160a01b038135811691602081013582169160408201351690606001356144fc565b6040805192835260208301919091528051918290030190f35b61024260048036036040811015610b8657600080fd5b6001600160a01b038235169190810190604081016020820135600160201b811115610bb057600080fd5b820183602082011115610bc257600080fd5b803590602001918460208302840111600160201b83111715610be357600080fd5b919080806020026020016040519081016040528093929190818152602001838360200280828437600092019190915250929550614bb2945050505050565b610242600480360360a0811015610c3757600080fd5b6001600160a01b038235811692602081013590911691810190606081016040820135600160201b811115610c6a57600080fd5b820183602082011115610c7c57600080fd5b803590602001918460208302840111600160201b83111715610c9d57600080fd5b9190808060200260200160405190810160405280939291908181526020018383602002808284376000920191909152509295949360208101935035915050600160201b811115610cec57600080fd5b820183602082011115610cfe57600080fd5b803590602001918460208302840111600160201b83111715610d1f57600080fd5b9190808060200260200160405190810160405280939291908181526020018383602002808284376000920191909152509295949360208101935035915050600160201b811115610d6e57600080fd5b820183602082011115610d8057600080fd5b803590602001918460208302840111600160201b83111715610da157600080fd5b919080806020026020016040519081016040528093929190818152602001838360200280828437600092019190915250929550614cfe945050505050565b61014b60048036036060811015610df557600080fd5b506001600160a01b0381358116916020810135821691604090910135166150fa565b61014b60048036036040811015610e2d57600080fd5b6001600160a01b038235169190810190604081016020820135600160201b811115610e5757600080fd5b820183602082011115610e6957600080fd5b803590602001918460208302840111600160201b83111715610e8a57600080fd5b9190808060200260200160405190810160405280939291908181526020018383602002808284376000920191909152509295506156c1945050505050565b61271081565b6000546001600160a01b031681565b60606000600a905060008690506000816001600160a01b031663741bef1a6040518163ffffffff1660e01b815260040160206040518083038186803b158015610f2557600080fd5b505afa158015610f39573d6000803e3d6000fd5b505050506040513d6020811015610f4f57600080fd5b5051855190915060609084026001600160401b0381118015610f7057600080fd5b50604051908082528060200260200182016040528015610f9a578160200160208202803683370190505b50905060005b86518110156115de576000878281518110610fb757fe5b6020026020010151905060006001600160a01b0316816001600160a01b03161415610fdf5750885b846001600160a01b03166352f55eed826040518263ffffffff1660e01b815260040180826001600160a01b0316815260200191505060206040518083038186803b15801561102c57600080fd5b505afa158015611040573d6000803e3d6000fd5b505050506040513d602081101561105657600080fd5b50518351849084890290811061106857fe5b602002602001018181525050846001600160a01b031663c3c7b9e9826040518263ffffffff1660e01b815260040180826001600160a01b0316815260200191505060206040518083038186803b1580156110c157600080fd5b505afa1580156110d5573d6000803e3d6000fd5b505050506040513d60208110156110eb57600080fd5b5051835184906001858a020190811061110057fe5b602002602001018181525050846001600160a01b03166383867b2d826040518263ffffffff1660e01b815260040180826001600160a01b0316815260200191505060206040518083038186803b15801561115957600080fd5b505afa15801561116d573d6000803e3d6000fd5b505050506040513d602081101561118357600080fd5b5051835184906002858a020190811061119857fe5b602002602001018181525050846001600160a01b0316632c668ec1828b6040518363ffffffff1660e01b815260040180836001600160a01b031681526020018281526020019250505060206040518083038186803b1580156111f957600080fd5b505afa15801561120d573d6000803e3d6000fd5b505050506040513d602081101561122357600080fd5b5051835184906003858a020190811061123857fe5b602002602001018181525050846001600160a01b031663ab2f3ad4826040518263ffffffff1660e01b815260040180826001600160a01b0316815260200191505060206040518083038186803b15801561129157600080fd5b505afa1580156112a5573d6000803e3d6000fd5b505050506040513d60208110156112bb57600080fd5b5051835184906004858a02019081106112d057fe5b602002602001018181525050846001600160a01b03166381a612d6826040518263ffffffff1660e01b815260040180826001600160a01b0316815260200191505060206040518083038186803b15801561132957600080fd5b505afa15801561133d573d6000803e3d6000fd5b505050506040513d602081101561135357600080fd5b5051835184906005858a020190811061136857fe5b602002602001018181525050846001600160a01b031663e124e6d2826040518263ffffffff1660e01b815260040180826001600160a01b0316815260200191505060206040518083038186803b1580156113c157600080fd5b505afa1580156113d5573d6000803e3d6000fd5b505050506040513d60208110156113eb57600080fd5b5051835184906006858a020190811061140057fe5b602002602001018181525050846001600160a01b031663f07456ce826040518263ffffffff1660e01b815260040180826001600160a01b0316815260200191505060206040518083038186803b15801561145957600080fd5b505afa15801561146d573d6000803e3d6000fd5b505050506040513d602081101561148357600080fd5b5051835184906007858a020190811061149857fe5b602090810291909101810191909152604080516356c8c2c160e01b81526001600160a01b038481166004830152600060248301529151918716926356c8c2c192604480840193829003018186803b1580156114f257600080fd5b505afa158015611506573d6000803e3d6000fd5b505050506040513d602081101561151c57600080fd5b5051835184906008858a020190811061153157fe5b602090810291909101810191909152604080516356c8c2c160e01b81526001600160a01b038481166004830152600160248301529151918716926356c8c2c192604480840193829003018186803b15801561158b57600080fd5b505afa15801561159f573d6000803e3d6000fd5b505050506040513d60208110156115b557600080fd5b5051835184906009858a02019081106115ca57fe5b602090810291909101015250600101610fa0565b5098975050505050505050565b60608082516001600160401b038111801561160557600080fd5b5060405190808252806020026020018201604052801561162f578160200160208202803683370190505b50905060005b83518110156116dd57600084828151811061164c57fe5b60200260200101519050806001600160a01b031663817b1cd26040518163ffffffff1660e01b815260040160206040518083038186803b15801561168f57600080fd5b505afa1580156116a3573d6000803e3d6000fd5b505050506040513d60208110156116b957600080fd5b505183518490849081106116c957fe5b602090810291909101015250600101611635565b5092915050565b600080836001600160a01b03166318160ddd6040518163ffffffff1660e01b815260040160206040518083038186803b15801561172057600080fd5b505afa158015611734573d6000803e3d6000fd5b505050506040513d602081101561174a57600080fd5b5051905060005b835181101561180557600084828151811061176857fe5b602002602001015190506000866001600160a01b03166370a08231836040518263ffffffff1660e01b815260040180826001600160a01b0316815260200191505060206040518083038186803b1580156117c157600080fd5b505afa1580156117d5573d6000803e3d6000fd5b505050506040513d60208110156117eb57600080fd5b505190506117f9848261577a565b93505050600101611751565b5090505b92915050565b60606000600290506060818451026001600160401b038111801561183257600080fd5b5060405190808252806020026020018201604052801561185c578160200160208202803683370190505b50905060005b8451811015611a0b57600085828151811061187957fe5b6020026020010151905060006001600160a01b0316816001600160a01b031614156118e857866001600160a01b03163183858402815181106118b757fe5b602002602001018181525050600083858402600101815181106118d657fe5b60200260200101818152505050611a03565b806001600160a01b03166370a08231886040518263ffffffff1660e01b815260040180826001600160a01b0316815260200191505060206040518083038186803b15801561193557600080fd5b505afa158015611949573d6000803e3d6000fd5b505050506040513d602081101561195f57600080fd5b50518351849084870290811061197157fe5b602002602001018181525050806001600160a01b03166318160ddd6040518163ffffffff1660e01b815260040160206040518083038186803b1580156119b657600080fd5b505afa1580156119ca573d6000803e3d6000fd5b505050506040513d60208110156119e057600080fd5b5051835184906001858802019081106119f557fe5b602002602001018181525050505b600101611862565b50949350505050565b601281565b60606000600690506060818451026001600160401b0381118015611a3c57600080fd5b50604051908082528060200260200182016040528015611a66578160200160208202803683370190505b50905060005b8451811015611a0b576000858281518110611a8357fe5b602090810291909101810151604080516317e1d38560e11b81526001600160a01b0380841660048301526001602483018190526044830152600060648301529151929450908a1692632fc3a70a92608480840193829003018186803b158015611aeb57600080fd5b505afa158015611aff573d6000803e3d6000fd5b505050506040513d6020811015611b1557600080fd5b505183518490848702908110611b2757fe5b602090810291909101810191909152604080516317e1d38560e11b81526001600160a01b0384811660048301526000602483018190526001604484015260648301529151918a1692632fc3a70a92608480840193829003018186803b158015611b8f57600080fd5b505afa158015611ba3573d6000803e3d6000fd5b505050506040513d6020811015611bb957600080fd5b505183518490600185880201908110611bce57fe5b602090810291909101810191909152604080516356c8c2c160e01b81526001600160a01b038481166004830152600160248301529151918a16926356c8c2c192604480840193829003018186803b158015611c2857600080fd5b505afa158015611c3c573d6000803e3d6000fd5b505050506040513d6020811015611c5257600080fd5b505183518490600285880201908110611c6757fe5b602090810291909101810191909152604080516356c8c2c160e01b81526001600160a01b038481166004830152600060248301529151918a16926356c8c2c192604480840193829003018186803b158015611cc157600080fd5b505afa158015611cd5573d6000803e3d6000fd5b505050506040513d6020811015611ceb57600080fd5b505183518490600385880201908110611d0057fe5b602002602001018181525050866001600160a01b0316636ce8a44b826040518263ffffffff1660e01b815260040180826001600160a01b0316815260200191505060206040518083038186803b158015611d5957600080fd5b505afa158015611d6d573d6000803e3d6000fd5b505050506040513d6020811015611d8357600080fd5b5051611d90576000611d93565b60015b60ff168385840260040181518110611da757fe5b602002602001018181525050866001600160a01b03166348cac277826040518263ffffffff1660e01b815260040180826001600160a01b0316815260200191505060206040518083038186803b158015611e0057600080fd5b505afa158015611e14573d6000803e3d6000fd5b505050506040513d6020811015611e2a57600080fd5b505183518490600585880201908110611e3f57fe5b602090810291909101015250600101611a6c565b600080600080876001600160a01b03166381a612d6886040518263ffffffff1660e01b815260040180826001600160a01b0316815260200191505060206040518083038186803b158015611ea657600080fd5b505afa158015611eba573d6000803e3d6000fd5b505050506040513d6020811015611ed057600080fd5b5051604080516323b95ceb60e21b81526001600160a01b038a811660048301529151929350600092918b1691638ee573ac91602480820192602092909190829003018186803b158015611f2257600080fd5b505afa158015611f36573d6000803e3d6000fd5b505050506040513d6020811015611f4c57600080fd5b505190506000611f7268327cb2734119d3b7a9601e1b611f6c89866157bc565b90615815565b9050611f8e600a83900a611f6c83670de0b6b3a76400006157bc565b905060008a6001600160a01b03166342b60b038b6040518263ffffffff1660e01b815260040180826001600160a01b0316815260200191505060206040518083038186803b158015611fdf57600080fd5b505afa158015611ff3573d6000803e3d6000fd5b505050506040513d602081101561200957600080fd5b5051801561208c57508a6001600160a01b03166342b60b038a6040518263ffffffff1660e01b815260040180826001600160a01b0316815260200191505060206040518083038186803b15801561205f57600080fd5b505afa158015612073573d6000803e3d6000fd5b505050506040513d602081101561208957600080fd5b50515b90506000816120ff578b6001600160a01b031663a22f23926040518163ffffffff1660e01b815260040160206040518083038186803b1580156120ce57600080fd5b505afa1580156120e2573d6000803e3d6000fd5b505050506040513d60208110156120f857600080fd5b5051612165565b8b6001600160a01b031663df73a2676040518163ffffffff1660e01b815260040160206040518083038186803b15801561213857600080fd5b505afa15801561214c573d6000803e3d6000fd5b505050506040513d602081101561216257600080fd5b50515b90506000826121d8578c6001600160a01b0316637a210a2b6040518163ffffffff1660e01b815260040160206040518083038186803b1580156121a757600080fd5b505afa1580156121bb573d6000803e3d6000fd5b505050506040513d60208110156121d157600080fd5b505161223e565b8c6001600160a01b03166310eb56c26040518163ffffffff1660e01b815260040160206040518083038186803b15801561221157600080fd5b505afa158015612225573d6000803e3d6000fd5b505050506040513d602081101561223b57600080fd5b50515b905060008d6001600160a01b031663c7e074c38e87868660016040518663ffffffff1660e01b815260040180866001600160a01b0316815260200185815260200184815260200183815260200182151581526020019550505050505060206040518083038186803b1580156122b257600080fd5b505afa1580156122c6573d6000803e3d6000fd5b505050506040513d60208110156122dc57600080fd5b8101908080519060200190929190505050905060008e6001600160a01b031663c7e074c38e88878760006040518663ffffffff1660e01b815260040180866001600160a01b0316815260200185815260200184815260200183815260200182151581526020019550505050505060206040518083038186803b15801561236157600080fd5b505afa158015612375573d6000803e3d6000fd5b505050506040513d602081101561238b57600080fd5b50519050600081831161239e57816123a0565b825b9b509199509750505050505050509450945094915050565b60606000600790506060818451026001600160401b03811180156123db57600080fd5b50604051908082528060200260200182016040528015612405578160200160208202803683370190505b50905060005b8451811015611a0b57600085828151811061242257fe5b60200260200101519050806001600160a01b0316635d50e729886040518263ffffffff1660e01b815260040180826001600160a01b0316815260200191505060206040518083038186803b15801561247957600080fd5b505afa15801561248d573d6000803e3d6000fd5b505050506040513d60208110156124a357600080fd5b5051835184908487029081106124b557fe5b602002602001018181525050806001600160a01b031663d5a73fdd886040518263ffffffff1660e01b815260040180826001600160a01b0316815260200191505060206040518083038186803b15801561250e57600080fd5b505afa158015612522573d6000803e3d6000fd5b505050506040513d602081101561253857600080fd5b50518351849060018588020190811061254d57fe5b60200260200101818152505085828151811061256557fe5b60200260200101516001600160a01b03166370a08231886040518263ffffffff1660e01b815260040180826001600160a01b0316815260200191505060206040518083038186803b1580156125b957600080fd5b505afa1580156125cd573d6000803e3d6000fd5b505050506040513d60208110156125e357600080fd5b5051835184906002858802019081106125f857fe5b602002602001018181525050806001600160a01b03166371417b32886040518263ffffffff1660e01b815260040180826001600160a01b0316815260200191505060206040518083038186803b15801561265157600080fd5b505afa158015612665573d6000803e3d6000fd5b505050506040513d602081101561267b57600080fd5b50518351849060038588020190811061269057fe5b602002602001018181525050806001600160a01b031663402914f5886040518263ffffffff1660e01b815260040180826001600160a01b0316815260200191505060206040518083038186803b1580156126e957600080fd5b505afa1580156126fd573d6000803e3d6000fd5b505050506040513d602081101561271357600080fd5b50518351849060048588020190811061272857fe5b602002602001018181525050806001600160a01b03166308f26c76886040518263ffffffff1660e01b815260040180826001600160a01b0316815260200191505060206040518083038186803b15801561278157600080fd5b505afa158015612795573d6000803e3d6000fd5b505050506040513d60208110156127ab57600080fd5b5051835184906005858802019081106127c057fe5b602002602001018181525050806001600160a01b03166345f01ee6886040518263ffffffff1660e01b815260040180826001600160a01b0316815260200191505060206040518083038186803b15801561281957600080fd5b505afa15801561282d573d6000803e3d6000fd5b505050506040513d602081101561284357600080fd5b50518351849060068588020190811061285857fe5b60209081029190910101525060010161240b565b60606000600c905060008690506000816001600160a01b031663741bef1a6040518163ffffffff1660e01b815260040160206040518083038186803b1580156128b457600080fd5b505afa1580156128c8573d6000803e3d6000fd5b505050506040513d60208110156128de57600080fd5b5051855190915060609084026001600160401b03811180156128ff57600080fd5b50604051908082528060200260200182016040528015612929578160200160208202803683370190505b50905060005b86518110156115de57600087828151811061294657fe5b6020026020010151905060006001600160a01b0316816001600160a01b0316141561296e5750885b846001600160a01b03166352f55eed826040518263ffffffff1660e01b815260040180826001600160a01b0316815260200191505060206040518083038186803b1580156129bb57600080fd5b505afa1580156129cf573d6000803e3d6000fd5b505050506040513d60208110156129e557600080fd5b5051835184908489029081106129f757fe5b602002602001018181525050846001600160a01b031663c3c7b9e9826040518263ffffffff1660e01b815260040180826001600160a01b0316815260200191505060206040518083038186803b158015612a5057600080fd5b505afa158015612a64573d6000803e3d6000fd5b505050506040513d6020811015612a7a57600080fd5b5051835184906001858a0201908110612a8f57fe5b602002602001018181525050846001600160a01b03166383867b2d826040518263ffffffff1660e01b815260040180826001600160a01b0316815260200191505060206040518083038186803b158015612ae857600080fd5b505afa158015612afc573d6000803e3d6000fd5b505050506040513d6020811015612b1257600080fd5b5051835184906002858a0201908110612b2757fe5b602002602001018181525050846001600160a01b0316632c668ec1828b6040518363ffffffff1660e01b815260040180836001600160a01b031681526020018281526020019250505060206040518083038186803b158015612b8857600080fd5b505afa158015612b9c573d6000803e3d6000fd5b505050506040513d6020811015612bb257600080fd5b5051835184906003858a0201908110612bc757fe5b602002602001018181525050846001600160a01b031663ab2f3ad4826040518263ffffffff1660e01b815260040180826001600160a01b0316815260200191505060206040518083038186803b158015612c2057600080fd5b505afa158015612c34573d6000803e3d6000fd5b505050506040513d6020811015612c4a57600080fd5b5051835184906004858a0201908110612c5f57fe5b602002602001018181525050846001600160a01b0316634a993ee9826040518263ffffffff1660e01b815260040180826001600160a01b0316815260200191505060206040518083038186803b158015612cb857600080fd5b505afa158015612ccc573d6000803e3d6000fd5b505050506040513d6020811015612ce257600080fd5b5051835184906005858a0201908110612cf757fe5b602002602001018181525050846001600160a01b0316639acc6b33826040518263ffffffff1660e01b815260040180826001600160a01b0316815260200191505060206040518083038186803b158015612d5057600080fd5b505afa158015612d64573d6000803e3d6000fd5b505050506040513d6020811015612d7a57600080fd5b5051835184906006858a0201908110612d8f57fe5b602002602001018181525050846001600160a01b03166381a612d6826040518263ffffffff1660e01b815260040180826001600160a01b0316815260200191505060206040518083038186803b158015612de857600080fd5b505afa158015612dfc573d6000803e3d6000fd5b505050506040513d6020811015612e1257600080fd5b5051835184906007858a0201908110612e2757fe5b602002602001018181525050846001600160a01b031663e124e6d2826040518263ffffffff1660e01b815260040180826001600160a01b0316815260200191505060206040518083038186803b158015612e8057600080fd5b505afa158015612e94573d6000803e3d6000fd5b505050506040513d6020811015612eaa57600080fd5b5051835184906008858a0201908110612ebf57fe5b602002602001018181525050846001600160a01b031663f07456ce826040518263ffffffff1660e01b815260040180826001600160a01b0316815260200191505060206040518083038186803b158015612f1857600080fd5b505afa158015612f2c573d6000803e3d6000fd5b505050506040513d6020811015612f4257600080fd5b5051835184906009858a0201908110612f5757fe5b602090810291909101810191909152604080516356c8c2c160e01b81526001600160a01b038481166004830152600060248301529151918716926356c8c2c192604480840193829003018186803b158015612fb157600080fd5b505afa158015612fc5573d6000803e3d6000fd5b505050506040513d6020811015612fdb57600080fd5b505183518490600a858a0201908110612ff057fe5b602090810291909101810191909152604080516356c8c2c160e01b81526001600160a01b038481166004830152600160248301529151918716926356c8c2c192604480840193829003018186803b15801561304a57600080fd5b505afa15801561305e573d6000803e3d6000fd5b505050506040513d602081101561307457600080fd5b505183518490600b858a020190811061308957fe5b60209081029190910101525060010161292f565b60608082516001600160401b03811180156130b757600080fd5b506040519080825280602002602001820160405280156130e1578160200160208202803683370190505b50905060005b835181101561180557846001600160a01b0316631ce9cb8f85838151811061310b57fe5b60200260200101516040518263ffffffff1660e01b815260040180826001600160a01b0316815260200191505060206040518083038186803b15801561315057600080fd5b505afa158015613164573d6000803e3d6000fd5b505050506040513d602081101561317a57600080fd5b5051825183908390811061318a57fe5b60209081029190910101526001016130e7565b60606000600e905060008690506000816001600160a01b031663741bef1a6040518163ffffffff1660e01b815260040160206040518083038186803b1580156131e557600080fd5b505afa1580156131f9573d6000803e3d6000fd5b505050506040513d602081101561320f57600080fd5b5051855190915060609084026001600160401b038111801561323057600080fd5b5060405190808252806020026020018201604052801561325a578160200160208202803683370190505b50905060005b86518110156115de57600087828151811061327757fe5b6020026020010151905060006001600160a01b0316816001600160a01b0316141561329f5750885b60008054600160a01b900460ff166132b8576000613332565b856001600160a01b0316639698d25a836040518263ffffffff1660e01b815260040180826001600160a01b0316815260200191505060206040518083038186803b15801561330557600080fd5b505afa158015613319573d6000803e3d6000fd5b505050506040513d602081101561332f57600080fd5b50515b9050856001600160a01b03166352f55eed836040518263ffffffff1660e01b815260040180826001600160a01b0316815260200191505060206040518083038186803b15801561338157600080fd5b505afa158015613395573d6000803e3d6000fd5b505050506040513d60208110156133ab57600080fd5b505184518590858a029081106133bd57fe5b602002602001018181525050856001600160a01b031663c3c7b9e9836040518263ffffffff1660e01b815260040180826001600160a01b0316815260200191505060206040518083038186803b15801561341657600080fd5b505afa15801561342a573d6000803e3d6000fd5b505050506040513d602081101561344057600080fd5b5051845185906001868b020190811061345557fe5b602002602001018181525050856001600160a01b03166383867b2d836040518263ffffffff1660e01b815260040180826001600160a01b0316815260200191505060206040518083038186803b1580156134ae57600080fd5b505afa1580156134c2573d6000803e3d6000fd5b505050506040513d60208110156134d857600080fd5b5051845185906002868b02019081106134ed57fe5b602002602001018181525050856001600160a01b0316632c668ec1838c6040518363ffffffff1660e01b815260040180836001600160a01b031681526020018281526020019250505060206040518083038186803b15801561354e57600080fd5b505afa158015613562573d6000803e3d6000fd5b505050506040513d602081101561357857600080fd5b5051845185906003868b020190811061358d57fe5b602002602001018181525050856001600160a01b031663ab2f3ad4836040518263ffffffff1660e01b815260040180826001600160a01b0316815260200191505060206040518083038186803b1580156135e657600080fd5b505afa1580156135fa573d6000803e3d6000fd5b505050506040513d602081101561361057600080fd5b5051845185906004868b020190811061362557fe5b602002602001018181525050856001600160a01b0316634a993ee9836040518263ffffffff1660e01b815260040180826001600160a01b0316815260200191505060206040518083038186803b15801561367e57600080fd5b505afa158015613692573d6000803e3d6000fd5b505050506040513d60208110156136a857600080fd5b5051845185906005868b02019081106136bd57fe5b602002602001018181525050856001600160a01b0316639acc6b33836040518263ffffffff1660e01b815260040180826001600160a01b0316815260200191505060206040518083038186803b15801561371657600080fd5b505afa15801561372a573d6000803e3d6000fd5b505050506040513d602081101561374057600080fd5b5051845185906006868b020190811061375557fe5b602002602001018181525050856001600160a01b0316638a78daa8836040518263ffffffff1660e01b815260040180826001600160a01b0316815260200191505060206040518083038186803b1580156137ae57600080fd5b505afa1580156137c2573d6000803e3d6000fd5b505050506040513d60208110156137d857600080fd5b5051845185906007868b02019081106137ed57fe5b60200260200101818152505080848885026008018151811061380b57fe5b602002602001018181525050856001600160a01b03166381a612d6836040518263ffffffff1660e01b815260040180826001600160a01b0316815260200191505060206040518083038186803b15801561386457600080fd5b505afa158015613878573d6000803e3d6000fd5b505050506040513d602081101561388e57600080fd5b5051845185906009868b02019081106138a357fe5b602002602001018181525050856001600160a01b031663e124e6d2836040518263ffffffff1660e01b815260040180826001600160a01b0316815260200191505060206040518083038186803b1580156138fc57600080fd5b505afa158015613910573d6000803e3d6000fd5b505050506040513d602081101561392657600080fd5b505184518590600a868b020190811061393b57fe5b602002602001018181525050856001600160a01b031663f07456ce836040518263ffffffff1660e01b815260040180826001600160a01b0316815260200191505060206040518083038186803b15801561399457600080fd5b505afa1580156139a8573d6000803e3d6000fd5b505050506040513d60208110156139be57600080fd5b505184518590600b868b02019081106139d357fe5b602090810291909101810191909152604080516356c8c2c160e01b81526001600160a01b038581166004830152600060248301529151918816926356c8c2c192604480840193829003018186803b158015613a2d57600080fd5b505afa158015613a41573d6000803e3d6000fd5b505050506040513d6020811015613a5757600080fd5b505184518590600c868b0201908110613a6c57fe5b602090810291909101810191909152604080516356c8c2c160e01b81526001600160a01b038581166004830152600160248301529151918816926356c8c2c192604480840193829003018186803b158015613ac657600080fd5b505afa158015613ada573d6000803e3d6000fd5b505050506040513d6020811015613af057600080fd5b505184518590600d868b0201908110613b0557fe5b60209081029190910101525050600101613260565b60606000600290506060818451026001600160401b0381118015613b3d57600080fd5b50604051908082528060200260200182016040528015613b67578160200160208202803683370190505b50905060005b8451811015611a0b576000858281518110613b8457fe5b60200260200101519050806001600160a01b031663402914f5886040518263ffffffff1660e01b815260040180826001600160a01b0316815260200191505060206040518083038186803b158015613bdb57600080fd5b505afa158015613bef573d6000803e3d6000fd5b505050506040513d6020811015613c0557600080fd5b505183518490848702908110613c1757fe5b602002602001018181525050806001600160a01b0316632459f51d6040518163ffffffff1660e01b815260040160206040518083038186803b158015613c5c57600080fd5b505afa158015613c70573d6000803e3d6000fd5b505050506040513d6020811015613c8657600080fd5b505183518490600185880201908110613c9b57fe5b602090810291909101015250600101613b6d565b68327cb2734119d3b7a9601e1b81565b60606000600290506060818451026001600160401b0381118015613ce257600080fd5b50604051908082528060200260200182016040528015613d0c578160200160208202803683370190505b5090508560005b855181101561417f576000868281518110613d2a57fe5b6020026020010151905060006001600160a01b0316816001600160a01b03161415613d525750865b6000836001600160a01b03166342b60b03836040518263ffffffff1660e01b815260040180826001600160a01b0316815260200191505060206040518083038186803b158015613da157600080fd5b505afa158015613db5573d6000803e3d6000fd5b505050506040513d6020811015613dcb57600080fd5b5051613e3b57836001600160a01b031663c4f718bf6040518163ffffffff1660e01b815260040160206040518083038186803b158015613e0a57600080fd5b505afa158015613e1e573d6000803e3d6000fd5b505050506040513d6020811015613e3457600080fd5b5051613ea1565b836001600160a01b031663134ca63b6040518163ffffffff1660e01b815260040160206040518083038186803b158015613e7457600080fd5b505afa158015613e88573d6000803e3d6000fd5b505050506040513d6020811015613e9e57600080fd5b50515b90506000846001600160a01b031663c3c7b9e9846040518263ffffffff1660e01b815260040180826001600160a01b0316815260200191505060206040518083038186803b158015613ef257600080fd5b505afa158015613f06573d6000803e3d6000fd5b505050506040513d6020811015613f1c57600080fd5b5051604080516352f55eed60e01b81526001600160a01b0386811660048301529151929350600092918816916352f55eed91602480820192602092909190829003018186803b158015613f6e57600080fd5b505afa158015613f82573d6000803e3d6000fd5b505050506040513d6020811015613f9857600080fd5b505190508015613fcb57613fb081611f6c85856157bc565b8789870281518110613fbe57fe5b6020026020010181815250505b6000866001600160a01b031663c65bc7b1866040518263ffffffff1660e01b815260040180826001600160a01b0316815260200191505060206040518083038186803b15801561401a57600080fd5b505afa15801561402e573d6000803e3d6000fd5b505050506040513d602081101561404457600080fd5b5051111561416f576000866001600160a01b031663a93acac2866040518263ffffffff1660e01b815260040180826001600160a01b0316815260200191505060206040518083038186803b15801561409b57600080fd5b505afa1580156140af573d6000803e3d6000fd5b505050506040513d60208110156140c557600080fd5b50516040805163c65bc7b160e01b81526001600160a01b0388811660048301529151929350600092918a169163c65bc7b191602480820192602092909190829003018186803b15801561411757600080fd5b505afa15801561412b573d6000803e3d6000fd5b505050506040513d602081101561414157600080fd5b5051905061414f8183615854565b898b89026001018151811061416057fe5b60200260200101818152505050505b505060019092019150613d139050565b5090925050505b9392505050565b6000546001600160a01b031633146141e4576040805162461bcd60e51b815260206004820152601560248201527423b7bb32b93730b136329d103337b93134b23232b760591b604482015290519081900360640190fd5b60008054911515600160a01b0260ff60a01b19909216919091179055565b80516060906002908190839082900482026001600160401b038111801561422857600080fd5b50604051908082528060200260200182016040528015614252578160200160208202803683370190505b50905060005b8386518161426257fe5b04811015614464576000868583028151811061427a57fe5b602002602001015190506000878684026001018151811061429757fe5b602002602001015190506000896001600160a01b031663e6a4390584846040518363ffffffff1660e01b815260040180836001600160a01b03168152602001826001600160a01b031681526020019250505060206040518083038186803b15801561430157600080fd5b505afa158015614315573d6000803e3d6000fd5b505050506040513d602081101561432b57600080fd5b5051604080516370a0823160e01b81526001600160a01b0380841660048301529151929350908516916370a0823191602480820192602092909190829003018186803b15801561437a57600080fd5b505afa15801561438e573d6000803e3d6000fd5b505050506040513d60208110156143a457600080fd5b5051855186908689029081106143b657fe5b602002602001018181525050816001600160a01b03166370a08231826040518263ffffffff1660e01b815260040180826001600160a01b0316815260200191505060206040518083038186803b15801561440f57600080fd5b505afa158015614423573d6000803e3d6000fd5b505050506040513d602081101561443957600080fd5b5051855186906001878a020190811061444e57fe5b6020908102919091010152505050600101614258565b5095945050505050565b600981565b600054600160a01b900460ff1681565b6000546001600160a01b031633146144da576040805162461bcd60e51b815260206004820152601560248201527423b7bb32b93730b136329d103337b93134b23232b760591b604482015290519081900360640190fd5b600080546001600160a01b0319166001600160a01b0392909216919091179055565b6000806000866001600160a01b03166381a612d6876040518263ffffffff1660e01b815260040180826001600160a01b0316815260200191505060206040518083038186803b15801561454e57600080fd5b505afa158015614562573d6000803e3d6000fd5b505050506040513d602081101561457857600080fd5b5051604080516323b95ceb60e21b81526001600160a01b0389811660048301529151929350600092918a1691638ee573ac91602480820192602092909190829003018186803b1580156145ca57600080fd5b505afa1580156145de573d6000803e3d6000fd5b505050506040513d60208110156145f457600080fd5b5051604080516323b95ceb60e21b81526001600160a01b0389811660048301529151929350600092918b1691638ee573ac91602480820192602092909190829003018186803b15801561464657600080fd5b505afa15801561465a573d6000803e3d6000fd5b505050506040513d602081101561467057600080fd5b5051905060008061469168327cb2734119d3b7a9601e1b611f6c8a886157bc565b90506146ad600a85900a611f6c83670de0b6b3a76400006157bc565b905060008b6001600160a01b03166342b60b038c6040518263ffffffff1660e01b815260040180826001600160a01b0316815260200191505060206040518083038186803b1580156146fe57600080fd5b505afa158015614712573d6000803e3d6000fd5b505050506040513d602081101561472857600080fd5b505180156147ab57508b6001600160a01b03166342b60b038b6040518263ffffffff1660e01b815260040180826001600160a01b0316815260200191505060206040518083038186803b15801561477e57600080fd5b505afa158015614792573d6000803e3d6000fd5b505050506040513d60208110156147a857600080fd5b50515b905060008161481e578c6001600160a01b031663a22f23926040518163ffffffff1660e01b815260040160206040518083038186803b1580156147ed57600080fd5b505afa158015614801573d6000803e3d6000fd5b505050506040513d602081101561481757600080fd5b5051614884565b8c6001600160a01b031663df73a2676040518163ffffffff1660e01b815260040160206040518083038186803b15801561485757600080fd5b505afa15801561486b573d6000803e3d6000fd5b505050506040513d602081101561488157600080fd5b50515b90506000826148f7578d6001600160a01b0316637a210a2b6040518163ffffffff1660e01b815260040160206040518083038186803b1580156148c657600080fd5b505afa1580156148da573d6000803e3d6000fd5b505050506040513d60208110156148f057600080fd5b505161495d565b8d6001600160a01b03166310eb56c26040518163ffffffff1660e01b815260040160206040518083038186803b15801561493057600080fd5b505afa158015614944573d6000803e3d6000fd5b505050506040513d602081101561495a57600080fd5b50515b905060008e6001600160a01b031663c7e074c38f87868660016040518663ffffffff1660e01b815260040180866001600160a01b0316815260200185815260200184815260200183815260200182151581526020019550505050505060206040518083038186803b1580156149d157600080fd5b505afa1580156149e5573d6000803e3d6000fd5b505050506040513d60208110156149fb57600080fd5b8101908080519060200190929190505050905060008f6001600160a01b031663c7e074c38f88878760006040518663ffffffff1660e01b815260040180866001600160a01b0316815260200185815260200184815260200183815260200182151581526020019550505050505060206040518083038186803b158015614a8057600080fd5b505afa158015614a94573d6000803e3d6000fd5b505050506040513d6020811015614aaa57600080fd5b50519050808211614abb5780614abd565b815b965050505050505060008a6001600160a01b031663e124e6d28a6040518263ffffffff1660e01b815260040180826001600160a01b0316815260200191505060206040518083038186803b158015614b1457600080fd5b505afa158015614b28573d6000803e3d6000fd5b505050506040513d6020811015614b3e57600080fd5b505190506000614b5282611f6c8b896157bc565b9050614b7185600a0a611f6c86600a0a846157bc90919063ffffffff16565b90506000614b8f612710611f6c614b88828861577a565b85906157bc565b90506000614b9d838361577a565b919e919d50909b505050505050505050505050565b60608082516001600160401b0381118015614bcc57600080fd5b50604051908082528060200260200182016040528015614bf6578160200160208202803683370190505b50905060005b8351811015611805576000848281518110614c1357fe5b6020026020010151905060006001600160a01b0316816001600160a01b03161415614c6157856001600160a01b031631838381518110614c4f57fe5b60200260200101818152505050614cf6565b806001600160a01b03166370a08231876040518263ffffffff1660e01b815260040180826001600160a01b0316815260200191505060206040518083038186803b158015614cae57600080fd5b505afa158015614cc2573d6000803e3d6000fd5b505050506040513d6020811015614cd857600080fd5b50518351849084908110614ce857fe5b602002602001018181525050505b600101614bfc565b60608060098551026001600160401b0381118015614d1b57600080fd5b50604051908082528060200260200182016040528015614d45578160200160208202803683370190505b50905060005b85518110156150ef5760008060008060008060008e6001600160a01b0316634a3f088d8f8f8b81518110614d7b57fe5b60200260200101518f8c81518110614d8f57fe5b60200260200101518f8d81518110614da357fe5b60200260200101516040518563ffffffff1660e01b815260040180856001600160a01b03168152602001846001600160a01b03168152602001836001600160a01b0316815260200182151581526020019450505050506101006040518083038186803b158015614e1257600080fd5b505afa158015614e26573d6000803e3d6000fd5b505050506040513d610100811015614e3d57600080fd5b50805160208201516040830151606084015160a085015160c086015160e0909601518f51959d50939b509199509750955091935090915087908a9060098b02908110614e8557fe5b602002602001018181525050858960098a0260010181518110614ea457fe5b602002602001018181525050848960098a0260020181518110614ec357fe5b602002602001018181525050838960098a0260030181518110614ee257fe5b60200260200101818152505081614efa576000614efd565b60015b60ff168960098a0260040181518110614f1257fe5b602002602001018181525050828960098a0260050181518110614f3157fe5b602002602001018181525050808960098a0260060181518110614f5057fe5b602002602001018181525050505050505050506000826009830281518110614f7457fe5b602002602001015190506000836009840260020181518110614f9257fe5b602002602001015190506000846009850260060181518110614fb057fe5b6020026020010151905060008211156150e4576000808c6001600160a01b0316635c07eaab8b8881518110614fe157fe5b602002602001015187878d8b81518110614ff757fe5b6020026020010151886040518663ffffffff1660e01b815260040180866001600160a01b03168152602001858152602001848152602001831515815260200182815260200195505050505050604080518083038186803b15801561505a57600080fd5b505afa15801561506e573d6000803e3d6000fd5b505050506040513d604081101561508457600080fd5b50805160209091015190925090508161509e5760006150a1565b60015b60ff168760098802600701815181106150b657fe5b602002602001018181525050808760098802600801815181106150d557fe5b60200260200101818152505050505b505050600101614d4b565b509695505050505050565b600080846001600160a01b03166381a612d6856040518263ffffffff1660e01b815260040180826001600160a01b0316815260200191505060206040518083038186803b15801561514a57600080fd5b505afa15801561515e573d6000803e3d6000fd5b505050506040513d602081101561517457600080fd5b505160408051637092736960e11b81526001600160a01b03868116600483015291519293506000929188169163e124e6d291602480820192602092909190829003018186803b1580156151c657600080fd5b505afa1580156151da573d6000803e3d6000fd5b505050506040513d60208110156151f057600080fd5b5051604080516323b95ceb60e21b81526001600160a01b038881166004830152915192935060009291891691638ee573ac91602480820192602092909190829003018186803b15801561524257600080fd5b505afa158015615256573d6000803e3d6000fd5b505050506040513d602081101561526c57600080fd5b5051604080516323b95ceb60e21b81526001600160a01b0388811660048301529151929350600092918a1691638ee573ac91602480820192602092909190829003018186803b1580156152be57600080fd5b505afa1580156152d2573d6000803e3d6000fd5b505050506040513d60208110156152e857600080fd5b5051604080516352f55eed60e01b81526001600160a01b038981166004830152915192935060009283928c16916352f55eed916024808301926020929190829003018186803b15801561533a57600080fd5b505afa15801561534e573d6000803e3d6000fd5b505050506040513d602081101561536457600080fd5b50516040805163c3c7b9e960e01b81526001600160a01b038b811660048301529151929350600092918d169163c3c7b9e991602480820192602092909190829003018186803b1580156153b657600080fd5b505afa1580156153ca573d6000803e3d6000fd5b505050506040513d60208110156153e057600080fd5b505160408051634a993ee960e01b81526001600160a01b038c811660048301529151929350600092918e1691634a993ee991602480820192602092909190829003018186803b15801561543257600080fd5b505afa158015615446573d6000803e3d6000fd5b505050506040513d602081101561545c57600080fd5b50519050600081831161546f5781615471565b825b905083811061548c5760009950505050505050505050614186565b6000615498858361577a565b90506154c587600a0a611f6c8a600a0a6154bf8e611f6c8f886157bc90919063ffffffff16565b906157bc565b955050505050506000896001600160a01b0316639acc6b338a6040518263ffffffff1660e01b815260040180826001600160a01b0316815260200191505060206040518083038186803b15801561551b57600080fd5b505afa15801561552f573d6000803e3d6000fd5b505050506040513d602081101561554557600080fd5b5051905080156115de57896001600160a01b03166383867b2d8a6040518263ffffffff1660e01b815260040180826001600160a01b0316815260200191505060206040518083038186803b15801561559c57600080fd5b505afa1580156155b0573d6000803e3d6000fd5b505050506040513d60208110156155c657600080fd5b50518110156155de5760009650505050505050614186565b60006156638b6001600160a01b03166383867b2d8c6040518263ffffffff1660e01b815260040180826001600160a01b0316815260200191505060206040518083038186803b15801561563057600080fd5b505afa158015615644573d6000803e3d6000fd5b505050506040513d602081101561565a57600080fd5b5051839061577a565b905061567f670de0b6b3a7640000611f6c83600a89900a6157bc565b905061569b87611f6c8368327cb2734119d3b7a9601e1b6157bc565b9050808311156156b357965061418695505050505050565b505098975050505050505050565b600080805b83518110156118055760008482815181106156dd57fe5b602002602001015190506000866001600160a01b03166370a08231836040518263ffffffff1660e01b815260040180826001600160a01b0316815260200191505060206040518083038186803b15801561573657600080fd5b505afa15801561574a573d6000803e3d6000fd5b505050506040513d602081101561576057600080fd5b5051905061576e8482615854565b935050506001016156c6565b600061418683836040518060400160405280601e81526020017f536166654d6174683a207375627472616374696f6e206f766572666c6f7700008152506158ac565b6000826157cb57506000611809565b828202828482816157d857fe5b04146141865760405162461bcd60e51b81526004018080602001828103825260218152602001806159a96021913960400191505060405180910390fd5b600061418683836040518060400160405280601a815260200179536166654d6174683a206469766973696f6e206279207a65726f60301b815250615943565b600082820183811015614186576040805162461bcd60e51b815260206004820152601b60248201527a536166654d6174683a206164646974696f6e206f766572666c6f7760281b604482015290519081900360640190fd5b6000818484111561593b5760405162461bcd60e51b81526004018080602001828103825283818151815260200191508051906020019080838360005b838110156159005781810151838201526020016158e8565b50505050905090810190601f16801561592d5780820380516001836020036101000a031916815260200191505b509250505060405180910390fd5b505050900390565b600081836159925760405162461bcd60e51b81526020600482018181528351602484015283519092839260449091019190850190808383600083156159005781810151838201526020016158e8565b50600083858161599e57fe5b049594505050505056fe536166654d6174683a206d756c7469706c69636174696f6e206f766572666c6f77a26469706673582212205f3fb1e580a69f9dac3bf0f89ce149b25c5abc653309365f6b7b2a987aebe9b364736f6c634300060c0033",
  "devdoc": {
    "kind": "dev",
    "methods": {},
    "version": 1
  },
  "userdoc": {
    "kind": "user",
    "methods": {},
    "version": 1
  },
  "storageLayout": {
    "storage": [
      {
        "astId": 3,
        "contract": "contracts/peripherals/Reader.sol:Reader",
        "label": "gov",
        "offset": 0,
        "slot": "0",
        "type": "t_address"
      },
      {
        "astId": 12556,
        "contract": "contracts/peripherals/Reader.sol:Reader",
        "label": "hasMaxGlobalShortSizes",
        "offset": 20,
        "slot": "0",
        "type": "t_bool"
      }
    ],
    "types": {
      "t_address": {
        "encoding": "inplace",
        "label": "address",
        "numberOfBytes": "20"
      },
      "t_bool": {
        "encoding": "inplace",
        "label": "bool",
        "numberOfBytes": "1"
      }
    }
  }
}