{
  "address": "0xCf7Ed3AccA5a467e9e704C703E8D87F634fB0Fc9",
  "abi": [
    {
      "inputs": [
        {
          "internalType": "address",
          "name": "_vault",
          "type": "address"
        },
        {
          "internalType": "address",
          "name": "_usdm",
          "type": "address"
        },
        {
          "internalType": "address",
          "name": "_weth",
          "type": "address"
        }
      ],
      "stateMutability": "nonpayable",
      "type": "constructor"
    },
    {
      "inputs": [
        {
          "internalType": "address",
          "name": "_plugin",
          "type": "address"
        }
      ],
      "name": "addPlugin",
      "outputs": [],
      "stateMutability": "nonpayable",
      "type": "function"
    },
    {
      "inputs": [
        {
          "internalType": "address",
          "name": "_plugin",
          "type": "address"
        }
      ],
      "name": "approvePlugin",
      "outputs": [],
      "stateMutability": "nonpayable",
      "type": "function"
    },
    {
      "inputs": [
        {
          "internalType": "address",
          "name": "",
          "type": "address"
        },
        {
          "internalType": "address",
          "name": "",
          "type": "address"
        }
      ],
      "name": "approvedPlugins",
      "outputs": [
        {
          "internalType": "bool",
          "name": "",
          "type": "bool"
        }
      ],
      "stateMutability": "view",
      "type": "function"
    },
    {
      "inputs": [
        {
          "internalType": "address",
          "name": "_collateralToken",
          "type": "address"
        },
        {
          "internalType": "address",
          "name": "_indexToken",
          "type": "address"
        },
        {
          "internalType": "uint256",
          "name": "_collateralDelta",
          "type": "uint256"
        },
        {
          "internalType": "uint256",
          "name": "_sizeDelta",
          "type": "uint256"
        },
        {
          "internalType": "bool",
          "name": "_isLong",
          "type": "bool"
        },
        {
          "internalType": "address",
          "name": "_receiver",
          "type": "address"
        },
        {
          "internalType": "uint256",
          "name": "_price",
          "type": "uint256"
        }
      ],
      "name": "decreasePosition",
      "outputs": [],
      "stateMutability": "nonpayable",
      "type": "function"
    },
    {
      "inputs": [
        {
          "internalType": "address[]",
          "name": "_path",
          "type": "address[]"
        },
        {
          "internalType": "address",
          "name": "_indexToken",
          "type": "address"
        },
        {
          "internalType": "uint256",
          "name": "_collateralDelta",
          "type": "uint256"
        },
        {
          "internalType": "uint256",
          "name": "_sizeDelta",
          "type": "uint256"
        },
        {
          "internalType": "bool",
          "name": "_isLong",
          "type": "bool"
        },
        {
          "internalType": "address",
          "name": "_receiver",
          "type": "address"
        },
        {
          "internalType": "uint256",
          "name": "_price",
          "type": "uint256"
        },
        {
          "internalType": "uint256",
          "name": "_minOut",
          "type": "uint256"
        }
      ],
      "name": "decreasePositionAndSwap",
      "outputs": [],
      "stateMutability": "nonpayable",
      "type": "function"
    },
    {
      "inputs": [
        {
          "internalType": "address[]",
          "name": "_path",
          "type": "address[]"
        },
        {
          "internalType": "address",
          "name": "_indexToken",
          "type": "address"
        },
        {
          "internalType": "uint256",
          "name": "_collateralDelta",
          "type": "uint256"
        },
        {
          "internalType": "uint256",
          "name": "_sizeDelta",
          "type": "uint256"
        },
        {
          "internalType": "bool",
          "name": "_isLong",
          "type": "bool"
        },
        {
          "internalType": "address payable",
          "name": "_receiver",
          "type": "address"
        },
        {
          "internalType": "uint256",
          "name": "_price",
          "type": "uint256"
        },
        {
          "internalType": "uint256",
          "name": "_minOut",
          "type": "uint256"
        }
      ],
      "name": "decreasePositionAndSwapETH",
      "outputs": [],
      "stateMutability": "nonpayable",
      "type": "function"
    },
    {
      "inputs": [
        {
          "internalType": "address",
          "name": "_collateralToken",
          "type": "address"
        },
        {
          "internalType": "address",
          "name": "_indexToken",
          "type": "address"
        },
        {
          "internalType": "uint256",
          "name": "_collateralDelta",
          "type": "uint256"
        },
        {
          "internalType": "uint256",
          "name": "_sizeDelta",
          "type": "uint256"
        },
        {
          "internalType": "bool",
          "name": "_isLong",
          "type": "bool"
        },
        {
          "internalType": "address payable",
          "name": "_receiver",
          "type": "address"
        },
        {
          "internalType": "uint256",
          "name": "_price",
          "type": "uint256"
        }
      ],
      "name": "decreasePositionETH",
      "outputs": [],
      "stateMutability": "nonpayable",
      "type": "function"
    },
    {
      "inputs": [
        {
          "internalType": "address",
          "name": "_plugin",
          "type": "address"
        }
      ],
      "name": "denyPlugin",
      "outputs": [],
      "stateMutability": "nonpayable",
      "type": "function"
    },
    {
      "inputs": [
        {
          "internalType": "address",
          "name": "_token",
          "type": "address"
        },
        {
          "internalType": "uint256",
          "name": "_amount",
          "type": "uint256"
        }
      ],
      "name": "directPoolDeposit",
      "outputs": [],
      "stateMutability": "nonpayable",
      "type": "function"
    },
    {
      "inputs": [],
      "name": "gov",
      "outputs": [
        {
          "internalType": "address",
          "name": "",
          "type": "address"
        }
      ],
      "stateMutability": "view",
      "type": "function"
    },
    {
      "inputs": [
        {
          "internalType": "address[]",
          "name": "_path",
          "type": "address[]"
        },
        {
          "internalType": "address",
          "name": "_indexToken",
          "type": "address"
        },
        {
          "internalType": "uint256",
          "name": "_amountIn",
          "type": "uint256"
        },
        {
          "internalType": "uint256",
          "name": "_minOut",
          "type": "uint256"
        },
        {
          "internalType": "uint256",
          "name": "_sizeDelta",
          "type": "uint256"
        },
        {
          "internalType": "bool",
          "name": "_isLong",
          "type": "bool"
        },
        {
          "internalType": "uint256",
          "name": "_price",
          "type": "uint256"
        }
      ],
      "name": "increasePosition",
      "outputs": [],
      "stateMutability": "nonpayable",
      "type": "function"
    },
    {
      "inputs": [
        {
          "internalType": "address[]",
          "name": "_path",
          "type": "address[]"
        },
        {
          "internalType": "address",
          "name": "_indexToken",
          "type": "address"
        },
        {
          "internalType": "uint256",
          "name": "_minOut",
          "type": "uint256"
        },
        {
          "internalType": "uint256",
          "name": "_sizeDelta",
          "type": "uint256"
        },
        {
          "internalType": "bool",
          "name": "_isLong",
          "type": "bool"
        },
        {
          "internalType": "uint256",
          "name": "_price",
          "type": "uint256"
        }
      ],
      "name": "increasePositionETH",
      "outputs": [],
      "stateMutability": "payable",
      "type": "function"
    },
    {
      "inputs": [
        {
          "internalType": "address",
          "name": "_account",
          "type": "address"
        },
        {
          "internalType": "address",
          "name": "_collateralToken",
          "type": "address"
        },
        {
          "internalType": "address",
          "name": "_indexToken",
          "type": "address"
        },
        {
          "internalType": "uint256",
          "name": "_collateralDelta",
          "type": "uint256"
        },
        {
          "internalType": "uint256",
          "name": "_sizeDelta",
          "type": "uint256"
        },
        {
          "internalType": "bool",
          "name": "_isLong",
          "type": "bool"
        },
        {
          "internalType": "address",
          "name": "_receiver",
          "type": "address"
        }
      ],
      "name": "pluginDecreasePosition",
      "outputs": [
        {
          "internalType": "uint256",
          "name": "",
          "type": "uint256"
        }
      ],
      "stateMutability": "nonpayable",
      "type": "function"
    },
    {
      "inputs": [
        {
          "internalType": "address",
          "name": "_account",
          "type": "address"
        },
        {
          "internalType": "address",
          "name": "_collateralToken",
          "type": "address"
        },
        {
          "internalType": "address",
          "name": "_indexToken",
          "type": "address"
        },
        {
          "internalType": "uint256",
          "name": "_sizeDelta",
          "type": "uint256"
        },
        {
          "internalType": "bool",
          "name": "_isLong",
          "type": "bool"
        }
      ],
      "name": "pluginIncreasePosition",
      "outputs": [],
      "stateMutability": "nonpayable",
      "type": "function"
    },
    {
      "inputs": [
        {
          "internalType": "address",
          "name": "_token",
          "type": "address"
        },
        {
          "internalType": "address",
          "name": "_account",
          "type": "address"
        },
        {
          "internalType": "address",
          "name": "_receiver",
          "type": "address"
        },
        {
          "internalType": "uint256",
          "name": "_amount",
          "type": "uint256"
        }
      ],
      "name": "pluginTransfer",
      "outputs": [],
      "stateMutability": "nonpayable",
      "type": "function"
    },
    {
      "inputs": [
        {
          "internalType": "address",
          "name": "",
          "type": "address"
        }
      ],
      "name": "plugins",
      "outputs": [
        {
          "internalType": "bool",
          "name": "",
          "type": "bool"
        }
      ],
      "stateMutability": "view",
      "type": "function"
    },
    {
      "inputs": [
        {
          "internalType": "address",
          "name": "_plugin",
          "type": "address"
        }
      ],
      "name": "removePlugin",
      "outputs": [],
      "stateMutability": "nonpayable",
      "type": "function"
    },
    {
      "inputs": [
        {
          "internalType": "address",
          "name": "_gov",
          "type": "address"
        }
      ],
      "name": "setGov",
      "outputs": [],
      "stateMutability": "nonpayable",
      "type": "function"
    },
    {
      "inputs": [
        {
          "internalType": "address[]",
          "name": "_path",
          "type": "address[]"
        },
        {
          "internalType": "uint256",
          "name": "_amountIn",
          "type": "uint256"
        },
        {
          "internalType": "uint256",
          "name": "_minOut",
          "type": "uint256"
        },
        {
          "internalType": "address",
          "name": "_receiver",
          "type": "address"
        }
      ],
      "name": "swap",
      "outputs": [],
      "stateMutability": "nonpayable",
      "type": "function"
    },
    {
      "inputs": [
        {
          "internalType": "address[]",
          "name": "_path",
          "type": "address[]"
        },
        {
          "internalType": "uint256",
          "name": "_minOut",
          "type": "uint256"
        },
        {
          "internalType": "address",
          "name": "_receiver",
          "type": "address"
        }
      ],
      "name": "swapETHToTokens",
      "outputs": [],
      "stateMutability": "payable",
      "type": "function"
    },
    {
      "inputs": [
        {
          "internalType": "address[]",
          "name": "_path",
          "type": "address[]"
        },
        {
          "internalType": "uint256",
          "name": "_amountIn",
          "type": "uint256"
        },
        {
          "internalType": "uint256",
          "name": "_minOut",
          "type": "uint256"
        },
        {
          "internalType": "address payable",
          "name": "_receiver",
          "type": "address"
        }
      ],
      "name": "swapTokensToETH",
      "outputs": [],
      "stateMutability": "nonpayable",
      "type": "function"
    },
    {
      "inputs": [],
      "name": "usdm",
      "outputs": [
        {
          "internalType": "address",
          "name": "",
          "type": "address"
        }
      ],
      "stateMutability": "view",
      "type": "function"
    },
    {
      "inputs": [],
      "name": "vault",
      "outputs": [
        {
          "internalType": "address",
          "name": "",
          "type": "address"
        }
      ],
      "stateMutability": "view",
      "type": "function"
    },
    {
      "inputs": [],
      "name": "weth",
      "outputs": [
        {
          "internalType": "address",
          "name": "",
          "type": "address"
        }
      ],
      "stateMutability": "view",
      "type": "function"
    },
    {
      "stateMutability": "payable",
      "type": "receive"
    }
  ],
  "transactionHash": "0x4f1319447db8d182b085e0b0e473e6b10272d4c1423fe8ec31b651051c2bdd1b",
  "args": [
    "0x5FbDB2315678afecb367f032d93F642f64180aa3",
    "0xe7f1725E7734CE288F8367e1Bb143E90bb3F0512",
    "0x9fE46736679d2D9a65F0992F2272dE9f3c7fa6e0"
  ],
  "numDeployments": 1,
  "solcInputHash": "1fb095c2a8736afe292bad1aa4a33281",
  "bytecode": "0x608060405234801561001057600080fd5b506040516127733803806127738339818101604052606081101561003357600080fd5b5080516020820151604090920151600380546001600160a01b039384166001600160a01b0319918216179091556002805494841694821694909417909355600180549290911691831691909117905560008054909116331790556126d78061009c6000396000f3fe60806040526004361061011f5760003560e01c806312d43a51146101f05780631b827878146102215780631f1dd1761461026c5780632662166b146102bd5780632d4ba6a7146103305780633039e37f146103f257806338c74dd9146104d25780633fc8cef314610505578063430ed37c1461051a5780634b12e643146105795780635fc8500e146105c05780636023e966146106a057806390205d8c1461076257806390b64ad3146107c1578063956f285e146107fa578063a4d95b6414610835578063abe68eaa14610868578063b32755de14610917578063b7ddc992146109da578063cedd437514610ab0578063cfad57a214610ae3578063d8867fc814610b16578063ee138d0f14610b49578063fbfa77cf14610b5e576101eb565b366101eb576001546040805180820190915260168152752937baba32b91d1034b73b30b634b21039b2b73232b960511b6020820152906001600160a01b031633146101e85760405162461bcd60e51b81526004018080602001828103825283818151815260200191508051906020019080838360005b838110156101ad578181015183820152602001610195565b50505050905090810190601f1680156101da5780820380516001836020036101000a031916815260200191505b509250505060405180910390fd5b50005b600080fd5b3480156101fc57600080fd5b50610205610b73565b604080516001600160a01b039092168252519081900360200190f35b34801561022d57600080fd5b5061026a6004803603608081101561024457600080fd5b506001600160a01b03813581169160208101358216916040820135169060600135610b82565b005b34801561027857600080fd5b5061026a600480360360a081101561028f57600080fd5b506001600160a01b038135811691602081013582169160408201351690606081013590608001351515610ba6565b3480156102c957600080fd5b5061031e600480360360e08110156102e057600080fd5b506001600160a01b0381358116916020810135821691604082013581169160608101359160808201359160a081013515159160c09091013516610c3b565b60408051918252519081900360200190f35b34801561033c57600080fd5b5061026a6004803603608081101561035357600080fd5b810190602081018135600160201b81111561036d57600080fd5b82018360208201111561037f57600080fd5b803590602001918460208302840111600160201b831117156103a057600080fd5b91908080602002602001604051908101604052809392919081815260200183836020028082843760009201919091525092955050823593505050602081013590604001356001600160a01b0316610cfb565b3480156103fe57600080fd5b5061026a600480360361010081101561041657600080fd5b810190602081018135600160201b81111561043057600080fd5b82018360208201111561044257600080fd5b803590602001918460208302840111600160201b8311171561046357600080fd5b919080806020026020016040519081016040528093929190818152602001838360200280828437600092019190915250929550505081356001600160a01b0390811693506020830135926040810135925060608101351515916080820135169060a08101359060c00135610e94565b3480156104de57600080fd5b5061026a600480360360208110156104f557600080fd5b50356001600160a01b0316610fcb565b34801561051157600080fd5b50610205610ffc565b34801561052657600080fd5b5061026a600480360360e081101561053d57600080fd5b506001600160a01b0381358116916020810135821691604082013591606081013591608082013515159160a08101359091169060c0013561100b565b34801561058557600080fd5b506105ac6004803603602081101561059c57600080fd5b50356001600160a01b0316611032565b604080519115158252519081900360200190f35b3480156105cc57600080fd5b5061026a60048036036101008110156105e457600080fd5b810190602081018135600160201b8111156105fe57600080fd5b82018360208201111561061057600080fd5b803590602001918460208302840111600160201b8311171561063157600080fd5b919080806020026020016040519081016040528093929190818152602001838360200280828437600092019190915250929550505081356001600160a01b0390811693506020830135926040810135925060608101351515916080820135169060a08101359060c00135611047565b3480156106ac57600080fd5b5061026a600480360360808110156106c357600080fd5b810190602081018135600160201b8111156106dd57600080fd5b8201836020820111156106ef57600080fd5b803590602001918460208302840111600160201b8311171561071057600080fd5b91908080602002602001604051908101604052809392919081815260200183836020028082843760009201919091525092955050823593505050602081013590604001356001600160a01b031661108d565b34801561076e57600080fd5b5061026a600480360360e081101561078557600080fd5b506001600160a01b0381358116916020810135821691604082013591606081013591608082013515159160a08101359091169060c001356110c4565b3480156107cd57600080fd5b5061026a600480360360408110156107e457600080fd5b506001600160a01b0381351690602001356110d3565b34801561080657600080fd5b506105ac6004803603604081101561081d57600080fd5b506001600160a01b038135811691602001351661115f565b34801561084157600080fd5b5061026a6004803603602081101561085857600080fd5b50356001600160a01b031661117f565b61026a6004803603606081101561087e57600080fd5b810190602081018135600160201b81111561089857600080fd5b8201836020820111156108aa57600080fd5b803590602001918460208302840111600160201b831117156108cb57600080fd5b91908080602002602001604051908101604052809392919081815260200183836020028082843760009201919091525092955050823593505050602001356001600160a01b0316611223565b61026a600480360360c081101561092d57600080fd5b810190602081018135600160201b81111561094757600080fd5b82018360208201111561095957600080fd5b803590602001918460208302840111600160201b8311171561097a57600080fd5b919080806020026020016040519081016040528093929190818152602001838360200280828437600092019190915250929550506001600160a01b038335169350505060208101359060408101359060608101351515906080013561136a565b3480156109e657600080fd5b5061026a600480360360e08110156109fd57600080fd5b810190602081018135600160201b811115610a1757600080fd5b820183602082011115610a2957600080fd5b803590602001918460208302840111600160201b83111715610a4a57600080fd5b919080806020026020016040519081016040528093929190818152602001838360200280828437600092019190915250929550506001600160a01b0383351693505050602081013590604081013590606081013590608081013515159060a0013561148c565b348015610abc57600080fd5b5061026a60048036036020811015610ad357600080fd5b50356001600160a01b0316611539565b348015610aef57600080fd5b5061026a60048036036020811015610b0657600080fd5b50356001600160a01b0316611567565b348015610b2257600080fd5b5061026a60048036036020811015610b3957600080fd5b50356001600160a01b031661160c565b348015610b5557600080fd5b506102056116b3565b348015610b6a57600080fd5b506102056116c2565b6000546001600160a01b031681565b610b8b836116d1565b610ba06001600160a01b03851684848461180a565b50505050565b610baf856116d1565b600354604080516348d91abf60e01b81526001600160a01b03888116600483015287811660248301528681166044830152606482018690528415156084830152915191909216916348d91abf9160a480830192600092919082900301818387803b158015610c1c57600080fd5b505af1158015610c30573d6000803e3d6000fd5b505050505050505050565b6000610c46886116d1565b6003546040805163082a084960e41b81526001600160a01b038b811660048301528a811660248301528981166044830152606482018990526084820188905286151560a483015285811660c4830152915191909216916382a084909160e48083019260209291908290030181600087803b158015610cc357600080fd5b505af1158015610cd7573d6000803e3d6000fd5b505050506040513d6020811015610ced57600080fd5b505198975050505050505050565b60015484516001600160a01b039091169085906000198101908110610d1c57fe5b60200260200101516001600160a01b03161460405180604001604052806015815260200160008051602061259183398151915281525090610d9e5760405162461bcd60e51b81526020600482018181528351602484015283519092839260449091019190850190808383600083156101ad578181015183820152602001610195565b50610de9610daa611864565b60035486516001600160a01b039091169086908890600090610dc857fe5b60200260200101516001600160a01b031661180a909392919063ffffffff16565b6000610df6858430611868565b9050610e0281836119d3565b6000805160206126348339815191523386600081518110610e1f57fe5b602002602001015187600189510381518110610e3757fe5b6020026020010151878560405180866001600160a01b03168152602001856001600160a01b03168152602001846001600160a01b031681526020018381526020018281526020019550505050505060405180910390a15050505050565b60015488516001600160a01b039091169089906000198101908110610eb557fe5b60200260200101516001600160a01b03161460405180604001604052806015815260200160008051602061259183398151915281525090610f375760405162461bcd60e51b81526020600482018181528351602484015283519092839260449091019190850190808383600083156101ad578181015183820152602001610195565b506000610f5d89600081518110610f4a57fe5b6020026020010151898989893089611a4c565b9050610fa6600360009054906101000a90046001600160a01b0316828b600081518110610f8657fe5b60200260200101516001600160a01b0316611cb69092919063ffffffff16565b6000610fb38a8430611868565b9050610fbf81866119d3565b50505050505050505050565b3360009081526005602090815260408083206001600160a01b0394909416835292905220805460ff19166001179055565b6001546001600160a01b031681565b600061101c88888888883088611a4c565b905061102881846119d3565b5050505050505050565b60046020526000908152604090205460ff1681565b600061105989600081518110610f4a57fe5b9050611082600360009054906101000a90046001600160a01b0316828b600081518110610f8657fe5b610fbf898386611868565b611098610daa611864565b60006110a5858484611868565b90506000805160206126348339815191523386600081518110610e1f57fe5b61102887878787878787611a4c565b6110f56110de611864565b6003546001600160a01b038581169291168461180a565b60035460408051635f7bc11960e01b81526001600160a01b03858116600483015291519190921691635f7bc11991602480830192600092919082900301818387803b15801561114357600080fd5b505af1158015611157573d6000803e3d6000fd5b505050505050565b600560209081526000928352604080842090915290825290205460ff1681565b6000546040805180820190915260118152702937baba32b91d103337b93134b23232b760791b6020820152906001600160a01b031633146112015760405162461bcd60e51b81526020600482018181528351602484015283519092839260449091019190850190808383600083156101ad578181015183820152602001610195565b506001600160a01b03166000908152600460205260409020805460ff19169055565b60015483516001600160a01b0390911690849060009061123f57fe5b60200260200101516001600160a01b031614604051806040016040528060158152602001600080516020612591833981519152815250906112c15760405162461bcd60e51b81526020600482018181528351602484015283519092839260449091019190850190808383600083156101ad578181015183820152602001610195565b506112ca611d0d565b60006112d7848484611868565b905060008051602061263483398151915233856000815181106112f657fe5b60200260200101518660018851038151811061130e57fe5b6020026020010151348560405180866001600160a01b03168152602001856001600160a01b03168152602001846001600160a01b031681526020018381526020018281526020019550505050505060405180910390a150505050565b60015486516001600160a01b0390911690879060009061138657fe5b60200260200101516001600160a01b031614604051806040016040528060158152602001600080516020612591833981519152815250906114085760405162461bcd60e51b81526020600482018181528351602484015283519092839260449091019190850190808383600083156101ad578181015183820152602001610195565b50341561141757611417611d0d565b600186511180156114285750600034115b1561146857600061143a878630611868565b9050611466600360009054906101000a90046001600160a01b0316828960018b510381518110610f8657fe5b505b6111578660018851038151811061147b57fe5b602002602001015186858585611d96565b84156114bb576114bb61149d611864565b60035489516001600160a01b039091169088908b90600090610dc857fe5b600187511180156114cc5750600085115b1561150c5760006114de888630611868565b905061150a600360009054906101000a90046001600160a01b0316828a60018c510381518110610f8657fe5b505b6115308760018951038151811061151f57fe5b602002602001015187858585611d96565b50505050505050565b3360009081526005602090815260408083206001600160a01b0394909416835292905220805460ff19169055565b6000546040805180820190915260118152702937baba32b91d103337b93134b23232b760791b6020820152906001600160a01b031633146115e95760405162461bcd60e51b81526020600482018181528351602484015283519092839260449091019190850190808383600083156101ad578181015183820152602001610195565b50600080546001600160a01b0319166001600160a01b0392909216919091179055565b6000546040805180820190915260118152702937baba32b91d103337b93134b23232b760791b6020820152906001600160a01b0316331461168e5760405162461bcd60e51b81526020600482018181528351602484015283519092839260449091019190850190808383600083156101ad578181015183820152602001610195565b506001600160a01b03166000908152600460205260409020805460ff19166001179055565b6002546001600160a01b031681565b6003546001600160a01b031681565b3360009081526004602090815260409182902054825180840190935260168352752937baba32b91d1034b73b30b634b21038363ab3b4b760511b9183019190915260ff166117605760405162461bcd60e51b81526020600482018181528351602484015283519092839260449091019190850190808383600083156101ad578181015183820152602001610195565b506001600160a01b0381166000908152600560209081526040808320338452825291829020548251808401909352601b83527a149bdd5d195c8e881c1b1d59da5b881b9bdd08185c1c1c9bdd9959602a1b9183019190915260ff166118065760405162461bcd60e51b81526020600482018181528351602484015283519092839260449091019190850190808383600083156101ad578181015183820152602001610195565b5050565b604080516001600160a01b0380861660248301528416604482015260648082018490528251808303909101815260849091019091526020810180516001600160e01b03166323b872dd60e01b179052610ba0908590611fee565b3390565b60008351600214156118af576118a88460008151811061188457fe5b60200260200101518560018151811061189957fe5b6020026020010151858561209f565b90506119cc565b8351600314156119555760006118f0856000815181106118cb57fe5b6020026020010151866001815181106118e057fe5b602002602001015160003061209f565b9050611919600360009054906101000a90046001600160a01b03168287600181518110610f8657fe5b61194d8560018151811061192957fe5b60200260200101518660028151811061193e57fe5b6020026020010151868661209f565b9150506119cc565b604080518082018252601c81527b0a4deeae8cae47440d2dcecc2d8d2c840bee0c2e8d05cd8cadccee8d60231b6020808301918252925162461bcd60e51b815260048101938452825160248201528251929392839260449092019190808383600083156101ad578181015183820152602001610195565b9392505050565b60015460408051632e1a7d4d60e01b81526004810185905290516001600160a01b0390921691632e1a7d4d9160248082019260009290919082900301818387803b158015611a2057600080fd5b505af1158015611a34573d6000803e3d6000fd5b50611806925050506001600160a01b038216836122cc565b60008315611b4057600354604080516340d3096b60e11b81526001600160a01b038a811660048301529151859392909216916381a612d691602480820192602092909190829003018186803b158015611aa457600080fd5b505afa158015611ab8573d6000803e3d6000fd5b505050506040513d6020811015611ace57600080fd5b505160408051606081019091526023808252929091101591612611602083013990611b3a5760405162461bcd60e51b81526020600482018181528351602484015283519092839260449091019190850190808383600083156101ad578181015183820152602001610195565b50611c28565b60035460408051637092736960e11b81526001600160a01b038a8116600483015291518593929092169163e124e6d291602480820192602092909190829003018186803b158015611b9057600080fd5b505afa158015611ba4573d6000803e3d6000fd5b505050506040513d6020811015611bba57600080fd5b50516040805160608101909152602480825292909111159161267e602083013990611c265760405162461bcd60e51b81526020600482018181528351602484015283519092839260449091019190850190808383600083156101ad578181015183820152602001610195565b505b6003546001600160a01b03166382a08490611c41611864565b604080516001600160e01b031960e085901b1681526001600160a01b039283166004820152828d166024820152828c166044820152606481018b9052608481018a905288151560a482015291871660c48301525160e48083019260209291908290030181600087803b158015610cc357600080fd5b604080516001600160a01b038416602482015260448082018490528251808303909101815260649091019091526020810180516001600160e01b031663a9059cbb60e01b179052611d08908490611fee565b505050565b600160009054906101000a90046001600160a01b03166001600160a01b031663d0e30db0346040518263ffffffff1660e01b81526004016000604051808303818588803b158015611d5d57600080fd5b505af1158015611d71573d6000803e3d6000fd5b5050600354600154611d9494506001600160a01b03908116935016905034611cb6565b565b8115611e885760035460408051637092736960e11b81526001600160a01b03878116600483015291518493929092169163e124e6d291602480820192602092909190829003018186803b158015611dec57600080fd5b505afa158015611e00573d6000803e3d6000fd5b505050506040513d6020811015611e1657600080fd5b50516040805160608101909152602480825292909111159161267e602083013990611e825760405162461bcd60e51b81526020600482018181528351602484015283519092839260449091019190850190808383600083156101ad578181015183820152602001610195565b50611f70565b600354604080516340d3096b60e11b81526001600160a01b0387811660048301529151849392909216916381a612d691602480820192602092909190829003018186803b158015611ed857600080fd5b505afa158015611eec573d6000803e3d6000fd5b505050506040513d6020811015611f0257600080fd5b505160408051606081019091526023808252929091101591612611602083013990611f6e5760405162461bcd60e51b81526020600482018181528351602484015283519092839260449091019190850190808383600083156101ad578181015183820152602001610195565b505b6003546001600160a01b03166348d91abf611f89611864565b604080516001600160e01b031960e085901b1681526001600160a01b039283166004820152828a16602482015291881660448301526064820187905285151560848301525160a480830192600092919082900301818387803b158015610c1c57600080fd5b6060612043826040518060400160405280602081526020017f5361666545524332303a206c6f772d6c6576656c2063616c6c206661696c6564815250856001600160a01b03166123b19092919063ffffffff16565b805190915015611d085780806020019051602081101561206257600080fd5b5051611d085760405162461bcd60e51b815260040180806020018281038252602a815260200180612654602a913960400191505060405180910390fd5b60025460009081906001600160a01b038681169116141561214457600354604080516386284f5f60e01b81526001600160a01b0389811660048301528681166024830152915191909216916386284f5f9160448083019260209291908290030181600087803b15801561211157600080fd5b505af1158015612125573d6000803e3d6000fd5b505050506040513d602081101561213b57600080fd5b5051905061223f565b6002546001600160a01b03878116911614156121b15760035460408051630125149f60e31b81526001600160a01b038881166004830152868116602483015291519190921691630928a4f89160448083019260209291908290030181600087803b15801561211157600080fd5b60035460408051634998b10960e11b81526001600160a01b038981166004830152888116602483015286811660448301529151919092169163933162129160648083019260209291908290030181600087803b15801561221057600080fd5b505af1158015612224573d6000803e3d6000fd5b505050506040513d602081101561223a57600080fd5b505190505b60408051808201909152601e81527f526f757465723a20696e73756666696369656e7420616d6f756e744f757400006020820152848210156122c25760405162461bcd60e51b81526020600482018181528351602484015283519092839260449091019190850190808383600083156101ad578181015183820152602001610195565b5095945050505050565b80471015612321576040805162461bcd60e51b815260206004820152601d60248201527f416464726573733a20696e73756666696369656e742062616c616e6365000000604482015290519081900360640190fd5b6040516000906001600160a01b0384169083908381818185875af1925050503d806000811461236c576040519150601f19603f3d011682016040523d82523d6000602084013e612371565b606091505b5050905080611d085760405162461bcd60e51b815260040180806020018281038252603a8152602001806125b1603a913960400191505060405180910390fd5b60606123c084846000856123c8565b949350505050565b6060824710156124095760405162461bcd60e51b81526004018080602001828103825260268152602001806125eb6026913960400191505060405180910390fd5b61241285612524565b612463576040805162461bcd60e51b815260206004820152601d60248201527f416464726573733a2063616c6c20746f206e6f6e2d636f6e7472616374000000604482015290519081900360640190fd5b60006060866001600160a01b031685876040518082805190602001908083835b602083106124a25780518252601f199092019160209182019101612483565b6001836020036101000a03801982511681845116808217855250505050505090500191505060006040518083038185875af1925050503d8060008114612504576040519150601f19603f3d011682016040523d82523d6000602084013e612509565b606091505b509150915061251982828661252a565b979650505050505050565b3b151590565b606083156125395750816119cc565b8251156125495782518084602001fd5b60405162461bcd60e51b81526020600482018181528451602484015284518593919283926044019190850190808383600083156101ad57818101518382015260200161019556fe526f757465723a20696e76616c6964205f706174680000000000000000000000416464726573733a20756e61626c6520746f2073656e642076616c75652c20726563697069656e74206d61792068617665207265766572746564416464726573733a20696e73756666696369656e742062616c616e636520666f722063616c6c526f757465723a206d61726b207072696365206c6f776572207468616e206c696d6974cd3829a3813dc3cdd188fd3d01dcf3268c16be2fdd2dd21d0665418816e460625361666545524332303a204552433230206f7065726174696f6e20646964206e6f742073756363656564526f757465723a206d61726b20707269636520686967686572207468616e206c696d6974a26469706673582212206901096c1ff319e800b7d085e3aaa1b6967ed2976a7c967037536895d118978464736f6c634300060c0033",
  "devdoc": {
    "kind": "dev",
    "methods": {},
    "version": 1
  },
  "userdoc": {
    "kind": "user",
    "methods": {},
    "version": 1
  },
  "storageLayout": {
    "storage": [
      {
        "astId": 12643,
        "contract": "contracts/core/Router.sol:Router",
        "label": "gov",
        "offset": 0,
        "slot": "0",
        "type": "t_address"
      },
      {
        "astId": 12645,
        "contract": "contracts/core/Router.sol:Router",
        "label": "weth",
        "offset": 0,
        "slot": "1",
        "type": "t_address"
      },
      {
        "astId": 12647,
        "contract": "contracts/core/Router.sol:Router",
        "label": "usdm",
        "offset": 0,
        "slot": "2",
        "type": "t_address"
      },
      {
        "astId": 12649,
        "contract": "contracts/core/Router.sol:Router",
        "label": "vault",
        "offset": 0,
        "slot": "3",
        "type": "t_address"
      },
      {
        "astId": 12653,
        "contract": "contracts/core/Router.sol:Router",
        "label": "plugins",
        "offset": 0,
        "slot": "4",
        "type": "t_mapping(t_address,t_bool)"
      },
      {
        "astId": 12659,
        "contract": "contracts/core/Router.sol:Router",
        "label": "approvedPlugins",
        "offset": 0,
        "slot": "5",
        "type": "t_mapping(t_address,t_mapping(t_address,t_bool))"
      }
    ],
    "types": {
      "t_address": {
        "encoding": "inplace",
        "label": "address",
        "numberOfBytes": "20"
      },
      "t_bool": {
        "encoding": "inplace",
        "label": "bool",
        "numberOfBytes": "1"
      },
      "t_mapping(t_address,t_bool)": {
        "encoding": "mapping",
        "key": "t_address",
        "label": "mapping(address => bool)",
        "numberOfBytes": "32",
        "value": "t_bool"
      },
      "t_mapping(t_address,t_mapping(t_address,t_bool))": {
        "encoding": "mapping",
        "key": "t_address",
        "label": "mapping(address => mapping(address => bool))",
        "numberOfBytes": "32",
        "value": "t_mapping(t_address,t_bool)"
      }
    }
  }
}