{
  "address": "0xA51c1fc2f0D1a1b8494Ed1FE312d7C3a78Ed91C0",
  "abi": [
    {
      "inputs": [
        {
          "internalType": "address",
          "name": "_vault",
          "type": "address"
        }
      ],
      "stateMutability": "nonpayable",
      "type": "constructor"
    },
    {
      "inputs": [],
      "name": "MAX_INT256",
      "outputs": [
        {
          "internalType": "uint256",
          "name": "",
          "type": "uint256"
        }
      ],
      "stateMutability": "view",
      "type": "function"
    },
    {
      "inputs": [
        {
          "internalType": "uint256",
          "name": "_averagePrice",
          "type": "uint256"
        },
        {
          "internalType": "uint256",
          "name": "_nextPrice",
          "type": "uint256"
        },
        {
          "internalType": "uint256",
          "name": "_nextSize",
          "type": "uint256"
        },
        {
          "internalType": "uint256",
          "name": "_delta",
          "type": "uint256"
        },
        {
          "internalType": "int256",
          "name": "_realisedPnl",
          "type": "int256"
        }
      ],
      "name": "_getNextGlobalAveragePrice",
      "outputs": [
        {
          "internalType": "uint256",
          "name": "",
          "type": "uint256"
        }
      ],
      "stateMutability": "pure",
      "type": "function"
    },
    {
      "inputs": [
        {
          "internalType": "bytes32",
          "name": "",
          "type": "bytes32"
        }
      ],
      "name": "data",
      "outputs": [
        {
          "internalType": "bytes32",
          "name": "",
          "type": "bytes32"
        }
      ],
      "stateMutability": "view",
      "type": "function"
    },
    {
      "inputs": [
        {
          "internalType": "address",
          "name": "_token",
          "type": "address"
        }
      ],
      "name": "getGlobalShortDelta",
      "outputs": [
        {
          "internalType": "bool",
          "name": "",
          "type": "bool"
        },
        {
          "internalType": "uint256",
          "name": "",
          "type": "uint256"
        }
      ],
      "stateMutability": "view",
      "type": "function"
    },
    {
      "inputs": [
        {
          "internalType": "address",
          "name": "_account",
          "type": "address"
        },
        {
          "internalType": "address",
          "name": "_collateralToken",
          "type": "address"
        },
        {
          "internalType": "address",
          "name": "_indexToken",
          "type": "address"
        },
        {
          "internalType": "uint256",
          "name": "_nextPrice",
          "type": "uint256"
        },
        {
          "internalType": "uint256",
          "name": "_sizeDelta",
          "type": "uint256"
        },
        {
          "internalType": "bool",
          "name": "_isIncrease",
          "type": "bool"
        }
      ],
      "name": "getNextGlobalShortData",
      "outputs": [
        {
          "internalType": "uint256",
          "name": "",
          "type": "uint256"
        },
        {
          "internalType": "uint256",
          "name": "",
          "type": "uint256"
        }
      ],
      "stateMutability": "view",
      "type": "function"
    },
    {
      "inputs": [
        {
          "internalType": "address",
          "name": "_account",
          "type": "address"
        },
        {
          "internalType": "address",
          "name": "_collateralToken",
          "type": "address"
        },
        {
          "internalType": "address",
          "name": "_indexToken",
          "type": "address"
        },
        {
          "internalType": "uint256",
          "name": "_sizeDelta",
          "type": "uint256"
        },
        {
          "internalType": "bool",
          "name": "_isIncrease",
          "type": "bool"
        }
      ],
      "name": "getRealisedPnl",
      "outputs": [
        {
          "internalType": "int256",
          "name": "",
          "type": "int256"
        }
      ],
      "stateMutability": "view",
      "type": "function"
    },
    {
      "inputs": [
        {
          "internalType": "address",
          "name": "",
          "type": "address"
        }
      ],
      "name": "globalShortAveragePrices",
      "outputs": [
        {
          "internalType": "uint256",
          "name": "",
          "type": "uint256"
        }
      ],
      "stateMutability": "view",
      "type": "function"
    },
    {
      "inputs": [],
      "name": "gov",
      "outputs": [
        {
          "internalType": "address",
          "name": "",
          "type": "address"
        }
      ],
      "stateMutability": "view",
      "type": "function"
    },
    {
      "inputs": [],
      "name": "isGlobalShortDataReady",
      "outputs": [
        {
          "internalType": "bool",
          "name": "",
          "type": "bool"
        }
      ],
      "stateMutability": "view",
      "type": "function"
    },
    {
      "inputs": [
        {
          "internalType": "address",
          "name": "",
          "type": "address"
        }
      ],
      "name": "isHandler",
      "outputs": [
        {
          "internalType": "bool",
          "name": "",
          "type": "bool"
        }
      ],
      "stateMutability": "view",
      "type": "function"
    },
    {
      "inputs": [
        {
          "internalType": "address",
          "name": "_gov",
          "type": "address"
        }
      ],
      "name": "setGov",
      "outputs": [],
      "stateMutability": "nonpayable",
      "type": "function"
    },
    {
      "inputs": [
        {
          "internalType": "address",
          "name": "_handler",
          "type": "address"
        },
        {
          "internalType": "bool",
          "name": "_isActive",
          "type": "bool"
        }
      ],
      "name": "setHandler",
      "outputs": [],
      "stateMutability": "nonpayable",
      "type": "function"
    },
    {
      "inputs": [
        {
          "internalType": "address[]",
          "name": "_tokens",
          "type": "address[]"
        },
        {
          "internalType": "uint256[]",
          "name": "_averagePrices",
          "type": "uint256[]"
        }
      ],
      "name": "setInitData",
      "outputs": [],
      "stateMutability": "nonpayable",
      "type": "function"
    },
    {
      "inputs": [
        {
          "internalType": "bool",
          "name": "value",
          "type": "bool"
        }
      ],
      "name": "setIsGlobalShortDataReady",
      "outputs": [],
      "stateMutability": "nonpayable",
      "type": "function"
    },
    {
      "inputs": [
        {
          "internalType": "address",
          "name": "_account",
          "type": "address"
        },
        {
          "internalType": "address",
          "name": "_collateralToken",
          "type": "address"
        },
        {
          "internalType": "address",
          "name": "_indexToken",
          "type": "address"
        },
        {
          "internalType": "bool",
          "name": "_isLong",
          "type": "bool"
        },
        {
          "internalType": "uint256",
          "name": "_sizeDelta",
          "type": "uint256"
        },
        {
          "internalType": "uint256",
          "name": "_markPrice",
          "type": "uint256"
        },
        {
          "internalType": "bool",
          "name": "_isIncrease",
          "type": "bool"
        }
      ],
      "name": "updateGlobalShortData",
      "outputs": [],
      "stateMutability": "nonpayable",
      "type": "function"
    },
    {
      "inputs": [],
      "name": "vault",
      "outputs": [
        {
          "internalType": "contract IVault",
          "name": "",
          "type": "address"
        }
      ],
      "stateMutability": "view",
      "type": "function"
    }
  ],
  "transactionHash": "0xcf262ea7d6d88fea173beb44ba6d0c0ebae4cf73a5d01df334e9639b7e5cc964",
  "args": [
    "0x5FbDB2315678afecb367f032d93F642f64180aa3"
  ],
  "numDeployments": 1,
  "solcInputHash": "1fb095c2a8736afe292bad1aa4a33281",
  "bytecode": "0x608060405234801561001057600080fd5b506040516112323803806112328339818101604052602081101561003357600080fd5b5051600080546001600160a01b03199081163317909155600180546001600160a01b03909316929091169190911790556111c0806100726000396000f3fe608060405234801561001057600080fd5b50600436106100d05760003560e01c80630147fb0c146100d5578063122e7b071461010457806312d43a511461010c5780633d30cabf1461013057806346ea87af146101515780635886b7111461018b57806362749803146101c05780639a11178f146101e65780639cb7de4b146101ee5780639cdeb5931461021c578063a83b75fd1461027f578063b364accb146102c3578063bbd9718714610304578063cfad57a2146103c2578063f3238cec146103e8578063fbfa77cf1461043a575b600080fd5b6100f2600480360360208110156100eb57600080fd5b5035610442565b60408051918252519081900360200190f35b6100f2610454565b61011461045f565b604080516001600160a01b039092168252519081900360200190f35b61014f6004803603602081101561014657600080fd5b5035151561046e565b005b6101776004803603602081101561016757600080fd5b50356001600160a01b03166104d9565b604080519115158252519081900360200190f35b6100f2600480360360a08110156101a157600080fd5b50803590602081013590604081013590606081013590608001356104ee565b6100f2600480360360208110156101d657600080fd5b50356001600160a01b0316610545565b610177610557565b61014f6004803603604081101561020457600080fd5b506001600160a01b0381351690602001351515610567565b610266600480360360c081101561023257600080fd5b506001600160a01b03813581169160208101358216916040820135169060608101359060808101359060a0013515156106a6565b6040805192835260208301919091528051918290030190f35b6100f2600480360360a081101561029557600080fd5b506001600160a01b0381358116916020810135821691604082013516906060810135906080013515156107fa565b6102e9600480360360208110156102d957600080fd5b50356001600160a01b0316610a0c565b60408051921515835260208301919091528051918290030190f35b61014f6004803603604081101561031a57600080fd5b810190602081018135600160201b81111561033457600080fd5b82018360208201111561034657600080fd5b803590602001918460208302840111600160201b8311171561036757600080fd5b919390929091602081019035600160201b81111561038457600080fd5b82018360208201111561039657600080fd5b803590602001918460208302840111600160201b831117156103b757600080fd5b509092509050610b7f565b61014f600480360360208110156103d857600080fd5b50356001600160a01b0316610cce565b61014f600480360360e08110156103fe57600080fd5b506001600160a01b038135811691602081013582169160408201351690606081013515159060808101359060a08101359060c001351515610d3d565b610114610e67565b60036020526000908152604090205481565b6001600160ff1b0381565b6000546001600160a01b031681565b6000546001600160a01b031633146104bb576040805162461bcd60e51b8152602060048201526015602482015260008051602061114a833981519152604482015290519081900360640190fd5b60008054911515600160a01b0260ff60a01b19909216919091179055565b60026020526000908152604090205460ff1681565b60008060006104ff85898987610e76565b9150915060006105368361051c576105178884610f33565b610526565b6105268884610f94565b6105308a8a610fd6565b9061102f565b93505050505b95945050505050565b60046020526000908152604090205481565b600054600160a01b900460ff1681565b6000546001600160a01b031633146105b4576040805162461bcd60e51b8152602060048201526015602482015260008051602061114a833981519152604482015290519081900360640190fd5b60408051808201909152601f81527f53686f727473547261636b65723a20696e76616c6964205f68616e646c65720060208201526001600160a01b03831661067a5760405162461bcd60e51b81526004018080602001828103825283818151815260200191508051906020019080838360005b8381101561063f578181015183820152602001610627565b50505050905090810190601f16801561066c5780820380516001836020036101000a031916815260200191505b509250505060405180910390fd5b506001600160a01b03919091166000908152600260205260409020805460ff1916911515919091179055565b60008060006106b889898988886107fa565b6001600160a01b0388166000908152600460205260408120549192508782116106ea576106e58883610f94565b6106f4565b6106f48289610f94565b6001546040805163114f1b5560e31b81526001600160a01b038d811660048301529151939450600093849384931691638a78daa8916024808301926020929190829003018186803b15801561074857600080fd5b505afa15801561075c573d6000803e3d6000fd5b505050506040513d602081101561077257600080fd5b505190508861078a57610785818b610f94565b610794565b610794818b610f33565b9250826107ad57600080975097505050505050506107ef565b846107c357828b975097505050505050506107ef565b6107d1856105308387610fd6565b91505060006107e3858c85858a6104ee565b92975091955050505050505b965096945050505050565b6000811561080a5750600061053c565b60015460408051634a3f088d60e01b81526001600160a01b038981166004830152888116602483015287811660448301526000606483018190529251931692829182918591634a3f088d91608480830192610100929190829003018186803b15801561087557600080fd5b505afa158015610889573d6000803e3d6000fd5b505050506040513d6101008110156108a057600080fd5b50805160408083015160e0909301518151635c07eaab60e01b81526001600160a01b038d811660048301526024820185905260448201869052600060648301819052608483018490528451959950959750919550849391891692635c07eaab9260a480840193829003018186803b15801561091a57600080fd5b505afa15801561092e573d6000803e3d6000fd5b505050506040513d604081101561094457600080fd5b50805160209091015190925090506000610962866105308c85610fd6565b90506001600160ff1b0381106040518060400160405280601781526020017653686f727473547261636b65723a206f766572666c6f7760481b815250906109ea5760405162461bcd60e51b815260206004820181815283516024840152835190928392604490910191908501908083836000831561063f578181015183820152602001610627565b50826109f957806000036109fb565b805b9d9c50505050505050505050505050565b6001546040805163114f1b5560e31b81526001600160a01b038481166004830152915160009384938493911691638a78daa891602480820192602092909190829003018186803b158015610a5f57600080fd5b505afa158015610a73573d6000803e3d6000fd5b505050506040513d6020811015610a8957600080fd5b50516001600160a01b03851660009081526004602052604090205490915081610aba57600080935093505050610b7a565b60015460408051637092736960e11b81526001600160a01b0388811660048301529151600093929092169163e124e6d291602480820192602092909190829003018186803b158015610b0b57600080fd5b505afa158015610b1f573d6000803e3d6000fd5b505050506040513d6020811015610b3557600080fd5b505190506000818311610b5157610b4c8284610f94565b610b5b565b610b5b8383610f94565b90506000610b6d846105308785610fd6565b9290931195509093505050505b915091565b6000546001600160a01b03163314610bcc576040805162461bcd60e51b8152602060048201526015602482015260008051602061114a833981519152604482015290519081900360640190fd5b60005460408051808201909152601f81527f53686f727473547261636b65723a20616c7265616479206d6967726174656400602082015290600160a01b900460ff1615610c5a5760405162461bcd60e51b815260206004820181815283516024840152835190928392604490910191908501908083836000831561063f578181015183820152602001610627565b5060005b83811015610cb457828282818110610c7257fe5b9050602002013560046000878785818110610c8957fe5b602090810292909201356001600160a01b031683525081019190915260400160002055600101610c5e565b50506000805460ff60a01b1916600160a01b179055505050565b6000546001600160a01b03163314610d1b576040805162461bcd60e51b8152602060048201526015602482015260008051602061114a833981519152604482015290519081900360640190fd5b600080546001600160a01b0319166001600160a01b0392909216919091179055565b33600090815260026020908152604091829020548251808401909352601883527729b437b93a39aa3930b1b5b2b91d103337b93134b23232b760411b9183019190915260ff16610dce5760405162461bcd60e51b815260206004820181815283516024840152835190928392604490910191908501908083836000831561063f578181015183820152602001610627565b508380610dd9575082155b15610de357610e5e565b600054600160a01b900460ff16610df957610e5e565b600080610e0a8989898789886106a6565b91509150610e18878261106e565b604080518381526020810183905281516001600160a01b038a16927fd6137be44db128ffcf1ea1821dbe8f889f67f949be7656c2d8acba2a4a891a02928290030190a250505b50505050505050565b6001546001600160a01b031681565b6000808385118015610ed5576000841315610eba5786841115610ea857610e9d8488610f94565b965060009050610eb5565b610eb28785610f94565b96505b610ecb565b610ec8876000869003610f33565b96505b9150859050610f2a565b6000841315610eef57610ee88785610f33565b9650610f24565b86846000031115610f1357610f08600085900388610f94565b965060019050610f24565b610f21876000869003610f94565b96505b91508590505b94509492505050565b600082820183811015610f8b576040805162461bcd60e51b815260206004820152601b60248201527a536166654d6174683a206164646974696f6e206f766572666c6f7760281b604482015290519081900360640190fd5b90505b92915050565b6000610f8b83836040518060400160405280601e81526020017f536166654d6174683a207375627472616374696f6e206f766572666c6f77000081525061108a565b600082610fe557506000610f8e565b82820282848281610ff257fe5b0414610f8b5760405162461bcd60e51b815260040180806020018281038252602181526020018061116a6021913960400191505060405180910390fd5b6000610f8b83836040518060400160405280601a815260200179536166654d6174683a206469766973696f6e206279207a65726f60301b8152506110e4565b6001600160a01b03909116600090815260046020526040902055565b600081848411156110dc5760405162461bcd60e51b815260206004820181815283516024840152835190928392604490910191908501908083836000831561063f578181015183820152602001610627565b505050900390565b600081836111335760405162461bcd60e51b815260206004820181815283516024840152835190928392604490910191908501908083836000831561063f578181015183820152602001610627565b50600083858161113f57fe5b049594505050505056fe476f7665726e61626c653a20666f7262696464656e0000000000000000000000536166654d6174683a206d756c7469706c69636174696f6e206f766572666c6f77a2646970667358221220474dbebfb45929c50dc7efea6a35a6d058ed2eee9d854c5c42633a227321631a64736f6c634300060c0033",
  "devdoc": {
    "kind": "dev",
    "methods": {},
    "version": 1
  },
  "userdoc": {
    "kind": "user",
    "methods": {},
    "version": 1
  },
  "storageLayout": {
    "storage": [
      {
        "astId": 3,
        "contract": "contracts/core/ShortsTracker.sol:ShortsTracker",
        "label": "gov",
        "offset": 0,
        "slot": "0",
        "type": "t_address"
      },
      {
        "astId": 12713,
        "contract": "contracts/core/ShortsTracker.sol:ShortsTracker",
        "label": "isGlobalShortDataReady",
        "offset": 20,
        "slot": "0",
        "type": "t_bool"
      },
      {
        "astId": 12715,
        "contract": "contracts/core/ShortsTracker.sol:ShortsTracker",
        "label": "vault",
        "offset": 0,
        "slot": "1",
        "type": "t_contract(IVault)7332"
      },
      {
        "astId": 12719,
        "contract": "contracts/core/ShortsTracker.sol:ShortsTracker",
        "label": "isHandler",
        "offset": 0,
        "slot": "2",
        "type": "t_mapping(t_address,t_bool)"
      },
      {
        "astId": 12723,
        "contract": "contracts/core/ShortsTracker.sol:ShortsTracker",
        "label": "data",
        "offset": 0,
        "slot": "3",
        "type": "t_mapping(t_bytes32,t_bytes32)"
      },
      {
        "astId": 12728,
        "contract": "contracts/core/ShortsTracker.sol:ShortsTracker",
        "label": "globalShortAveragePrices",
        "offset": 0,
        "slot": "4",
        "type": "t_mapping(t_address,t_uint256)"
      }
    ],
    "types": {
      "t_address": {
        "encoding": "inplace",
        "label": "address",
        "numberOfBytes": "20"
      },
      "t_bool": {
        "encoding": "inplace",
        "label": "bool",
        "numberOfBytes": "1"
      },
      "t_bytes32": {
        "encoding": "inplace",
        "label": "bytes32",
        "numberOfBytes": "32"
      },
      "t_contract(IVault)7332": {
        "encoding": "inplace",
        "label": "contract IVault",
        "numberOfBytes": "20"
      },
      "t_mapping(t_address,t_bool)": {
        "encoding": "mapping",
        "key": "t_address",
        "label": "mapping(address => bool)",
        "numberOfBytes": "32",
        "value": "t_bool"
      },
      "t_mapping(t_address,t_uint256)": {
        "encoding": "mapping",
        "key": "t_address",
        "label": "mapping(address => uint256)",
        "numberOfBytes": "32",
        "value": "t_uint256"
      },
      "t_mapping(t_bytes32,t_bytes32)": {
        "encoding": "mapping",
        "key": "t_bytes32",
        "label": "mapping(bytes32 => bytes32)",
        "numberOfBytes": "32",
        "value": "t_bytes32"
      },
      "t_uint256": {
        "encoding": "inplace",
        "label": "uint256",
        "numberOfBytes": "32"
      }
    }
  }
}