{
  "address": "0x5FC8d32690cc91D4c39d9d3abcBD16989F875707",
  "abi": [
    {
      "inputs": [
        {
          "internalType": "address",
          "name": "_admin",
          "type": "address"
        },
        {
          "internalType": "uint256",
          "name": "_buffer",
          "type": "uint256"
        },
        {
          "internalType": "address",
          "name": "_tokenManager",
          "type": "address"
        },
        {
          "internalType": "address",
          "name": "_mintReceiver",
          "type": "address"
        },
        {
          "internalType": "address",
          "name": "_mlpManager",
          "type": "address"
        },
        {
          "internalType": "uint256",
          "name": "_maxTokenSupply",
          "type": "uint256"
        },
        {
          "internalType": "uint256",
          "name": "_marginFeeBasisPoints",
          "type": "uint256"
        },
        {
          "internalType": "uint256",
          "name": "_maxMarginFeeBasisPoints",
          "type": "uint256"
        }
      ],
      "stateMutability": "nonpayable",
      "type": "constructor"
    },
    {
      "inputs": [],
      "name": "MAX_BUFFER",
      "outputs": [
        {
          "internalType": "uint256",
          "name": "",
          "type": "uint256"
        }
      ],
      "stateMutability": "view",
      "type": "function"
    },
    {
      "inputs": [],
      "name": "MAX_FUNDING_RATE_FACTOR",
      "outputs": [
        {
          "internalType": "uint256",
          "name": "",
          "type": "uint256"
        }
      ],
      "stateMutability": "view",
      "type": "function"
    },
    {
      "inputs": [],
      "name": "MAX_LEVERAGE_VALIDATION",
      "outputs": [
        {
          "internalType": "uint256",
          "name": "",
          "type": "uint256"
        }
      ],
      "stateMutability": "view",
      "type": "function"
    },
    {
      "inputs": [],
      "name": "PRICE_PRECISION",
      "outputs": [
        {
          "internalType": "uint256",
          "name": "",
          "type": "uint256"
        }
      ],
      "stateMutability": "view",
      "type": "function"
    },
    {
      "inputs": [],
      "name": "admin",
      "outputs": [
        {
          "internalType": "address",
          "name": "",
          "type": "address"
        }
      ],
      "stateMutability": "view",
      "type": "function"
    },
    {
      "inputs": [
        {
          "internalType": "address",
          "name": "_token",
          "type": "address"
        },
        {
          "internalType": "address",
          "name": "_spender",
          "type": "address"
        },
        {
          "internalType": "uint256",
          "name": "_amount",
          "type": "uint256"
        }
      ],
      "name": "approve",
      "outputs": [],
      "stateMutability": "nonpayable",
      "type": "function"
    },
    {
      "inputs": [
        {
          "internalType": "address",
          "name": "_vester",
          "type": "address"
        },
        {
          "internalType": "address[]",
          "name": "_accounts",
          "type": "address[]"
        },
        {
          "internalType": "uint256[]",
          "name": "_amounts",
          "type": "uint256[]"
        }
      ],
      "name": "batchSetBonusRewards",
      "outputs": [],
      "stateMutability": "nonpayable",
      "type": "function"
    },
    {
      "inputs": [
        {
          "internalType": "address",
          "name": "_vault",
          "type": "address"
        },
        {
          "internalType": "address[]",
          "name": "_tokens",
          "type": "address[]"
        }
      ],
      "name": "batchWithdrawFees",
      "outputs": [],
      "stateMutability": "nonpayable",
      "type": "function"
    },
    {
      "inputs": [],
      "name": "buffer",
      "outputs": [
        {
          "internalType": "uint256",
          "name": "",
          "type": "uint256"
        }
      ],
      "stateMutability": "view",
      "type": "function"
    },
    {
      "inputs": [
        {
          "internalType": "bytes32",
          "name": "_action",
          "type": "bytes32"
        }
      ],
      "name": "cancelAction",
      "outputs": [],
      "stateMutability": "nonpayable",
      "type": "function"
    },
    {
      "inputs": [
        {
          "internalType": "address",
          "name": "_vault",
          "type": "address"
        }
      ],
      "name": "disableLeverage",
      "outputs": [],
      "stateMutability": "nonpayable",
      "type": "function"
    },
    {
      "inputs": [
        {
          "internalType": "address",
          "name": "_vault",
          "type": "address"
        }
      ],
      "name": "enableLeverage",
      "outputs": [],
      "stateMutability": "nonpayable",
      "type": "function"
    },
    {
      "inputs": [
        {
          "internalType": "address",
          "name": "_referralStorage",
          "type": "address"
        },
        {
          "internalType": "bytes32",
          "name": "_code",
          "type": "bytes32"
        },
        {
          "internalType": "address",
          "name": "_newAccount",
          "type": "address"
        }
      ],
      "name": "govSetCodeOwner",
      "outputs": [],
      "stateMutability": "nonpayable",
      "type": "function"
    },
    {
      "inputs": [
        {
          "internalType": "address",
          "name": "",
          "type": "address"
        }
      ],
      "name": "isHandler",
      "outputs": [
        {
          "internalType": "bool",
          "name": "",
          "type": "bool"
        }
      ],
      "stateMutability": "view",
      "type": "function"
    },
    {
      "inputs": [
        {
          "internalType": "address",
          "name": "",
          "type": "address"
        }
      ],
      "name": "isKeeper",
      "outputs": [
        {
          "internalType": "bool",
          "name": "",
          "type": "bool"
        }
      ],
      "stateMutability": "view",
      "type": "function"
    },
    {
      "inputs": [],
      "name": "marginFeeBasisPoints",
      "outputs": [
        {
          "internalType": "uint256",
          "name": "",
          "type": "uint256"
        }
      ],
      "stateMutability": "view",
      "type": "function"
    },
    {
      "inputs": [],
      "name": "maxMarginFeeBasisPoints",
      "outputs": [
        {
          "internalType": "uint256",
          "name": "",
          "type": "uint256"
        }
      ],
      "stateMutability": "view",
      "type": "function"
    },
    {
      "inputs": [],
      "name": "maxTokenSupply",
      "outputs": [
        {
          "internalType": "uint256",
          "name": "",
          "type": "uint256"
        }
      ],
      "stateMutability": "view",
      "type": "function"
    },
    {
      "inputs": [],
      "name": "mintReceiver",
      "outputs": [
        {
          "internalType": "address",
          "name": "",
          "type": "address"
        }
      ],
      "stateMutability": "view",
      "type": "function"
    },
    {
      "inputs": [],
      "name": "mlpManager",
      "outputs": [
        {
          "internalType": "address",
          "name": "",
          "type": "address"
        }
      ],
      "stateMutability": "view",
      "type": "function"
    },
    {
      "inputs": [
        {
          "internalType": "bytes32",
          "name": "",
          "type": "bytes32"
        }
      ],
      "name": "pendingActions",
      "outputs": [
        {
          "internalType": "uint256",
          "name": "",
          "type": "uint256"
        }
      ],
      "stateMutability": "view",
      "type": "function"
    },
    {
      "inputs": [
        {
          "internalType": "address",
          "name": "_token",
          "type": "address"
        },
        {
          "internalType": "address",
          "name": "_receiver",
          "type": "address"
        },
        {
          "internalType": "uint256",
          "name": "_amount",
          "type": "uint256"
        }
      ],
      "name": "processMint",
      "outputs": [],
      "stateMutability": "nonpayable",
      "type": "function"
    },
    {
      "inputs": [
        {
          "internalType": "address",
          "name": "_vault",
          "type": "address"
        },
        {
          "internalType": "address",
          "name": "_token",
          "type": "address"
        },
        {
          "internalType": "uint256",
          "name": "_amount",
          "type": "uint256"
        }
      ],
      "name": "redeemUsdm",
      "outputs": [],
      "stateMutability": "nonpayable",
      "type": "function"
    },
    {
      "inputs": [
        {
          "internalType": "address",
          "name": "_token",
          "type": "address"
        },
        {
          "internalType": "address",
          "name": "_account",
          "type": "address"
        }
      ],
      "name": "removeAdmin",
      "outputs": [],
      "stateMutability": "nonpayable",
      "type": "function"
    },
    {
      "inputs": [
        {
          "internalType": "address",
          "name": "_admin",
          "type": "address"
        }
      ],
      "name": "setAdmin",
      "outputs": [],
      "stateMutability": "nonpayable",
      "type": "function"
    },
    {
      "inputs": [
        {
          "internalType": "uint256",
          "name": "_buffer",
          "type": "uint256"
        }
      ],
      "name": "setBuffer",
      "outputs": [],
      "stateMutability": "nonpayable",
      "type": "function"
    },
    {
      "inputs": [
        {
          "internalType": "address",
          "name": "_handler",
          "type": "address"
        },
        {
          "internalType": "bool",
          "name": "_isActive",
          "type": "bool"
        }
      ],
      "name": "setContractHandler",
      "outputs": [],
      "stateMutability": "nonpayable",
      "type": "function"
    },
    {
      "inputs": [
        {
          "internalType": "address",
          "name": "_target",
          "type": "address"
        },
        {
          "internalType": "address",
          "name": "_admin",
          "type": "address"
        }
      ],
      "name": "setExternalAdmin",
      "outputs": [],
      "stateMutability": "nonpayable",
      "type": "function"
    },
    {
      "inputs": [
        {
          "internalType": "address",
          "name": "_vault",
          "type": "address"
        },
        {
          "internalType": "uint256",
          "name": "_taxBasisPoints",
          "type": "uint256"
        },
        {
          "internalType": "uint256",
          "name": "_stableTaxBasisPoints",
          "type": "uint256"
        },
        {
          "internalType": "uint256",
          "name": "_mintBurnFeeBasisPoints",
          "type": "uint256"
        },
        {
          "internalType": "uint256",
          "name": "_swapFeeBasisPoints",
          "type": "uint256"
        },
        {
          "internalType": "uint256",
          "name": "_stableSwapFeeBasisPoints",
          "type": "uint256"
        },
        {
          "internalType": "uint256",
          "name": "_marginFeeBasisPoints",
          "type": "uint256"
        },
        {
          "internalType": "uint256",
          "name": "_liquidationFeeUsd",
          "type": "uint256"
        },
        {
          "internalType": "uint256",
          "name": "_minProfitTime",
          "type": "uint256"
        },
        {
          "internalType": "bool",
          "name": "_hasDynamicFees",
          "type": "bool"
        }
      ],
      "name": "setFees",
      "outputs": [],
      "stateMutability": "nonpayable",
      "type": "function"
    },
    {
      "inputs": [
        {
          "internalType": "address",
          "name": "_vault",
          "type": "address"
        },
        {
          "internalType": "uint256",
          "name": "_fundingInterval",
          "type": "uint256"
        },
        {
          "internalType": "uint256",
          "name": "_fundingRateFactor",
          "type": "uint256"
        },
        {
          "internalType": "uint256",
          "name": "_stableFundingRateFactor",
          "type": "uint256"
        }
      ],
      "name": "setFundingRate",
      "outputs": [],
      "stateMutability": "nonpayable",
      "type": "function"
    },
    {
      "inputs": [
        {
          "internalType": "address",
          "name": "_target",
          "type": "address"
        },
        {
          "internalType": "address",
          "name": "_gov",
          "type": "address"
        }
      ],
      "name": "setGov",
      "outputs": [],
      "stateMutability": "nonpayable",
      "type": "function"
    },
    {
      "inputs": [
        {
          "internalType": "address",
          "name": "_target",
          "type": "address"
        },
        {
          "internalType": "address",
          "name": "_handler",
          "type": "address"
        },
        {
          "internalType": "bool",
          "name": "_isActive",
          "type": "bool"
        }
      ],
      "name": "setHandler",
      "outputs": [],
      "stateMutability": "nonpayable",
      "type": "function"
    },
    {
      "inputs": [
        {
          "internalType": "address",
          "name": "_vault",
          "type": "address"
        },
        {
          "internalType": "bool",
          "name": "_inPrivateLiquidationMode",
          "type": "bool"
        }
      ],
      "name": "setInPrivateLiquidationMode",
      "outputs": [],
      "stateMutability": "nonpayable",
      "type": "function"
    },
    {
      "inputs": [
        {
          "internalType": "address",
          "name": "_token",
          "type": "address"
        },
        {
          "internalType": "bool",
          "name": "_inPrivateTransferMode",
          "type": "bool"
        }
      ],
      "name": "setInPrivateTransferMode",
      "outputs": [],
      "stateMutability": "nonpayable",
      "type": "function"
    },
    {
      "inputs": [
        {
          "internalType": "address",
          "name": "_vault",
          "type": "address"
        },
        {
          "internalType": "bool",
          "name": "_isLeverageEnabled",
          "type": "bool"
        }
      ],
      "name": "setIsLeverageEnabled",
      "outputs": [],
      "stateMutability": "nonpayable",
      "type": "function"
    },
    {
      "inputs": [
        {
          "internalType": "address",
          "name": "_vault",
          "type": "address"
        },
        {
          "internalType": "bool",
          "name": "_isSwapEnabled",
          "type": "bool"
        }
      ],
      "name": "setIsSwapEnabled",
      "outputs": [],
      "stateMutability": "nonpayable",
      "type": "function"
    },
    {
      "inputs": [
        {
          "internalType": "address",
          "name": "_keeper",
          "type": "address"
        },
        {
          "internalType": "bool",
          "name": "_isActive",
          "type": "bool"
        }
      ],
      "name": "setKeeper",
      "outputs": [],
      "stateMutability": "nonpayable",
      "type": "function"
    },
    {
      "inputs": [
        {
          "internalType": "address",
          "name": "_vault",
          "type": "address"
        },
        {
          "internalType": "address",
          "name": "_liquidator",
          "type": "address"
        },
        {
          "internalType": "bool",
          "name": "_isActive",
          "type": "bool"
        }
      ],
      "name": "setLiquidator",
      "outputs": [],
      "stateMutability": "nonpayable",
      "type": "function"
    },
    {
      "inputs": [
        {
          "internalType": "uint256",
          "name": "_marginFeeBasisPoints",
          "type": "uint256"
        },
        {
          "internalType": "uint256",
          "name": "_maxMarginFeeBasisPoints",
          "type": "uint256"
        }
      ],
      "name": "setMarginFeeBasisPoints",
      "outputs": [],
      "stateMutability": "nonpayable",
      "type": "function"
    },
    {
      "inputs": [
        {
          "internalType": "address",
          "name": "_vault",
          "type": "address"
        },
        {
          "internalType": "uint256",
          "name": "_maxGasPrice",
          "type": "uint256"
        }
      ],
      "name": "setMaxGasPrice",
      "outputs": [],
      "stateMutability": "nonpayable",
      "type": "function"
    },
    {
      "inputs": [
        {
          "internalType": "address",
          "name": "_vault",
          "type": "address"
        },
        {
          "internalType": "address",
          "name": "_token",
          "type": "address"
        },
        {
          "internalType": "uint256",
          "name": "_amount",
          "type": "uint256"
        }
      ],
      "name": "setMaxGlobalShortSize",
      "outputs": [],
      "stateMutability": "nonpayable",
      "type": "function"
    },
    {
      "inputs": [
        {
          "internalType": "address",
          "name": "_vault",
          "type": "address"
        },
        {
          "internalType": "uint256",
          "name": "_maxLeverage",
          "type": "uint256"
        }
      ],
      "name": "setMaxLeverage",
      "outputs": [],
      "stateMutability": "nonpayable",
      "type": "function"
    },
    {
      "inputs": [
        {
          "internalType": "address",
          "name": "_vault",
          "type": "address"
        },
        {
          "internalType": "address",
          "name": "_priceFeed",
          "type": "address"
        }
      ],
      "name": "setPriceFeed",
      "outputs": [],
      "stateMutability": "nonpayable",
      "type": "function"
    },
    {
      "inputs": [
        {
          "internalType": "address",
          "name": "_referralStorage",
          "type": "address"
        },
        {
          "internalType": "address",
          "name": "_referrer",
          "type": "address"
        },
        {
          "internalType": "uint256",
          "name": "_tierId",
          "type": "uint256"
        }
      ],
      "name": "setReferrerTier",
      "outputs": [],
      "stateMutability": "nonpayable",
      "type": "function"
    },
    {
      "inputs": [
        {
          "internalType": "bool",
          "name": "_shouldToggleIsLeverageEnabled",
          "type": "bool"
        }
      ],
      "name": "setShouldToggleIsLeverageEnabled",
      "outputs": [],
      "stateMutability": "nonpayable",
      "type": "function"
    },
    {
      "inputs": [
        {
          "internalType": "address",
          "name": "_vault",
          "type": "address"
        },
        {
          "internalType": "uint256",
          "name": "_taxBasisPoints",
          "type": "uint256"
        },
        {
          "internalType": "uint256",
          "name": "_stableTaxBasisPoints",
          "type": "uint256"
        },
        {
          "internalType": "uint256",
          "name": "_mintBurnFeeBasisPoints",
          "type": "uint256"
        },
        {
          "internalType": "uint256",
          "name": "_swapFeeBasisPoints",
          "type": "uint256"
        },
        {
          "internalType": "uint256",
          "name": "_stableSwapFeeBasisPoints",
          "type": "uint256"
        }
      ],
      "name": "setSwapFees",
      "outputs": [],
      "stateMutability": "nonpayable",
      "type": "function"
    },
    {
      "inputs": [
        {
          "internalType": "address",
          "name": "_referralStorage",
          "type": "address"
        },
        {
          "internalType": "uint256",
          "name": "_tierId",
          "type": "uint256"
        },
        {
          "internalType": "uint256",
          "name": "_totalRebate",
          "type": "uint256"
        },
        {
          "internalType": "uint256",
          "name": "_discountShare",
          "type": "uint256"
        }
      ],
      "name": "setTier",
      "outputs": [],
      "stateMutability": "nonpayable",
      "type": "function"
    },
    {
      "inputs": [
        {
          "internalType": "address",
          "name": "_vault",
          "type": "address"
        },
        {
          "internalType": "address",
          "name": "_token",
          "type": "address"
        },
        {
          "internalType": "uint256",
          "name": "_tokenWeight",
          "type": "uint256"
        },
        {
          "internalType": "uint256",
          "name": "_minProfitBps",
          "type": "uint256"
        },
        {
          "internalType": "uint256",
          "name": "_maxUsdmAmount",
          "type": "uint256"
        },
        {
          "internalType": "uint256",
          "name": "_bufferAmount",
          "type": "uint256"
        },
        {
          "internalType": "uint256",
          "name": "_usdmAmount",
          "type": "uint256"
        }
      ],
      "name": "setTokenConfig",
      "outputs": [],
      "stateMutability": "nonpayable",
      "type": "function"
    },
    {
      "inputs": [
        {
          "internalType": "address",
          "name": "_vault",
          "type": "address"
        },
        {
          "internalType": "address[]",
          "name": "_tokens",
          "type": "address[]"
        },
        {
          "internalType": "uint256[]",
          "name": "_usdmAmounts",
          "type": "uint256[]"
        }
      ],
      "name": "setUsdmAmounts",
      "outputs": [],
      "stateMutability": "nonpayable",
      "type": "function"
    },
    {
      "inputs": [
        {
          "internalType": "address",
          "name": "_vault",
          "type": "address"
        },
        {
          "internalType": "contract IVaultUtils",
          "name": "_vaultUtils",
          "type": "address"
        }
      ],
      "name": "setVaultUtils",
      "outputs": [],
      "stateMutability": "nonpayable",
      "type": "function"
    },
    {
      "inputs": [],
      "name": "shouldToggleIsLeverageEnabled",
      "outputs": [
        {
          "internalType": "bool",
          "name": "",
          "type": "bool"
        }
      ],
      "stateMutability": "view",
      "type": "function"
    },
    {
      "inputs": [
        {
          "internalType": "address",
          "name": "_token",
          "type": "address"
        },
        {
          "internalType": "address",
          "name": "_spender",
          "type": "address"
        },
        {
          "internalType": "uint256",
          "name": "_amount",
          "type": "uint256"
        }
      ],
      "name": "signalApprove",
      "outputs": [],
      "stateMutability": "nonpayable",
      "type": "function"
    },
    {
      "inputs": [
        {
          "internalType": "address",
          "name": "_token",
          "type": "address"
        },
        {
          "internalType": "address",
          "name": "_receiver",
          "type": "address"
        },
        {
          "internalType": "uint256",
          "name": "_amount",
          "type": "uint256"
        }
      ],
      "name": "signalMint",
      "outputs": [],
      "stateMutability": "nonpayable",
      "type": "function"
    },
    {
      "inputs": [
        {
          "internalType": "address",
          "name": "_vault",
          "type": "address"
        },
        {
          "internalType": "address",
          "name": "_token",
          "type": "address"
        },
        {
          "internalType": "uint256",
          "name": "_amount",
          "type": "uint256"
        }
      ],
      "name": "signalRedeemUsdm",
      "outputs": [],
      "stateMutability": "nonpayable",
      "type": "function"
    },
    {
      "inputs": [
        {
          "internalType": "address",
          "name": "_target",
          "type": "address"
        },
        {
          "internalType": "address",
          "name": "_gov",
          "type": "address"
        }
      ],
      "name": "signalSetGov",
      "outputs": [],
      "stateMutability": "nonpayable",
      "type": "function"
    },
    {
      "inputs": [
        {
          "internalType": "address",
          "name": "_target",
          "type": "address"
        },
        {
          "internalType": "address",
          "name": "_handler",
          "type": "address"
        },
        {
          "internalType": "bool",
          "name": "_isActive",
          "type": "bool"
        }
      ],
      "name": "signalSetHandler",
      "outputs": [],
      "stateMutability": "nonpayable",
      "type": "function"
    },
    {
      "inputs": [
        {
          "internalType": "address",
          "name": "_vault",
          "type": "address"
        },
        {
          "internalType": "address",
          "name": "_priceFeed",
          "type": "address"
        }
      ],
      "name": "signalSetPriceFeed",
      "outputs": [],
      "stateMutability": "nonpayable",
      "type": "function"
    },
    {
      "inputs": [
        {
          "internalType": "address",
          "name": "_vault",
          "type": "address"
        },
        {
          "internalType": "address",
          "name": "_token",
          "type": "address"
        },
        {
          "internalType": "uint256",
          "name": "_tokenDecimals",
          "type": "uint256"
        },
        {
          "internalType": "uint256",
          "name": "_tokenWeight",
          "type": "uint256"
        },
        {
          "internalType": "uint256",
          "name": "_minProfitBps",
          "type": "uint256"
        },
        {
          "internalType": "uint256",
          "name": "_maxUsdmAmount",
          "type": "uint256"
        },
        {
          "internalType": "bool",
          "name": "_isStable",
          "type": "bool"
        },
        {
          "internalType": "bool",
          "name": "_isShortable",
          "type": "bool"
        }
      ],
      "name": "signalVaultSetTokenConfig",
      "outputs": [],
      "stateMutability": "nonpayable",
      "type": "function"
    },
    {
      "inputs": [
        {
          "internalType": "address",
          "name": "_target",
          "type": "address"
        },
        {
          "internalType": "address",
          "name": "_token",
          "type": "address"
        },
        {
          "internalType": "address",
          "name": "_receiver",
          "type": "address"
        },
        {
          "internalType": "uint256",
          "name": "_amount",
          "type": "uint256"
        }
      ],
      "name": "signalWithdrawToken",
      "outputs": [],
      "stateMutability": "nonpayable",
      "type": "function"
    },
    {
      "inputs": [],
      "name": "tokenManager",
      "outputs": [
        {
          "internalType": "address",
          "name": "",
          "type": "address"
        }
      ],
      "stateMutability": "view",
      "type": "function"
    },
    {
      "inputs": [
        {
          "internalType": "address",
          "name": "_sender",
          "type": "address"
        },
        {
          "internalType": "address",
          "name": "_token",
          "type": "address"
        },
        {
          "internalType": "uint256",
          "name": "_amount",
          "type": "uint256"
        }
      ],
      "name": "transferIn",
      "outputs": [],
      "stateMutability": "nonpayable",
      "type": "function"
    },
    {
      "inputs": [
        {
          "internalType": "uint256",
          "name": "usdmAmount",
          "type": "uint256"
        }
      ],
      "name": "updateUsdmSupply",
      "outputs": [],
      "stateMutability": "nonpayable",
      "type": "function"
    },
    {
      "inputs": [
        {
          "internalType": "address",
          "name": "_vault",
          "type": "address"
        },
        {
          "internalType": "address",
          "name": "_token",
          "type": "address"
        },
        {
          "internalType": "uint256",
          "name": "_tokenDecimals",
          "type": "uint256"
        },
        {
          "internalType": "uint256",
          "name": "_tokenWeight",
          "type": "uint256"
        },
        {
          "internalType": "uint256",
          "name": "_minProfitBps",
          "type": "uint256"
        },
        {
          "internalType": "uint256",
          "name": "_maxUsdmAmount",
          "type": "uint256"
        },
        {
          "internalType": "bool",
          "name": "_isStable",
          "type": "bool"
        },
        {
          "internalType": "bool",
          "name": "_isShortable",
          "type": "bool"
        }
      ],
      "name": "vaultSetTokenConfig",
      "outputs": [],
      "stateMutability": "nonpayable",
      "type": "function"
    },
    {
      "inputs": [
        {
          "internalType": "address",
          "name": "_vault",
          "type": "address"
        },
        {
          "internalType": "address",
          "name": "_token",
          "type": "address"
        },
        {
          "internalType": "address",
          "name": "_receiver",
          "type": "address"
        }
      ],
      "name": "withdrawFees",
      "outputs": [],
      "stateMutability": "nonpayable",
      "type": "function"
    },
    {
      "inputs": [
        {
          "internalType": "address",
          "name": "_target",
          "type": "address"
        },
        {
          "internalType": "address",
          "name": "_token",
          "type": "address"
        },
        {
          "internalType": "address",
          "name": "_receiver",
          "type": "address"
        },
        {
          "internalType": "uint256",
          "name": "_amount",
          "type": "uint256"
        }
      ],
      "name": "withdrawToken",
      "outputs": [],
      "stateMutability": "nonpayable",
      "type": "function"
    }
  ],
  "transactionHash": "0x459307483b13ff43a1a7027d158fee76be6808792179440ca19478b001e3eda2",
  "args": [
    "0xf39Fd6e51aad88F6F4ce6aB8827279cffFb92266",
    432000,
    "0x0000000000000000000000000000000000000000",
    "0xf39Fd6e51aad88F6F4ce6aB8827279cffFb92266",
    "0xf39Fd6e51aad88F6F4ce6aB8827279cffFb92266",
    "1000000000000000000000",
    10,
    500
  ],
  "numDeployments": 1,
  "solcInputHash": "1fb095c2a8736afe292bad1aa4a33281",
  "bytecode": "0x60806040523480156200001157600080fd5b506040516200595d3803806200595d83398181016040526101008110156200003857600080fd5b5080516020808301516040808501516060860151608087015160a088015160c089015160e0909901518551808701909652601986527f54696d656c6f636b3a20696e76616c6964205f62756666657200000000000000978601979097529697949692959194909390919062069780881115620001355760405162461bcd60e51b81526004018080602001828103825283818151815260200191508051906020019080838360005b83811015620000f9578181015183820152602001620000df565b50505050905090810190601f168015620001275780820380516001836020036101000a031916815260200191505b509250505060405180910390fd5b50600480546001600160a01b03998a1661010002610100600160a81b0319909116179055600096909655600580549588166001600160a01b03199687161790556006805494881694861694909417909355600780549290961691909316179093556001556002919091556003556157ab80620001b26000396000f3fe608060405234801561001057600080fd5b50600436106102ea5760003560e01c80629a698e146102ef57806309cc9a08146104245780630e0dc4261461045a5780630e9587f3146104a85780631154e808146104e0578063117cf20414610518578063185051c114610546578063204bbc5414610574578063206c665d146105aa57806321754d9e146105c757806321bd059214610603578063227f03eb1461063157806323aaad121461066957806324ccbe3014610685578063268959e5146106bd5780632a709b14146106eb5780632ba3725a1461070f578063318bc6891461072957806346ea87af1461073157806347de43e2146107575780634cd23f3b1461078f57806350f7c204146107cb57806351a6de0d146107d3578063558182941461080157806355ef13951461083957806361d07569146108675780636ba42aaa1461086f5780636d63c1d0146108955780636e5227d4146108bb578063704b6c021461091c57806376e1128614610942578063781cc3d3146109705780637b6f775a1461098d57806380894d62146109b957806386803c72146109e757806387b27c7414610a155780638a39735a14610a4b5780638bf22c4614610a535780638e34c98f14610a7f57806395082d2514610a9e578063996a7a1e14610aa6578063996e2bc914610ad4578063ab9930fe14610adc578063adc7ea3714610c0f578063bc476dfd14610c2c578063bc8a8ab914610c5a578063c142940a14610c90578063c7bb26a014610cc6578063cbb91c5e14610cce578063cd2b123014610cd6578063d1b9e85314610d04578063d3c87bbb14610d32578063da76231614610d58578063db1c844114610d9c578063dce6e18d14610df5578063df3a66d914610e2b578063e1f21c6714610e61578063e21b459114610e97578063e30569e514610eba578063e3cbeb0f14610ed7578063e4652f4914610f30578063e8ae227114610f66578063ea430cdc14611017578063edaafe201461104d578063f851a44014611055575b600080fd5b6104226004803603606081101561030557600080fd5b6001600160a01b038235169190810190604081016020820135600160201b81111561032f57600080fd5b82018360208201111561034157600080fd5b803590602001918460208302840111600160201b8311171561036257600080fd5b9190808060200260200160405190810160405280939291908181526020018383602002808284376000920191909152509295949360208101935035915050600160201b8111156103b157600080fd5b8201836020820111156103c357600080fd5b803590602001918460208302840111600160201b831117156103e457600080fd5b91908080602002602001604051908101604052809392919081815260200183836020028082843760009201919091525092955061105d945050505050565b005b6104226004803603606081101561043a57600080fd5b506001600160a01b03813581169160208101359091169060400135611342565b610422600480360360e081101561047057600080fd5b506001600160a01b03813581169160208101359091169060408101359060608101359060808101359060a08101359060c00135611446565b610422600480360360608110156104be57600080fd5b506001600160a01b03813581169160208101358216916040909101351661191d565b610422600480360360608110156104f657600080fd5b506001600160a01b038135811691602081013590911690604001351515611a00565b6104226004803603604081101561052e57600080fd5b506001600160a01b0381351690602001351515611b36565b6104226004803603604081101561055c57600080fd5b506001600160a01b0381351690602001351515611c20565b6104226004803603606081101561058a57600080fd5b506001600160a01b03813581169160208101359160409091013516611c9d565b610422600480360360208110156105c057600080fd5b5035611d97565b610422600480360360808110156105dd57600080fd5b506001600160a01b038135811691602081013582169160408201351690606001356120bf565b6104226004803603604081101561061957600080fd5b506001600160a01b038135169060200135151561220f565b6104226004803603608081101561064757600080fd5b506001600160a01b0381351690602081013590604081013590606001356122a9565b610671612385565b604080519115158252519081900360200190f35b6104226004803603606081101561069b57600080fd5b506001600160a01b03813581169160208101359091169060400135151561238e565b610422600480360360408110156106d357600080fd5b506001600160a01b038135811691602001351661249c565b6106f361253d565b604080516001600160a01b039092168252519081900360200190f35b61071761254c565b60408051918252519081900360200190f35b610717612553565b6106716004803603602081101561074757600080fd5b50356001600160a01b0316612559565b6104226004803603606081101561076d57600080fd5b506001600160a01b03813581169160208101359091169060400135151561256e565b610422600480360360808110156107a557600080fd5b506001600160a01b03813581169160208101358216916040820135169060600135612619565b610717612739565b610422600480360360408110156107e957600080fd5b506001600160a01b038135811691602001351661273f565b6104226004803603608081101561081757600080fd5b506001600160a01b03813516906020810135906040810135906060013561283e565b6104226004803603604081101561084f57600080fd5b506001600160a01b038135811691602001351661291a565b610717612a44565b6106716004803603602081101561088557600080fd5b50356001600160a01b0316612a4b565b610422600480360360208110156108ab57600080fd5b50356001600160a01b0316612a60565b61042260048036036101408110156108d257600080fd5b506001600160a01b038135169060208101359060408101359060608101359060808101359060a08101359060c08101359060e0810135906101008101359061012001351515612f1b565b6104226004803603602081101561093257600080fd5b50356001600160a01b0316613050565b6104226004803603604081101561095857600080fd5b506001600160a01b03813581169160200135166130c5565b6104226004803603602081101561098657600080fd5b50356131c9565b610422600480360360408110156109a357600080fd5b506001600160a01b038135169060200135613227565b610422600480360360408110156109cf57600080fd5b506001600160a01b0381358116916020013516613345565b610422600480360360408110156109fd57600080fd5b506001600160a01b0381351690602001351515613440565b61042260048036036060811015610a2b57600080fd5b506001600160a01b038135811691602081013590911690604001356134da565b6107176135dd565b61042260048036036040811015610a6957600080fd5b506001600160a01b0381351690602001356135e2565b61042260048036036020811015610a9557600080fd5b503515156136f9565b610717613778565b61042260048036036040811015610abc57600080fd5b506001600160a01b0381358116916020013516613788565b61071761387e565b61042260048036036060811015610af257600080fd5b6001600160a01b038235169190810190604081016020820135600160201b811115610b1c57600080fd5b820183602082011115610b2e57600080fd5b803590602001918460208302840111600160201b83111715610b4f57600080fd5b9190808060200260200160405190810160405280939291908181526020018383602002808284376000920191909152509295949360208101935035915050600160201b811115610b9e57600080fd5b820183602082011115610bb057600080fd5b803590602001918460208302840111600160201b83111715610bd157600080fd5b919080806020026020016040519081016040528093929190818152602001838360200280828437600092019190915250929550613884945050505050565b61042260048036036020811015610c2557600080fd5b50356139b7565b61042260048036036040811015610c4257600080fd5b506001600160a01b0381358116916020013516613afc565b61042260048036036060811015610c7057600080fd5b506001600160a01b03813581169160208101359091169060400135613b9d565b61042260048036036060811015610ca657600080fd5b506001600160a01b03813581169160208101359091169060400135613c5e565b6106f3613d3b565b6106f3613d4a565b61042260048036036040811015610cec57600080fd5b506001600160a01b0381351690602001351515613d59565b61042260048036036040811015610d1a57600080fd5b506001600160a01b0381351690602001351515613e0d565b61042260048036036020811015610d4857600080fd5b50356001600160a01b0316613e8a565b610422600480360360c0811015610d6e57600080fd5b506001600160a01b038135169060208101359060408101359060608101359060808101359060a001356141c9565b6104226004803603610100811015610db357600080fd5b506001600160a01b03813581169160208101359091169060408101359060608101359060808101359060a08101359060c081013515159060e00135151561443f565b61042260048036036060811015610e0b57600080fd5b506001600160a01b038135811691602081013590911690604001356145a1565b61042260048036036060811015610e4157600080fd5b506001600160a01b038135811691602081013590911690604001356146a8565b61042260048036036060811015610e7757600080fd5b506001600160a01b03813581169160208101359091169060400135614751565b61042260048036036040811015610ead57600080fd5b508035906020013561488b565b61071760048036036020811015610ed057600080fd5b5035614902565b6104226004803603610100811015610eee57600080fd5b506001600160a01b03813581169160208101359091169060408101359060608101359060808101359060a08101359060c081013515159060e001351515614914565b61042260048036036060811015610f4657600080fd5b506001600160a01b03813581169160208101359091169060400135614a9e565b61042260048036036040811015610f7c57600080fd5b6001600160a01b038235169190810190604081016020820135600160201b811115610fa657600080fd5b820183602082011115610fb857600080fd5b803590602001918460208302840111600160201b83111715610fd957600080fd5b919080806020026020016040519081016040528093929190818152602001838360200280828437600092019190915250929550614b49945050505050565b6104226004803603606081101561102d57600080fd5b506001600160a01b03813581169160208101359091169060400135614c9c565b61071761509f565b6106f36150a5565b60045461010090046001600160a01b031633148061108a57503360009081526009602052604090205460ff165b806110a45750336000908152600a602052604090205460ff165b6110e3576040805162461bcd60e51b81526020600482015260136024820152600080516020615735833981519152604482015290519081900360640190fd5b80518251146040518060400160405280601981526020017854696d656c6f636b3a20696e76616c6964206c656e6774687360381b815250906111a35760405162461bcd60e51b81526004018080602001828103825283818151815260200191508051906020019080838360005b83811015611168578181015183820152602001611150565b50505050905090810190601f1680156111955780820380516001836020036101000a031916815260200191505b509250505060405180910390fd5b50604080516346ea87af60e01b815230600482015290516001600160a01b038516916346ea87af9160248083019260209291908290030181600087803b1580156111ec57600080fd5b505af1158015611200573d6000803e3d6000fd5b505050506040513d602081101561121657600080fd5b50516112835760408051639cb7de4b60e01b81523060048201526001602482015290516001600160a01b03851691639cb7de4b91604480830192600092919082900301818387803b15801561126a57600080fd5b505af115801561127e573d6000803e3d6000fd5b505050505b60005b825181101561133c57600083828151811061129d57fe5b6020026020010151905060008383815181106112b557fe5b60200260200101519050856001600160a01b03166341f2272483836040518363ffffffff1660e01b815260040180836001600160a01b0316815260200182815260200192505050600060405180830381600087803b15801561131657600080fd5b505af115801561132a573d6000803e3d6000fd5b50506001909401935061128692505050565b50505050565b60045461010090046001600160a01b03163314611394576040805162461bcd60e51b81526020600482015260136024820152600080516020615735833981519152604482015290519081900360640190fd5b60408051631b5a5b9d60e21b6020808301919091526001600160601b0319606087811b8216602485015286901b166038830152604c80830185905283518084039091018152606c90920190925280519101206113ef816150b9565b604080516001600160a01b038087168252851660208201528082018490526060810183905290517f23d37bec99db82564427c9bbfe48ad7434bccf413a40fd357fb838c90a0d68289181900360800190a150505050565b60045461010090046001600160a01b031633148061147357503360009081526009602052604090205460ff165b8061148d5750336000908152600a602052604090205460ff165b6114cc576040805162461bcd60e51b81526020600482015260136024820152600080516020615735833981519152604482015290519081900360640190fd5b60408051808201909152601f81527f54696d656c6f636b3a20696e76616c6964205f6d696e50726f6669744270730060208201526101f48511156115515760405162461bcd60e51b8152602060048201818152835160248401528351909283926044909101919085019080838360008315611168578181015183820152602001611150565b5060408051630daf9c2160e41b81526001600160a01b0388811660048301529151899283169163daf9c210916024808301926020929190829003018186803b15801561159c57600080fd5b505afa1580156115b0573d6000803e3d6000fd5b505050506040513d60208110156115c657600080fd5b5051604080516060810190915260238082526156ca60208301399061162c5760405162461bcd60e51b8152602060048201818152835160248401528351909283926044909101919085019080838360008315611168578181015183820152602001611150565b506000816001600160a01b0316638ee573ac896040518263ffffffff1660e01b815260040180826001600160a01b0316815260200191505060206040518083038186803b15801561167c57600080fd5b505afa158015611690573d6000803e3d6000fd5b505050506040513d60208110156116a657600080fd5b5051604080516342b60b0360e01b81526001600160a01b038b811660048301529151929350600092918516916342b60b0391602480820192602092909190829003018186803b1580156116f857600080fd5b505afa15801561170c573d6000803e3d6000fd5b505050506040513d602081101561172257600080fd5b50516040805163db3555fb60e01b81526001600160a01b038c8116600483015291519293506000929186169163db3555fb91602480820192602092909190829003018186803b15801561177457600080fd5b505afa158015611788573d6000803e3d6000fd5b505050506040513d602081101561179e57600080fd5b505160408051633c5a6e3560e01b81526001600160a01b038d8116600483015260248201879052604482018d9052606482018c9052608482018b905285151560a483015283151560c48301529151929350908d1691633c5a6e359160e48082019260009290919082900301818387803b15801561181a57600080fd5b505af115801561182e573d6000803e3d6000fd5b505050508a6001600160a01b0316638585f4d28b886040518363ffffffff1660e01b815260040180836001600160a01b0316815260200182815260200192505050600060405180830381600087803b15801561188957600080fd5b505af115801561189d573d6000803e3d6000fd5b505050508a6001600160a01b031663d45200d18b876040518363ffffffff1660e01b815260040180836001600160a01b0316815260200182815260200192505050600060405180830381600087803b1580156118f857600080fd5b505af115801561190c573d6000803e3d6000fd5b505050505050505050505050505050565b60045461010090046001600160a01b0316331461196f576040805162461bcd60e51b81526020600482015260136024820152600080516020615735833981519152604482015290519081900360640190fd5b826001600160a01b031663f255527883836040518363ffffffff1660e01b815260040180836001600160a01b03168152602001826001600160a01b0316815260200192505050602060405180830381600087803b1580156119cf57600080fd5b505af11580156119e3573d6000803e3d6000fd5b505050506040513d60208110156119f957600080fd5b5050505050565b60045461010090046001600160a01b03163314611a52576040805162461bcd60e51b81526020600482015260136024820152600080516020615735833981519152604482015290519081900360640190fd5b604080516939b2ba2430b7323632b960b11b6020808301919091526001600160601b0319606087811b8216602a85015286901b16603e83015283151560f81b60528301528251603381840301815260539092019092528051910120611ab68161518f565b611abf816152a9565b836001600160a01b0316639cb7de4b84846040518363ffffffff1660e01b815260040180836001600160a01b03168152602001821515815260200192505050600060405180830381600087803b158015611b1857600080fd5b505af1158015611b2c573d6000803e3d6000fd5b5050505050505050565b60045461010090046001600160a01b0316331480611b6357503360009081526009602052604090205460ff165b80611b7d5750336000908152600a602052604090205460ff165b611bbc576040805162461bcd60e51b81526020600482015260136024820152600080516020615735833981519152604482015290519081900360640190fd5b816001600160a01b03166330455ede826040518263ffffffff1660e01b8152600401808215158152602001915050600060405180830381600087803b158015611c0457600080fd5b505af1158015611c18573d6000803e3d6000fd5b505050505050565b60045461010090046001600160a01b03163314611c72576040805162461bcd60e51b81526020600482015260136024820152600080516020615735833981519152604482015290519081900360640190fd5b6001600160a01b03919091166000908152600960205260409020805460ff1916911515919091179055565b60045461010090046001600160a01b0316331480611cca57503360009081526009602052604090205460ff165b80611ce45750336000908152600a602052604090205460ff165b611d23576040805162461bcd60e51b81526020600482015260136024820152600080516020615735833981519152604482015290519081900360640190fd5b826001600160a01b031663dfcfa25083836040518363ffffffff1660e01b815260040180838152602001826001600160a01b0316815260200192505050600060405180830381600087803b158015611d7a57600080fd5b505af1158015611d8e573d6000803e3d6000fd5b50505050505050565b60045461010090046001600160a01b0316331480611dc457503360009081526009602052604090205460ff165b80611dde5750336000908152600a602052604090205460ff165b611e1d576040805162461bcd60e51b81526020600482015260136024820152600080516020615735833981519152604482015290519081900360640190fd5b6007546040805163ee138d0f60e01b815290516000926001600160a01b03169163ee138d0f916004808301926020929190829003018186803b158015611e6257600080fd5b505afa158015611e76573d6000803e3d6000fd5b505050506040513d6020811015611e8c57600080fd5b5051600754604080516370a0823160e01b81526001600160a01b0392831660048201529051929350600092918416916370a0823191602480820192602092909190829003018186803b158015611ee157600080fd5b505afa158015611ef5573d6000803e3d6000fd5b505050506040513d6020811015611f0b57600080fd5b5051604080516312b5ad0160e11b815230600482015290519192506001600160a01b0384169163256b5a029160248082019260009290919082900301818387803b158015611f5857600080fd5b505af1158015611f6c573d6000803e3d6000fd5b5050505080831115611ffa576000611f848483615389565b600754604080516340c10f1960e01b81526001600160a01b039283166004820152602481018490529051929350908516916340c10f199160448082019260009290919082900301818387803b158015611fdc57600080fd5b505af1158015611ff0573d6000803e3d6000fd5b5050505050612078565b60006120068285615389565b60075460408051632770a7eb60e21b81526001600160a01b03928316600482015260248101849052905192935090851691639dc29fac9160448082019260009290919082900301818387803b15801561205e57600080fd5b505af1158015612072573d6000803e3d6000fd5b50505050505b6040805163ceb68c2360e01b815230600482015290516001600160a01b0384169163ceb68c2391602480830192600092919082900301818387803b158015611d7a57600080fd5b60045461010090046001600160a01b03163314612111576040805162461bcd60e51b81526020600482015260136024820152600080516020615735833981519152604482015290519081900360640190fd5b604080516c3bb4ba34323930bbaa37b5b2b760991b6020808301919091526001600160601b0319606088811b8216602d85015287811b8216604185015286901b1660558301526069808301859052835180840390910181526089909201909252805191012061217f8161518f565b612188816152a9565b846001600160a01b03166301e336678585856040518463ffffffff1660e01b815260040180846001600160a01b03168152602001836001600160a01b031681526020018281526020019350505050600060405180830381600087803b1580156121f057600080fd5b505af1158015612204573d6000803e3d6000fd5b505050505050505050565b60045461010090046001600160a01b03163314612261576040805162461bcd60e51b81526020600482015260136024820152600080516020615735833981519152604482015290519081900360640190fd5b816001600160a01b031663f07bbf77826040518263ffffffff1660e01b8152600401808215158152602001915050600060405180830381600087803b158015611c0457600080fd5b60045461010090046001600160a01b03163314806122d657503360009081526009602052604090205460ff165b806122f05750336000908152600a602052604090205460ff165b61232f576040805162461bcd60e51b81526020600482015260136024820152600080516020615735833981519152604482015290519081900360640190fd5b836001600160a01b0316638a27d4688484846040518463ffffffff1660e01b8152600401808481526020018381526020018281526020019350505050600060405180830381600087803b158015611b1857600080fd5b60045460ff1681565b60045461010090046001600160a01b031633146123e0576040805162461bcd60e51b81526020600482015260136024820152600080516020615735833981519152604482015290519081900360640190fd5b604080516939b2ba2430b7323632b960b11b6020808301919091526001600160601b0319606087811b8216602a85015286901b16603e83015283151560f81b60528301528251603381840301815260539092019092528051910120612444816150b9565b604080516001600160a01b03808716825285166020820152831515818301526060810183905290517f1929c4e13b0dbbad7856b9ce1fc9dca98c7bf7cedd56e22c04dd60ad1d34fe4b9181900360800190a150505050565b60045461010090046001600160a01b031633146124ee576040805162461bcd60e51b81526020600482015260136024820152600080516020615735833981519152604482015290519081900360640190fd5b816001600160a01b0316631785f53c826040518263ffffffff1660e01b815260040180826001600160a01b03168152602001915050600060405180830381600087803b158015611c0457600080fd5b6005546001600160a01b031681565b6207a12081565b60025481565b60096020526000908152604090205460ff1681565b60045461010090046001600160a01b031633146125c0576040805162461bcd60e51b81526020600482015260136024820152600080516020615735833981519152604482015290519081900360640190fd5b826001600160a01b0316634453a37483836040518363ffffffff1660e01b815260040180836001600160a01b03168152602001821515815260200192505050600060405180830381600087803b158015611d7a57600080fd5b60045461010090046001600160a01b0316331461266b576040805162461bcd60e51b81526020600482015260136024820152600080516020615735833981519152604482015290519081900360640190fd5b604080516c3bb4ba34323930bbaa37b5b2b760991b6020808301919091526001600160601b0319606088811b8216602d85015287811b8216604185015286901b166055830152606980830185905283518084039091018152608990920190925280519101206126d9816150b9565b604080516001600160a01b0380881682528087166020830152851681830152606081018490526080810183905290517f9ed7b0f07a9eed51079fab67f6d0f141f167f5b17fdb5a23282280e15fcafed39181900360a00190a15050505050565b60015481565b60045461010090046001600160a01b03163314612791576040805162461bcd60e51b81526020600482015260136024820152600080516020615735833981519152604482015290519081900360640190fd5b604080516539b2ba23b7bb60d11b6020808301919091526001600160601b0319606086811b8216602685015285901b16603a8301528251602e818403018152604e90920190925280519101206127e68161518f565b6127ef816152a9565b826001600160a01b031663cfad57a2836040518263ffffffff1660e01b815260040180826001600160a01b03168152602001915050600060405180830381600087803b158015611d7a57600080fd5b60045461010090046001600160a01b031633148061286b57503360009081526009602052604090205460ff165b806128855750336000908152600a602052604090205460ff165b6128c4576040805162461bcd60e51b81526020600482015260136024820152600080516020615735833981519152604482015290519081900360640190fd5b836001600160a01b031663836a01878484846040518463ffffffff1660e01b8152600401808481526020018381526020018281526020019350505050600060405180830381600087803b158015611b1857600080fd5b60045461010090046001600160a01b0316331461296c576040805162461bcd60e51b81526020600482015260136024820152600080516020615735833981519152604482015290519081900360640190fd5b604080518082019091526019815278151a5b595b1bd8dace881a5b9d985b1a590817dd185c99d95d603a1b60208201526001600160a01b0383163014156129f45760405162461bcd60e51b8152602060048201818152835160248401528351909283926044909101919085019080838360008315611168578181015183820152602001611150565b50816001600160a01b031663704b6c02826040518263ffffffff1660e01b815260040180826001600160a01b03168152602001915050600060405180830381600087803b158015611c0457600080fd5b6206978081565b600a6020526000908152604090205460ff1681565b60045461010090046001600160a01b0316331480612a8d57503360009081526009602052604090205460ff165b612acc576040805162461bcd60e51b81526020600482015260136024820152600080516020615735833981519152604482015290519081900360640190fd5b600454819060ff1615612b3a5760408051637c2eb9f760e01b81526001600482015290516001600160a01b03831691637c2eb9f791602480830192600092919082900301818387803b158015612b2157600080fd5b505af1158015612b35573d6000803e3d6000fd5b505050505b806001600160a01b03166340eb3802826001600160a01b0316637a210a2b6040518163ffffffff1660e01b815260040160206040518083038186803b158015612b8257600080fd5b505afa158015612b96573d6000803e3d6000fd5b505050506040513d6020811015612bac57600080fd5b505160408051630875ab6160e11b815290516001600160a01b038616916310eb56c2916004808301926020929190829003018186803b158015612bee57600080fd5b505afa158015612c02573d6000803e3d6000fd5b505050506040513d6020811015612c1857600080fd5b505160408051631351ecc160e21b815290516001600160a01b03871691634d47b304916004808301926020929190829003018186803b158015612c5a57600080fd5b505afa158015612c6e573d6000803e3d6000fd5b505050506040513d6020811015612c8457600080fd5b50516040805163511791c960e11b815290516001600160a01b0388169163a22f2392916004808301926020929190829003018186803b158015612cc657600080fd5b505afa158015612cda573d6000803e3d6000fd5b505050506040513d6020811015612cf057600080fd5b50516040805163df73a26760e01b815290516001600160a01b0389169163df73a267916004808301926020929190829003018186803b158015612d3257600080fd5b505afa158015612d46573d6000803e3d6000fd5b505050506040513d6020811015612d5c57600080fd5b5051600254604080516305d349a560e21b815290516001600160a01b038b169163174d2694916004808301926020929190829003018186803b158015612da157600080fd5b505afa158015612db5573d6000803e3d6000fd5b505050506040513d6020811015612dcb57600080fd5b50516040805163d9ac422560e01b815290516001600160a01b038c169163d9ac4225916004808301926020929190829003018186803b158015612e0d57600080fd5b505afa158015612e21573d6000803e3d6000fd5b505050506040513d6020811015612e3757600080fd5b505160408051639f392eb360e01b815290516001600160a01b038d1691639f392eb3916004808301926020929190829003018186803b158015612e7957600080fd5b505afa158015612e8d573d6000803e3d6000fd5b505050506040513d6020811015612ea357600080fd5b5051604080516001600160e01b031960e08d901b168152600481019a909a5260248a019890985260448901969096526064880194909452608487019290925260a486015260c485015260e484015215156101048301525161012480830192600092919082900301818387803b158015611c0457600080fd5b60045461010090046001600160a01b0316331480612f4857503360009081526009602052604090205460ff165b80612f625750336000908152600a602052604090205460ff165b612fa1576040805162461bcd60e51b81526020600482015260136024820152600080516020615735833981519152604482015290519081900360640190fd5b6002849055600354604080516320759c0160e11b8152600481018c9052602481018b9052604481018a9052606481018990526084810188905260a481019290925260c4820185905260e48201849052821515610104830152516001600160a01b038c16916340eb38029161012480830192600092919082900301818387803b15801561302c57600080fd5b505af1158015613040573d6000803e3d6000fd5b5050505050505050505050505050565b6005546001600160a01b0316331461309d576040805162461bcd60e51b81526020600482015260136024820152600080516020615735833981519152604482015290519081900360640190fd5b600480546001600160a01b0390921661010002610100600160a81b0319909216919091179055565b60045461010090046001600160a01b03163314613117576040805162461bcd60e51b81526020600482015260136024820152600080516020615735833981519152604482015290519081900360640190fd5b604080516b1cd95d141c9a58d95199595960a21b6020808301919091526001600160601b0319606086811b8216602c85015285901b168284015282516034818403018152605490920190925280519101206131718161518f565b61317a816152a9565b826001600160a01b031663724e78da836040518263ffffffff1660e01b815260040180826001600160a01b03168152602001915050600060405180830381600087803b158015611d7a57600080fd5b60045461010090046001600160a01b0316331461321b576040805162461bcd60e51b81526020600482015260136024820152600080516020615735833981519152604482015290519081900360640190fd5b613224816152a9565b50565b60045461010090046001600160a01b03163314613279576040805162461bcd60e51b81526020600482015260136024820152600080516020615735833981519152604482015290519081900360640190fd5b60408051808201909152601e81527f54696d656c6f636b3a20696e76616c6964205f6d61784c65766572616765000060208201526207a12082116132fe5760405162461bcd60e51b8152602060048201818152835160248401528351909283926044909101919085019080838360008315611168578181015183820152602001611150565b50816001600160a01b031663d3127e63826040518263ffffffff1660e01b815260040180828152602001915050600060405180830381600087803b158015611c0457600080fd5b60045461010090046001600160a01b03163314613397576040805162461bcd60e51b81526020600482015260136024820152600080516020615735833981519152604482015290519081900360640190fd5b604080516b1cd95d141c9a58d95199595960a21b6020808301919091526001600160601b0319606086811b8216602c85015285901b168284015282516034818403018152605490920190925280519101206133f1816150b9565b604080516001600160a01b0380861682528416602082015280820183905290517fb878dd4b5762f4118ad54995be907dd2bcd915d942e4ac75580fba9b4ee4727f9181900360600190a1505050565b60045461010090046001600160a01b03163314613492576040805162461bcd60e51b81526020600482015260136024820152600080516020615735833981519152604482015290519081900360640190fd5b816001600160a01b0316635a47a1a7826040518263ffffffff1660e01b8152600401808215158152602001915050600060405180830381600087803b158015611c0457600080fd5b60045461010090046001600160a01b0316331461352c576040805162461bcd60e51b81526020600482015260136024820152600080516020615735833981519152604482015290519081900360640190fd5b604080516972656465656d5573646d60b01b6020808301919091526001600160601b0319606087811b8216602a85015286901b16603e8301526052808301859052835180840390910181526072909201909252805191012061358d816150b9565b604080516001600160a01b0380871682528516602082015280820184905290517f475cfa9d59e3793aeeebb2fb1c4b57588d7d0a052021f3a145e3daedccaf4af09181900360600190a150505050565b60c881565b60045461010090046001600160a01b03163314613634576040805162461bcd60e51b81526020600482015260136024820152600080516020615735833981519152604482015290519081900360640190fd5b604080518082019091526014815273496e76616c6964205f6d6178476173507269636560601b602082015264012a05f20082116136b25760405162461bcd60e51b8152602060048201818152835160248401528351909283926044909101919085019080838360008315611168578181015183820152602001611150565b50816001600160a01b031663d2fa635e826040518263ffffffff1660e01b815260040180828152602001915050600060405180830381600087803b158015611c0457600080fd5b60045461010090046001600160a01b031633148061372657503360009081526009602052604090205460ff165b613765576040805162461bcd60e51b81526020600482015260136024820152600080516020615735833981519152604482015290519081900360640190fd5b6004805460ff1916911515919091179055565b68327cb2734119d3b7a9601e1b81565b60045461010090046001600160a01b031633146137da576040805162461bcd60e51b81526020600482015260136024820152600080516020615735833981519152604482015290519081900360640190fd5b604080516539b2ba23b7bb60d11b6020808301919091526001600160601b0319606086811b8216602685015285901b16603a8301528251602e818403018152604e909201909252805191012061382f816150b9565b604080516001600160a01b0380861682528416602082015280820183905290517f2701a94fd55a560e291f3c54d36580040670d6fde558a77a75d619e38139f7139181900360600190a1505050565b60035481565b60045461010090046001600160a01b03163314806138b157503360009081526009602052604090205460ff165b806138cb5750336000908152600a602052604090205460ff165b61390a576040805162461bcd60e51b81526020600482015260136024820152600080516020615735833981519152604482015290519081900360640190fd5b60005b825181101561133c57836001600160a01b031663d45200d184838151811061393157fe5b602002602001015184848151811061394557fe5b60200260200101516040518363ffffffff1660e01b815260040180836001600160a01b0316815260200182815260200192505050600060405180830381600087803b15801561399357600080fd5b505af11580156139a7573d6000803e3d6000fd5b50506001909201915061390d9050565b60045461010090046001600160a01b03163314613a09576040805162461bcd60e51b81526020600482015260136024820152600080516020615735833981519152604482015290519081900360640190fd5b6040805180820190915260198152782a34b6b2b637b1b59d1034b73b30b634b2102fb13ab33332b960391b602082015262069780821115613a8b5760405162461bcd60e51b8152602060048201818152835160248401528351909283926044909101919085019080838360008315611168578181015183820152602001611150565b5060005481116040518060600160405280602481526020016157116024913990613af65760405162461bcd60e51b8152602060048201818152835160248401528351909283926044909101919085019080838360008315611168578181015183820152602001611150565b50600055565b60045461010090046001600160a01b03163314613b4e576040805162461bcd60e51b81526020600482015260136024820152600080516020615735833981519152604482015290519081900360640190fd5b816001600160a01b03166371089f4d826040518263ffffffff1660e01b815260040180826001600160a01b03168152602001915050600060405180830381600087803b158015611c0457600080fd5b60045461010090046001600160a01b03163314613bef576040805162461bcd60e51b81526020600482015260136024820152600080516020615735833981519152604482015290519081900360640190fd5b60408051631b5a5b9d60e21b6020808301919091526001600160601b0319606087811b8216602485015286901b166038830152604c80830185905283518084039091018152606c9092019092528051910120613c4a8161518f565b613c53816152a9565b61133c8484846153d2565b60045461010090046001600160a01b0316331480613c8b57503360009081526009602052604090205460ff165b80613ca55750336000908152600a602052604090205460ff165b613ce4576040805162461bcd60e51b81526020600482015260136024820152600080516020615735833981519152604482015290519081900360640190fd5b826001600160a01b0316633fb8b32383836040518363ffffffff1660e01b815260040180836001600160a01b0316815260200182815260200192505050600060405180830381600087803b158015611d7a57600080fd5b6006546001600160a01b031681565b6007546001600160a01b031681565b60045461010090046001600160a01b0316331480613d8657503360009081526009602052604090205460ff165b613dc5576040805162461bcd60e51b81526020600482015260136024820152600080516020615735833981519152604482015290519081900360640190fd5b816001600160a01b0316637c2eb9f7826040518263ffffffff1660e01b8152600401808215158152602001915050600060405180830381600087803b158015611c0457600080fd5b60045461010090046001600160a01b03163314613e5f576040805162461bcd60e51b81526020600482015260136024820152600080516020615735833981519152604482015290519081900360640190fd5b6001600160a01b03919091166000908152600a60205260409020805460ff1916911515919091179055565b60045461010090046001600160a01b0316331480613eb757503360009081526009602052604090205460ff165b613ef6576040805162461bcd60e51b81526020600482015260136024820152600080516020615735833981519152604482015290519081900360640190fd5b600454819060ff1615613f625760408051637c2eb9f760e01b815260006004820181905291516001600160a01b03841692637c2eb9f7926024808201939182900301818387803b158015613f4957600080fd5b505af1158015613f5d573d6000803e3d6000fd5b505050505b806001600160a01b03166340eb3802826001600160a01b0316637a210a2b6040518163ffffffff1660e01b815260040160206040518083038186803b158015613faa57600080fd5b505afa158015613fbe573d6000803e3d6000fd5b505050506040513d6020811015613fd457600080fd5b505160408051630875ab6160e11b815290516001600160a01b038616916310eb56c2916004808301926020929190829003018186803b15801561401657600080fd5b505afa15801561402a573d6000803e3d6000fd5b505050506040513d602081101561404057600080fd5b505160408051631351ecc160e21b815290516001600160a01b03871691634d47b304916004808301926020929190829003018186803b15801561408257600080fd5b505afa158015614096573d6000803e3d6000fd5b505050506040513d60208110156140ac57600080fd5b50516040805163511791c960e11b815290516001600160a01b0388169163a22f2392916004808301926020929190829003018186803b1580156140ee57600080fd5b505afa158015614102573d6000803e3d6000fd5b505050506040513d602081101561411857600080fd5b50516040805163df73a26760e01b815290516001600160a01b0389169163df73a267916004808301926020929190829003018186803b15801561415a57600080fd5b505afa15801561416e573d6000803e3d6000fd5b505050506040513d602081101561418457600080fd5b5051600354604080516305d349a560e21b815290516001600160a01b038b169163174d2694916004808301926020929190829003018186803b158015612da157600080fd5b60045461010090046001600160a01b03163314806141f657503360009081526009602052604090205460ff165b806142105750336000908152600a602052604090205460ff165b61424f576040805162461bcd60e51b81526020600482015260136024820152600080516020615735833981519152604482015290519081900360640190fd5b6000869050806001600160a01b03166340eb38028787878787600354886001600160a01b031663174d26946040518163ffffffff1660e01b815260040160206040518083038186803b1580156142a457600080fd5b505afa1580156142b8573d6000803e3d6000fd5b505050506040513d60208110156142ce57600080fd5b50516040805163d9ac422560e01b815290516001600160a01b038c169163d9ac4225916004808301926020929190829003018186803b15801561431057600080fd5b505afa158015614324573d6000803e3d6000fd5b505050506040513d602081101561433a57600080fd5b505160408051639f392eb360e01b815290516001600160a01b038d1691639f392eb3916004808301926020929190829003018186803b15801561437c57600080fd5b505afa158015614390573d6000803e3d6000fd5b505050506040513d60208110156143a657600080fd5b5051604080516001600160e01b031960e08d901b168152600481019a909a5260248a019890985260448901969096526064880194909452608487019290925260a486015260c485015260e484015215156101048301525161012480830192600092919082900301818387803b15801561441e57600080fd5b505af1158015614432573d6000803e3d6000fd5b5050505050505050505050565b60045461010090046001600160a01b03163314614491576040805162461bcd60e51b81526020600482015260136024820152600080516020615735833981519152604482015290519081900360640190fd5b60408051727661756c74536574546f6b656e436f6e66696760681b6020808301919091526001600160601b031960608c811b821660338501528b901b166047830152605b8201899052607b8201889052609b820187905260bb820186905284151560f890811b60db840152841515901b60dc830152825160bd81840301815260dd9092019092528051910120614526816150b9565b604080516001600160a01b03808c1682528a166020820152808201899052606081018890526080810187905260a0810186905284151560c082015283151560e082015290517f3510e9d8245371c6c1061c33781ce16bd0eafa03cd3d0781865036520af4c743918190036101000190a1505050505050505050565b60045461010090046001600160a01b031633146145f3576040805162461bcd60e51b81526020600482015260136024820152600080516020615735833981519152604482015290519081900360640190fd5b6040805166617070726f766560c81b6020808301919091526001600160601b0319606087811b8216602785015286901b16603b830152604f80830185905283518084039091018152606f9092019092528051910120614651816150b9565b604080516001600160a01b038087168252851660208201528082018490526060810183905290517f6af9d86ba7407a934e941ed8ae5f779369a88fe8ba2cd1c204185d6f8a8287fd9181900360800190a150505050565b60045461010090046001600160a01b031633146146fa576040805162461bcd60e51b81526020600482015260136024820152600080516020615735833981519152604482015290519081900360640190fd5b826001600160a01b031663efa10a6e83836040518363ffffffff1660e01b815260040180836001600160a01b0316815260200182815260200192505050600060405180830381600087803b158015611d7a57600080fd5b60045461010090046001600160a01b031633146147a3576040805162461bcd60e51b81526020600482015260136024820152600080516020615735833981519152604482015290519081900360640190fd5b6040805166617070726f766560c81b6020808301919091526001600160601b0319606087811b8216602785015286901b16603b830152604f80830185905283518084039091018152606f90920190925280519101206148018161518f565b61480a816152a9565b836001600160a01b031663095ea7b384846040518363ffffffff1660e01b815260040180836001600160a01b0316815260200182815260200192505050602060405180830381600087803b15801561486157600080fd5b505af1158015614875573d6000803e3d6000fd5b505050506040513d6020811015611c1857600080fd5b60045461010090046001600160a01b03163314806148b857503360009081526009602052604090205460ff165b6148f7576040805162461bcd60e51b81526020600482015260136024820152600080516020615735833981519152604482015290519081900360640190fd5b600291909155600355565b60086020526000908152604090205481565b60045461010090046001600160a01b03163314614966576040805162461bcd60e51b81526020600482015260136024820152600080516020615735833981519152604482015290519081900360640190fd5b60408051727661756c74536574546f6b656e436f6e66696760681b6020808301919091526001600160601b031960608c811b821660338501528b901b166047830152605b8201899052607b8201889052609b820187905260bb820186905284151560f890811b60db840152841515901b60dc830152825160bd81840301815260dd90920190925280519101206149fb8161518f565b614a04816152a9565b60408051633c5a6e3560e01b81526001600160a01b038a81166004830152602482018a905260448201899052606482018890526084820187905285151560a483015284151560c48301529151918b1691633c5a6e359160e48082019260009290919082900301818387803b158015614a7b57600080fd5b505af1158015614a8f573d6000803e3d6000fd5b50505050505050505050505050565b60045461010090046001600160a01b03163314614af0576040805162461bcd60e51b81526020600482015260136024820152600080516020615735833981519152604482015290519081900360640190fd5b604080516323b872dd60e01b81526001600160a01b038581166004830152306024830152604482018490529151918416916323b872dd916064808201926020929091908290030181600087803b1580156119cf57600080fd5b60045461010090046001600160a01b0316331480614b7657503360009081526009602052604090205460ff165b80614b905750336000908152600a602052604090205460ff165b614bcf576040805162461bcd60e51b81526020600482015260136024820152600080516020615735833981519152604482015290519081900360640190fd5b60005b8151811015614c9757826001600160a01b031663f2555278838381518110614bf657fe5b6020026020010151600460019054906101000a90046001600160a01b03166040518363ffffffff1660e01b815260040180836001600160a01b03168152602001826001600160a01b0316815260200192505050602060405180830381600087803b158015614c6357600080fd5b505af1158015614c77573d6000803e3d6000fd5b505050506040513d6020811015614c8d57600080fd5b5050600101614bd2565b505050565b60045461010090046001600160a01b03163314614cee576040805162461bcd60e51b81526020600482015260136024820152600080516020615735833981519152604482015290519081900360640190fd5b604080516972656465656d5573646d60b01b6020808301919091526001600160601b0319606087811b8216602a85015286901b16603e83015260528083018590528351808403909101815260729092019092528051910120614d4f8161518f565b614d58816152a9565b6000846001600160a01b031663ee138d0f6040518163ffffffff1660e01b815260040160206040518083038186803b158015614d9357600080fd5b505afa158015614da7573d6000803e3d6000fd5b505050506040513d6020811015614dbd57600080fd5b5051604080516352f4877760e11b81523060048201526001602482015290519192506001600160a01b0387169163a5e90eee9160448082019260009290919082900301818387803b158015614e1157600080fd5b505af1158015614e25573d6000803e3d6000fd5b5050604080516312b5ad0160e11b815230600482015290516001600160a01b038516935063256b5a029250602480830192600092919082900301818387803b158015614e7057600080fd5b505af1158015614e84573d6000803e3d6000fd5b5050604080516340c10f1960e01b81523060048201526024810187905290516001600160a01b03851693506340c10f199250604480830192600092919082900301818387803b158015614ed657600080fd5b505af1158015614eea573d6000803e3d6000fd5b50505050806001600160a01b031663a9059cbb86856040518363ffffffff1660e01b815260040180836001600160a01b0316815260200182815260200192505050602060405180830381600087803b158015614f4557600080fd5b505af1158015614f59573d6000803e3d6000fd5b505050506040513d6020811015614f6f57600080fd5b505060065460408051630125149f60e31b81526001600160a01b0387811660048301529283166024820152905191871691630928a4f8916044808201926020929091908290030181600087803b158015614fc857600080fd5b505af1158015614fdc573d6000803e3d6000fd5b505050506040513d6020811015614ff257600080fd5b5050604080516352f4877760e11b815230600482015260006024820181905291516001600160a01b0388169263a5e90eee926044808201939182900301818387803b15801561504057600080fd5b505af1158015615054573d6000803e3d6000fd5b50506040805163ceb68c2360e01b815230600482015290516001600160a01b038516935063ceb68c239250602480830192600092919082900301818387803b1580156121f057600080fd5b60005481565b60045461010090046001600160a01b031681565b60086000828152602001908152602001600020546000146040518060600160405280602281526020016156a860229139906151355760405162461bcd60e51b8152602060048201818152835160248401528351909283926044909101919085019080838360008315611168578181015183820152602001611150565b506000546151449042906155f5565b60008281526008602090815260409182902092909255805183815290517f5fb9c0ecf7b4a28c4c480212e868f9da7f373a2ed4d23498b0be6aadf35242fb929181900390910190a150565b6008600082815260200190815260200160002054600014156040518060400160405280601e81526020017f54696d656c6f636b3a20616374696f6e206e6f74207369676e616c6c65640000815250906152295760405162461bcd60e51b8152602060048201818152835160248401528351909283926044909101919085019080838360008315611168578181015183820152602001611150565b50426008600083815260200190815260200160002054106040518060600160405280602481526020016156ed60249139906152a55760405162461bcd60e51b8152602060048201818152835160248401528351909283926044909101919085019080838360008315611168578181015183820152602001611150565b5050565b600860008281526020019081526020016000205460001415604051806040016040528060198152602001782a34b6b2b637b1b59d1034b73b30b634b2102fb0b1ba34b7b760391b8152509061533f5760405162461bcd60e51b8152602060048201818152835160248401528351909283926044909101919085019080838360008315611168578181015183820152602001611150565b50600081815260086020908152604080832092909255815183815291517f194ed6dd5e37e2acc44a19455c3f208c4831ee695fe362d9c4ef2d316bc53aec9281900390910190a150565b60006153cb83836040518060400160405280601e81526020017f536166654d6174683a207375627472616374696f6e206f766572666c6f77000081525061564d565b9392505050565b604080516355138f0d60e11b8152306004820152905184916001600160a01b0383169163aa271e1a916024808201926020929091908290030181600087803b15801561541d57600080fd5b505af1158015615431573d6000803e3d6000fd5b505050506040513d602081101561544757600080fd5b50516154b4576040805163cf456ae760e01b81523060048201526001602482015290516001600160a01b0383169163cf456ae791604480830192600092919082900301818387803b15801561549b57600080fd5b505af11580156154af573d6000803e3d6000fd5b505050505b806001600160a01b03166340c10f1984846040518363ffffffff1660e01b815260040180836001600160a01b0316815260200182815260200192505050600060405180830381600087803b15801561550b57600080fd5b505af115801561551f573d6000803e3d6000fd5b50505050600154846001600160a01b03166318160ddd6040518163ffffffff1660e01b815260040160206040518083038186803b15801561555f57600080fd5b505afa158015615573573d6000803e3d6000fd5b505050506040513d602081101561558957600080fd5b5051604080516060810190915260218082529290911115916157556020830139906119f95760405162461bcd60e51b8152602060048201818152835160248401528351909283926044909101919085019080838360008315611168578181015183820152602001611150565b6000828201838110156153cb576040805162461bcd60e51b815260206004820152601b60248201527a536166654d6174683a206164646974696f6e206f766572666c6f7760281b604482015290519081900360640190fd5b6000818484111561569f5760405162461bcd60e51b8152602060048201818152835160248401528351909283926044909101919085019080838360008315611168578181015183820152602001611150565b50505090039056fe54696d656c6f636b3a20616374696f6e20616c7265616479207369676e616c6c656454696d656c6f636b3a20746f6b656e206e6f74207965742077686974656c697374656454696d656c6f636b3a20616374696f6e2074696d65206e6f74207965742070617373656454696d656c6f636b3a206275666665722063616e6e6f742062652064656372656173656454696d656c6f636b3a20666f7262696464656e0000000000000000000000000054696d656c6f636b3a206d6178546f6b656e537570706c79206578636565646564a2646970667358221220b550e871290ed4d741543f53c8fbb204386950ef44e985153e454af248b3ac6a64736f6c634300060c0033",
  "devdoc": {
    "kind": "dev",
    "methods": {},
    "version": 1
  },
  "userdoc": {
    "kind": "user",
    "methods": {},
    "version": 1
  },
  "storageLayout": {
    "storage": [
      {
        "astId": 12782,
        "contract": "contracts/peripherals/Timelock.sol:Timelock",
        "label": "buffer",
        "offset": 0,
        "slot": "0",
        "type": "t_uint256"
      },
      {
        "astId": 12784,
        "contract": "contracts/peripherals/Timelock.sol:Timelock",
        "label": "maxTokenSupply",
        "offset": 0,
        "slot": "1",
        "type": "t_uint256"
      },
      {
        "astId": 12786,
        "contract": "contracts/peripherals/Timelock.sol:Timelock",
        "label": "marginFeeBasisPoints",
        "offset": 0,
        "slot": "2",
        "type": "t_uint256"
      },
      {
        "astId": 12788,
        "contract": "contracts/peripherals/Timelock.sol:Timelock",
        "label": "maxMarginFeeBasisPoints",
        "offset": 0,
        "slot": "3",
        "type": "t_uint256"
      },
      {
        "astId": 12790,
        "contract": "contracts/peripherals/Timelock.sol:Timelock",
        "label": "shouldToggleIsLeverageEnabled",
        "offset": 0,
        "slot": "4",
        "type": "t_bool"
      },
      {
        "astId": 12792,
        "contract": "contracts/peripherals/Timelock.sol:Timelock",
        "label": "admin",
        "offset": 1,
        "slot": "4",
        "type": "t_address"
      },
      {
        "astId": 12794,
        "contract": "contracts/peripherals/Timelock.sol:Timelock",
        "label": "tokenManager",
        "offset": 0,
        "slot": "5",
        "type": "t_address"
      },
      {
        "astId": 12796,
        "contract": "contracts/peripherals/Timelock.sol:Timelock",
        "label": "mintReceiver",
        "offset": 0,
        "slot": "6",
        "type": "t_address"
      },
      {
        "astId": 12798,
        "contract": "contracts/peripherals/Timelock.sol:Timelock",
        "label": "mlpManager",
        "offset": 0,
        "slot": "7",
        "type": "t_address"
      },
      {
        "astId": 12802,
        "contract": "contracts/peripherals/Timelock.sol:Timelock",
        "label": "pendingActions",
        "offset": 0,
        "slot": "8",
        "type": "t_mapping(t_bytes32,t_uint256)"
      },
      {
        "astId": 12806,
        "contract": "contracts/peripherals/Timelock.sol:Timelock",
        "label": "isHandler",
        "offset": 0,
        "slot": "9",
        "type": "t_mapping(t_address,t_bool)"
      },
      {
        "astId": 12810,
        "contract": "contracts/peripherals/Timelock.sol:Timelock",
        "label": "isKeeper",
        "offset": 0,
        "slot": "10",
        "type": "t_mapping(t_address,t_bool)"
      }
    ],
    "types": {
      "t_address": {
        "encoding": "inplace",
        "label": "address",
        "numberOfBytes": "20"
      },
      "t_bool": {
        "encoding": "inplace",
        "label": "bool",
        "numberOfBytes": "1"
      },
      "t_bytes32": {
        "encoding": "inplace",
        "label": "bytes32",
        "numberOfBytes": "32"
      },
      "t_mapping(t_address,t_bool)": {
        "encoding": "mapping",
        "key": "t_address",
        "label": "mapping(address => bool)",
        "numberOfBytes": "32",
        "value": "t_bool"
      },
      "t_mapping(t_bytes32,t_uint256)": {
        "encoding": "mapping",
        "key": "t_bytes32",
        "label": "mapping(bytes32 => uint256)",
        "numberOfBytes": "32",
        "value": "t_uint256"
      },
      "t_uint256": {
        "encoding": "inplace",
        "label": "uint256",
        "numberOfBytes": "32"
      }
    }
  }
}