{
  "address": "0x5FbDB2315678afecb367f032d93F642f64180aa3",
  "abi": [
    {
      "inputs": [],
      "stateMutability": "nonpayable",
      "type": "constructor"
    },
    {
      "inputs": [
        {
          "internalType": "address",
          "name": "_router",
          "type": "address"
        }
      ],
      "name": "addRouter",
      "outputs": [],
      "stateMutability": "nonpayable",
      "type": "function"
    },
    {
      "inputs": [
        {
          "internalType": "uint256",
          "name": "_amount",
          "type": "uint256"
        },
        {
          "internalType": "address",
          "name": "_tokenDiv",
          "type": "address"
        },
        {
          "internalType": "address",
          "name": "_tokenMul",
          "type": "address"
        }
      ],
      "name": "adjustForDecimals",
      "outputs": [
        {
          "internalType": "uint256",
          "name": "",
          "type": "uint256"
        }
      ],
      "stateMutability": "view",
      "type": "function"
    },
    {
      "inputs": [
        {
          "internalType": "uint256",
          "name": "",
          "type": "uint256"
        }
      ],
      "name": "allWhitelistedTokens",
      "outputs": [
        {
          "internalType": "address",
          "name": "",
          "type": "address"
        }
      ],
      "stateMutability": "view",
      "type": "function"
    },
    {
      "inputs": [],
      "name": "allWhitelistedTokensLength",
      "outputs": [
        {
          "internalType": "uint256",
          "name": "",
          "type": "uint256"
        }
      ],
      "stateMutability": "view",
      "type": "function"
    },
    {
      "inputs": [
        {
          "internalType": "address",
          "name": "",
          "type": "address"
        },
        {
          "internalType": "address",
          "name": "",
          "type": "address"
        }
      ],
      "name": "approvedRouters",
      "outputs": [
        {
          "internalType": "bool",
          "name": "",
          "type": "bool"
        }
      ],
      "stateMutability": "view",
      "type": "function"
    },
    {
      "inputs": [
        {
          "internalType": "address",
          "name": "",
          "type": "address"
        }
      ],
      "name": "bufferAmounts",
      "outputs": [
        {
          "internalType": "uint256",
          "name": "",
          "type": "uint256"
        }
      ],
      "stateMutability": "view",
      "type": "function"
    },
    {
      "inputs": [
        {
          "internalType": "address",
          "name": "_token",
          "type": "address"
        },
        {
          "internalType": "address",
          "name": "_receiver",
          "type": "address"
        }
      ],
      "name": "buyUSDM",
      "outputs": [
        {
          "internalType": "uint256",
          "name": "",
          "type": "uint256"
        }
      ],
      "stateMutability": "nonpayable",
      "type": "function"
    },
    {
      "inputs": [
        {
          "internalType": "address",
          "name": "_token",
          "type": "address"
        }
      ],
      "name": "clearTokenConfig",
      "outputs": [],
      "stateMutability": "nonpayable",
      "type": "function"
    },
    {
      "inputs": [
        {
          "internalType": "address",
          "name": "",
          "type": "address"
        }
      ],
      "name": "cumulativeFundingRates",
      "outputs": [
        {
          "internalType": "uint256",
          "name": "",
          "type": "uint256"
        }
      ],
      "stateMutability": "view",
      "type": "function"
    },
    {
      "inputs": [
        {
          "internalType": "address",
          "name": "_account",
          "type": "address"
        },
        {
          "internalType": "address",
          "name": "_collateralToken",
          "type": "address"
        },
        {
          "internalType": "address",
          "name": "_indexToken",
          "type": "address"
        },
        {
          "internalType": "uint256",
          "name": "_collateralDelta",
          "type": "uint256"
        },
        {
          "internalType": "uint256",
          "name": "_sizeDelta",
          "type": "uint256"
        },
        {
          "internalType": "bool",
          "name": "_isLong",
          "type": "bool"
        },
        {
          "internalType": "address",
          "name": "_receiver",
          "type": "address"
        }
      ],
      "name": "decreasePosition",
      "outputs": [
        {
          "internalType": "uint256",
          "name": "",
          "type": "uint256"
        }
      ],
      "stateMutability": "nonpayable",
      "type": "function"
    },
    {
      "inputs": [
        {
          "internalType": "address",
          "name": "_token",
          "type": "address"
        }
      ],
      "name": "directPoolDeposit",
      "outputs": [],
      "stateMutability": "nonpayable",
      "type": "function"
    },
    {
      "inputs": [],
      "name": "errorController",
      "outputs": [
        {
          "internalType": "address",
          "name": "",
          "type": "address"
        }
      ],
      "stateMutability": "view",
      "type": "function"
    },
    {
      "inputs": [
        {
          "internalType": "uint256",
          "name": "",
          "type": "uint256"
        }
      ],
      "name": "errors",
      "outputs": [
        {
          "internalType": "string",
          "name": "",
          "type": "string"
        }
      ],
      "stateMutability": "view",
      "type": "function"
    },
    {
      "inputs": [
        {
          "internalType": "address",
          "name": "",
          "type": "address"
        }
      ],
      "name": "feeReserves",
      "outputs": [
        {
          "internalType": "uint256",
          "name": "",
          "type": "uint256"
        }
      ],
      "stateMutability": "view",
      "type": "function"
    },
    {
      "inputs": [],
      "name": "fundingInterval",
      "outputs": [
        {
          "internalType": "uint256",
          "name": "",
          "type": "uint256"
        }
      ],
      "stateMutability": "view",
      "type": "function"
    },
    {
      "inputs": [],
      "name": "fundingRateFactor",
      "outputs": [
        {
          "internalType": "uint256",
          "name": "",
          "type": "uint256"
        }
      ],
      "stateMutability": "view",
      "type": "function"
    },
    {
      "inputs": [
        {
          "internalType": "address",
          "name": "_indexToken",
          "type": "address"
        },
        {
          "internalType": "uint256",
          "name": "_size",
          "type": "uint256"
        },
        {
          "internalType": "uint256",
          "name": "_averagePrice",
          "type": "uint256"
        },
        {
          "internalType": "bool",
          "name": "_isLong",
          "type": "bool"
        },
        {
          "internalType": "uint256",
          "name": "_lastIncreasedTime",
          "type": "uint256"
        }
      ],
      "name": "getDelta",
      "outputs": [
        {
          "internalType": "bool",
          "name": "",
          "type": "bool"
        },
        {
          "internalType": "uint256",
          "name": "",
          "type": "uint256"
        }
      ],
      "stateMutability": "view",
      "type": "function"
    },
    {
      "inputs": [
        {
          "internalType": "address",
          "name": "_collateralToken",
          "type": "address"
        },
        {
          "internalType": "address",
          "name": "_indexToken",
          "type": "address"
        },
        {
          "internalType": "bool",
          "name": "_isLong",
          "type": "bool"
        }
      ],
      "name": "getEntryFundingRate",
      "outputs": [
        {
          "internalType": "uint256",
          "name": "",
          "type": "uint256"
        }
      ],
      "stateMutability": "view",
      "type": "function"
    },
    {
      "inputs": [
        {
          "internalType": "address",
          "name": "_token",
          "type": "address"
        },
        {
          "internalType": "uint256",
          "name": "_usdmDelta",
          "type": "uint256"
        },
        {
          "internalType": "uint256",
          "name": "_feeBasisPoints",
          "type": "uint256"
        },
        {
          "internalType": "uint256",
          "name": "_taxBasisPoints",
          "type": "uint256"
        },
        {
          "internalType": "bool",
          "name": "_increment",
          "type": "bool"
        }
      ],
      "name": "getFeeBasisPoints",
      "outputs": [
        {
          "internalType": "uint256",
          "name": "",
          "type": "uint256"
        }
      ],
      "stateMutability": "view",
      "type": "function"
    },
    {
      "inputs": [
        {
          "internalType": "address",
          "name": "_account",
          "type": "address"
        },
        {
          "internalType": "address",
          "name": "_collateralToken",
          "type": "address"
        },
        {
          "internalType": "address",
          "name": "_indexToken",
          "type": "address"
        },
        {
          "internalType": "bool",
          "name": "_isLong",
          "type": "bool"
        },
        {
          "internalType": "uint256",
          "name": "_size",
          "type": "uint256"
        },
        {
          "internalType": "uint256",
          "name": "_entryFundingRate",
          "type": "uint256"
        }
      ],
      "name": "getFundingFee",
      "outputs": [
        {
          "internalType": "uint256",
          "name": "",
          "type": "uint256"
        }
      ],
      "stateMutability": "view",
      "type": "function"
    },
    {
      "inputs": [
        {
          "internalType": "address",
          "name": "_token",
          "type": "address"
        }
      ],
      "name": "getGlobalShortDelta",
      "outputs": [
        {
          "internalType": "bool",
          "name": "",
          "type": "bool"
        },
        {
          "internalType": "uint256",
          "name": "",
          "type": "uint256"
        }
      ],
      "stateMutability": "view",
      "type": "function"
    },
    {
      "inputs": [
        {
          "internalType": "address",
          "name": "_token",
          "type": "address"
        }
      ],
      "name": "getMaxPrice",
      "outputs": [
        {
          "internalType": "uint256",
          "name": "",
          "type": "uint256"
        }
      ],
      "stateMutability": "view",
      "type": "function"
    },
    {
      "inputs": [
        {
          "internalType": "address",
          "name": "_token",
          "type": "address"
        }
      ],
      "name": "getMinPrice",
      "outputs": [
        {
          "internalType": "uint256",
          "name": "",
          "type": "uint256"
        }
      ],
      "stateMutability": "view",
      "type": "function"
    },
    {
      "inputs": [
        {
          "internalType": "address",
          "name": "_indexToken",
          "type": "address"
        },
        {
          "internalType": "uint256",
          "name": "_size",
          "type": "uint256"
        },
        {
          "internalType": "uint256",
          "name": "_averagePrice",
          "type": "uint256"
        },
        {
          "internalType": "bool",
          "name": "_isLong",
          "type": "bool"
        },
        {
          "internalType": "uint256",
          "name": "_nextPrice",
          "type": "uint256"
        },
        {
          "internalType": "uint256",
          "name": "_sizeDelta",
          "type": "uint256"
        },
        {
          "internalType": "uint256",
          "name": "_lastIncreasedTime",
          "type": "uint256"
        }
      ],
      "name": "getNextAveragePrice",
      "outputs": [
        {
          "internalType": "uint256",
          "name": "",
          "type": "uint256"
        }
      ],
      "stateMutability": "view",
      "type": "function"
    },
    {
      "inputs": [
        {
          "internalType": "address",
          "name": "_token",
          "type": "address"
        }
      ],
      "name": "getNextFundingRate",
      "outputs": [
        {
          "internalType": "uint256",
          "name": "",
          "type": "uint256"
        }
      ],
      "stateMutability": "view",
      "type": "function"
    },
    {
      "inputs": [
        {
          "internalType": "address",
          "name": "_indexToken",
          "type": "address"
        },
        {
          "internalType": "uint256",
          "name": "_nextPrice",
          "type": "uint256"
        },
        {
          "internalType": "uint256",
          "name": "_sizeDelta",
          "type": "uint256"
        }
      ],
      "name": "getNextGlobalShortAveragePrice",
      "outputs": [
        {
          "internalType": "uint256",
          "name": "",
          "type": "uint256"
        }
      ],
      "stateMutability": "view",
      "type": "function"
    },
    {
      "inputs": [
        {
          "internalType": "address",
          "name": "_account",
          "type": "address"
        },
        {
          "internalType": "address",
          "name": "_collateralToken",
          "type": "address"
        },
        {
          "internalType": "address",
          "name": "_indexToken",
          "type": "address"
        },
        {
          "internalType": "bool",
          "name": "_isLong",
          "type": "bool"
        }
      ],
      "name": "getPosition",
      "outputs": [
        {
          "internalType": "uint256",
          "name": "",
          "type": "uint256"
        },
        {
          "internalType": "uint256",
          "name": "",
          "type": "uint256"
        },
        {
          "internalType": "uint256",
          "name": "",
          "type": "uint256"
        },
        {
          "internalType": "uint256",
          "name": "",
          "type": "uint256"
        },
        {
          "internalType": "uint256",
          "name": "",
          "type": "uint256"
        },
        {
          "internalType": "uint256",
          "name": "",
          "type": "uint256"
        },
        {
          "internalType": "bool",
          "name": "",
          "type": "bool"
        },
        {
          "internalType": "uint256",
          "name": "",
          "type": "uint256"
        }
      ],
      "stateMutability": "view",
      "type": "function"
    },
    {
      "inputs": [
        {
          "internalType": "address",
          "name": "_account",
          "type": "address"
        },
        {
          "internalType": "address",
          "name": "_collateralToken",
          "type": "address"
        },
        {
          "internalType": "address",
          "name": "_indexToken",
          "type": "address"
        },
        {
          "internalType": "bool",
          "name": "_isLong",
          "type": "bool"
        }
      ],
      "name": "getPositionDelta",
      "outputs": [
        {
          "internalType": "bool",
          "name": "",
          "type": "bool"
        },
        {
          "internalType": "uint256",
          "name": "",
          "type": "uint256"
        }
      ],
      "stateMutability": "view",
      "type": "function"
    },
    {
      "inputs": [
        {
          "internalType": "address",
          "name": "_account",
          "type": "address"
        },
        {
          "internalType": "address",
          "name": "_collateralToken",
          "type": "address"
        },
        {
          "internalType": "address",
          "name": "_indexToken",
          "type": "address"
        },
        {
          "internalType": "bool",
          "name": "_isLong",
          "type": "bool"
        },
        {
          "internalType": "uint256",
          "name": "_sizeDelta",
          "type": "uint256"
        }
      ],
      "name": "getPositionFee",
      "outputs": [
        {
          "internalType": "uint256",
          "name": "",
          "type": "uint256"
        }
      ],
      "stateMutability": "view",
      "type": "function"
    },
    {
      "inputs": [
        {
          "internalType": "address",
          "name": "_account",
          "type": "address"
        },
        {
          "internalType": "address",
          "name": "_collateralToken",
          "type": "address"
        },
        {
          "internalType": "address",
          "name": "_indexToken",
          "type": "address"
        },
        {
          "internalType": "bool",
          "name": "_isLong",
          "type": "bool"
        }
      ],
      "name": "getPositionKey",
      "outputs": [
        {
          "internalType": "bytes32",
          "name": "",
          "type": "bytes32"
        }
      ],
      "stateMutability": "pure",
      "type": "function"
    },
    {
      "inputs": [
        {
          "internalType": "address",
          "name": "_account",
          "type": "address"
        },
        {
          "internalType": "address",
          "name": "_collateralToken",
          "type": "address"
        },
        {
          "internalType": "address",
          "name": "_indexToken",
          "type": "address"
        },
        {
          "internalType": "bool",
          "name": "_isLong",
          "type": "bool"
        }
      ],
      "name": "getPositionLeverage",
      "outputs": [
        {
          "internalType": "uint256",
          "name": "",
          "type": "uint256"
        }
      ],
      "stateMutability": "view",
      "type": "function"
    },
    {
      "inputs": [
        {
          "internalType": "address",
          "name": "_token",
          "type": "address"
        },
        {
          "internalType": "uint256",
          "name": "_usdmAmount",
          "type": "uint256"
        }
      ],
      "name": "getRedemptionAmount",
      "outputs": [
        {
          "internalType": "uint256",
          "name": "",
          "type": "uint256"
        }
      ],
      "stateMutability": "view",
      "type": "function"
    },
    {
      "inputs": [
        {
          "internalType": "address",
          "name": "_token",
          "type": "address"
        }
      ],
      "name": "getRedemptionCollateral",
      "outputs": [
        {
          "internalType": "uint256",
          "name": "",
          "type": "uint256"
        }
      ],
      "stateMutability": "view",
      "type": "function"
    },
    {
      "inputs": [
        {
          "internalType": "address",
          "name": "_token",
          "type": "address"
        }
      ],
      "name": "getRedemptionCollateralUsd",
      "outputs": [
        {
          "internalType": "uint256",
          "name": "",
          "type": "uint256"
        }
      ],
      "stateMutability": "view",
      "type": "function"
    },
    {
      "inputs": [
        {
          "internalType": "address",
          "name": "_token",
          "type": "address"
        }
      ],
      "name": "getTargetUsdmAmount",
      "outputs": [
        {
          "internalType": "uint256",
          "name": "",
          "type": "uint256"
        }
      ],
      "stateMutability": "view",
      "type": "function"
    },
    {
      "inputs": [
        {
          "internalType": "address",
          "name": "_token",
          "type": "address"
        }
      ],
      "name": "getUtilisation",
      "outputs": [
        {
          "internalType": "uint256",
          "name": "",
          "type": "uint256"
        }
      ],
      "stateMutability": "view",
      "type": "function"
    },
    {
      "inputs": [
        {
          "internalType": "address",
          "name": "",
          "type": "address"
        }
      ],
      "name": "globalShortAveragePrices",
      "outputs": [
        {
          "internalType": "uint256",
          "name": "",
          "type": "uint256"
        }
      ],
      "stateMutability": "view",
      "type": "function"
    },
    {
      "inputs": [
        {
          "internalType": "address",
          "name": "",
          "type": "address"
        }
      ],
      "name": "globalShortSizes",
      "outputs": [
        {
          "internalType": "uint256",
          "name": "",
          "type": "uint256"
        }
      ],
      "stateMutability": "view",
      "type": "function"
    },
    {
      "inputs": [],
      "name": "gov",
      "outputs": [
        {
          "internalType": "address",
          "name": "",
          "type": "address"
        }
      ],
      "stateMutability": "view",
      "type": "function"
    },
    {
      "inputs": [
        {
          "internalType": "address",
          "name": "",
          "type": "address"
        }
      ],
      "name": "guaranteedUsd",
      "outputs": [
        {
          "internalType": "uint256",
          "name": "",
          "type": "uint256"
        }
      ],
      "stateMutability": "view",
      "type": "function"
    },
    {
      "inputs": [],
      "name": "hasDynamicFees",
      "outputs": [
        {
          "internalType": "bool",
          "name": "",
          "type": "bool"
        }
      ],
      "stateMutability": "view",
      "type": "function"
    },
    {
      "inputs": [],
      "name": "inManagerMode",
      "outputs": [
        {
          "internalType": "bool",
          "name": "",
          "type": "bool"
        }
      ],
      "stateMutability": "view",
      "type": "function"
    },
    {
      "inputs": [],
      "name": "inPrivateLiquidationMode",
      "outputs": [
        {
          "internalType": "bool",
          "name": "",
          "type": "bool"
        }
      ],
      "stateMutability": "view",
      "type": "function"
    },
    {
      "inputs": [],
      "name": "includeAmmPrice",
      "outputs": [
        {
          "internalType": "bool",
          "name": "",
          "type": "bool"
        }
      ],
      "stateMutability": "view",
      "type": "function"
    },
    {
      "inputs": [
        {
          "internalType": "address",
          "name": "_account",
          "type": "address"
        },
        {
          "internalType": "address",
          "name": "_collateralToken",
          "type": "address"
        },
        {
          "internalType": "address",
          "name": "_indexToken",
          "type": "address"
        },
        {
          "internalType": "uint256",
          "name": "_sizeDelta",
          "type": "uint256"
        },
        {
          "internalType": "bool",
          "name": "_isLong",
          "type": "bool"
        }
      ],
      "name": "increasePosition",
      "outputs": [],
      "stateMutability": "nonpayable",
      "type": "function"
    },
    {
      "inputs": [
        {
          "internalType": "address",
          "name": "_router",
          "type": "address"
        },
        {
          "internalType": "address",
          "name": "_usdm",
          "type": "address"
        },
        {
          "internalType": "address",
          "name": "_priceFeed",
          "type": "address"
        },
        {
          "internalType": "uint256",
          "name": "_liquidationFeeUsd",
          "type": "uint256"
        },
        {
          "internalType": "uint256",
          "name": "_fundingRateFactor",
          "type": "uint256"
        },
        {
          "internalType": "uint256",
          "name": "_stableFundingRateFactor",
          "type": "uint256"
        }
      ],
      "name": "initialize",
      "outputs": [],
      "stateMutability": "nonpayable",
      "type": "function"
    },
    {
      "inputs": [],
      "name": "isInitialized",
      "outputs": [
        {
          "internalType": "bool",
          "name": "",
          "type": "bool"
        }
      ],
      "stateMutability": "view",
      "type": "function"
    },
    {
      "inputs": [],
      "name": "isLeverageEnabled",
      "outputs": [
        {
          "internalType": "bool",
          "name": "",
          "type": "bool"
        }
      ],
      "stateMutability": "view",
      "type": "function"
    },
    {
      "inputs": [
        {
          "internalType": "address",
          "name": "",
          "type": "address"
        }
      ],
      "name": "isLiquidator",
      "outputs": [
        {
          "internalType": "bool",
          "name": "",
          "type": "bool"
        }
      ],
      "stateMutability": "view",
      "type": "function"
    },
    {
      "inputs": [
        {
          "internalType": "address",
          "name": "",
          "type": "address"
        }
      ],
      "name": "isManager",
      "outputs": [
        {
          "internalType": "bool",
          "name": "",
          "type": "bool"
        }
      ],
      "stateMutability": "view",
      "type": "function"
    },
    {
      "inputs": [],
      "name": "isSwapEnabled",
      "outputs": [
        {
          "internalType": "bool",
          "name": "",
          "type": "bool"
        }
      ],
      "stateMutability": "view",
      "type": "function"
    },
    {
      "inputs": [
        {
          "internalType": "address",
          "name": "",
          "type": "address"
        }
      ],
      "name": "lastFundingTimes",
      "outputs": [
        {
          "internalType": "uint256",
          "name": "",
          "type": "uint256"
        }
      ],
      "stateMutability": "view",
      "type": "function"
    },
    {
      "inputs": [
        {
          "internalType": "address",
          "name": "_account",
          "type": "address"
        },
        {
          "internalType": "address",
          "name": "_collateralToken",
          "type": "address"
        },
        {
          "internalType": "address",
          "name": "_indexToken",
          "type": "address"
        },
        {
          "internalType": "bool",
          "name": "_isLong",
          "type": "bool"
        },
        {
          "internalType": "address",
          "name": "_feeReceiver",
          "type": "address"
        }
      ],
      "name": "liquidatePosition",
      "outputs": [],
      "stateMutability": "nonpayable",
      "type": "function"
    },
    {
      "inputs": [],
      "name": "liquidationFeeUsd",
      "outputs": [
        {
          "internalType": "uint256",
          "name": "",
          "type": "uint256"
        }
      ],
      "stateMutability": "view",
      "type": "function"
    },
    {
      "inputs": [],
      "name": "marginFeeBasisPoints",
      "outputs": [
        {
          "internalType": "uint256",
          "name": "",
          "type": "uint256"
        }
      ],
      "stateMutability": "view",
      "type": "function"
    },
    {
      "inputs": [],
      "name": "maxGasPrice",
      "outputs": [
        {
          "internalType": "uint256",
          "name": "",
          "type": "uint256"
        }
      ],
      "stateMutability": "view",
      "type": "function"
    },
    {
      "inputs": [
        {
          "internalType": "address",
          "name": "",
          "type": "address"
        }
      ],
      "name": "maxGlobalShortSizes",
      "outputs": [
        {
          "internalType": "uint256",
          "name": "",
          "type": "uint256"
        }
      ],
      "stateMutability": "view",
      "type": "function"
    },
    {
      "inputs": [],
      "name": "maxLeverage",
      "outputs": [
        {
          "internalType": "uint256",
          "name": "",
          "type": "uint256"
        }
      ],
      "stateMutability": "view",
      "type": "function"
    },
    {
      "inputs": [
        {
          "internalType": "address",
          "name": "",
          "type": "address"
        }
      ],
      "name": "maxUsdmAmounts",
      "outputs": [
        {
          "internalType": "uint256",
          "name": "",
          "type": "uint256"
        }
      ],
      "stateMutability": "view",
      "type": "function"
    },
    {
      "inputs": [
        {
          "internalType": "address",
          "name": "",
          "type": "address"
        }
      ],
      "name": "minProfitBasisPoints",
      "outputs": [
        {
          "internalType": "uint256",
          "name": "",
          "type": "uint256"
        }
      ],
      "stateMutability": "view",
      "type": "function"
    },
    {
      "inputs": [],
      "name": "minProfitTime",
      "outputs": [
        {
          "internalType": "uint256",
          "name": "",
          "type": "uint256"
        }
      ],
      "stateMutability": "view",
      "type": "function"
    },
    {
      "inputs": [],
      "name": "mintBurnFeeBasisPoints",
      "outputs": [
        {
          "internalType": "uint256",
          "name": "",
          "type": "uint256"
        }
      ],
      "stateMutability": "view",
      "type": "function"
    },
    {
      "inputs": [
        {
          "internalType": "address",
          "name": "",
          "type": "address"
        }
      ],
      "name": "poolAmounts",
      "outputs": [
        {
          "internalType": "uint256",
          "name": "",
          "type": "uint256"
        }
      ],
      "stateMutability": "view",
      "type": "function"
    },
    {
      "inputs": [
        {
          "internalType": "bytes32",
          "name": "",
          "type": "bytes32"
        }
      ],
      "name": "positions",
      "outputs": [
        {
          "internalType": "uint256",
          "name": "size",
          "type": "uint256"
        },
        {
          "internalType": "uint256",
          "name": "collateral",
          "type": "uint256"
        },
        {
          "internalType": "uint256",
          "name": "averagePrice",
          "type": "uint256"
        },
        {
          "internalType": "uint256",
          "name": "entryFundingRate",
          "type": "uint256"
        },
        {
          "internalType": "uint256",
          "name": "reserveAmount",
          "type": "uint256"
        },
        {
          "internalType": "int256",
          "name": "realisedPnl",
          "type": "int256"
        },
        {
          "internalType": "uint256",
          "name": "lastIncreasedTime",
          "type": "uint256"
        }
      ],
      "stateMutability": "view",
      "type": "function"
    },
    {
      "inputs": [],
      "name": "priceFeed",
      "outputs": [
        {
          "internalType": "address",
          "name": "",
          "type": "address"
        }
      ],
      "stateMutability": "view",
      "type": "function"
    },
    {
      "inputs": [
        {
          "internalType": "address",
          "name": "_router",
          "type": "address"
        }
      ],
      "name": "removeRouter",
      "outputs": [],
      "stateMutability": "nonpayable",
      "type": "function"
    },
    {
      "inputs": [
        {
          "internalType": "address",
          "name": "",
          "type": "address"
        }
      ],
      "name": "reservedAmounts",
      "outputs": [
        {
          "internalType": "uint256",
          "name": "",
          "type": "uint256"
        }
      ],
      "stateMutability": "view",
      "type": "function"
    },
    {
      "inputs": [],
      "name": "router",
      "outputs": [
        {
          "internalType": "address",
          "name": "",
          "type": "address"
        }
      ],
      "stateMutability": "view",
      "type": "function"
    },
    {
      "inputs": [
        {
          "internalType": "address",
          "name": "_token",
          "type": "address"
        },
        {
          "internalType": "address",
          "name": "_receiver",
          "type": "address"
        }
      ],
      "name": "sellUSDM",
      "outputs": [
        {
          "internalType": "uint256",
          "name": "",
          "type": "uint256"
        }
      ],
      "stateMutability": "nonpayable",
      "type": "function"
    },
    {
      "inputs": [
        {
          "internalType": "address",
          "name": "_token",
          "type": "address"
        },
        {
          "internalType": "uint256",
          "name": "_amount",
          "type": "uint256"
        }
      ],
      "name": "setBufferAmount",
      "outputs": [],
      "stateMutability": "nonpayable",
      "type": "function"
    },
    {
      "inputs": [
        {
          "internalType": "uint256",
          "name": "_errorCode",
          "type": "uint256"
        },
        {
          "internalType": "string",
          "name": "_error",
          "type": "string"
        }
      ],
      "name": "setError",
      "outputs": [],
      "stateMutability": "nonpayable",
      "type": "function"
    },
    {
      "inputs": [
        {
          "internalType": "address",
          "name": "_errorController",
          "type": "address"
        }
      ],
      "name": "setErrorController",
      "outputs": [],
      "stateMutability": "nonpayable",
      "type": "function"
    },
    {
      "inputs": [
        {
          "internalType": "uint256",
          "name": "_taxBasisPoints",
          "type": "uint256"
        },
        {
          "internalType": "uint256",
          "name": "_stableTaxBasisPoints",
          "type": "uint256"
        },
        {
          "internalType": "uint256",
          "name": "_mintBurnFeeBasisPoints",
          "type": "uint256"
        },
        {
          "internalType": "uint256",
          "name": "_swapFeeBasisPoints",
          "type": "uint256"
        },
        {
          "internalType": "uint256",
          "name": "_stableSwapFeeBasisPoints",
          "type": "uint256"
        },
        {
          "internalType": "uint256",
          "name": "_marginFeeBasisPoints",
          "type": "uint256"
        },
        {
          "internalType": "uint256",
          "name": "_liquidationFeeUsd",
          "type": "uint256"
        },
        {
          "internalType": "uint256",
          "name": "_minProfitTime",
          "type": "uint256"
        },
        {
          "internalType": "bool",
          "name": "_hasDynamicFees",
          "type": "bool"
        }
      ],
      "name": "setFees",
      "outputs": [],
      "stateMutability": "nonpayable",
      "type": "function"
    },
    {
      "inputs": [
        {
          "internalType": "uint256",
          "name": "_fundingInterval",
          "type": "uint256"
        },
        {
          "internalType": "uint256",
          "name": "_fundingRateFactor",
          "type": "uint256"
        },
        {
          "internalType": "uint256",
          "name": "_stableFundingRateFactor",
          "type": "uint256"
        }
      ],
      "name": "setFundingRate",
      "outputs": [],
      "stateMutability": "nonpayable",
      "type": "function"
    },
    {
      "inputs": [
        {
          "internalType": "address",
          "name": "_gov",
          "type": "address"
        }
      ],
      "name": "setGov",
      "outputs": [],
      "stateMutability": "nonpayable",
      "type": "function"
    },
    {
      "inputs": [
        {
          "internalType": "bool",
          "name": "_inManagerMode",
          "type": "bool"
        }
      ],
      "name": "setInManagerMode",
      "outputs": [],
      "stateMutability": "nonpayable",
      "type": "function"
    },
    {
      "inputs": [
        {
          "internalType": "bool",
          "name": "_inPrivateLiquidationMode",
          "type": "bool"
        }
      ],
      "name": "setInPrivateLiquidationMode",
      "outputs": [],
      "stateMutability": "nonpayable",
      "type": "function"
    },
    {
      "inputs": [
        {
          "internalType": "bool",
          "name": "_isLeverageEnabled",
          "type": "bool"
        }
      ],
      "name": "setIsLeverageEnabled",
      "outputs": [],
      "stateMutability": "nonpayable",
      "type": "function"
    },
    {
      "inputs": [
        {
          "internalType": "bool",
          "name": "_isSwapEnabled",
          "type": "bool"
        }
      ],
      "name": "setIsSwapEnabled",
      "outputs": [],
      "stateMutability": "nonpayable",
      "type": "function"
    },
    {
      "inputs": [
        {
          "internalType": "address",
          "name": "_liquidator",
          "type": "address"
        },
        {
          "internalType": "bool",
          "name": "_isActive",
          "type": "bool"
        }
      ],
      "name": "setLiquidator",
      "outputs": [],
      "stateMutability": "nonpayable",
      "type": "function"
    },
    {
      "inputs": [
        {
          "internalType": "address",
          "name": "_manager",
          "type": "address"
        },
        {
          "internalType": "bool",
          "name": "_isManager",
          "type": "bool"
        }
      ],
      "name": "setManager",
      "outputs": [],
      "stateMutability": "nonpayable",
      "type": "function"
    },
    {
      "inputs": [
        {
          "internalType": "uint256",
          "name": "_maxGasPrice",
          "type": "uint256"
        }
      ],
      "name": "setMaxGasPrice",
      "outputs": [],
      "stateMutability": "nonpayable",
      "type": "function"
    },
    {
      "inputs": [
        {
          "internalType": "address",
          "name": "_token",
          "type": "address"
        },
        {
          "internalType": "uint256",
          "name": "_amount",
          "type": "uint256"
        }
      ],
      "name": "setMaxGlobalShortSize",
      "outputs": [],
      "stateMutability": "nonpayable",
      "type": "function"
    },
    {
      "inputs": [
        {
          "internalType": "uint256",
          "name": "_maxLeverage",
          "type": "uint256"
        }
      ],
      "name": "setMaxLeverage",
      "outputs": [],
      "stateMutability": "nonpayable",
      "type": "function"
    },
    {
      "inputs": [
        {
          "internalType": "address",
          "name": "_priceFeed",
          "type": "address"
        }
      ],
      "name": "setPriceFeed",
      "outputs": [],
      "stateMutability": "nonpayable",
      "type": "function"
    },
    {
      "inputs": [
        {
          "internalType": "address",
          "name": "_token",
          "type": "address"
        },
        {
          "internalType": "uint256",
          "name": "_tokenDecimals",
          "type": "uint256"
        },
        {
          "internalType": "uint256",
          "name": "_tokenWeight",
          "type": "uint256"
        },
        {
          "internalType": "uint256",
          "name": "_minProfitBps",
          "type": "uint256"
        },
        {
          "internalType": "uint256",
          "name": "_maxUsdmAmount",
          "type": "uint256"
        },
        {
          "internalType": "bool",
          "name": "_isStable",
          "type": "bool"
        },
        {
          "internalType": "bool",
          "name": "_isShortable",
          "type": "bool"
        }
      ],
      "name": "setTokenConfig",
      "outputs": [],
      "stateMutability": "nonpayable",
      "type": "function"
    },
    {
      "inputs": [
        {
          "internalType": "address",
          "name": "_token",
          "type": "address"
        },
        {
          "internalType": "uint256",
          "name": "_amount",
          "type": "uint256"
        }
      ],
      "name": "setUsdmAmount",
      "outputs": [],
      "stateMutability": "nonpayable",
      "type": "function"
    },
    {
      "inputs": [
        {
          "internalType": "contract IVaultUtils",
          "name": "_vaultUtils",
          "type": "address"
        }
      ],
      "name": "setVaultUtils",
      "outputs": [],
      "stateMutability": "nonpayable",
      "type": "function"
    },
    {
      "inputs": [
        {
          "internalType": "address",
          "name": "",
          "type": "address"
        }
      ],
      "name": "shortableTokens",
      "outputs": [
        {
          "internalType": "bool",
          "name": "",
          "type": "bool"
        }
      ],
      "stateMutability": "view",
      "type": "function"
    },
    {
      "inputs": [],
      "name": "stableFundingRateFactor",
      "outputs": [
        {
          "internalType": "uint256",
          "name": "",
          "type": "uint256"
        }
      ],
      "stateMutability": "view",
      "type": "function"
    },
    {
      "inputs": [],
      "name": "stableSwapFeeBasisPoints",
      "outputs": [
        {
          "internalType": "uint256",
          "name": "",
          "type": "uint256"
        }
      ],
      "stateMutability": "view",
      "type": "function"
    },
    {
      "inputs": [],
      "name": "stableTaxBasisPoints",
      "outputs": [
        {
          "internalType": "uint256",
          "name": "",
          "type": "uint256"
        }
      ],
      "stateMutability": "view",
      "type": "function"
    },
    {
      "inputs": [
        {
          "internalType": "address",
          "name": "",
          "type": "address"
        }
      ],
      "name": "stableTokens",
      "outputs": [
        {
          "internalType": "bool",
          "name": "",
          "type": "bool"
        }
      ],
      "stateMutability": "view",
      "type": "function"
    },
    {
      "inputs": [
        {
          "internalType": "address",
          "name": "_tokenIn",
          "type": "address"
        },
        {
          "internalType": "address",
          "name": "_tokenOut",
          "type": "address"
        },
        {
          "internalType": "address",
          "name": "_receiver",
          "type": "address"
        }
      ],
      "name": "swap",
      "outputs": [
        {
          "internalType": "uint256",
          "name": "",
          "type": "uint256"
        }
      ],
      "stateMutability": "nonpayable",
      "type": "function"
    },
    {
      "inputs": [],
      "name": "swapFeeBasisPoints",
      "outputs": [
        {
          "internalType": "uint256",
          "name": "",
          "type": "uint256"
        }
      ],
      "stateMutability": "view",
      "type": "function"
    },
    {
      "inputs": [],
      "name": "taxBasisPoints",
      "outputs": [
        {
          "internalType": "uint256",
          "name": "",
          "type": "uint256"
        }
      ],
      "stateMutability": "view",
      "type": "function"
    },
    {
      "inputs": [
        {
          "internalType": "address",
          "name": "",
          "type": "address"
        }
      ],
      "name": "tokenBalances",
      "outputs": [
        {
          "internalType": "uint256",
          "name": "",
          "type": "uint256"
        }
      ],
      "stateMutability": "view",
      "type": "function"
    },
    {
      "inputs": [
        {
          "internalType": "address",
          "name": "",
          "type": "address"
        }
      ],
      "name": "tokenDecimals",
      "outputs": [
        {
          "internalType": "uint256",
          "name": "",
          "type": "uint256"
        }
      ],
      "stateMutability": "view",
      "type": "function"
    },
    {
      "inputs": [
        {
          "internalType": "address",
          "name": "_token",
          "type": "address"
        },
        {
          "internalType": "uint256",
          "name": "_tokenAmount",
          "type": "uint256"
        }
      ],
      "name": "tokenToUsdMin",
      "outputs": [
        {
          "internalType": "uint256",
          "name": "",
          "type": "uint256"
        }
      ],
      "stateMutability": "view",
      "type": "function"
    },
    {
      "inputs": [
        {
          "internalType": "address",
          "name": "",
          "type": "address"
        }
      ],
      "name": "tokenWeights",
      "outputs": [
        {
          "internalType": "uint256",
          "name": "",
          "type": "uint256"
        }
      ],
      "stateMutability": "view",
      "type": "function"
    },
    {
      "inputs": [],
      "name": "totalTokenWeights",
      "outputs": [
        {
          "internalType": "uint256",
          "name": "",
          "type": "uint256"
        }
      ],
      "stateMutability": "view",
      "type": "function"
    },
    {
      "inputs": [
        {
          "internalType": "address",
          "name": "_collateralToken",
          "type": "address"
        },
        {
          "internalType": "address",
          "name": "_indexToken",
          "type": "address"
        }
      ],
      "name": "updateCumulativeFundingRate",
      "outputs": [],
      "stateMutability": "nonpayable",
      "type": "function"
    },
    {
      "inputs": [
        {
          "internalType": "address",
          "name": "_newVault",
          "type": "address"
        },
        {
          "internalType": "address",
          "name": "_token",
          "type": "address"
        },
        {
          "internalType": "uint256",
          "name": "_amount",
          "type": "uint256"
        }
      ],
      "name": "upgradeVault",
      "outputs": [],
      "stateMutability": "nonpayable",
      "type": "function"
    },
    {
      "inputs": [
        {
          "internalType": "address",
          "name": "_token",
          "type": "address"
        },
        {
          "internalType": "uint256",
          "name": "_usdAmount",
          "type": "uint256"
        },
        {
          "internalType": "uint256",
          "name": "_price",
          "type": "uint256"
        }
      ],
      "name": "usdToToken",
      "outputs": [
        {
          "internalType": "uint256",
          "name": "",
          "type": "uint256"
        }
      ],
      "stateMutability": "view",
      "type": "function"
    },
    {
      "inputs": [
        {
          "internalType": "address",
          "name": "_token",
          "type": "address"
        },
        {
          "internalType": "uint256",
          "name": "_usdAmount",
          "type": "uint256"
        }
      ],
      "name": "usdToTokenMax",
      "outputs": [
        {
          "internalType": "uint256",
          "name": "",
          "type": "uint256"
        }
      ],
      "stateMutability": "view",
      "type": "function"
    },
    {
      "inputs": [
        {
          "internalType": "address",
          "name": "_token",
          "type": "address"
        },
        {
          "internalType": "uint256",
          "name": "_usdAmount",
          "type": "uint256"
        }
      ],
      "name": "usdToTokenMin",
      "outputs": [
        {
          "internalType": "uint256",
          "name": "",
          "type": "uint256"
        }
      ],
      "stateMutability": "view",
      "type": "function"
    },
    {
      "inputs": [],
      "name": "usdm",
      "outputs": [
        {
          "internalType": "address",
          "name": "",
          "type": "address"
        }
      ],
      "stateMutability": "view",
      "type": "function"
    },
    {
      "inputs": [
        {
          "internalType": "address",
          "name": "",
          "type": "address"
        }
      ],
      "name": "usdmAmounts",
      "outputs": [
        {
          "internalType": "uint256",
          "name": "",
          "type": "uint256"
        }
      ],
      "stateMutability": "view",
      "type": "function"
    },
    {
      "inputs": [],
      "name": "useSwapPricing",
      "outputs": [
        {
          "internalType": "bool",
          "name": "",
          "type": "bool"
        }
      ],
      "stateMutability": "view",
      "type": "function"
    },
    {
      "inputs": [
        {
          "internalType": "address",
          "name": "_account",
          "type": "address"
        },
        {
          "internalType": "address",
          "name": "_collateralToken",
          "type": "address"
        },
        {
          "internalType": "address",
          "name": "_indexToken",
          "type": "address"
        },
        {
          "internalType": "bool",
          "name": "_isLong",
          "type": "bool"
        },
        {
          "internalType": "bool",
          "name": "_raise",
          "type": "bool"
        }
      ],
      "name": "validateLiquidation",
      "outputs": [
        {
          "internalType": "uint256",
          "name": "",
          "type": "uint256"
        },
        {
          "internalType": "uint256",
          "name": "",
          "type": "uint256"
        }
      ],
      "stateMutability": "view",
      "type": "function"
    },
    {
      "inputs": [],
      "name": "vaultUtils",
      "outputs": [
        {
          "internalType": "contract IVaultUtils",
          "name": "",
          "type": "address"
        }
      ],
      "stateMutability": "view",
      "type": "function"
    },
    {
      "inputs": [],
      "name": "whitelistedTokenCount",
      "outputs": [
        {
          "internalType": "uint256",
          "name": "",
          "type": "uint256"
        }
      ],
      "stateMutability": "view",
      "type": "function"
    },
    {
      "inputs": [
        {
          "internalType": "address",
          "name": "",
          "type": "address"
        }
      ],
      "name": "whitelistedTokens",
      "outputs": [
        {
          "internalType": "bool",
          "name": "",
          "type": "bool"
        }
      ],
      "stateMutability": "view",
      "type": "function"
    },
    {
      "inputs": [
        {
          "internalType": "address",
          "name": "_token",
          "type": "address"
        },
        {
          "internalType": "address",
          "name": "_receiver",
          "type": "address"
        }
      ],
      "name": "withdrawFees",
      "outputs": [
        {
          "internalType": "uint256",
          "name": "",
          "type": "uint256"
        }
      ],
      "stateMutability": "nonpayable",
      "type": "function"
    }
  ],
  "transactionHash": "0xa22a43171f27033ab43383b4a01daca7f197e8b4edac35344699e695824f425d",
  "args": [],
  "numDeployments": 1,
  "solcInputHash": "1fb095c2a8736afe292bad1aa4a33281",
  "bytecode": "0x60806040526207a120600190815560326002556014600355601e6004818155600591909155600655600a600755610e1060085560108054630100000061010060ff1990921690931761ff0019161763ffff000019169190911762ffffff60201b1916905534801561006f57600080fd5b506001600055601580546001600160a01b03191633179055615eb780620000976000396000f3fe608060405234801561001057600080fd5b50600436106105065760003560e01c806304fef1db1461050b5780630842b076146105435780630928a4f81461054b5780630a48d5a91461057957806310eb56c2146105a557806312d43a51146105ad578063134ca63b146105d1578063174d2694146105d9578063181e210e146105e15780631ce9cb8f146105fd57806324b0c04d1461062357806324ca984e1461064457806328e67be51461066a57806329ff9615146106df5780632c668ec1146107055780632d4b05761461073157806330455ede1461076f578063318bc6891461078e578063351a964d1461079657806337af6e7e1461079e578063392e53cd146107c45780633c5a6e35146107cc5780633de39c111461081a5780633e72a2621461082257806340eb38021461082a578063421528731461087b57806342b60b03146108af5780634453a374146108d557806345a6f3701461090357806348d91abf1461095c57806348f35cbb146109a05780634a3f088d146109a85780634a993ee914610a295780634d47b30414610a4f578063514ea4bf14610a5757806351723e8214610aac578063523fba7f14610aea578063529a356f14610b1057806352f55eed14610b365780635c07eaab14610b5c5780635f7bc11914610b9c5780636092219914610bc257806362287a3214610bf05780636274980314610bf85780636abbe0c814610c1e5780636ae0b15414610c2657806371089f4d14610c4c578063724e78da14610c72578063728cdbca14610c98578063741bef1a14610ce05780637a210a2b14610ce85780637c2eb9f714610cf057806381a612d614610d0f57806382a0849014610d3557806383867b2d14610d895780638585f4d214610daf57806386284f5f14610ddb57806388b1fbdf14610e095780638a27d46814610e2f5780638a78daa814610e585780638ee573ac14610e7e5780638f7b840414610ea45780639060b1ca14610eca5780639331621214610ed25780639698d25a14610f0a5780639849e41214610f305780639899cd0214610f385780639acc6b3314610f645780639d7432ca14610f8a5780639f392eb314610fbc578063a22f239214610fc4578063a42ab3d214610fcc578063a5e90eee14610ff8578063a93acac214611026578063ab08c1c61461104c578063ab2f3ad414611054578063ae3302c21461107a578063b06423f314611082578063b136ca491461108a578063b1cc53ab146110b0578063b364accb146110e8578063c3c7b9e91461110e578063c4f718bf14611134578063c65bc7b11461113c578063c7e074c314611162578063cea0c328146111a2578063cfad57a2146111d8578063d2fa635e146111fe578063d3127e631461121b578063d45200d114611238578063d54d5a9f14611264578063d8f897c3146112c3578063d9ac4225146112e9578063da76524c146112f1578063daf9c2101461133b578063db3555fb14611361578063db97495f14611387578063dc8f5fac146113d3578063de2ea948146113db578063df73a26714611423578063e124e6d21461142b578063e468baf014611451578063e67f59a71461146e578063ee138d0f14611494578063efa10a6e1461149c578063f07456ce146114c8578063f07bbf77146114ee578063f25552781461150d578063f3ae24151461153b578063f887ea4014611561578063fa12dbc014611569578063fbfded6d1461159b578063fdaf6ac3146115c9578063fed1a6061461160d575b600080fd5b6105316004803603602081101561052157600080fd5b50356001600160a01b031661169f565b60408051918252519081900360200190f35b610531611702565b6105316004803603604081101561056157600080fd5b506001600160a01b0381358116916020013516611708565b6105316004803603604081101561058f57600080fd5b506001600160a01b0381351690602001356119a2565b6105316119f5565b6105b56119fb565b604080516001600160a01b039092168252519081900360200190f35b610531611a0a565b610531611a10565b6105e9611a16565b604080519115158252519081900360200190f35b6105316004803603602081101561061357600080fd5b50356001600160a01b0316611a26565b6106426004803603602081101561063957600080fd5b50351515611a38565b005b6106426004803603602081101561065a57600080fd5b50356001600160a01b0316611a5e565b6106426004803603604081101561068057600080fd5b81359190810190604081016020820135600160201b8111156106a157600080fd5b8201836020820111156106b357600080fd5b803590602001918460018302840111600160201b831117156106d457600080fd5b509092509050611a8f565b610531600480360360208110156106f557600080fd5b50356001600160a01b0316611b7a565b6105316004803603604081101561071b57600080fd5b506001600160a01b038135169060200135611b8e565b6105316004803603608081101561074757600080fd5b506001600160a01b038135811691602081013582169160408201351690606001351515611bd3565b6106426004803603602081101561078557600080fd5b50351515611c29565b610531611c44565b6105e9611c4a565b610531600480360360208110156107b457600080fd5b50356001600160a01b0316611c53565b6105e9611d12565b610642600480360360e08110156107e257600080fd5b506001600160a01b038135169060208101359060408101359060608101359060808101359060a081013515159060c001351515611d22565b610531611e64565b6105e9611e6a565b610642600480360361012081101561084157600080fd5b5080359060208101359060408101359060608101359060808101359060a08101359060c08101359060e08101359061010001351515611e78565b6105316004803603606081101561089157600080fd5b508035906001600160a01b0360208201358116916040013516611f3b565b6105e9600480360360208110156108c557600080fd5b50356001600160a01b0316611fdd565b610642600480360360408110156108eb57600080fd5b506001600160a01b0381351690602001351515611ff2565b6109416004803603608081101561091957600080fd5b506001600160a01b038135811691602081013582169160408201351690606001351515612025565b60408051921515835260208301919091528051918290030190f35b610642600480360360a081101561097257600080fd5b506001600160a01b0381358116916020810135821691604082013516906060810135906080013515156120c3565b6105b56124ef565b6109e6600480360360808110156109be57600080fd5b506001600160a01b0381358116916020810135821691604082013516906060013515156124fe565b604080519889526020890197909752878701959095526060870193909352608086019190915260a0850152151560c084015260e083015251908190036101000190f35b61053160048036036020811015610a3f57600080fd5b50356001600160a01b03166125f4565b610531612606565b610a7460048036036020811015610a6d57600080fd5b503561260c565b604080519788526020880196909652868601949094526060860192909252608085015260a084015260c0830152519081900360e00190f35b61053160048036036080811015610ac257600080fd5b506001600160a01b038135811691602081013582169160408201351690606001351515612649565b61053160048036036020811015610b0057600080fd5b50356001600160a01b03166126ef565b6105e960048036036020811015610b2657600080fd5b50356001600160a01b0316612701565b61053160048036036020811015610b4c57600080fd5b50356001600160a01b0316612716565b610941600480360360a0811015610b7257600080fd5b506001600160a01b0381351690602081013590604081013590606081013515159060800135612728565b61064260048036036020811015610bb257600080fd5b50356001600160a01b0316612820565b6105e960048036036040811015610bd857600080fd5b506001600160a01b0381358116916020013516612903565b610531612923565b61053160048036036020811015610c0e57600080fd5b50356001600160a01b0316612929565b6105b561293b565b61064260048036036020811015610c3c57600080fd5b50356001600160a01b0316612951565b61064260048036036020811015610c6257600080fd5b50356001600160a01b031661297f565b61064260048036036020811015610c8857600080fd5b50356001600160a01b03166129b3565b610642600480360360c0811015610cae57600080fd5b506001600160a01b03813581169160208101358216916040820135169060608101359060808101359060a001356129dd565b6105b5612a62565b610531612a71565b61064260048036036020811015610d0657600080fd5b50351515612a77565b61053160048036036020811015610d2557600080fd5b50356001600160a01b0316612a99565b610531600480360360e0811015610d4b57600080fd5b506001600160a01b0381358116916020810135821691604082013581169160608101359160808201359160a081013515159160c09091013516612b4b565b61053160048036036020811015610d9f57600080fd5b50356001600160a01b0316612bc9565b61064260048036036040811015610dc557600080fd5b506001600160a01b038135169060200135612bdb565b61053160048036036040811015610df157600080fd5b506001600160a01b0381358116916020013516612bff565b61053160048036036020811015610e1f57600080fd5b50356001600160a01b0316612ed5565b61064260048036036060811015610e4557600080fd5b5080359060208101359060400135612ee7565b61053160048036036020811015610e6e57600080fd5b50356001600160a01b0316612efd565b61053160048036036020811015610e9457600080fd5b50356001600160a01b0316612f0f565b61064260048036036020811015610eba57600080fd5b50356001600160a01b0316612f21565b6105e9612f4b565b61053160048036036060811015610ee857600080fd5b506001600160a01b038135811691602081013582169160409091013516612f5b565b61053160048036036020811015610f2057600080fd5b50356001600160a01b0316613244565b610531613256565b61053160048036036040811015610f4e57600080fd5b506001600160a01b03813516906020013561325c565b61053160048036036020811015610f7a57600080fd5b50356001600160a01b031661327e565b61053160048036036060811015610fa057600080fd5b506001600160a01b038135169060208101359060400135613290565b6105e9613339565b610531613348565b61053160048036036040811015610fe257600080fd5b506001600160a01b03813516906020013561334e565b6106426004803603604081101561100e57600080fd5b506001600160a01b038135169060200135151561336b565b6105316004803603602081101561103c57600080fd5b50356001600160a01b031661339e565b6105e961349c565b6105316004803603602081101561106a57600080fd5b50356001600160a01b03166134ac565b6105316134bd565b6105e96134c3565b610531600480360360208110156110a057600080fd5b50356001600160a01b03166134d3565b610531600480360360608110156110c657600080fd5b506001600160a01b038135811691602081013590911690604001351515613574565b610941600480360360208110156110fe57600080fd5b50356001600160a01b031661360f565b6105316004803603602081101561112457600080fd5b50356001600160a01b03166136a7565b6105316136b9565b6105316004803603602081101561115257600080fd5b50356001600160a01b03166136bf565b610531600480360360a081101561117857600080fd5b506001600160a01b03813516906020810135906040810135906060810135906080013515156136d1565b610642600480360360608110156111b857600080fd5b506001600160a01b0381358116916020810135909116906040013561377b565b610642600480360360208110156111ee57600080fd5b50356001600160a01b031661379c565b6106426004803603602081101561121457600080fd5b50356137c6565b6106426004803603602081101561123157600080fd5b50356137d3565b6106426004803603604081101561124e57600080fd5b506001600160a01b0381351690602001356137ef565b6112aa600480360360a081101561127a57600080fd5b506001600160a01b0381358116916020810135821691604082013516906060810135151590608001351515613848565b6040805192835260208301919091528051918290030190f35b610531600480360360208110156112d957600080fd5b50356001600160a01b03166138ff565b610531613911565b610531600480360360c081101561130757600080fd5b506001600160a01b038135811691602081013582169160408201351690606081013515159060808101359060a00135613917565b6105e96004803603602081101561135157600080fd5b50356001600160a01b03166139cb565b6105e96004803603602081101561137757600080fd5b50356001600160a01b03166139e0565b610531600480360360e081101561139d57600080fd5b506001600160a01b0381351690602081013590604081013590606081013515159060808101359060a08101359060c001356139f5565b610531613a86565b610642600480360360a08110156113f157600080fd5b506001600160a01b03813581169160208101358216916040820135811691606081013515159160809091013516613a8c565b610531613e61565b6105316004803603602081101561144157600080fd5b50356001600160a01b0316613e67565b6105b56004803603602081101561146757600080fd5b5035613ee6565b6106426004803603602081101561148457600080fd5b50356001600160a01b0316613f0d565b6105b5613fe0565b610642600480360360408110156114b257600080fd5b506001600160a01b038135169060200135613fef565b610531600480360360208110156114de57600080fd5b50356001600160a01b0316614013565b6106426004803603602081101561150457600080fd5b50351515614025565b6105316004803603604081101561152357600080fd5b506001600160a01b038135811691602001351661404b565b6105e96004803603602081101561155157600080fd5b50356001600160a01b03166140a1565b6105b56140b6565b6105316004803603606081101561157f57600080fd5b506001600160a01b0381351690602081013590604001356140c5565b610642600480360360408110156115b157600080fd5b506001600160a01b03813581169160200135166140ff565b610531600480360360a08110156115df57600080fd5b506001600160a01b0381358116916020810135821691604082013516906060810135151590608001356142d8565b61162a6004803603602081101561162357600080fd5b503561434e565b6040805160208082528351818301528351919283929083019185019080838360005b8381101561166457818101518382015260200161164c565b50505050905090810190601f1680156116915780820380516001836020036101000a031916815260200191505b509250505060405180910390f35b6001600160a01b038116600090815260236020526040812054806116c75760009150506116fd565b6001600160a01b0383166000908152602460205260409020546116f99082906116f390620f42406143e9565b90614442565b9150505b919050565b60165490565b600060026000541415611750576040805162461bcd60e51b815260206004820152601f6024820152600080516020615d97833981519152604482015290519081900360640190fd5b600260005561175d614481565b6001600160a01b0383166000908152601a60205260409020546117849060ff1660136144b3565b6010805460ff60201b1916600160201b1790556014546000906117af906001600160a01b031661455f565b90506117bf6000821160146144b3565b6117c984856140ff565b60006117d58583611b8e565b90506117e56000821160156144b3565b6117ef858361460c565b6117f985826146ca565b60145460408051632770a7eb60e21b81523060048201526024810185905290516001600160a01b0390921691639dc29fac9160448082019260009290919082900301818387803b15801561184c57600080fd5b505af1158015611860573d6000803e3d6000fd5b505060145461187a92506001600160a01b0316905061479d565b601054604080516310d5486360e21b81526001600160a01b038881166004830152602482018690529151600093600160401b900490921691634355218c91604480820192602092909190829003018186803b1580156118d857600080fd5b505afa1580156118ec573d6000803e3d6000fd5b505050506040513d602081101561190257600080fd5b505190506000611913878484614838565b90506119236000821160166144b3565b61192e878288614900565b604080516001600160a01b03808916825289166020820152808201869052606081018390526080810184905290517f52eb5f5cb9a498f7cf35a2e264fbe42a9401185a0fd345d5d2c8932a2a45b1ae9181900360a00190a16010805460ff60201b1916905560016000559695505050505050565b6000816119b1575060006119ef565b60006119bc84612a99565b6001600160a01b0385166000908152601b60205260409020549091506119ea600a82900a6116f386856143e9565b925050505b92915050565b60035481565b6015546001600160a01b031681565b600c5481565b60095481565b601054600160301b900460ff1681565b602a6020526000908152604090205481565b611a406149a7565b60108054911515600160281b0260ff60281b19909216919091179055565b3360009081526017602090815260408083206001600160a01b0394909416835292905220805460ff19166001179055565b60115460408051808201909152601e81527f5661756c743a20696e76616c6964206572726f72436f6e74726f6c6c657200006020820152906001600160a01b03163314611b5a5760405162461bcd60e51b81526004018080602001828103825283818151815260200191508051906020019080838360005b83811015611b1f578181015183820152602001611b07565b50505050905090810190601f168015611b4c5780820380516001836020036101000a031916815260200191505b509250505060405180910390fd5b506000838152602e60205260409020611b74908383615cc6565b50505050565b60006119ef82611b89846134d3565b6119a2565b600080611b9a84613e67565b90506000611bb8826116f38668327cb2734119d3b7a9601e1b6143e9565b6014549091506119ea9082906001600160a01b031687611f3b565b604080516001600160601b0319606096871b811660208084019190915295871b811660348301529390951b9092166048850152151560f81b605c8401528051603d818503018152605d9093019052815191012090565b611c316149a7565b6010805460ff1916911515919091179055565b60075481565b60105460ff1681565b600080601460009054906101000a90046001600160a01b03166001600160a01b03166318160ddd6040518163ffffffff1660e01b815260040160206040518083038186803b158015611ca457600080fd5b505afa158015611cb8573d6000803e3d6000fd5b505050506040513d6020811015611cce57600080fd5b5051905080611ce15760009150506116fd565b6001600160a01b0383166000908152602080526040902054600d54611d0a906116f383856143e9565b949350505050565b601054600160381b900460ff1681565b611d2a6149a7565b6001600160a01b0387166000908152601a602052604090205460ff16611da757600a54611d589060016149c0565b600a55601680546001810182556000919091527fd833147d7dc355ba459fc788f669e58cfaf9dc25ddcd0702e87d69c7b51242890180546001600160a01b0319166001600160a01b0389161790555b600d546001600160a01b0388166000908152602080526040902054611dcd908290614a18565b6001600160a01b0389166000908152601a602090815260408083208054600160ff1991821617909155601b83528184208c90558280528184208b9055601c83528184208a905560228352818420899055601d835281842080548216891515179055601e90925290912080549091168415151790559050611e4d81876149c0565b600d55611e5988613e67565b505050505050505050565b600e5481565b601054610100900460ff1681565b611e806149a7565b611e906101f48a111560036144b3565b611ea06101f489111560046144b3565b611eb06101f488111560056144b3565b611ec06101f487111560066144b3565b611ed06101f486111560076144b3565b611ee06101f485111560086144b3565b611efb6904ee2d6d415b85acef8160201b84111560096144b3565b600298909855600396909655600494909455600592909255600655600755600955600f5560108054911515620100000262ff000019909216919091179055565b60145460009081906001600160a01b03858116911614611f73576001600160a01b0384166000908152601b6020526040902054611f76565b60125b6014549091506000906001600160a01b03858116911614611faf576001600160a01b0384166000908152601b6020526040902054611fb2565b60125b9050611fd182600a0a6116f383600a0a896143e990919063ffffffff16565b925050505b9392505050565b601d6020526000908152604090205460ff1681565b611ffa6149a7565b6001600160a01b03919091166000908152601860205260409020805460ff1916911515919091179055565b600080600061203687878787611bd3565b9050612040615d44565b50600081815260296020908152604091829020825160e081018452815480825260018301549382019390935260028201549381018490526003820154606082015260048201546080820152600582015460a082015260069091015460c0820181905290926120b49289929091908990612728565b93509350505094509492505050565b60026000541415612109576040805162461bcd60e51b815260206004820152601f6024820152600080516020615d97833981519152604482015290519081900360640190fd5b600260005560105461212490610100900460ff16601c6144b3565b61212c614a5a565b61213585614a76565b612140848483614ad9565b60105460408051634eae147d60e11b81526001600160a01b038881166004830152878116602483015286811660448301526064820186905284151560848301529151600160401b90930490911691639d5c28fa9160a480820192600092909190829003018186803b1580156121b457600080fd5b505afa1580156121c8573d6000803e3d6000fd5b505050506121d684846140ff565b60006121e486868685611bd3565b6000818152602960205260408120919250836122085761220386612a99565b612211565b61221186613e67565b825490915061222257600282018190555b8154158015906122325750600085115b1561225857612252868360000154846002015487858a88600601546139f5565b60028301555b6000612271898989888a88600001548960030154614bef565b9050600061227e8961455f565b9050600061228c8a836119a2565b600186015490915061229e90826149c0565b600186018190556122b390841115601d6144b3565b60018501546122c29084614a18565b60018601556122d28a8a89613574565b600386015584546122e390896149c0565b8086554260068701556122f9901515601e6144b3565b61230b85600001548660010154614cab565b6123198b8b8b8a6001613848565b505060006123278b8a61334e565b600487015490915061233990826149c0565b60048701556123488b82614ccf565b871561238d576123618b61235c8b876149c0565b614d6f565b61236b8b83614dee565b6123758b84614e6d565b6123888b6123838d8761325c565b6146ca565b6123f9565b6001600160a01b038a166000908152602b60205260409020546123ca576001600160a01b038a166000908152602c602052604090208590556123ef565b6123d58a868b613290565b6001600160a01b038b166000908152602c60205260409020555b6123f98a8a614f85565b604080518881526001600160a01b03808f166020830152808e16828401528c1660608201526080810184905260a081018b905289151560c082015260e08101879052610100810186905290517f2fe68525253654c21998f35787a8d0f361905ef647c854092430ab65f2f15022918190036101200190a1855460018701546002880154600389015460048a015460058b0154604080518e81526020810197909752868101959095526060860193909352608085019190915260a084015260c083015260e0820187905251600080516020615db7833981519152918190036101000190a15050600160005550505050505050505050565b6011546001600160a01b031681565b60008060008060008060008060006125188d8d8d8d611bd3565b9050612522615d44565b602960008381526020019081526020016000206040518060e001604052908160008201548152602001600182015481526020016002820154815260200160038201548152602001600482015481526020016005820154815260200160068201548152505090506000808260a00151136125a2578160a001516000036125a8565b8160a001515b9050816000015182602001518360400151846060015185608001518560008860a0015112158860c001519a509a509a509a509a509a509a509a5050505094995094995094999196509450565b60256020526000908152604090205481565b60045481565b6029602052600090815260409020805460018201546002830154600384015460048501546005860154600690960154949593949293919290919087565b60008061265886868686611bd3565b9050612662615d44565b50600081815260296020908152604091829020825160e0810184528154815260018201549281018390526002820154938101939093526003810154606084015260048101546080840152600581015460a08401526006015460c08301526126cc90151560256144b3565b602081015181516126e491906116f3906127106143e9565b979650505050505050565b601f6020526000908152604090205481565b60186020526000908152604090205460ff1681565b60236020526000908152604090205481565b6000806127396000861160266144b3565b60008461274e5761274988613e67565b612757565b61275788612a99565b905060008187116127715761276c8288614a18565b61277b565b61277b8783614a18565b9050600061278d886116f38b856143e9565b9050600087156127a057508783116127a5565b508288115b60006127bc600f54896149c090919063ffffffff16565b42116127e0576001600160a01b038c166000908152601c60205260409020546127e3565b60005b905081801561280657506127f78b826143e9565b612803846127106143e9565b11155b1561281057600092505b509a909950975050505050505050565b60026000541415612866576040805162461bcd60e51b815260206004820152601f6024820152600080516020615d97833981519152604482015290519081900360640190fd5b600260009081556001600160a01b0382168152601a60205260409020546128919060ff16600e6144b3565b600061289c8261455f565b90506128ac60008211600f6144b3565b6128b68282614e6d565b604080516001600160a01b03841681526020810183905281517fa5a389190ebf6170a133bda5c769b77f4d6715b8aa172ec0ddf8473d0b4944bd929181900390910190a150506001600055565b601760209081526000928352604080842090915290825290205460ff1681565b600a5481565b602c6020526000908152604090205481565b601054600160401b90046001600160a01b031681565b3360009081526017602090815260408083206001600160a01b0394909416835292905220805460ff19169055565b6129876149a7565b601080546001600160a01b03909216600160401b02600160401b600160e01b0319909216919091179055565b6129bb6149a7565b601380546001600160a01b0319166001600160a01b0392909216919091179055565b6129e56149a7565b6010546129fe90600160381b900460ff161560016144b3565b60108054600160381b60ff60381b19909116179055601280546001600160a01b03199081166001600160a01b039889161790915560148054821696881696909617909555601380549095169390951692909217909255600991909155600b55600c55565b6013546001600160a01b031681565b60025481565b612a7f6149a7565b601080549115156101000261ff0019909216919091179055565b601354601054604080516317e1d38560e11b81526001600160a01b03858116600483015260006024830181905260ff63010000008604811615156044850152600160201b90950490941615156064830152915192939190911691632fc3a70a91608480820192602092909190829003018186803b158015612b1957600080fd5b505afa158015612b2d573d6000803e3d6000fd5b505050506040513d6020811015612b4357600080fd5b505192915050565b600060026000541415612b93576040805162461bcd60e51b815260206004820152601f6024820152600080516020615d97833981519152604482015290519081900360640190fd5b6002600055612ba0614a5a565b612ba988614a76565b612bb88888888888888861507b565b600160005598975050505050505050565b60216020526000908152604090205481565b612be36149a7565b6001600160a01b03909116600090815260256020526040902055565b600060026000541415612c47576040805162461bcd60e51b815260206004820152601f6024820152600080516020615d97833981519152604482015290519081900360640190fd5b6002600055612c54614481565b6001600160a01b0383166000908152601a6020526040902054612c7b9060ff1660106144b3565b6010805460ff60201b1916600160201b1790556000612c998461455f565b9050612ca96000821160116144b3565b612cb384856140ff565b6000612cbe85612a99565b90506000612cdc68327cb2734119d3b7a9601e1b6116f385856143e9565b601454909150612cf890829088906001600160a01b0316611f3b565b9050612d086000821160126144b3565b60105460408051630f1e2bb760e31b81526001600160a01b038981166004830152602482018590529151600093600160401b9004909216916378f15db891604480820192602092909190829003018186803b158015612d6657600080fd5b505afa158015612d7a573d6000803e3d6000fd5b505050506040513d6020811015612d9057600080fd5b505190506000612da1888684614838565b90506000612dbf68327cb2734119d3b7a9601e1b6116f384886143e9565b601454909150612ddb9082908b906001600160a01b0316611f3b565b9050612de78982615508565b612df18983614e6d565b601454604080516340c10f1960e01b81526001600160a01b038b8116600483015260248201859052915191909216916340c10f1991604480830192600092919082900301818387803b158015612e4657600080fd5b505af1158015612e5a573d6000803e3d6000fd5b5050604080516001600160a01b03808d1682528d1660208201528082018a9052606081018590526080810187905290517f2de7e0046c51567d81afaeb29981b87a4470ca1496850cdae633a300d1f9be5193509081900360a0019150a16010805460ff60201b19169055600160005598975050505050505050565b601c6020526000908152604090205481565b612eef6149a7565b600892909255600b55600c55565b602b6020526000908152604090205481565b601b6020526000908152604090205481565b612f296149a7565b601180546001600160a01b0319166001600160a01b0392909216919091179055565b601054600160281b900460ff1681565b600060026000541415612fa3576040805162461bcd60e51b815260206004820152601f6024820152600080516020615d97833981519152604482015290519081900360640190fd5b6002600055601054612fb99060ff1660176144b3565b6001600160a01b0384166000908152601a6020526040902054612fe09060ff1660186144b3565b6001600160a01b0383166000908152601a60205260409020546130079060ff1660196144b3565b613027836001600160a01b0316856001600160a01b03161415601a6144b3565b6010805460ff60201b1916600160201b17905561304484806140ff565b61304e83846140ff565b60006130598561455f565b905061306960008211601b6144b3565b600061307486612a99565b9050600061308186613e67565b90506000613093826116f386866143e9565b90506130a0818989611f3b565b905060006130be68327cb2734119d3b7a9601e1b6116f387876143e9565b6014549091506130da9082908b906001600160a01b0316611f3b565b60105460408051636d099c0b60e11b81526001600160a01b038d811660048301528c81166024830152604482018590529151939450600093600160401b9093049091169163da13381691606480820192602092909190829003018186803b15801561314457600080fd5b505afa158015613158573d6000803e3d6000fd5b505050506040513d602081101561316e57600080fd5b50519050600061317f8a8584614838565b905061318b8b84615508565b6131958a8461460c565b61319f8b88614e6d565b6131a98a856146ca565b6131b28a6155c6565b6131bd8a828b614900565b604080516001600160a01b03808c168252808e1660208301528c1681830152606081018990526080810186905260a0810183905260c0810184905290517f0874b2d545cb271cdbda4e093020c452328b24af12382ed62c4d00f5c26709db9181900360e00190a16010805460ff60201b1916905560016000559a9950505050505050505050565b602d6020526000908152604090205481565b60085481565b60008161326b575060006119ef565b611fd6838361327986613e67565b6140c5565b60226020526000908152604090205481565b6001600160a01b0383166000908152602b6020908152604080832054602c909252822054828582116132cb576132c68683614a18565b6132d5565b6132d58287614a18565b905060006132e7836116f386856143e9565b905086831160006132f886896149c0565b90506000826133105761330b82856149c0565b61331a565b61331a8285614a18565b905061332a816116f38c856143e9565b9b9a5050505050505050505050565b60105462010000900460ff1681565b60055481565b60008161335d575060006119ef565b611fd6838361327986612a99565b6133736149a7565b6001600160a01b03919091166000908152601960205260409020805460ff1916911515919091179055565b6008546001600160a01b038216600090815260286020526040812054909142916133c7916149c0565b11156133d5575060006116fd565b6008546001600160a01b0383166000908152602860205260408120549091613402916116f3904290614a18565b6001600160a01b0384166000908152602360205260409020549091508061342e576000925050506116fd565b6001600160a01b0384166000908152601d602052604081205460ff1661345657600b5461345a565b600c545b6001600160a01b0386166000908152602460205260409020549091506134939083906116f390869061348d9086906143e9565b906143e9565b95945050505050565b6010546301000000900460ff1681565b602080526000908152604090205481565b60015481565b601054600160201b900460ff1681565b6001600160a01b0381166000908152601d602052604081205460ff161561351357506001600160a01b0381166000908152602360205260409020546116fd565b6001600160a01b03821660009081526026602052604081205461353790849061325c565b6001600160a01b0384166000908152602460209081526040808320546023909252909120549192506116f99161356e9084906149c0565b90614a18565b6010546040805163b1cc53ab60e01b81526001600160a01b038681166004830152858116602483015284151560448301529151600093600160401b90049092169163b1cc53ab91606480820192602092909190829003018186803b1580156135db57600080fd5b505afa1580156135ef573d6000803e3d6000fd5b505050506040513d602081101561360557600080fd5b5051949350505050565b6001600160a01b0381166000908152602b602052604081205481908061363c5760008092509250506136a2565b600061364785613e67565b6001600160a01b0386166000908152602c6020526040812054919250828211613679576136748383614a18565b613683565b6136838284614a18565b90506000613695836116f387856143e9565b9390921195509193505050505b915091565b60246020526000908152604090205481565b600b5481565b60276020526000908152604090205481565b6010546040805163c7e074c360e01b81526001600160a01b03888116600483015260248201889052604482018790526064820186905284151560848301529151600093600160401b90049092169163c7e074c39160a480820192602092909190829003018186803b15801561374557600080fd5b505afa158015613759573d6000803e3d6000fd5b505050506040513d602081101561376f57600080fd5b50519695505050505050565b6137836149a7565b6137976001600160a01b0383168483615666565b505050565b6137a46149a7565b601580546001600160a01b0319166001600160a01b0392909216919091179055565b6137ce6149a7565b600e55565b6137db6149a7565b6137ea612710821160026144b3565b600155565b6137f76149a7565b6001600160a01b038216600090815260216020526040902054808211156138315761382b836138268484614a18565b615508565b50613844565b6137978361383f8385614a18565b61460c565b5050565b6010546040805163d54d5a9f60e01b81526001600160a01b038881166004830152878116602483015286811660448301528515156064830152841515608483015282516000948594600160401b9091049092169263d54d5a9f9260a4808301939192829003018186803b1580156138be57600080fd5b505afa1580156138d2573d6000803e3d6000fd5b505050506040513d60408110156138e857600080fd5b508051602090910151909890975095505050505050565b60286020526000908152604090205481565b600f5481565b6010546040805163369d949360e21b81526001600160a01b0389811660048301528881166024830152878116604483015286151560648301526084820186905260a482018590529151600093600160401b90049092169163da76524c9160c480820192602092909190829003018186803b15801561399457600080fd5b505afa1580156139a8573d6000803e3d6000fd5b505050506040513d60208110156139be57600080fd5b5051979650505050505050565b601a6020526000908152604090205460ff1681565b601e6020526000908152604090205460ff1681565b6000806000613a078a8a8a8a88612728565b90925090506000613a188a876149c0565b905060008815613a475783613a3657613a318284614a18565b613a40565b613a4082846149c0565b9050613a68565b83613a5b57613a5682846149c0565b613a65565b613a658284614a18565b90505b613a76816116f38a856143e9565b9c9b505050505050505050505050565b600d5481565b60026000541415613ad2576040805162461bcd60e51b815260206004820152601f6024820152600080516020615d97833981519152604482015290519081900360640190fd5b6002600055601054600160301b900460ff1615613b075733600090815260186020526040902054613b079060ff1660226144b3565b6010805463ff00000019169055613b1e84846140ff565b6000613b2c86868686611bd3565b9050613b36615d44565b50600081815260296020908152604091829020825160e08101845281548082526001830154938201939093526002820154938101939093526003810154606084015260048101546080840152600581015460a08401526006015460c0830152613ba290151560236144b3565b600080613bb3898989896000613848565b91509150613bc6826000141560246144b3565b8160021415613c0157613be3898989600087600001518b8f61507b565b50506010805463ff0000001916630100000017905550613e55915050565b6000613c0d898361325c565b6001600160a01b038a166000908152602a6020526040902054909150613c3390826149c0565b6001600160a01b038a166000818152602a60209081526040918290209390935580519182529181018490528082018390529051600080516020615e628339815191529181900360600190a1613c8c8985608001516156b8565b8615613cbb5760208401518451613cad918b91613ca891614a18565b614dee565b613cbb896123838b8561325c565b600087613cd057613ccb89613e67565b613cd9565b613cd989612a99565b90507f2e1f85a64a2f22cf2f0c42584e7c919ed4abe8d53675cff0f62bf1e95a1c676f868c8c8c8c8a600001518b602001518c608001518d60a001518a604051808b81526020018a6001600160a01b03168152602001896001600160a01b03168152602001886001600160a01b0316815260200187151581526020018681526020018581526020018481526020018381526020018281526020019a505050505050505050505060405180910390a187158015613d985750846020015183105b15613dc6576020850151600090613daf9085614a18565b9050613dc48b613dbf8d8461325c565b614e6d565b505b87613dd957613dd989866000015161576d565b6000868152602960205260408120818155600181018290556002810182905560038101829055600481018290556005810182905560060155600954613e25908b9061238390829061325c565b613e3b8a613e358c60095461325c565b89614900565b50506010805463ff00000019166301000000179055505050505b50506001600055505050565b60065481565b601354601054604080516317e1d38560e11b81526001600160a01b0385811660048301526001602483015260ff63010000008504811615156044840152600160201b9094049093161515606482015290516000939290921691632fc3a70a91608480820192602092909190829003018186803b158015612b1957600080fd5b60168181548110613ef357fe5b6000918252602090912001546001600160a01b0316905081565b613f156149a7565b6001600160a01b0381166000908152601a6020526040902054613f3c9060ff16600d6144b3565b6001600160a01b0381166000908152602080526040902054600d54613f6091614a18565b600d556001600160a01b0381166000908152601a60209081526040808320805460ff19908116909155601b8352818420849055828052818420849055601c835281842084905560228352818420849055601d8352818420805482169055601e90925290912080549091169055600a54613fda906001614a18565b600a5550565b6014546001600160a01b031681565b613ff76149a7565b6001600160a01b039091166000908152602d6020526040902055565b60266020526000908152604090205481565b61402d6149a7565b60108054911515600160301b0260ff60301b19909216919091179055565b60006140556149a7565b6001600160a01b0383166000908152602a60205260409020548061407d5760009150506119ef565b6001600160a01b0384166000908152602a6020526040812055611fd6848285614900565b60196020526000908152604090205460ff1681565b6012546001600160a01b031681565b6000826140d457506000611fd6565b6001600160a01b0384166000908152601b6020526040902054613493836116f386600a85900a6143e9565b6010546040805163fbfded6d60e01b81526001600160a01b03858116600483015284811660248301529151600093600160401b90049092169163fbfded6d9160448082019260209290919082900301818787803b15801561415f57600080fd5b505af1158015614173573d6000803e3d6000fd5b505050506040513d602081101561418957600080fd5b50519050806141985750613844565b6001600160a01b0383166000908152602860205260409020546141e5576008546141c69061348d4282614442565b6001600160a01b03841660009081526028602052604090205550613844565b6008546001600160a01b038416600090815260286020526040902054429161420d91906149c0565b11156142195750613844565b60006142248461339e565b6001600160a01b03851660009081526027602052604090205490915061424a90826149c0565b6001600160a01b0385166000908152602760205260409020556008546142749061348d4282614442565b6001600160a01b03851660008181526028602090815260408083209490945560278152908390205483519283529082015281517fa146fc154e1913322e9817d49f0d5c37466c24326e15de10e739a948be815eab929181900390910190a150505050565b6010546040805163fdaf6ac360e01b81526001600160a01b038881166004830152878116602483015286811660448301528515156064830152608482018590529151600093600160401b90049092169163fdaf6ac39160a480820192602092909190829003018186803b15801561374557600080fd5b602e6020908152600091825260409182902080548351601f6002600019610100600186161502019093169290920491820184900484028101840190945280845290918301828280156143e15780601f106143b6576101008083540402835291602001916143e1565b820191906000526020600020905b8154815290600101906020018083116143c457829003601f168201915b505050505081565b6000826143f8575060006119ef565b8282028284828161440557fe5b0414611fd65760405162461bcd60e51b8152600401808060200182810382526021815260200180615e176021913960400191505060405180910390fd5b6000611fd683836040518060400160405280601a815260200179536166654d6174683a206469766973696f6e206279207a65726f60301b8152506157d5565b601054600160281b900460ff16156144b157336000908152601960205260409020546144b19060ff1660366144b3565b565b6000818152602e60205260409020826137975760405162461bcd60e51b81526020600482019081528254600260001961010060018416150201909116046024830181905290918291604490910190849080156145505780601f1061452557610100808354040283529160200191614550565b820191906000526020600020905b81548152906001019060200180831161453357829003601f168201915b50509250505060405180910390fd5b6001600160a01b0381166000818152601f602090815260408083205481516370a0823160e01b8152306004820152915193949093859391926370a08231926024808301939192829003018186803b1580156145b957600080fd5b505afa1580156145cd573d6000803e3d6000fd5b505050506040513d60208110156145e357600080fd5b50516001600160a01b0385166000908152601f602052604090208190559050611d0a8183614a18565b6001600160a01b038216600090815260216020526040902054818111614675576001600160a01b038316600081815260216020908152604080832092909255815192835282018390528051600080516020615df78339815191529281900390910190a150613844565b61467f8183614a18565b6001600160a01b0384166000818152602160209081526040918290209390935580519182529181018490528151600080516020615df7833981519152929181900390910190a1505050565b604080518082018252601a81527915985d5b1d0e881c1bdbdb105b5bdd5b9d08195e18d95959195960321b6020808301919091526001600160a01b03851660009081526023909152919091205461472291839061583a565b6001600160a01b0383166000908152602360209081526040808320849055602490915290205461475591101560326144b3565b604080516001600160a01b03841681526020810183905281517f112726233fbeaeed0f5b1dba5cb0b2b81883dee49fb35ff99fd98ed9f6d31eb0929181900390910190a15050565b6000816001600160a01b03166370a08231306040518263ffffffff1660e01b815260040180826001600160a01b0316815260200191505060206040518083038186803b1580156147ec57600080fd5b505afa158015614800573d6000803e3d6000fd5b505050506040513d602081101561481657600080fd5b50516001600160a01b039092166000908152601f602052604090209190915550565b6000806148556127106116f361484e8287614a18565b87906143e9565b905060006148638583614a18565b6001600160a01b0387166000908152602a602052604090205490915061488990826149c0565b6001600160a01b0387166000908152602a60205260409020557f47cd9dda0e50ce30bcaaacd0488452b596221c07ac402a581cfae4d3933cac2b866148ce81846119a2565b604080516001600160a01b0390931683526020830191909152818101849052519081900360600190a150949350505050565b6149146001600160a01b0384168284615666565b604080516370a0823160e01b815230600482015290516001600160a01b038516916370a08231916024808301926020929190829003018186803b15801561495a57600080fd5b505afa15801561496e573d6000803e3d6000fd5b505050506040513d602081101561498457600080fd5b50516001600160a01b039093166000908152601f60205260409020929092555050565b6015546144b1906001600160a01b0316331460356144b3565b600082820183811015611fd6576040805162461bcd60e51b815260206004820152601b60248201527a536166654d6174683a206164646974696f6e206f766572666c6f7760281b604482015290519081900360640190fd5b6000611fd683836040518060400160405280601e81526020017f536166654d6174683a207375627472616374696f6e206f766572666c6f77000081525061583a565b600e54614a66576144b1565b6144b1600e543a111560376144b3565b336001600160a01b0382161415614a8c57614ad6565b6012546001600160a01b0316331415614aa457614ad6565b6001600160a01b0381166000908152601760209081526040808320338452909152902054614ad69060ff1660296144b3565b50565b8015614b5257614afe826001600160a01b0316846001600160a01b031614602a6144b3565b6001600160a01b0383166000908152601a6020526040902054614b259060ff16602b6144b3565b6001600160a01b0383166000908152601d6020526040902054614b4d9060ff1615602c6144b3565b613797565b6001600160a01b0383166000908152601a6020526040902054614b799060ff16602d6144b3565b6001600160a01b0383166000908152601d6020526040902054614ba09060ff16602e6144b3565b6001600160a01b0382166000908152601d6020526040902054614bc89060ff1615602f6144b3565b6001600160a01b0382166000908152601e60205260409020546137979060ff1660306144b3565b600080614bff89898989896142d8565b90506000614c118a8a8a8a8989613917565b9050614c1d82826149c0565b91506000614c2b8a8461325c565b6001600160a01b038b166000908152602a6020526040902054909150614c5190826149c0565b6001600160a01b038b166000818152602a60209081526040918290209390935580519182529181018590528082018390529051600080516020615e628339815191529181900360600190a150909998505050505050505050565b81614cc157614cbc811560276144b3565b613844565b6138448183101560286144b3565b6001600160a01b038216600090815260246020526040902054614cf290826149c0565b6001600160a01b038316600090815260246020818152604080842085905560238252909220549152614d2791111560346144b3565b604080516001600160a01b03841681526020810183905281517faa5649d82f5462be9d19b0f2b31a59b2259950a6076550bac9f3a1c07db9f66d929181900390910190a15050565b6001600160a01b038216600090815260266020526040902054614d9290826149c0565b6001600160a01b03831660008181526026602090815260409182902093909355805191825291810183905281517fd9d4761f75e0d0103b5cbeab941eeb443d7a56a35b5baf2a0787c03f03f4e474929181900390910190a15050565b6001600160a01b038216600090815260266020526040902054614e119082614a18565b6001600160a01b03831660008181526026602090815260409182902093909355805191825291810183905281517f34e07158b9db50df5613e591c44ea2ebc82834eff4a4dc3a46e000e608261d68929181900390910190a15050565b6001600160a01b038216600090815260236020526040902054614e9090826149c0565b6001600160a01b03831660008181526023602090815260408083209490945583516370a0823160e01b8152306004820152935191936370a082319260248083019392829003018186803b158015614ee657600080fd5b505afa158015614efa573d6000803e3d6000fd5b505050506040513d6020811015614f1057600080fd5b50516001600160a01b038416600090815260236020526040902054909150614f3c9082101560316144b3565b604080516001600160a01b03851681526020810184905281517f976177fbe09a15e5e43f848844963a42b41ef919ef17ff21a17a5421de8f4737929181900390910190a1505050565b6001600160a01b0382166000908152602b6020526040902054614fa890826149c0565b6001600160a01b0383166000908152602b6020908152604080832093909355602d9052205480156137975780602b6000856001600160a01b03166001600160a01b031681526020019081526020016000205411156040518060400160405280601a81526020017915985d5b1d0e881b585e081cda1bdc9d1cc8195e18d95959195960321b81525090611b745760405162461bcd60e51b8152602060048201818152835160248401528351909283926044909101919085019080838360008315611b1f578181015183820152602001611b07565b601054604080516381d11a2360e01b81526001600160a01b038a8116600483015289811660248301528881166044830152606482018890526084820187905285151560a483015284811660c48301529151600093600160401b9004909216916381d11a239160e4808201928692909190829003018186803b1580156150ff57600080fd5b505afa158015615113573d6000803e3d6000fd5b5050505061512187876140ff565b600061512f89898987611bd3565b6000818152602960205260409020805491925090615150901515601f6144b3565b615162868260000154101560206144b3565b615174878260010154101560216144b3565b600181015481546004830154600091615191916116f3908b6143e9565b60048401549091506151a39082614a18565b60048401556151b28b826156b8565b506000806151c48d8d8d8d8d8d615894565b855491935091508914615344576151dc8c8c8a613574565b600385015583546151ed908a614a18565b80855560018501546151ff9190614cab565b61520d8d8d8d8b6001613848565b5050871561523a576152308c61235c866001015486614a1890919063ffffffff16565b61523a8c8a614dee565b60008861524f5761524a8c613e67565b615258565b6152588c612a99565b9050600080516020615dd7833981519152868f8f8f8f8f8f8861527b8c8c614a18565b60408051998a526001600160a01b0398891660208b015296881689880152949096166060880152608087019290925260a0860152151560c085015260e084019290925261010083019190915251908190036101200190a18454600186015460028701546003880154600489015460058a0154604080518d81526020810197909752868101959095526060860193909352608085019190915260a084015260c083015260e0820183905251600080516020615db7833981519152918190036101000190a1506154a6565b871561535e576153548c84614d6f565b61535e8c8a614dee565b6000886153735761536e8c613e67565b61537c565b61537c8c612a99565b9050600080516020615dd7833981519152868f8f8f8f8f8f8861539f8c8c614a18565b60408051998a526001600160a01b0398891660208b015296881689880152949096166060880152608087019290925260a0860152151560c085015260e084019290925261010083019190915251908190036101200190a18454600186015460028701546003880154600489015460058a0154604080518d81526020810197909752868101959095526060860193909352608085019190915260a084015260c0830152517f73af1d417d82c240fdb6d319b34ad884487c6bf2845d98980cc52ad9171cb4559181900360e00190a15060008581526029602052604081208181556001810182905560028101829055600381018290556004810182905560058101829055600601555b876154b5576154b58b8a61576d565b81156154f55787156154cf576154cf8c6123838e8561325c565b60006154db8d8361325c565b90506154e88d828a614900565b95506126e4945050505050565b5060009c9b505050505050505050505050565b6001600160a01b03821660009081526021602052604090205461552b90826149c0565b6001600160a01b038316600090815260216020908152604080832093909355602290522054801561557d576001600160a01b03831660009081526021602052604090205461557d9082101560336144b3565b604080516001600160a01b03851681526020810184905281517f8734a535d62699174c322d74d291c6053308a8caf79759684f44851562dc5cce929181900390910190a1505050565b6001600160a01b0381166000908152602560209081526040808320546023909252909120541015614ad657604080518082018252601a8152792b30bab63a1d103837b7b620b6b7bab73a101e10313ab33332b960311b6020808301918252925162461bcd60e51b81526004810193845282516024820152825192939283926044909201919080838360008315611b1f578181015183820152602001611b07565b604080516001600160a01b038416602482015260448082018490528251808303909101815260649091019091526020810180516001600160e01b031663a9059cbb60e01b179052613797908490615a8e565b604080518082018252601b81527a5661756c743a20696e73756666696369656e74207265736572766560281b6020808301919091526001600160a01b03851660009081526024909152919091205461571191839061583a565b6001600160a01b03831660008181526024602090815260409182902093909355805191825291810183905281517f533cb5ed32be6a90284e96b5747a1bfc2d38fdb5768a6b5f67ff7d62144ed67b929181900390910190a15050565b6001600160a01b0382166000908152602b6020526040902054808211156157ad57506001600160a01b0382166000908152602b6020526040812055613844565b6157b78183614a18565b6001600160a01b0384166000908152602b6020526040902055505050565b600081836158245760405162461bcd60e51b8152602060048201818152835160248401528351909283926044909101919085019080838360008315611b1f578181015183820152602001611b07565b50600083858161583057fe5b0495945050505050565b6000818484111561588c5760405162461bcd60e51b8152602060048201818152835160248401528351909283926044909101919085019080838360008315611b1f578181015183820152602001611b07565b505050900390565b60008060006158a589898987611bd3565b60008181526029602052604081208054600382015493945090926158d2918d918d918d918b918d91614bef565b90506000806000806158f38d876000015488600201548d8a60060154612728565b8754919550859350915061590b906116f38d846143e9565b92505050600082801561591e5750600082115b1561594e575060058401805482019055808861594e5760006159408e8461325c565b905061594c8e826146ca565b505b8215801561595c5750600082115b156159a05760018501546159709083614a18565b6001860155886159945760006159868e8461325c565b90506159928e82614e6d565b505b60058501805483900390555b8a156159c8576159b0818c6149c0565b60018601549091506159c2908c614a18565b60018601555b84548a14156159eb5760018501546159e19082906149c0565b6000600187015590505b8084811115615a05576159fe8286614a18565b9050615a39565b6001860154615a149086614a18565b60018701558915615a39576000615a2b8f8761325c565b9050615a378f826146ca565b505b60408051888152851515602082015280820185905290517f3ff41bdde87755b687ae83d0221a232b6be51a803330ed9661c1b5d0105e0d8a9181900360600190a1909e909d509b505050505050505050505050565b6060615ae3826040518060400160405280602081526020017f5361666545524332303a206c6f772d6c6576656c2063616c6c206661696c6564815250856001600160a01b0316615b3f9092919063ffffffff16565b80519091501561379757808060200190516020811015615b0257600080fd5b50516137975760405162461bcd60e51b815260040180806020018281038252602a815260200180615e38602a913960400191505060405180910390fd5b6060611d0a848460008585615b5385615c5a565b615ba4576040805162461bcd60e51b815260206004820152601d60248201527f416464726573733a2063616c6c20746f206e6f6e2d636f6e7472616374000000604482015290519081900360640190fd5b60006060866001600160a01b031685876040518082805190602001908083835b60208310615be35780518252601f199092019160209182019101615bc4565b6001836020036101000a03801982511681845116808217855250505050505090500191505060006040518083038185875af1925050503d8060008114615c45576040519150601f19603f3d011682016040523d82523d6000602084013e615c4a565b606091505b50915091506126e4828286615c60565b3b151590565b60608315615c6f575081611fd6565b825115615c7f5782518084602001fd5b60405162461bcd60e51b8152602060048201818152845160248401528451859391928392604401919085019080838360008315611b1f578181015183820152602001611b07565b828054600181600116156101000203166002900490600052602060002090601f016020900481019282601f10615d075782800160ff19823516178555615d34565b82800160010185558215615d34579182015b82811115615d34578235825591602001919060010190615d19565b50615d40929150615d81565b5090565b6040518060e00160405280600081526020016000815260200160008152602001600081526020016000815260200160008152602001600081525090565b5b80821115615d405760008155600101615d8256fe5265656e7472616e637947756172643a207265656e7472616e742063616c6c0020853733b590dce729d9f4628682ebd9a34d2354e72679e66f43a008fc03b77393d75d64d1f84fc6f430a64fc578bdd4c1e090e90ea2d51773e626d19de56d304cd0095bd565d45488212267145f37c5a223186512b169e04f24bc12a4f6b307536166654d6174683a206d756c7469706c69636174696f6e206f766572666c6f775361666545524332303a204552433230206f7065726174696f6e20646964206e6f7420737563636565645d0c0019d3d45fadeb74eff9d2c9924d146d000ac6bcf3c28bf0ac3c9baa011aa2646970667358221220e3861853dc941cb2fdde60a83e9ef03f3d80e0f3b936aef0859e92730215fd3164736f6c634300060c0033",
  "devdoc": {
    "kind": "dev",
    "methods": {},
    "version": 1
  },
  "userdoc": {
    "kind": "user",
    "methods": {},
    "version": 1
  },
  "storageLayout": {
    "storage": [
      {
        "astId": 15423,
        "contract": "contracts/core/Vault.sol:Vault",
        "label": "_status",
        "offset": 0,
        "slot": "0",
        "type": "t_uint256"
      },
      {
        "astId": 13006,
        "contract": "contracts/core/Vault.sol:Vault",
        "label": "maxLeverage",
        "offset": 0,
        "slot": "1",
        "type": "t_uint256"
      },
      {
        "astId": 13010,
        "contract": "contracts/core/Vault.sol:Vault",
        "label": "taxBasisPoints",
        "offset": 0,
        "slot": "2",
        "type": "t_uint256"
      },
      {
        "astId": 13014,
        "contract": "contracts/core/Vault.sol:Vault",
        "label": "stableTaxBasisPoints",
        "offset": 0,
        "slot": "3",
        "type": "t_uint256"
      },
      {
        "astId": 13018,
        "contract": "contracts/core/Vault.sol:Vault",
        "label": "mintBurnFeeBasisPoints",
        "offset": 0,
        "slot": "4",
        "type": "t_uint256"
      },
      {
        "astId": 13022,
        "contract": "contracts/core/Vault.sol:Vault",
        "label": "swapFeeBasisPoints",
        "offset": 0,
        "slot": "5",
        "type": "t_uint256"
      },
      {
        "astId": 13026,
        "contract": "contracts/core/Vault.sol:Vault",
        "label": "stableSwapFeeBasisPoints",
        "offset": 0,
        "slot": "6",
        "type": "t_uint256"
      },
      {
        "astId": 13030,
        "contract": "contracts/core/Vault.sol:Vault",
        "label": "marginFeeBasisPoints",
        "offset": 0,
        "slot": "7",
        "type": "t_uint256"
      },
      {
        "astId": 13034,
        "contract": "contracts/core/Vault.sol:Vault",
        "label": "fundingInterval",
        "offset": 0,
        "slot": "8",
        "type": "t_uint256"
      },
      {
        "astId": 13037,
        "contract": "contracts/core/Vault.sol:Vault",
        "label": "liquidationFeeUsd",
        "offset": 0,
        "slot": "9",
        "type": "t_uint256"
      },
      {
        "astId": 13040,
        "contract": "contracts/core/Vault.sol:Vault",
        "label": "whitelistedTokenCount",
        "offset": 0,
        "slot": "10",
        "type": "t_uint256"
      },
      {
        "astId": 13043,
        "contract": "contracts/core/Vault.sol:Vault",
        "label": "fundingRateFactor",
        "offset": 0,
        "slot": "11",
        "type": "t_uint256"
      },
      {
        "astId": 13046,
        "contract": "contracts/core/Vault.sol:Vault",
        "label": "stableFundingRateFactor",
        "offset": 0,
        "slot": "12",
        "type": "t_uint256"
      },
      {
        "astId": 13049,
        "contract": "contracts/core/Vault.sol:Vault",
        "label": "totalTokenWeights",
        "offset": 0,
        "slot": "13",
        "type": "t_uint256"
      },
      {
        "astId": 13052,
        "contract": "contracts/core/Vault.sol:Vault",
        "label": "maxGasPrice",
        "offset": 0,
        "slot": "14",
        "type": "t_uint256"
      },
      {
        "astId": 13055,
        "contract": "contracts/core/Vault.sol:Vault",
        "label": "minProfitTime",
        "offset": 0,
        "slot": "15",
        "type": "t_uint256"
      },
      {
        "astId": 13059,
        "contract": "contracts/core/Vault.sol:Vault",
        "label": "isSwapEnabled",
        "offset": 0,
        "slot": "16",
        "type": "t_bool"
      },
      {
        "astId": 13063,
        "contract": "contracts/core/Vault.sol:Vault",
        "label": "isLeverageEnabled",
        "offset": 1,
        "slot": "16",
        "type": "t_bool"
      },
      {
        "astId": 13067,
        "contract": "contracts/core/Vault.sol:Vault",
        "label": "hasDynamicFees",
        "offset": 2,
        "slot": "16",
        "type": "t_bool"
      },
      {
        "astId": 13070,
        "contract": "contracts/core/Vault.sol:Vault",
        "label": "includeAmmPrice",
        "offset": 3,
        "slot": "16",
        "type": "t_bool"
      },
      {
        "astId": 13073,
        "contract": "contracts/core/Vault.sol:Vault",
        "label": "useSwapPricing",
        "offset": 4,
        "slot": "16",
        "type": "t_bool"
      },
      {
        "astId": 13077,
        "contract": "contracts/core/Vault.sol:Vault",
        "label": "inManagerMode",
        "offset": 5,
        "slot": "16",
        "type": "t_bool"
      },
      {
        "astId": 13081,
        "contract": "contracts/core/Vault.sol:Vault",
        "label": "inPrivateLiquidationMode",
        "offset": 6,
        "slot": "16",
        "type": "t_bool"
      },
      {
        "astId": 13084,
        "contract": "contracts/core/Vault.sol:Vault",
        "label": "isInitialized",
        "offset": 7,
        "slot": "16",
        "type": "t_bool"
      },
      {
        "astId": 13086,
        "contract": "contracts/core/Vault.sol:Vault",
        "label": "vaultUtils",
        "offset": 8,
        "slot": "16",
        "type": "t_contract(IVaultUtils)7593"
      },
      {
        "astId": 13088,
        "contract": "contracts/core/Vault.sol:Vault",
        "label": "errorController",
        "offset": 0,
        "slot": "17",
        "type": "t_address"
      },
      {
        "astId": 13091,
        "contract": "contracts/core/Vault.sol:Vault",
        "label": "router",
        "offset": 0,
        "slot": "18",
        "type": "t_address"
      },
      {
        "astId": 13094,
        "contract": "contracts/core/Vault.sol:Vault",
        "label": "priceFeed",
        "offset": 0,
        "slot": "19",
        "type": "t_address"
      },
      {
        "astId": 13097,
        "contract": "contracts/core/Vault.sol:Vault",
        "label": "usdm",
        "offset": 0,
        "slot": "20",
        "type": "t_address"
      },
      {
        "astId": 13100,
        "contract": "contracts/core/Vault.sol:Vault",
        "label": "gov",
        "offset": 0,
        "slot": "21",
        "type": "t_address"
      },
      {
        "astId": 13104,
        "contract": "contracts/core/Vault.sol:Vault",
        "label": "allWhitelistedTokens",
        "offset": 0,
        "slot": "22",
        "type": "t_array(t_address)dyn_storage"
      },
      {
        "astId": 13111,
        "contract": "contracts/core/Vault.sol:Vault",
        "label": "approvedRouters",
        "offset": 0,
        "slot": "23",
        "type": "t_mapping(t_address,t_mapping(t_address,t_bool))"
      },
      {
        "astId": 13116,
        "contract": "contracts/core/Vault.sol:Vault",
        "label": "isLiquidator",
        "offset": 0,
        "slot": "24",
        "type": "t_mapping(t_address,t_bool)"
      },
      {
        "astId": 13121,
        "contract": "contracts/core/Vault.sol:Vault",
        "label": "isManager",
        "offset": 0,
        "slot": "25",
        "type": "t_mapping(t_address,t_bool)"
      },
      {
        "astId": 13126,
        "contract": "contracts/core/Vault.sol:Vault",
        "label": "whitelistedTokens",
        "offset": 0,
        "slot": "26",
        "type": "t_mapping(t_address,t_bool)"
      },
      {
        "astId": 13131,
        "contract": "contracts/core/Vault.sol:Vault",
        "label": "tokenDecimals",
        "offset": 0,
        "slot": "27",
        "type": "t_mapping(t_address,t_uint256)"
      },
      {
        "astId": 13136,
        "contract": "contracts/core/Vault.sol:Vault",
        "label": "minProfitBasisPoints",
        "offset": 0,
        "slot": "28",
        "type": "t_mapping(t_address,t_uint256)"
      },
      {
        "astId": 13141,
        "contract": "contracts/core/Vault.sol:Vault",
        "label": "stableTokens",
        "offset": 0,
        "slot": "29",
        "type": "t_mapping(t_address,t_bool)"
      },
      {
        "astId": 13146,
        "contract": "contracts/core/Vault.sol:Vault",
        "label": "shortableTokens",
        "offset": 0,
        "slot": "30",
        "type": "t_mapping(t_address,t_bool)"
      },
      {
        "astId": 13151,
        "contract": "contracts/core/Vault.sol:Vault",
        "label": "tokenBalances",
        "offset": 0,
        "slot": "31",
        "type": "t_mapping(t_address,t_uint256)"
      },
      {
        "astId": 13156,
        "contract": "contracts/core/Vault.sol:Vault",
        "label": "tokenWeights",
        "offset": 0,
        "slot": "32",
        "type": "t_mapping(t_address,t_uint256)"
      },
      {
        "astId": 13161,
        "contract": "contracts/core/Vault.sol:Vault",
        "label": "usdmAmounts",
        "offset": 0,
        "slot": "33",
        "type": "t_mapping(t_address,t_uint256)"
      },
      {
        "astId": 13166,
        "contract": "contracts/core/Vault.sol:Vault",
        "label": "maxUsdmAmounts",
        "offset": 0,
        "slot": "34",
        "type": "t_mapping(t_address,t_uint256)"
      },
      {
        "astId": 13171,
        "contract": "contracts/core/Vault.sol:Vault",
        "label": "poolAmounts",
        "offset": 0,
        "slot": "35",
        "type": "t_mapping(t_address,t_uint256)"
      },
      {
        "astId": 13176,
        "contract": "contracts/core/Vault.sol:Vault",
        "label": "reservedAmounts",
        "offset": 0,
        "slot": "36",
        "type": "t_mapping(t_address,t_uint256)"
      },
      {
        "astId": 13181,
        "contract": "contracts/core/Vault.sol:Vault",
        "label": "bufferAmounts",
        "offset": 0,
        "slot": "37",
        "type": "t_mapping(t_address,t_uint256)"
      },
      {
        "astId": 13186,
        "contract": "contracts/core/Vault.sol:Vault",
        "label": "guaranteedUsd",
        "offset": 0,
        "slot": "38",
        "type": "t_mapping(t_address,t_uint256)"
      },
      {
        "astId": 13191,
        "contract": "contracts/core/Vault.sol:Vault",
        "label": "cumulativeFundingRates",
        "offset": 0,
        "slot": "39",
        "type": "t_mapping(t_address,t_uint256)"
      },
      {
        "astId": 13196,
        "contract": "contracts/core/Vault.sol:Vault",
        "label": "lastFundingTimes",
        "offset": 0,
        "slot": "40",
        "type": "t_mapping(t_address,t_uint256)"
      },
      {
        "astId": 13200,
        "contract": "contracts/core/Vault.sol:Vault",
        "label": "positions",
        "offset": 0,
        "slot": "41",
        "type": "t_mapping(t_bytes32,t_struct(Position)13538_storage)"
      },
      {
        "astId": 13205,
        "contract": "contracts/core/Vault.sol:Vault",
        "label": "feeReserves",
        "offset": 0,
        "slot": "42",
        "type": "t_mapping(t_address,t_uint256)"
      },
      {
        "astId": 13210,
        "contract": "contracts/core/Vault.sol:Vault",
        "label": "globalShortSizes",
        "offset": 0,
        "slot": "43",
        "type": "t_mapping(t_address,t_uint256)"
      },
      {
        "astId": 13215,
        "contract": "contracts/core/Vault.sol:Vault",
        "label": "globalShortAveragePrices",
        "offset": 0,
        "slot": "44",
        "type": "t_mapping(t_address,t_uint256)"
      },
      {
        "astId": 13220,
        "contract": "contracts/core/Vault.sol:Vault",
        "label": "maxGlobalShortSizes",
        "offset": 0,
        "slot": "45",
        "type": "t_mapping(t_address,t_uint256)"
      },
      {
        "astId": 13224,
        "contract": "contracts/core/Vault.sol:Vault",
        "label": "errors",
        "offset": 0,
        "slot": "46",
        "type": "t_mapping(t_uint256,t_string_storage)"
      }
    ],
    "types": {
      "t_address": {
        "encoding": "inplace",
        "label": "address",
        "numberOfBytes": "20"
      },
      "t_array(t_address)dyn_storage": {
        "base": "t_address",
        "encoding": "dynamic_array",
        "label": "address[]",
        "numberOfBytes": "32"
      },
      "t_bool": {
        "encoding": "inplace",
        "label": "bool",
        "numberOfBytes": "1"
      },
      "t_bytes32": {
        "encoding": "inplace",
        "label": "bytes32",
        "numberOfBytes": "32"
      },
      "t_contract(IVaultUtils)7593": {
        "encoding": "inplace",
        "label": "contract IVaultUtils",
        "numberOfBytes": "20"
      },
      "t_int256": {
        "encoding": "inplace",
        "label": "int256",
        "numberOfBytes": "32"
      },
      "t_mapping(t_address,t_bool)": {
        "encoding": "mapping",
        "key": "t_address",
        "label": "mapping(address => bool)",
        "numberOfBytes": "32",
        "value": "t_bool"
      },
      "t_mapping(t_address,t_mapping(t_address,t_bool))": {
        "encoding": "mapping",
        "key": "t_address",
        "label": "mapping(address => mapping(address => bool))",
        "numberOfBytes": "32",
        "value": "t_mapping(t_address,t_bool)"
      },
      "t_mapping(t_address,t_uint256)": {
        "encoding": "mapping",
        "key": "t_address",
        "label": "mapping(address => uint256)",
        "numberOfBytes": "32",
        "value": "t_uint256"
      },
      "t_mapping(t_bytes32,t_struct(Position)13538_storage)": {
        "encoding": "mapping",
        "key": "t_bytes32",
        "label": "mapping(bytes32 => struct DataTypes.Position)",
        "numberOfBytes": "32",
        "value": "t_struct(Position)13538_storage"
      },
      "t_mapping(t_uint256,t_string_storage)": {
        "encoding": "mapping",
        "key": "t_uint256",
        "label": "mapping(uint256 => string)",
        "numberOfBytes": "32",
        "value": "t_string_storage"
      },
      "t_string_storage": {
        "encoding": "bytes",
        "label": "string",
        "numberOfBytes": "32"
      },
      "t_struct(Position)13538_storage": {
        "encoding": "inplace",
        "label": "struct DataTypes.Position",
        "members": [
          {
            "astId": 13525,
            "contract": "contracts/core/Vault.sol:Vault",
            "label": "size",
            "offset": 0,
            "slot": "0",
            "type": "t_uint256"
          },
          {
            "astId": 13527,
            "contract": "contracts/core/Vault.sol:Vault",
            "label": "collateral",
            "offset": 0,
            "slot": "1",
            "type": "t_uint256"
          },
          {
            "astId": 13529,
            "contract": "contracts/core/Vault.sol:Vault",
            "label": "averagePrice",
            "offset": 0,
            "slot": "2",
            "type": "t_uint256"
          },
          {
            "astId": 13531,
            "contract": "contracts/core/Vault.sol:Vault",
            "label": "entryFundingRate",
            "offset": 0,
            "slot": "3",
            "type": "t_uint256"
          },
          {
            "astId": 13533,
            "contract": "contracts/core/Vault.sol:Vault",
            "label": "reserveAmount",
            "offset": 0,
            "slot": "4",
            "type": "t_uint256"
          },
          {
            "astId": 13535,
            "contract": "contracts/core/Vault.sol:Vault",
            "label": "realisedPnl",
            "offset": 0,
            "slot": "5",
            "type": "t_int256"
          },
          {
            "astId": 13537,
            "contract": "contracts/core/Vault.sol:Vault",
            "label": "lastIncreasedTime",
            "offset": 0,
            "slot": "6",
            "type": "t_uint256"
          }
        ],
        "numberOfBytes": "224"
      },
      "t_uint256": {
        "encoding": "inplace",
        "label": "uint256",
        "numberOfBytes": "32"
      }
    }
  }
}