{
  "address": "0xDc64a140Aa3E981100a9becA4E685f962f0cF6C9",
  "abi": [
    {
      "inputs": [],
      "stateMutability": "nonpayable",
      "type": "constructor"
    },
    {
      "inputs": [
        {
          "internalType": "address",
          "name": "",
          "type": "address"
        }
      ],
      "name": "adjustmentBasisPoints",
      "outputs": [
        {
          "internalType": "uint256",
          "name": "",
          "type": "uint256"
        }
      ],
      "stateMutability": "view",
      "type": "function"
    },
    {
      "inputs": [],
      "name": "bnb",
      "outputs": [
        {
          "internalType": "address",
          "name": "",
          "type": "address"
        }
      ],
      "stateMutability": "view",
      "type": "function"
    },
    {
      "inputs": [],
      "name": "bnbBusd",
      "outputs": [
        {
          "internalType": "address",
          "name": "",
          "type": "address"
        }
      ],
      "stateMutability": "view",
      "type": "function"
    },
    {
      "inputs": [],
      "name": "btc",
      "outputs": [
        {
          "internalType": "address",
          "name": "",
          "type": "address"
        }
      ],
      "stateMutability": "view",
      "type": "function"
    },
    {
      "inputs": [],
      "name": "btcBnb",
      "outputs": [
        {
          "internalType": "address",
          "name": "",
          "type": "address"
        }
      ],
      "stateMutability": "view",
      "type": "function"
    },
    {
      "inputs": [],
      "name": "chainlinkFlags",
      "outputs": [
        {
          "internalType": "address",
          "name": "",
          "type": "address"
        }
      ],
      "stateMutability": "view",
      "type": "function"
    },
    {
      "inputs": [],
      "name": "eth",
      "outputs": [
        {
          "internalType": "address",
          "name": "",
          "type": "address"
        }
      ],
      "stateMutability": "view",
      "type": "function"
    },
    {
      "inputs": [],
      "name": "ethBnb",
      "outputs": [
        {
          "internalType": "address",
          "name": "",
          "type": "address"
        }
      ],
      "stateMutability": "view",
      "type": "function"
    },
    {
      "inputs": [],
      "name": "favorPrimaryPrice",
      "outputs": [
        {
          "internalType": "bool",
          "name": "",
          "type": "bool"
        }
      ],
      "stateMutability": "view",
      "type": "function"
    },
    {
      "inputs": [
        {
          "internalType": "address",
          "name": "_token",
          "type": "address"
        }
      ],
      "name": "getAmmPrice",
      "outputs": [
        {
          "internalType": "uint256",
          "name": "",
          "type": "uint256"
        }
      ],
      "stateMutability": "view",
      "type": "function"
    },
    {
      "inputs": [
        {
          "internalType": "address",
          "name": "_token",
          "type": "address"
        },
        {
          "internalType": "bool",
          "name": "_maximise",
          "type": "bool"
        },
        {
          "internalType": "uint256",
          "name": "_primaryPrice",
          "type": "uint256"
        }
      ],
      "name": "getAmmPriceV2",
      "outputs": [
        {
          "internalType": "uint256",
          "name": "",
          "type": "uint256"
        }
      ],
      "stateMutability": "view",
      "type": "function"
    },
    {
      "inputs": [
        {
          "internalType": "address",
          "name": "_token",
          "type": "address"
        }
      ],
      "name": "getLatestPrimaryPrice",
      "outputs": [
        {
          "internalType": "uint256",
          "name": "",
          "type": "uint256"
        }
      ],
      "stateMutability": "view",
      "type": "function"
    },
    {
      "inputs": [
        {
          "internalType": "address",
          "name": "_pair",
          "type": "address"
        },
        {
          "internalType": "bool",
          "name": "_divByReserve0",
          "type": "bool"
        }
      ],
      "name": "getPairPrice",
      "outputs": [
        {
          "internalType": "uint256",
          "name": "",
          "type": "uint256"
        }
      ],
      "stateMutability": "view",
      "type": "function"
    },
    {
      "inputs": [
        {
          "internalType": "address",
          "name": "_token",
          "type": "address"
        },
        {
          "internalType": "bool",
          "name": "_maximise",
          "type": "bool"
        },
        {
          "internalType": "bool",
          "name": "_includeAmmPrice",
          "type": "bool"
        },
        {
          "internalType": "bool",
          "name": "",
          "type": "bool"
        }
      ],
      "name": "getPrice",
      "outputs": [
        {
          "internalType": "uint256",
          "name": "",
          "type": "uint256"
        }
      ],
      "stateMutability": "view",
      "type": "function"
    },
    {
      "inputs": [
        {
          "internalType": "address",
          "name": "_token",
          "type": "address"
        },
        {
          "internalType": "bool",
          "name": "_maximise",
          "type": "bool"
        },
        {
          "internalType": "bool",
          "name": "_includeAmmPrice",
          "type": "bool"
        }
      ],
      "name": "getPriceV1",
      "outputs": [
        {
          "internalType": "uint256",
          "name": "",
          "type": "uint256"
        }
      ],
      "stateMutability": "view",
      "type": "function"
    },
    {
      "inputs": [
        {
          "internalType": "address",
          "name": "_token",
          "type": "address"
        },
        {
          "internalType": "bool",
          "name": "_maximise",
          "type": "bool"
        },
        {
          "internalType": "bool",
          "name": "_includeAmmPrice",
          "type": "bool"
        }
      ],
      "name": "getPriceV2",
      "outputs": [
        {
          "internalType": "uint256",
          "name": "",
          "type": "uint256"
        }
      ],
      "stateMutability": "view",
      "type": "function"
    },
    {
      "inputs": [
        {
          "internalType": "address",
          "name": "_token",
          "type": "address"
        },
        {
          "internalType": "bool",
          "name": "_maximise",
          "type": "bool"
        }
      ],
      "name": "getPrimaryPrice",
      "outputs": [
        {
          "internalType": "uint256",
          "name": "",
          "type": "uint256"
        }
      ],
      "stateMutability": "view",
      "type": "function"
    },
    {
      "inputs": [
        {
          "internalType": "address",
          "name": "_token",
          "type": "address"
        },
        {
          "internalType": "uint256",
          "name": "_referencePrice",
          "type": "uint256"
        },
        {
          "internalType": "bool",
          "name": "_maximise",
          "type": "bool"
        }
      ],
      "name": "getSecondaryPrice",
      "outputs": [
        {
          "internalType": "uint256",
          "name": "",
          "type": "uint256"
        }
      ],
      "stateMutability": "view",
      "type": "function"
    },
    {
      "inputs": [],
      "name": "gov",
      "outputs": [
        {
          "internalType": "address",
          "name": "",
          "type": "address"
        }
      ],
      "stateMutability": "view",
      "type": "function"
    },
    {
      "inputs": [
        {
          "internalType": "address",
          "name": "",
          "type": "address"
        }
      ],
      "name": "isAdjustmentAdditive",
      "outputs": [
        {
          "internalType": "bool",
          "name": "",
          "type": "bool"
        }
      ],
      "stateMutability": "view",
      "type": "function"
    },
    {
      "inputs": [],
      "name": "isAmmEnabled",
      "outputs": [
        {
          "internalType": "bool",
          "name": "",
          "type": "bool"
        }
      ],
      "stateMutability": "view",
      "type": "function"
    },
    {
      "inputs": [],
      "name": "isSecondaryPriceEnabled",
      "outputs": [
        {
          "internalType": "bool",
          "name": "",
          "type": "bool"
        }
      ],
      "stateMutability": "view",
      "type": "function"
    },
    {
      "inputs": [
        {
          "internalType": "address",
          "name": "",
          "type": "address"
        }
      ],
      "name": "lastAdjustmentTimings",
      "outputs": [
        {
          "internalType": "uint256",
          "name": "",
          "type": "uint256"
        }
      ],
      "stateMutability": "view",
      "type": "function"
    },
    {
      "inputs": [],
      "name": "maxStrictPriceDeviation",
      "outputs": [
        {
          "internalType": "uint256",
          "name": "",
          "type": "uint256"
        }
      ],
      "stateMutability": "view",
      "type": "function"
    },
    {
      "inputs": [
        {
          "internalType": "address",
          "name": "",
          "type": "address"
        }
      ],
      "name": "priceDecimals",
      "outputs": [
        {
          "internalType": "uint256",
          "name": "",
          "type": "uint256"
        }
      ],
      "stateMutability": "view",
      "type": "function"
    },
    {
      "inputs": [
        {
          "internalType": "address",
          "name": "",
          "type": "address"
        }
      ],
      "name": "priceFeeds",
      "outputs": [
        {
          "internalType": "address",
          "name": "",
          "type": "address"
        }
      ],
      "stateMutability": "view",
      "type": "function"
    },
    {
      "inputs": [],
      "name": "priceSampleSpace",
      "outputs": [
        {
          "internalType": "uint256",
          "name": "",
          "type": "uint256"
        }
      ],
      "stateMutability": "view",
      "type": "function"
    },
    {
      "inputs": [],
      "name": "secondaryPriceFeed",
      "outputs": [
        {
          "internalType": "address",
          "name": "",
          "type": "address"
        }
      ],
      "stateMutability": "view",
      "type": "function"
    },
    {
      "inputs": [
        {
          "internalType": "address",
          "name": "_token",
          "type": "address"
        },
        {
          "internalType": "bool",
          "name": "_isAdditive",
          "type": "bool"
        },
        {
          "internalType": "uint256",
          "name": "_adjustmentBps",
          "type": "uint256"
        }
      ],
      "name": "setAdjustment",
      "outputs": [],
      "stateMutability": "nonpayable",
      "type": "function"
    },
    {
      "inputs": [
        {
          "internalType": "address",
          "name": "_chainlinkFlags",
          "type": "address"
        }
      ],
      "name": "setChainlinkFlags",
      "outputs": [],
      "stateMutability": "nonpayable",
      "type": "function"
    },
    {
      "inputs": [
        {
          "internalType": "bool",
          "name": "_favorPrimaryPrice",
          "type": "bool"
        }
      ],
      "name": "setFavorPrimaryPrice",
      "outputs": [],
      "stateMutability": "nonpayable",
      "type": "function"
    },
    {
      "inputs": [
        {
          "internalType": "address",
          "name": "_gov",
          "type": "address"
        }
      ],
      "name": "setGov",
      "outputs": [],
      "stateMutability": "nonpayable",
      "type": "function"
    },
    {
      "inputs": [
        {
          "internalType": "bool",
          "name": "_isEnabled",
          "type": "bool"
        }
      ],
      "name": "setIsAmmEnabled",
      "outputs": [],
      "stateMutability": "nonpayable",
      "type": "function"
    },
    {
      "inputs": [
        {
          "internalType": "bool",
          "name": "_isEnabled",
          "type": "bool"
        }
      ],
      "name": "setIsSecondaryPriceEnabled",
      "outputs": [],
      "stateMutability": "nonpayable",
      "type": "function"
    },
    {
      "inputs": [
        {
          "internalType": "uint256",
          "name": "_maxStrictPriceDeviation",
          "type": "uint256"
        }
      ],
      "name": "setMaxStrictPriceDeviation",
      "outputs": [],
      "stateMutability": "nonpayable",
      "type": "function"
    },
    {
      "inputs": [
        {
          "internalType": "address",
          "name": "_bnbBusd",
          "type": "address"
        },
        {
          "internalType": "address",
          "name": "_ethBnb",
          "type": "address"
        },
        {
          "internalType": "address",
          "name": "_btcBnb",
          "type": "address"
        }
      ],
      "name": "setPairs",
      "outputs": [],
      "stateMutability": "nonpayable",
      "type": "function"
    },
    {
      "inputs": [
        {
          "internalType": "uint256",
          "name": "_priceSampleSpace",
          "type": "uint256"
        }
      ],
      "name": "setPriceSampleSpace",
      "outputs": [],
      "stateMutability": "nonpayable",
      "type": "function"
    },
    {
      "inputs": [
        {
          "internalType": "address",
          "name": "_secondaryPriceFeed",
          "type": "address"
        }
      ],
      "name": "setSecondaryPriceFeed",
      "outputs": [],
      "stateMutability": "nonpayable",
      "type": "function"
    },
    {
      "inputs": [
        {
          "internalType": "address",
          "name": "_token",
          "type": "address"
        },
        {
          "internalType": "uint256",
          "name": "_spreadBasisPoints",
          "type": "uint256"
        }
      ],
      "name": "setSpreadBasisPoints",
      "outputs": [],
      "stateMutability": "nonpayable",
      "type": "function"
    },
    {
      "inputs": [
        {
          "internalType": "uint256",
          "name": "_spreadThresholdBasisPoints",
          "type": "uint256"
        }
      ],
      "name": "setSpreadThresholdBasisPoints",
      "outputs": [],
      "stateMutability": "nonpayable",
      "type": "function"
    },
    {
      "inputs": [
        {
          "internalType": "address",
          "name": "_token",
          "type": "address"
        },
        {
          "internalType": "address",
          "name": "_priceFeed",
          "type": "address"
        },
        {
          "internalType": "uint256",
          "name": "_priceDecimals",
          "type": "uint256"
        },
        {
          "internalType": "bool",
          "name": "_isStrictStable",
          "type": "bool"
        }
      ],
      "name": "setTokenConfig",
      "outputs": [],
      "stateMutability": "nonpayable",
      "type": "function"
    },
    {
      "inputs": [
        {
          "internalType": "address",
          "name": "_btc",
          "type": "address"
        },
        {
          "internalType": "address",
          "name": "_eth",
          "type": "address"
        },
        {
          "internalType": "address",
          "name": "_bnb",
          "type": "address"
        }
      ],
      "name": "setTokens",
      "outputs": [],
      "stateMutability": "nonpayable",
      "type": "function"
    },
    {
      "inputs": [
        {
          "internalType": "bool",
          "name": "_useV2Pricing",
          "type": "bool"
        }
      ],
      "name": "setUseV2Pricing",
      "outputs": [],
      "stateMutability": "nonpayable",
      "type": "function"
    },
    {
      "inputs": [
        {
          "internalType": "address",
          "name": "",
          "type": "address"
        }
      ],
      "name": "spreadBasisPoints",
      "outputs": [
        {
          "internalType": "uint256",
          "name": "",
          "type": "uint256"
        }
      ],
      "stateMutability": "view",
      "type": "function"
    },
    {
      "inputs": [],
      "name": "spreadThresholdBasisPoints",
      "outputs": [
        {
          "internalType": "uint256",
          "name": "",
          "type": "uint256"
        }
      ],
      "stateMutability": "view",
      "type": "function"
    },
    {
      "inputs": [
        {
          "internalType": "address",
          "name": "",
          "type": "address"
        }
      ],
      "name": "strictStableTokens",
      "outputs": [
        {
          "internalType": "bool",
          "name": "",
          "type": "bool"
        }
      ],
      "stateMutability": "view",
      "type": "function"
    },
    {
      "inputs": [],
      "name": "useV2Pricing",
      "outputs": [
        {
          "internalType": "bool",
          "name": "",
          "type": "bool"
        }
      ],
      "stateMutability": "view",
      "type": "function"
    }
  ],
  "transactionHash": "0xbcb0f4031d47a5e7be25cec2cb7e17127dbb904a31cb2788b1add76aaeeb8c04",
  "args": [],
  "numDeployments": 1,
  "solcInputHash": "1fb095c2a8736afe292bad1aa4a33281",
  "bytecode": "0x6080604052601e600090815560036001818155600292909255805463ffff00001961ff001960ff19909216909317166101001791909116905534801561004457600080fd5b5060038054600160201b600160c01b031916336401000000000217905561259b806100706000396000f3fe608060405234801561001057600080fd5b50600436106102255760003560e01c80631193c8091461022a57806312d43a511461024e5780632fa03b8f146102565780632fbfe3d3146102755780632fc3a70a1461029257806330536ee5146102e2578063378e7bf7146102fe5780633d949c5f146103065780633eba8d361461033c5780633ebbc601146103705780633f0c3bb714610378578063443be2091461038057806348cac277146103b857806349a876e4146103de5780634b9ade47146103e657806356bf9de41461042457806356c8c2c11461044a578063593d9e8014610478578063604f37e9146104805780636ce8a44b1461049f5780636fc80708146104c5578063717cfe7a146104cd578063732391b4146104f3578063826e055f146105295780638b86616c1461054f5780638c7c9e0c1461055757806393f690741461055f578063971bd3961461059757806397dfade71461059f5780639917dc74146105a75780639a0a6635146105c65780639b889380146105ec5780639dcb511a14610618578063a27ea3861461063e578063a28d57d814610664578063a2ad7b931461066c578063a39c73a31461069a578063b02a2de4146106a2578063b731dd87146106d6578063b8f61105146106f3578063c2138d8c14610719578063cefe0f211461073f578063cfad57a214610765578063d694376c1461078b578063e4440e02146107bf578063eb1c92a9146107c7578063fd34ec40146107e6575b600080fd5b610232610805565b604080516001600160a01b039092168252519081900360200190f35b610232610814565b6102736004803603602081101561026c57600080fd5b503561082a565b005b6102736004803603602081101561028b57600080fd5b503561095a565b6102d0600480360360808110156102a857600080fd5b506001600160a01b0381351690602081013515159060408101351515906060013515156109e3565b60408051918252519081900360200190f35b6102ea610aa0565b604080519115158252519081900360200190f35b6102d0610aaf565b6102d06004803603606081101561031c57600080fd5b506001600160a01b03813516906020810135151590604001351515610ab5565b6102d06004803603606081101561035257600080fd5b506001600160a01b0381351690602081013590604001351515610c80565b6102ea610d2a565b6102ea610d38565b6102736004803603606081101561039657600080fd5b506001600160a01b038135811691602081013582169160409091013516610d41565b6102d0600480360360208110156103ce57600080fd5b50356001600160a01b0316610e04565b610232610e16565b610273600480360360808110156103fc57600080fd5b506001600160a01b038135811691602081013590911690604081013590606001351515610e25565b6102d06004803603602081101561043a57600080fd5b50356001600160a01b0316610efe565b6102d06004803603604081101561046057600080fd5b506001600160a01b0381351690602001351515611070565b6102ea611586565b6102736004803603602081101561049657600080fd5b50351515611596565b6102ea600480360360208110156104b557600080fd5b50356001600160a01b0316611638565b6102d061164d565b6102d0600480360360208110156104e357600080fd5b50356001600160a01b0316611653565b6102d06004803603606081101561050957600080fd5b506001600160a01b03813516906020810135151590604001351515611665565b6102736004803603602081101561053f57600080fd5b50356001600160a01b03166116b1565b610232611757565b610232611766565b6102736004803603606081101561057557600080fd5b506001600160a01b038135811691602081013582169160409091013516611775565b610232611838565b610232611847565b610273600480360360208110156105bd57600080fd5b50351515611856565b610273600480360360208110156105dc57600080fd5b50356001600160a01b03166118ed565b6102736004803603604081101561060257600080fd5b506001600160a01b038135169060200135611993565b6102326004803603602081101561062e57600080fd5b50356001600160a01b0316611a9e565b6102d06004803603602081101561065457600080fd5b50356001600160a01b0316611ab9565b610232611acb565b6102d06004803603604081101561068257600080fd5b506001600160a01b0381351690602001351515611ada565b6102d0611bc7565b6102d0600480360360608110156106b857600080fd5b506001600160a01b0381351690602081013515159060400135611bcd565b610273600480360360208110156106ec57600080fd5b5035611c95565b6102ea6004803603602081101561070957600080fd5b50356001600160a01b0316611d1e565b6102d06004803603602081101561072f57600080fd5b50356001600160a01b0316611d33565b6102d06004803603602081101561075557600080fd5b50356001600160a01b0316611e31565b6102736004803603602081101561077b57600080fd5b50356001600160a01b0316611e43565b610273600480360360608110156107a157600080fd5b506001600160a01b0381351690602081013515159060400135611ef3565b6102326120b4565b610273600480360360208110156107dd57600080fd5b503515156120c3565b610273600480360360208110156107fc57600080fd5b50351515612161565b600a546001600160a01b031681565b600354600160201b90046001600160a01b031681565b60035460408051808201909152601981526000805160206124b5833981519152602082015290600160201b90046001600160a01b031633146108ea5760405162461bcd60e51b81526004018080602001828103825283818151815260200191508051906020019080838360005b838110156108af578181015183820152602001610897565b50505050905090810190601f1680156108dc5780820380516001836020036101000a031916815260200191505b509250505060405180910390fd5b50600081116040518060600160405280602981526020016123f360299139906109545760405162461bcd60e51b81526020600482018181528351602484015283519092839260449091019190850190808383600083156108af578181015183820152602001610897565b50600155565b60035460408051808201909152601981526000805160206124b5833981519152602082015290600160201b90046001600160a01b031633146109dd5760405162461bcd60e51b81526020600482018181528351602484015283519092839260449091019190850190808383600083156108af578181015183820152602001610897565b50600255565b600354600090819062010000900460ff16610a0857610a03868686610ab5565b610a13565b610a13868686611665565b6001600160a01b0387166000908152601060205260409020549091508015610a96576001600160a01b03871660009081526011602052604090205460ff168015610a7e57610a77612710610a71610a6a8286612201565b8690612259565b906122b2565b9250610a94565b610a91612710610a71610a6a82866122f1565b92505b505b5095945050505050565b60035462010000900460ff1681565b60025481565b600080610ac28585611070565b9050828015610ad3575060035460ff165b15610b18576000610ae386611d33565b90508015610b1657848015610af757508181115b15610b00578091505b84158015610b0d57508181105b15610b16578091505b505b600354610100900460ff1615610b3657610b33858286610c80565b90505b6001600160a01b0385166000908152600f602052604090205460ff1615610c1f57600068327cb2734119d3b7a9601e1b8211610b8757610b8268327cb2734119d3b7a9601e1b836122f1565b610b9d565b610b9d8268327cb2734119d3b7a9601e1b6122f1565b90506002548111610bbe5768327cb2734119d3b7a9601e1b92505050610c79565b848015610bd6575068327cb2734119d3b7a9601e1b82115b15610be357509050610c79565b84158015610bfc575068327cb2734119d3b7a9601e1b82105b15610c0957509050610c79565b68327cb2734119d3b7a9601e1b92505050610c79565b6001600160a01b0385166000908152600e60205260409020548415610c6157610c58612710610a71610c518285612201565b8590612259565b92505050610c79565b610c74612710610a71610c5182856122f1565b925050505b9392505050565b6005546000906001600160a01b0316610c9a575081610c79565b60055460408051630ffd9c6d60e31b81526001600160a01b03878116600483015260248201879052851515604483015291519190921691637fece368916064808301926020929190829003018186803b158015610cf657600080fd5b505afa158015610d0a573d6000803e3d6000fd5b505050506040513d6020811015610d2057600080fd5b5051949350505050565b600354610100900460ff1681565b60035460ff1681565b60035460408051808201909152601981526000805160206124b5833981519152602082015290600160201b90046001600160a01b03163314610dc45760405162461bcd60e51b81526020600482018181528351602484015283519092839260449091019190850190808383600083156108af578181015183820152602001610897565b50600680546001600160a01b039485166001600160a01b031991821617909155600780549385169382169390931790925560088054919093169116179055565b60106020526000908152604090205481565b6008546001600160a01b031681565b60035460408051808201909152601981526000805160206124b5833981519152602082015290600160201b90046001600160a01b03163314610ea85760405162461bcd60e51b81526020600482018181528351602484015283519092839260449091019190850190808383600083156108af578181015183820152602001610897565b506001600160a01b039384166000908152600c6020908152604080832080546001600160a01b0319169690971695909517909555600d855283812092909255600f90935220805460ff1916911515919091179055565b6001600160a01b038082166000908152600c6020908152604080832054815160608101909252602280835293941692831515926125449083013990610f845760405162461bcd60e51b81526020600482018181528351602484015283519092839260449091019190850190808383600083156108af578181015183820152602001610897565b5060008190506000816001600160a01b03166350d25bcd6040518163ffffffff1660e01b815260040160206040518083038186803b158015610fc557600080fd5b505afa158015610fd9573d6000803e3d6000fd5b505050506040513d6020811015610fef57600080fd5b505160408051808201909152601d81526000805160206125248339815191526020820152909150600082136110655760405162461bcd60e51b81526020600482018181528351602484015283519092839260449091019190850190808383600083156108af578181015183820152602001610897565b50925050505b919050565b6001600160a01b038083166000908152600c60209081526040808320548151606081019092526022808352939416928315159261254490830139906110f65760405162461bcd60e51b81526020600482018181528351602484015283519092839260449091019190850190808383600083156108af578181015183820152602001610897565b506004546001600160a01b031615611201576004805460408051631abf23ff60e11b815273a438451d6458044c3c8cd2f6f31c91ac882a6d9193810193909352516000926001600160a01b039092169163357e47fe916024808301926020929190829003018186803b15801561116b57600080fd5b505afa15801561117f573d6000803e3d6000fd5b505050506040513d602081101561119557600080fd5b5051905080156111ff576040518060600160405280602581526020016124d56025913960405162461bcd60e51b81526020600482018181528351602484015283519092839260449091019190850190808383600083156108af578181015183820152602001610897565b505b6000819050600080826001600160a01b031663668a0f026040518163ffffffff1660e01b815260040160206040518083038186803b15801561124257600080fd5b505afa158015611256573d6000803e3d6000fd5b505050506040513d602081101561126c57600080fd5b5051905060005b600154816001600160501b031610156114d657806001600160501b0316826001600160501b0316116112a4576114d6565b60006001600160501b038216611397576000856001600160a01b03166350d25bcd6040518163ffffffff1660e01b815260040160206040518083038186803b1580156112ef57600080fd5b505afa158015611303573d6000803e3d6000fd5b505050506040513d602081101561131957600080fd5b505160408051808201909152601d815260008051602061252483398151915260208201529091506000821361138f5760405162461bcd60e51b81526020600482018181528351602484015283519092839260449091019190850190808383600083156108af578181015183820152602001610897565b509050611492565b6000856001600160a01b0316639a6fc8f58486036040518263ffffffff1660e01b815260040180826001600160501b0316815260200191505060a06040518083038186803b1580156113e857600080fd5b505afa1580156113fc573d6000803e3d6000fd5b505050506040513d60a081101561141257600080fd5b5060209081015160408051808201909152601d81526000805160206125248339815191529281019290925291506000821361148e5760405162461bcd60e51b81526020600482018181528351602484015283519092839260449091019190850190808383600083156108af578181015183820152602001610897565b5090505b8361149e5792506114ce565b8780156114aa57508381115b156114b65792506114ce565b871580156114c357508381105b156114cc578093505b505b600101611273565b506000821160405180606001604052806025815260200161241c60259139906115405760405162461bcd60e51b81526020600482018181528351602484015283519092839260449091019190850190808383600083156108af578181015183820152602001610897565b506001600160a01b0387166000908152600d6020526040902054611578600a82900a610a718568327cb2734119d3b7a9601e1b612259565b955050505050505b92915050565b6003546301000000900460ff1681565b60035460408051808201909152601981526000805160206124b5833981519152602082015290600160201b90046001600160a01b031633146116195760405162461bcd60e51b81526020600482018181528351602484015283519092839260449091019190850190808383600083156108af578181015183820152602001610897565b506003805491151563010000000263ff00000019909216919091179055565b60116020526000908152604090205460ff1681565b60015481565b60126020526000908152604090205481565b6000806116728585611070565b9050828015611683575060035460ff165b15610b1857611693858583611bcd565b905060035460ff6101009091041615610b3657610b33858286610c80565b60035460408051808201909152601981526000805160206124b5833981519152602082015290600160201b90046001600160a01b031633146117345760405162461bcd60e51b81526020600482018181528351602484015283519092839260449091019190850190808383600083156108af578181015183820152602001610897565b50600480546001600160a01b0319166001600160a01b0392909216919091179055565b6005546001600160a01b031681565b6007546001600160a01b031681565b60035460408051808201909152601981526000805160206124b5833981519152602082015290600160201b90046001600160a01b031633146117f85760405162461bcd60e51b81526020600482018181528351602484015283519092839260449091019190850190808383600083156108af578181015183820152602001610897565b50600980546001600160a01b039485166001600160a01b031991821617909155600a805493851693821693909317909255600b8054919093169116179055565b600b546001600160a01b031681565b6009546001600160a01b031681565b60035460408051808201909152601981526000805160206124b5833981519152602082015290600160201b90046001600160a01b031633146118d95760405162461bcd60e51b81526020600482018181528351602484015283519092839260449091019190850190808383600083156108af578181015183820152602001610897565b506003805460ff1916911515919091179055565b60035460408051808201909152601981526000805160206124b5833981519152602082015290600160201b90046001600160a01b031633146119705760405162461bcd60e51b81526020600482018181528351602484015283519092839260449091019190850190808383600083156108af578181015183820152602001610897565b50600580546001600160a01b0319166001600160a01b0392909216919091179055565b60035460408051808201909152601981526000805160206124b5833981519152602082015290600160201b90046001600160a01b03163314611a165760405162461bcd60e51b81526020600482018181528351602484015283519092839260449091019190850190808383600083156108af578181015183820152602001610897565b5060328111156040518060600160405280602a81526020016124fa602a913990611a815760405162461bcd60e51b81526020600482018181528351602484015283519092839260449091019190850190808383600083156108af578181015183820152602001610897565b506001600160a01b039091166000908152600e6020526040902055565b600c602052600090815260409020546001600160a01b031681565b600e6020526000908152604090205481565b6006546001600160a01b031681565b6000806000846001600160a01b0316630902f1ac6040518163ffffffff1660e01b815260040160606040518083038186803b158015611b1857600080fd5b505afa158015611b2c573d6000803e3d6000fd5b505050506040513d6060811015611b4257600080fd5b5080516020909101516001600160701b0391821693501690508315611b945781611b7157600092505050611580565b611b8b82610a718368327cb2734119d3b7a9601e1b612259565b92505050611580565b80611ba457600092505050611580565b611bbe81610a718468327cb2734119d3b7a9601e1b612259565b95945050505050565b60005481565b600080611bd985611d33565b905080611be95782915050610c79565b6000838211611c0157611bfc84836122f1565b611c0b565b611c0b82856122f1565b9050611c226000548561225990919063ffffffff16565b611c2e82612710612259565b1015611c58576003546301000000900460ff1615611c50578392505050610c79565b509050610c79565b848015611c6457508382115b15611c7157509050610c79565b84158015611c7e57508382105b15611c8b57509050610c79565b5091949350505050565b60035460408051808201909152601981526000805160206124b5833981519152602082015290600160201b90046001600160a01b03163314611d185760405162461bcd60e51b81526020600482018181528351602484015283519092839260449091019190850190808383600083156108af578181015183820152602001610897565b50600055565b600f6020526000908152604090205460ff1681565b6008546000906001600160a01b0383811691161415611d6a57600954611d63906001600160a01b03166001611ada565b905061106b565b6007546001600160a01b0383811691161415611ddc57600954600090611d9a906001600160a01b03166001611ada565b600a54909150600090611db7906001600160a01b03166001611ada565b9050611dd368327cb2734119d3b7a9601e1b610a718484612259565b9250505061106b565b6006546001600160a01b0383811691161415611e2957600954600090611e0c906001600160a01b03166001611ada565b600b54909150600090611db7906001600160a01b03166001611ada565b506000919050565b600d6020526000908152604090205481565b60035460408051808201909152601981526000805160206124b5833981519152602082015290600160201b90046001600160a01b03163314611ec65760405162461bcd60e51b81526020600482018181528351602484015283519092839260449091019190850190808383600083156108af578181015183820152602001610897565b50600380546001600160a01b03909216600160201b02600160201b600160c01b0319909216919091179055565b60035460408051808201909152601981526000805160206124b5833981519152602082015290600160201b90046001600160a01b03163314611f765760405162461bcd60e51b81526020600482018181528351602484015283519092839260449091019190850190808383600083156108af578181015183820152602001610897565b506001600160a01b0383166000908152601260205260409020544290611f9e90611c20612201565b106040518060600160405280602d8152602001612488602d9139906120045760405162461bcd60e51b81526020600482018181528351602484015283519092839260449091019190850190808383600083156108af578181015183820152602001610897565b506014811115604051806060016040528060268152602001612441602691399061206f5760405162461bcd60e51b81526020600482018181528351602484015283519092839260449091019190850190808383600083156108af578181015183820152602001610897565b506001600160a01b03929092166000908152601160209081526040808320805460ff191694151594909417909355601081528282209390935560129092529020429055565b6004546001600160a01b031681565b60035460408051808201909152601981526000805160206124b5833981519152602082015290600160201b90046001600160a01b031633146121465760405162461bcd60e51b81526020600482018181528351602484015283519092839260449091019190850190808383600083156108af578181015183820152602001610897565b50600380549115156101000261ff0019909216919091179055565b60035460408051808201909152601981526000805160206124b5833981519152602082015290600160201b90046001600160a01b031633146121e45760405162461bcd60e51b81526020600482018181528351602484015283519092839260449091019190850190808383600083156108af578181015183820152602001610897565b5060038054911515620100000262ff000019909216919091179055565b600082820183811015610c79576040805162461bcd60e51b815260206004820152601b60248201527a536166654d6174683a206164646974696f6e206f766572666c6f7760281b604482015290519081900360640190fd5b60008261226857506000611580565b8282028284828161227557fe5b0414610c795760405162461bcd60e51b81526004018080602001828103825260218152602001806124676021913960400191505060405180910390fd5b6000610c7983836040518060400160405280601a815260200179536166654d6174683a206469766973696f6e206279207a65726f60301b815250612333565b6000610c7983836040518060400160405280601e81526020017f536166654d6174683a207375627472616374696f6e206f766572666c6f770000815250612398565b600081836123825760405162461bcd60e51b81526020600482018181528351602484015283519092839260449091019190850190808383600083156108af578181015183820152602001610897565b50600083858161238e57fe5b0495945050505050565b600081848411156123ea5760405162461bcd60e51b81526020600482018181528351602484015283519092839260449091019190850190808383600083156108af578181015183820152602001610897565b50505090039056fe5661756c745072696365466565643a20696e76616c6964205f707269636553616d706c6553706163655661756c745072696365466565643a20636f756c64206e6f742066657463682070726963655661756c747072696365666565643a20696e76616c6964205f61646a7573746d656e74427073536166654d6174683a206d756c7469706c69636174696f6e206f766572666c6f775661756c745072696365466565643a2061646a7573746d656e74206672657175656e63792065786365656465645661756c745072696365466565643a20666f7262696464656e00000000000000436861696e6c696e6b20666565647320617265206e6f74206265696e6720757064617465645661756c745072696365466565643a20696e76616c6964205f7370726561644261736973506f696e74735661756c745072696365466565643a20696e76616c69642070726963650000005661756c745072696365466565643a20696e76616c69642070726963652066656564a2646970667358221220781125aeaf56976f87649c8f2ad22247f4ab34866d9c3a6fbe3221250eaf4ed164736f6c634300060c0033",
  "devdoc": {
    "kind": "dev",
    "methods": {},
    "version": 1
  },
  "userdoc": {
    "kind": "user",
    "methods": {},
    "version": 1
  },
  "storageLayout": {
    "storage": [
      {
        "astId": 12912,
        "contract": "contracts/core/VaultPriceFeed.sol:VaultPriceFeed",
        "label": "spreadThresholdBasisPoints",
        "offset": 0,
        "slot": "0",
        "type": "t_uint256"
      },
      {
        "astId": 12915,
        "contract": "contracts/core/VaultPriceFeed.sol:VaultPriceFeed",
        "label": "priceSampleSpace",
        "offset": 0,
        "slot": "1",
        "type": "t_uint256"
      },
      {
        "astId": 12918,
        "contract": "contracts/core/VaultPriceFeed.sol:VaultPriceFeed",
        "label": "maxStrictPriceDeviation",
        "offset": 0,
        "slot": "2",
        "type": "t_uint256"
      },
      {
        "astId": 12921,
        "contract": "contracts/core/VaultPriceFeed.sol:VaultPriceFeed",
        "label": "isAmmEnabled",
        "offset": 0,
        "slot": "3",
        "type": "t_bool"
      },
      {
        "astId": 12924,
        "contract": "contracts/core/VaultPriceFeed.sol:VaultPriceFeed",
        "label": "isSecondaryPriceEnabled",
        "offset": 1,
        "slot": "3",
        "type": "t_bool"
      },
      {
        "astId": 12927,
        "contract": "contracts/core/VaultPriceFeed.sol:VaultPriceFeed",
        "label": "useV2Pricing",
        "offset": 2,
        "slot": "3",
        "type": "t_bool"
      },
      {
        "astId": 12930,
        "contract": "contracts/core/VaultPriceFeed.sol:VaultPriceFeed",
        "label": "favorPrimaryPrice",
        "offset": 3,
        "slot": "3",
        "type": "t_bool"
      },
      {
        "astId": 12932,
        "contract": "contracts/core/VaultPriceFeed.sol:VaultPriceFeed",
        "label": "gov",
        "offset": 4,
        "slot": "3",
        "type": "t_address"
      },
      {
        "astId": 12934,
        "contract": "contracts/core/VaultPriceFeed.sol:VaultPriceFeed",
        "label": "chainlinkFlags",
        "offset": 0,
        "slot": "4",
        "type": "t_address"
      },
      {
        "astId": 12936,
        "contract": "contracts/core/VaultPriceFeed.sol:VaultPriceFeed",
        "label": "secondaryPriceFeed",
        "offset": 0,
        "slot": "5",
        "type": "t_address"
      },
      {
        "astId": 12938,
        "contract": "contracts/core/VaultPriceFeed.sol:VaultPriceFeed",
        "label": "btc",
        "offset": 0,
        "slot": "6",
        "type": "t_address"
      },
      {
        "astId": 12940,
        "contract": "contracts/core/VaultPriceFeed.sol:VaultPriceFeed",
        "label": "eth",
        "offset": 0,
        "slot": "7",
        "type": "t_address"
      },
      {
        "astId": 12942,
        "contract": "contracts/core/VaultPriceFeed.sol:VaultPriceFeed",
        "label": "bnb",
        "offset": 0,
        "slot": "8",
        "type": "t_address"
      },
      {
        "astId": 12944,
        "contract": "contracts/core/VaultPriceFeed.sol:VaultPriceFeed",
        "label": "bnbBusd",
        "offset": 0,
        "slot": "9",
        "type": "t_address"
      },
      {
        "astId": 12946,
        "contract": "contracts/core/VaultPriceFeed.sol:VaultPriceFeed",
        "label": "ethBnb",
        "offset": 0,
        "slot": "10",
        "type": "t_address"
      },
      {
        "astId": 12948,
        "contract": "contracts/core/VaultPriceFeed.sol:VaultPriceFeed",
        "label": "btcBnb",
        "offset": 0,
        "slot": "11",
        "type": "t_address"
      },
      {
        "astId": 12952,
        "contract": "contracts/core/VaultPriceFeed.sol:VaultPriceFeed",
        "label": "priceFeeds",
        "offset": 0,
        "slot": "12",
        "type": "t_mapping(t_address,t_address)"
      },
      {
        "astId": 12956,
        "contract": "contracts/core/VaultPriceFeed.sol:VaultPriceFeed",
        "label": "priceDecimals",
        "offset": 0,
        "slot": "13",
        "type": "t_mapping(t_address,t_uint256)"
      },
      {
        "astId": 12960,
        "contract": "contracts/core/VaultPriceFeed.sol:VaultPriceFeed",
        "label": "spreadBasisPoints",
        "offset": 0,
        "slot": "14",
        "type": "t_mapping(t_address,t_uint256)"
      },
      {
        "astId": 12964,
        "contract": "contracts/core/VaultPriceFeed.sol:VaultPriceFeed",
        "label": "strictStableTokens",
        "offset": 0,
        "slot": "15",
        "type": "t_mapping(t_address,t_bool)"
      },
      {
        "astId": 12969,
        "contract": "contracts/core/VaultPriceFeed.sol:VaultPriceFeed",
        "label": "adjustmentBasisPoints",
        "offset": 0,
        "slot": "16",
        "type": "t_mapping(t_address,t_uint256)"
      },
      {
        "astId": 12974,
        "contract": "contracts/core/VaultPriceFeed.sol:VaultPriceFeed",
        "label": "isAdjustmentAdditive",
        "offset": 0,
        "slot": "17",
        "type": "t_mapping(t_address,t_bool)"
      },
      {
        "astId": 12978,
        "contract": "contracts/core/VaultPriceFeed.sol:VaultPriceFeed",
        "label": "lastAdjustmentTimings",
        "offset": 0,
        "slot": "18",
        "type": "t_mapping(t_address,t_uint256)"
      }
    ],
    "types": {
      "t_address": {
        "encoding": "inplace",
        "label": "address",
        "numberOfBytes": "20"
      },
      "t_bool": {
        "encoding": "inplace",
        "label": "bool",
        "numberOfBytes": "1"
      },
      "t_mapping(t_address,t_address)": {
        "encoding": "mapping",
        "key": "t_address",
        "label": "mapping(address => address)",
        "numberOfBytes": "32",
        "value": "t_address"
      },
      "t_mapping(t_address,t_bool)": {
        "encoding": "mapping",
        "key": "t_address",
        "label": "mapping(address => bool)",
        "numberOfBytes": "32",
        "value": "t_bool"
      },
      "t_mapping(t_address,t_uint256)": {
        "encoding": "mapping",
        "key": "t_address",
        "label": "mapping(address => uint256)",
        "numberOfBytes": "32",
        "value": "t_uint256"
      },
      "t_uint256": {
        "encoding": "inplace",
        "label": "uint256",
        "numberOfBytes": "32"
      }
    }
  }
}