{
  "address": "0xE6E340D132b5f46d1e472DebcD681B2aBc16e57E",
  "abi": [
    {
      "inputs": [],
      "stateMutability": "nonpayable",
      "type": "constructor"
    },
    {
      "inputs": [],
      "name": "aggregator",
      "outputs": [
        {
          "internalType": "address",
          "name": "",
          "type": "address"
        }
      ],
      "stateMutability": "view",
      "type": "function"
    },
    {
      "inputs": [],
      "name": "answer",
      "outputs": [
        {
          "internalType": "int256",
          "name": "",
          "type": "int256"
        }
      ],
      "stateMutability": "view",
      "type": "function"
    },
    {
      "inputs": [
        {
          "internalType": "uint80",
          "name": "",
          "type": "uint80"
        }
      ],
      "name": "answers",
      "outputs": [
        {
          "internalType": "int256",
          "name": "",
          "type": "int256"
        }
      ],
      "stateMutability": "view",
      "type": "function"
    },
    {
      "inputs": [],
      "name": "decimals",
      "outputs": [
        {
          "internalType": "uint256",
          "name": "",
          "type": "uint256"
        }
      ],
      "stateMutability": "view",
      "type": "function"
    },
    {
      "inputs": [],
      "name": "description",
      "outputs": [
        {
          "internalType": "string",
          "name": "",
          "type": "string"
        }
      ],
      "stateMutability": "view",
      "type": "function"
    },
    {
      "inputs": [
        {
          "internalType": "uint80",
          "name": "_roundId",
          "type": "uint80"
        }
      ],
      "name": "getRoundData",
      "outputs": [
        {
          "internalType": "uint80",
          "name": "",
          "type": "uint80"
        },
        {
          "internalType": "int256",
          "name": "",
          "type": "int256"
        },
        {
          "internalType": "uint256",
          "name": "",
          "type": "uint256"
        },
        {
          "internalType": "uint256",
          "name": "",
          "type": "uint256"
        },
        {
          "internalType": "uint80",
          "name": "",
          "type": "uint80"
        }
      ],
      "stateMutability": "view",
      "type": "function"
    },
    {
      "inputs": [],
      "name": "gov",
      "outputs": [
        {
          "internalType": "address",
          "name": "",
          "type": "address"
        }
      ],
      "stateMutability": "view",
      "type": "function"
    },
    {
      "inputs": [
        {
          "internalType": "address",
          "name": "",
          "type": "address"
        }
      ],
      "name": "isAdmin",
      "outputs": [
        {
          "internalType": "bool",
          "name": "",
          "type": "bool"
        }
      ],
      "stateMutability": "view",
      "type": "function"
    },
    {
      "inputs": [],
      "name": "latestAnswer",
      "outputs": [
        {
          "internalType": "int256",
          "name": "",
          "type": "int256"
        }
      ],
      "stateMutability": "view",
      "type": "function"
    },
    {
      "inputs": [],
      "name": "latestRound",
      "outputs": [
        {
          "internalType": "uint80",
          "name": "",
          "type": "uint80"
        }
      ],
      "stateMutability": "view",
      "type": "function"
    },
    {
      "inputs": [],
      "name": "roundId",
      "outputs": [
        {
          "internalType": "uint80",
          "name": "",
          "type": "uint80"
        }
      ],
      "stateMutability": "view",
      "type": "function"
    },
    {
      "inputs": [
        {
          "internalType": "address",
          "name": "_account",
          "type": "address"
        },
        {
          "internalType": "bool",
          "name": "_isAdmin",
          "type": "bool"
        }
      ],
      "name": "setAdmin",
      "outputs": [],
      "stateMutability": "nonpayable",
      "type": "function"
    },
    {
      "inputs": [
        {
          "internalType": "int256",
          "name": "_answer",
          "type": "int256"
        }
      ],
      "name": "setLatestAnswer",
      "outputs": [],
      "stateMutability": "nonpayable",
      "type": "function"
    }
  ],
  "transactionHash": "0x85d11db9fa14a79a611c8f07801b0ff0580a4c9b4a4729edbf3b11bda92b3447",
  "args": [],
  "numDeployments": 1,
  "solcInputHash": "1fb095c2a8736afe292bad1aa4a33281",
  "bytecode": "0x60c06040526009608081905268141c9a58d95199595960ba1b60a090815261002a916002919061006b565b5034801561003757600080fd5b50600580546001600160a01b031916339081179091556000908152600760205260409020805460ff191660011790556100fe565b828054600181600116156101000203166002900490600052602060002090601f016020900481019282601f106100ac57805160ff19168380011785556100d9565b828001600101855582156100d9579182015b828111156100d95782518255916020019190600101906100be565b506100e59291506100e9565b5090565b5b808211156100e557600081556001016100ea565b6105d58061010d6000396000f3fe608060405234801561001057600080fd5b50600436106100af5760003560e01c806304ea97b0146100b457806312d43a51146100d3578063245a7bfc146100f757806324d7806c146100ff578063313ce567146101395780634b0bddd2146101535780634c295ca31461018157806350d25bcd146101a7578063668a0f02146101af5780637284e416146101d357806385bb7d69146102505780638cd221c9146102585780639a6fc8f514610260575b600080fd5b6100d1600480360360208110156100ca57600080fd5b50356102ca565b005b6100db6103cd565b604080516001600160a01b039092168252519081900360200190f35b6100db6103dc565b6101256004803603602081101561011557600080fd5b50356001600160a01b03166103eb565b604080519115158252519081900360200190f35b610141610400565b60408051918252519081900360200190f35b6100d16004803603604081101561016957600080fd5b506001600160a01b0381351690602001351515610406565b6101416004803603602081101561019757600080fd5b50356001600160501b03166104b7565b6101416104c9565b6101b76104cf565b604080516001600160501b039092168252519081900360200190f35b6101db6104de565b6040805160208082528351818301528351919283929083019185019080838360005b838110156102155781810151838201526020016101fd565b50505050905090810190601f1680156102425780820380516001836020036101000a031916815260200191505b509250505060405180910390f35b610141610569565b6101b761056f565b6102866004803603602081101561027657600080fd5b50356001600160501b031661057e565b60405180866001600160501b03168152602001858152602001848152602001838152602001826001600160501b031681526020019550505050505060405180910390f35b336000908152600760209081526040918290205482518084019093526014835273283934b1b2a332b2b21d103337b93134b23232b760611b9183019190915260ff166103945760405162461bcd60e51b81526004018080602001828103825283818151815260200191508051906020019080838360005b83811015610359578181015183820152602001610341565b50505050905090810190601f1680156103865780820380516001836020036101000a031916815260200191505b509250505060405180910390fd5b50600180546001600160501b031981166001600160501b0391821683018216179182905560008381559116815260066020526040902055565b6005546001600160a01b031681565b6003546001600160a01b031681565b60076020526000908152604090205460ff1681565b60045481565b600554604080518082019091526014815273283934b1b2a332b2b21d103337b93134b23232b760611b6020820152906001600160a01b0316331461048b5760405162461bcd60e51b8152602060048201818152835160248401528351909283926044909101919085019080838360008315610359578181015183820152602001610341565b506001600160a01b03919091166000908152600760205260409020805460ff1916911515919091179055565b60066020526000908152604090205481565b60005490565b6001546001600160501b031690565b6002805460408051602060018416156101000260001901909316849004601f810184900484028201840190925281815292918301828280156105615780601f1061053657610100808354040283529160200191610561565b820191906000526020600020905b81548152906001019060200180831161054457829003601f168201915b505050505081565b60005481565b6001546001600160501b031681565b6001600160501b03811660009081526006602052604081205491928190819056fea2646970667358221220d20e3014508ddd1499efb56c04ec207ac4847a0f0c7ef2745994ec4939f37d4c64736f6c634300060c0033",
  "devdoc": {
    "kind": "dev",
    "methods": {},
    "version": 1
  },
  "userdoc": {
    "kind": "user",
    "methods": {},
    "version": 1
  },
  "storageLayout": {
    "storage": [
      {
        "astId": 16199,
        "contract": "contracts/oracle/PriceFeed.sol:PriceFeed",
        "label": "answer",
        "offset": 0,
        "slot": "0",
        "type": "t_int256"
      },
      {
        "astId": 16201,
        "contract": "contracts/oracle/PriceFeed.sol:PriceFeed",
        "label": "roundId",
        "offset": 0,
        "slot": "1",
        "type": "t_uint80"
      },
      {
        "astId": 16205,
        "contract": "contracts/oracle/PriceFeed.sol:PriceFeed",
        "label": "description",
        "offset": 0,
        "slot": "2",
        "type": "t_string_storage"
      },
      {
        "astId": 16208,
        "contract": "contracts/oracle/PriceFeed.sol:PriceFeed",
        "label": "aggregator",
        "offset": 0,
        "slot": "3",
        "type": "t_address"
      },
      {
        "astId": 16210,
        "contract": "contracts/oracle/PriceFeed.sol:PriceFeed",
        "label": "decimals",
        "offset": 0,
        "slot": "4",
        "type": "t_uint256"
      },
      {
        "astId": 16212,
        "contract": "contracts/oracle/PriceFeed.sol:PriceFeed",
        "label": "gov",
        "offset": 0,
        "slot": "5",
        "type": "t_address"
      },
      {
        "astId": 16216,
        "contract": "contracts/oracle/PriceFeed.sol:PriceFeed",
        "label": "answers",
        "offset": 0,
        "slot": "6",
        "type": "t_mapping(t_uint80,t_int256)"
      },
      {
        "astId": 16220,
        "contract": "contracts/oracle/PriceFeed.sol:PriceFeed",
        "label": "isAdmin",
        "offset": 0,
        "slot": "7",
        "type": "t_mapping(t_address,t_bool)"
      }
    ],
    "types": {
      "t_address": {
        "encoding": "inplace",
        "label": "address",
        "numberOfBytes": "20"
      },
      "t_bool": {
        "encoding": "inplace",
        "label": "bool",
        "numberOfBytes": "1"
      },
      "t_int256": {
        "encoding": "inplace",
        "label": "int256",
        "numberOfBytes": "32"
      },
      "t_mapping(t_address,t_bool)": {
        "encoding": "mapping",
        "key": "t_address",
        "label": "mapping(address => bool)",
        "numberOfBytes": "32",
        "value": "t_bool"
      },
      "t_mapping(t_uint80,t_int256)": {
        "encoding": "mapping",
        "key": "t_uint80",
        "label": "mapping(uint80 => int256)",
        "numberOfBytes": "32",
        "value": "t_int256"
      },
      "t_string_storage": {
        "encoding": "bytes",
        "label": "string",
        "numberOfBytes": "32"
      },
      "t_uint256": {
        "encoding": "inplace",
        "label": "uint256",
        "numberOfBytes": "32"
      },
      "t_uint80": {
        "encoding": "inplace",
        "label": "uint80",
        "numberOfBytes": "10"
      }
    }
  }
}