{
  "address": "0x74D2848c45e9A52B53cDCCD2F66A04866E4CBFd6",
  "abi": [
    {
      "inputs": [],
      "stateMutability": "nonpayable",
      "type": "constructor"
    },
    {
      "anonymous": false,
      "inputs": [
        {
          "indexed": true,
          "internalType": "address",
          "name": "owner",
          "type": "address"
        },
        {
          "indexed": true,
          "internalType": "address",
          "name": "spender",
          "type": "address"
        },
        {
          "indexed": false,
          "internalType": "uint256",
          "name": "value",
          "type": "uint256"
        }
      ],
      "name": "Approval",
      "type": "event"
    },
    {
      "anonymous": false,
      "inputs": [
        {
          "indexed": true,
          "internalType": "address",
          "name": "from",
          "type": "address"
        },
        {
          "indexed": true,
          "internalType": "address",
          "name": "to",
          "type": "address"
        },
        {
          "indexed": false,
          "internalType": "uint256",
          "name": "value",
          "type": "uint256"
        }
      ],
      "name": "Transfer",
      "type": "event"
    },
    {
      "inputs": [
        {
          "internalType": "address",
          "name": "_account",
          "type": "address"
        }
      ],
      "name": "addAdmin",
      "outputs": [],
      "stateMutability": "nonpayable",
      "type": "function"
    },
    {
      "inputs": [
        {
          "internalType": "address",
          "name": "_account",
          "type": "address"
        }
      ],
      "name": "addNonStakingAccount",
      "outputs": [],
      "stateMutability": "nonpayable",
      "type": "function"
    },
    {
      "inputs": [
        {
          "internalType": "address",
          "name": "",
          "type": "address"
        }
      ],
      "name": "admins",
      "outputs": [
        {
          "internalType": "bool",
          "name": "",
          "type": "bool"
        }
      ],
      "stateMutability": "view",
      "type": "function"
    },
    {
      "inputs": [
        {
          "internalType": "address",
          "name": "_owner",
          "type": "address"
        },
        {
          "internalType": "address",
          "name": "_spender",
          "type": "address"
        }
      ],
      "name": "allowance",
      "outputs": [
        {
          "internalType": "uint256",
          "name": "",
          "type": "uint256"
        }
      ],
      "stateMutability": "view",
      "type": "function"
    },
    {
      "inputs": [
        {
          "internalType": "address",
          "name": "",
          "type": "address"
        },
        {
          "internalType": "address",
          "name": "",
          "type": "address"
        }
      ],
      "name": "allowances",
      "outputs": [
        {
          "internalType": "uint256",
          "name": "",
          "type": "uint256"
        }
      ],
      "stateMutability": "view",
      "type": "function"
    },
    {
      "inputs": [
        {
          "internalType": "address",
          "name": "_spender",
          "type": "address"
        },
        {
          "internalType": "uint256",
          "name": "_amount",
          "type": "uint256"
        }
      ],
      "name": "approve",
      "outputs": [
        {
          "internalType": "bool",
          "name": "",
          "type": "bool"
        }
      ],
      "stateMutability": "nonpayable",
      "type": "function"
    },
    {
      "inputs": [
        {
          "internalType": "address",
          "name": "_account",
          "type": "address"
        }
      ],
      "name": "balanceOf",
      "outputs": [
        {
          "internalType": "uint256",
          "name": "",
          "type": "uint256"
        }
      ],
      "stateMutability": "view",
      "type": "function"
    },
    {
      "inputs": [
        {
          "internalType": "address",
          "name": "",
          "type": "address"
        }
      ],
      "name": "balances",
      "outputs": [
        {
          "internalType": "uint256",
          "name": "",
          "type": "uint256"
        }
      ],
      "stateMutability": "view",
      "type": "function"
    },
    {
      "inputs": [
        {
          "internalType": "address",
          "name": "_account",
          "type": "address"
        },
        {
          "internalType": "uint256",
          "name": "_amount",
          "type": "uint256"
        }
      ],
      "name": "burn",
      "outputs": [],
      "stateMutability": "nonpayable",
      "type": "function"
    },
    {
      "inputs": [
        {
          "internalType": "address",
          "name": "_receiver",
          "type": "address"
        }
      ],
      "name": "claim",
      "outputs": [],
      "stateMutability": "nonpayable",
      "type": "function"
    },
    {
      "inputs": [],
      "name": "decimals",
      "outputs": [
        {
          "internalType": "uint8",
          "name": "",
          "type": "uint8"
        }
      ],
      "stateMutability": "view",
      "type": "function"
    },
    {
      "inputs": [],
      "name": "gov",
      "outputs": [
        {
          "internalType": "address",
          "name": "",
          "type": "address"
        }
      ],
      "stateMutability": "view",
      "type": "function"
    },
    {
      "inputs": [],
      "name": "id",
      "outputs": [
        {
          "internalType": "string",
          "name": "_name",
          "type": "string"
        }
      ],
      "stateMutability": "pure",
      "type": "function"
    },
    {
      "inputs": [],
      "name": "inPrivateTransferMode",
      "outputs": [
        {
          "internalType": "bool",
          "name": "",
          "type": "bool"
        }
      ],
      "stateMutability": "view",
      "type": "function"
    },
    {
      "inputs": [
        {
          "internalType": "address",
          "name": "",
          "type": "address"
        }
      ],
      "name": "isHandler",
      "outputs": [
        {
          "internalType": "bool",
          "name": "",
          "type": "bool"
        }
      ],
      "stateMutability": "view",
      "type": "function"
    },
    {
      "inputs": [
        {
          "internalType": "address",
          "name": "",
          "type": "address"
        }
      ],
      "name": "isMinter",
      "outputs": [
        {
          "internalType": "bool",
          "name": "",
          "type": "bool"
        }
      ],
      "stateMutability": "view",
      "type": "function"
    },
    {
      "inputs": [
        {
          "internalType": "address",
          "name": "_account",
          "type": "address"
        },
        {
          "internalType": "uint256",
          "name": "_amount",
          "type": "uint256"
        }
      ],
      "name": "mint",
      "outputs": [],
      "stateMutability": "nonpayable",
      "type": "function"
    },
    {
      "inputs": [],
      "name": "name",
      "outputs": [
        {
          "internalType": "string",
          "name": "",
          "type": "string"
        }
      ],
      "stateMutability": "view",
      "type": "function"
    },
    {
      "inputs": [
        {
          "internalType": "address",
          "name": "",
          "type": "address"
        }
      ],
      "name": "nonStakingAccounts",
      "outputs": [
        {
          "internalType": "bool",
          "name": "",
          "type": "bool"
        }
      ],
      "stateMutability": "view",
      "type": "function"
    },
    {
      "inputs": [],
      "name": "nonStakingSupply",
      "outputs": [
        {
          "internalType": "uint256",
          "name": "",
          "type": "uint256"
        }
      ],
      "stateMutability": "view",
      "type": "function"
    },
    {
      "inputs": [
        {
          "internalType": "address",
          "name": "_account",
          "type": "address"
        },
        {
          "internalType": "address",
          "name": "_receiver",
          "type": "address"
        }
      ],
      "name": "recoverClaim",
      "outputs": [],
      "stateMutability": "nonpayable",
      "type": "function"
    },
    {
      "inputs": [
        {
          "internalType": "address",
          "name": "_account",
          "type": "address"
        }
      ],
      "name": "removeAdmin",
      "outputs": [],
      "stateMutability": "nonpayable",
      "type": "function"
    },
    {
      "inputs": [
        {
          "internalType": "address",
          "name": "_account",
          "type": "address"
        }
      ],
      "name": "removeNonStakingAccount",
      "outputs": [],
      "stateMutability": "nonpayable",
      "type": "function"
    },
    {
      "inputs": [
        {
          "internalType": "address",
          "name": "_gov",
          "type": "address"
        }
      ],
      "name": "setGov",
      "outputs": [],
      "stateMutability": "nonpayable",
      "type": "function"
    },
    {
      "inputs": [
        {
          "internalType": "address",
          "name": "_handler",
          "type": "address"
        },
        {
          "internalType": "bool",
          "name": "_isActive",
          "type": "bool"
        }
      ],
      "name": "setHandler",
      "outputs": [],
      "stateMutability": "nonpayable",
      "type": "function"
    },
    {
      "inputs": [
        {
          "internalType": "bool",
          "name": "_inPrivateTransferMode",
          "type": "bool"
        }
      ],
      "name": "setInPrivateTransferMode",
      "outputs": [],
      "stateMutability": "nonpayable",
      "type": "function"
    },
    {
      "inputs": [
        {
          "internalType": "string",
          "name": "_name",
          "type": "string"
        },
        {
          "internalType": "string",
          "name": "_symbol",
          "type": "string"
        }
      ],
      "name": "setInfo",
      "outputs": [],
      "stateMutability": "nonpayable",
      "type": "function"
    },
    {
      "inputs": [
        {
          "internalType": "address",
          "name": "_minter",
          "type": "address"
        },
        {
          "internalType": "bool",
          "name": "_isActive",
          "type": "bool"
        }
      ],
      "name": "setMinter",
      "outputs": [],
      "stateMutability": "nonpayable",
      "type": "function"
    },
    {
      "inputs": [
        {
          "internalType": "address[]",
          "name": "_yieldTrackers",
          "type": "address[]"
        }
      ],
      "name": "setYieldTrackers",
      "outputs": [],
      "stateMutability": "nonpayable",
      "type": "function"
    },
    {
      "inputs": [
        {
          "internalType": "address",
          "name": "_account",
          "type": "address"
        }
      ],
      "name": "stakedBalance",
      "outputs": [
        {
          "internalType": "uint256",
          "name": "",
          "type": "uint256"
        }
      ],
      "stateMutability": "view",
      "type": "function"
    },
    {
      "inputs": [],
      "name": "symbol",
      "outputs": [
        {
          "internalType": "string",
          "name": "",
          "type": "string"
        }
      ],
      "stateMutability": "view",
      "type": "function"
    },
    {
      "inputs": [],
      "name": "totalStaked",
      "outputs": [
        {
          "internalType": "uint256",
          "name": "",
          "type": "uint256"
        }
      ],
      "stateMutability": "view",
      "type": "function"
    },
    {
      "inputs": [],
      "name": "totalSupply",
      "outputs": [
        {
          "internalType": "uint256",
          "name": "",
          "type": "uint256"
        }
      ],
      "stateMutability": "view",
      "type": "function"
    },
    {
      "inputs": [
        {
          "internalType": "address",
          "name": "_recipient",
          "type": "address"
        },
        {
          "internalType": "uint256",
          "name": "_amount",
          "type": "uint256"
        }
      ],
      "name": "transfer",
      "outputs": [
        {
          "internalType": "bool",
          "name": "",
          "type": "bool"
        }
      ],
      "stateMutability": "nonpayable",
      "type": "function"
    },
    {
      "inputs": [
        {
          "internalType": "address",
          "name": "_sender",
          "type": "address"
        },
        {
          "internalType": "address",
          "name": "_recipient",
          "type": "address"
        },
        {
          "internalType": "uint256",
          "name": "_amount",
          "type": "uint256"
        }
      ],
      "name": "transferFrom",
      "outputs": [
        {
          "internalType": "bool",
          "name": "",
          "type": "bool"
        }
      ],
      "stateMutability": "nonpayable",
      "type": "function"
    },
    {
      "inputs": [
        {
          "internalType": "address",
          "name": "_token",
          "type": "address"
        },
        {
          "internalType": "address",
          "name": "_account",
          "type": "address"
        },
        {
          "internalType": "uint256",
          "name": "_amount",
          "type": "uint256"
        }
      ],
      "name": "withdrawToken",
      "outputs": [],
      "stateMutability": "nonpayable",
      "type": "function"
    },
    {
      "inputs": [
        {
          "internalType": "uint256",
          "name": "",
          "type": "uint256"
        }
      ],
      "name": "yieldTrackers",
      "outputs": [
        {
          "internalType": "address",
          "name": "",
          "type": "address"
        }
      ],
      "stateMutability": "view",
      "type": "function"
    }
  ],
  "transactionHash": "0x96caf8fdf0f6d4c88849c8642a0d45d75ff3070d46c37b1a550c82f480a5ec5d",
  "args": [],
  "numDeployments": 1,
  "solcInputHash": "59bf562207d3b98a68d8cbf2ed09b4a8",
  "bytecode": "0x60806040523480156200001157600080fd5b506040518060400160405280600781526020016604d4f4c44204c560cc1b8152506040518060400160405280600381526020016204d4c560ec1b815250600082828282600090805190602001906200006b929190620002e6565b50815162000081906001906020850190620002e6565b50600480546001600160a01b03191633908117909155620000a39082620000af565b50505050505062000382565b6001600160a01b038216620000f65760405162461bcd60e51b8152600401808060200182810382526023815260200180620026eb6023913960400191505060405180910390fd5b6200010182620001e5565b6200011d816002546200028460201b620015c81790919060201c565b6002556001600160a01b03821660009081526005602090815260409091205462000152918390620015c862000284821b17901c565b6001600160a01b03831660009081526005602090815260408083209390935560089052205460ff1615620001a0576200019c816003546200028460201b620015c81790919060201c565b6003555b6040805182815290516001600160a01b038416916000917fddf252ad1be2c89b69c2b068fc378daa952ba7f163c4a11628f55a4df523b3ef9181900360200190a35050565b60005b60075481101562000280576000600782815481106200020357fe5b600091825260208220015460408051635fd6196560e01b81526001600160a01b03878116600483015291519190921693508392635fd61965926024808201939182900301818387803b1580156200025957600080fd5b505af11580156200026e573d6000803e3d6000fd5b505060019093019250620001e8915050565b5050565b600082820183811015620002df576040805162461bcd60e51b815260206004820152601b60248201527f536166654d6174683a206164646974696f6e206f766572666c6f770000000000604482015290519081900360640190fd5b9392505050565b828054600181600116156101000203166002900490600052602060002090601f016020900481019282601f106200032957805160ff191683800117855562000359565b8280016001018555821562000359579182015b82811115620003595782518255916020019190600101906200033c565b50620003679291506200036b565b5090565b5b808211156200036757600081556001016200036c565b61235980620003926000396000f3fe608060405234801561001057600080fd5b50600436106102775760003560e01c80636228907711610160578063a9059cbb116100d8578063cf456ae71161008c578063dd62ed3e11610071578063dd62ed3e14610933578063dfbaefb114610961578063fb30d9161461096957610277565b8063cf456ae7146108df578063cfad57a21461090d57610277565b8063aa271e1a116100bd578063aa271e1a146108a9578063af640d0f146108cf578063c93be636146108d757610277565b8063a9059cbb14610750578063a923fc401461077c57610277565b80639554381a1161012f578063996f11ee11610114578063996f11ee146106c85780639cb7de4b146106f65780639dc29fac1461072457610277565b80639554381a1461069a57806395d89b41146106c057610277565b80636228907714610620578063704802751461064657806370a082311461066c578063817b1cd21461069257610277565b806327e235e3116101f357806346ea87af116101c257806355b6ed5c116101a757806355b6ed5c146105ad5780635a47a1a7146105db57806360217267146105fa57610277565b806346ea87af1461056a57806352cd38d91461059057610277565b806327e235e3146104d4578063313ce567146104fa57806340c10f1914610518578063429b62e51461054457610277565b80631785f53c1161024a5780631e83409a1161022f5780631e83409a146103d557806323b872dd146103fb578063276eab4e1461043157610277565b80631785f53c1461039557806318160ddd146103bb57610277565b806301e336671461027c57806306fdde03146102b4578063095ea7b31461033157806312d43a5114610371575b600080fd5b6102b26004803603606081101561029257600080fd5b506001600160a01b0381358116916020810135909116906040013561098f565b005b6102bc6109fe565b6040805160208082528351818301528351919283929083019185019080838360005b838110156102f65781810151838201526020016102de565b50505050905090810190601f1680156103235780820380516001836020036101000a031916815260200191505b509250505060405180910390f35b61035d6004803603604081101561034757600080fd5b506001600160a01b038135169060200135610a8c565b604080519115158252519081900360200190f35b610379610aa2565b604080516001600160a01b039092168252519081900360200190f35b6102b2600480360360208110156103ab57600080fd5b50356001600160a01b0316610ab1565b6103c3610b28565b60408051918252519081900360200190f35b6102b2600480360360208110156103eb57600080fd5b50356001600160a01b0316610b2e565b61035d6004803603606081101561041157600080fd5b506001600160a01b03813581169160208101359091169060400135610be5565b6102b26004803603602081101561044757600080fd5b81019060208101813564010000000081111561046257600080fd5b82018360208201111561047457600080fd5b8035906020019184602083028401116401000000008311171561049657600080fd5b919080806020026020016040519081016040528093929190818152602001838360200280828437600092019190915250929550610c7f945050505050565b6103c3600480360360208110156104ea57600080fd5b50356001600160a01b0316610ce8565b610502610cfa565b6040805160ff9092168252519081900360200190f35b6102b26004803603604081101561052e57600080fd5b506001600160a01b038135169060200135610cff565b61035d6004803603602081101561055a57600080fd5b50356001600160a01b0316610d6d565b61035d6004803603602081101561058057600080fd5b50356001600160a01b0316610d82565b610379600480360360208110156105a657600080fd5b5035610d97565b6103c3600480360360408110156105c357600080fd5b506001600160a01b0381358116916020013516610dbe565b6102b2600480360360208110156105f157600080fd5b50351515610ddb565b6103c36004803603602081101561061057600080fd5b50356001600160a01b0316610e44565b6102b26004803603602081101561063657600080fd5b50356001600160a01b0316610e8d565b6102b26004803603602081101561065c57600080fd5b50356001600160a01b0316610f89565b6103c36004803603602081101561068257600080fd5b50356001600160a01b0316611003565b6103c361101e565b61035d600480360360208110156106b057600080fd5b50356001600160a01b031661103c565b6102bc611051565b6102b2600480360360408110156106de57600080fd5b506001600160a01b03813581169160200135166110ab565b6102b26004803603604081101561070c57600080fd5b506001600160a01b03813516906020013515156111bb565b6102b26004803603604081101561073a57600080fd5b506001600160a01b03813516906020013561123c565b61035d6004803603604081101561076657600080fd5b506001600160a01b0381351690602001356112aa565b6102b26004803603604081101561079257600080fd5b8101906020810181356401000000008111156107ad57600080fd5b8201836020820111156107bf57600080fd5b803590602001918460018302840111640100000000831117156107e157600080fd5b91908080601f016020809104026020016040519081016040528093929190818152602001838380828437600092019190915250929594936020810193503591505064010000000081111561083457600080fd5b82018360208201111561084657600080fd5b8035906020019184600183028401116401000000008311171561086857600080fd5b91908080601f0160208091040260200160405190810160405280939291908181526020018383808284376000920191909152509295506112b7945050505050565b61035d600480360360208110156108bf57600080fd5b50356001600160a01b0316611334565b6102bc611349565b6103c3611380565b6102b2600480360360408110156108f557600080fd5b506001600160a01b0381351690602001351515611386565b6102b26004803603602081101561092357600080fd5b50356001600160a01b0316611407565b6103c36004803603604081101561094957600080fd5b506001600160a01b038135811691602001351661148c565b61035d6114b7565b6102b26004803603602081101561097f57600080fd5b50356001600160a01b03166114c0565b6004546001600160a01b031633146109e5576040805162461bcd60e51b81526020600482015260146024820152732130b9b2aa37b5b2b71d103337b93134b23232b760611b604482015290519081900360640190fd5b6109f96001600160a01b0384168383611622565b505050565b6000805460408051602060026001851615610100026000190190941693909304601f81018490048402820184019092528181529291830182828015610a845780601f10610a5957610100808354040283529160200191610a84565b820191906000526020600020905b815481529060010190602001808311610a6757829003601f168201915b505050505081565b6000610a993384846116a2565b50600192915050565b6004546001600160a01b031681565b6004546001600160a01b03163314610b07576040805162461bcd60e51b81526020600482015260146024820152732130b9b2aa37b5b2b71d103337b93134b23232b760611b604482015290519081900360640190fd5b6001600160a01b03166000908152600960205260409020805460ff19169055565b60025481565b60005b600754811015610be157600060078281548110610b4a57fe5b6000918252602080832090910154604080516310e059a160e11b81523360048201526001600160a01b038881166024830152915191909216945084936321c0b34293604480850194919392918390030190829087803b158015610bac57600080fd5b505af1158015610bc0573d6000803e3d6000fd5b505050506040513d6020811015610bd657600080fd5b505050600101610b31565b5050565b336000908152600b602052604081205460ff1615610c1057610c0884848461178e565b506001610c78565b6000610c5a836040518060600160405280602c81526020016121c0602c91396001600160a01b038816600090815260066020908152604080832033845290915290205491906119b6565b9050610c678533836116a2565b610c7285858561178e565b60019150505b9392505050565b6004546001600160a01b03163314610cd5576040805162461bcd60e51b81526020600482015260146024820152732130b9b2aa37b5b2b71d103337b93134b23232b760611b604482015290519081900360640190fd5b8051610be1906007906020840190611ffd565b60056020526000908152604090205481565b601281565b336000908152600c602052604090205460ff16610d63576040805162461bcd60e51b815260206004820152601c60248201527f4d696e7461626c6542617365546f6b656e3a20666f7262696464656e00000000604482015290519081900360640190fd5b610be18282611a4d565b60096020526000908152604090205460ff1681565b600b6020526000908152604090205460ff1681565b60078181548110610da457fe5b6000918252602090912001546001600160a01b0316905081565b600660209081526000928352604080842090915290825290205481565b6004546001600160a01b03163314610e31576040805162461bcd60e51b81526020600482015260146024820152732130b9b2aa37b5b2b71d103337b93134b23232b760611b604482015290519081900360640190fd5b600a805460ff1916911515919091179055565b6001600160a01b03811660009081526008602052604081205460ff1615610e6d57506000610e88565b506001600160a01b0381166000908152600560205260409020545b919050565b3360009081526009602052604090205460ff16610ee8576040805162461bcd60e51b81526020600482015260146024820152732130b9b2aa37b5b2b71d103337b93134b23232b760611b604482015290519081900360640190fd5b6001600160a01b03811660009081526008602052604090205460ff1615610f405760405162461bcd60e51b81526004018080602001828103825260228152602001806122646022913960400191505060405180910390fd5b610f4981611b51565b6001600160a01b0381166000908152600860209081526040808320805460ff191660011790556005909152902054600354610f83916115c8565b60035550565b6004546001600160a01b03163314610fdf576040805162461bcd60e51b81526020600482015260146024820152732130b9b2aa37b5b2b71d103337b93134b23232b760611b604482015290519081900360640190fd5b6001600160a01b03166000908152600960205260409020805460ff19166001179055565b6001600160a01b031660009081526005602052604090205490565b6000611037600354600254611c0090919063ffffffff16565b905090565b60086020526000908152604090205460ff1681565b60018054604080516020600284861615610100026000190190941693909304601f81018490048402820184019092528181529291830182828015610a845780601f10610a5957610100808354040283529160200191610a84565b3360009081526009602052604090205460ff16611106576040805162461bcd60e51b81526020600482015260146024820152732130b9b2aa37b5b2b71d103337b93134b23232b760611b604482015290519081900360640190fd5b60005b6007548110156109f95760006007828154811061112257fe5b6000918252602080832090910154604080516310e059a160e11b81526001600160a01b0389811660048301528881166024830152915191909216945084936321c0b34293604480850194919392918390030190829087803b15801561118657600080fd5b505af115801561119a573d6000803e3d6000fd5b505050506040513d60208110156111b057600080fd5b505050600101611109565b6004546001600160a01b03163314611211576040805162461bcd60e51b81526020600482015260146024820152732130b9b2aa37b5b2b71d103337b93134b23232b760611b604482015290519081900360640190fd5b6001600160a01b03919091166000908152600b60205260409020805460ff1916911515919091179055565b336000908152600c602052604090205460ff166112a0576040805162461bcd60e51b815260206004820152601c60248201527f4d696e7461626c6542617365546f6b656e3a20666f7262696464656e00000000604482015290519081900360640190fd5b610be18282611c42565b6000610a9933848461178e565b6004546001600160a01b0316331461130d576040805162461bcd60e51b81526020600482015260146024820152732130b9b2aa37b5b2b71d103337b93134b23232b760611b604482015290519081900360640190fd5b815161132090600090602085019061206f565b5080516109f990600190602084019061206f565b600c6020526000908152604090205460ff1681565b60408051808201909152600381527f4d4c500000000000000000000000000000000000000000000000000000000000602082015290565b60035481565b6004546001600160a01b031633146113dc576040805162461bcd60e51b81526020600482015260146024820152732130b9b2aa37b5b2b71d103337b93134b23232b760611b604482015290519081900360640190fd5b6001600160a01b03919091166000908152600c60205260409020805460ff1916911515919091179055565b6004546001600160a01b0316331461145d576040805162461bcd60e51b81526020600482015260146024820152732130b9b2aa37b5b2b71d103337b93134b23232b760611b604482015290519081900360640190fd5b6004805473ffffffffffffffffffffffffffffffffffffffff19166001600160a01b0392909216919091179055565b6001600160a01b03918216600090815260066020908152604080832093909416825291909152205490565b600a5460ff1681565b3360009081526009602052604090205460ff1661151b576040805162461bcd60e51b81526020600482015260146024820152732130b9b2aa37b5b2b71d103337b93134b23232b760611b604482015290519081900360640190fd5b6001600160a01b03811660009081526008602052604090205460ff16611588576040805162461bcd60e51b815260206004820152601e60248201527f42617365546f6b656e3a205f6163636f756e74206e6f74206d61726b65640000604482015290519081900360640190fd5b61159181611b51565b6001600160a01b0381166000908152600860209081526040808320805460ff191690556005909152902054600354610f8391611c00565b600082820183811015610c78576040805162461bcd60e51b815260206004820152601b60248201527f536166654d6174683a206164646974696f6e206f766572666c6f770000000000604482015290519081900360640190fd5b604080516001600160a01b038416602482015260448082018490528251808303909101815260649091019091526020810180517bffffffffffffffffffffffffffffffffffffffffffffffffffffffff167fa9059cbb000000000000000000000000000000000000000000000000000000001790526109f9908490611d6d565b6001600160a01b0383166116e75760405162461bcd60e51b81526004018080602001828103825260288152602001806122126028913960400191505060405180910390fd5b6001600160a01b03821661172c5760405162461bcd60e51b815260040180806020018281038252602681526020018061219a6026913960400191505060405180910390fd5b6001600160a01b03808416600081815260066020908152604080832094871680845294825291829020859055815185815291517f8c5be1e5ebec7d5bd14f71427d1e84f3dd0314c0f7b2291e5b200ac8c7c3b9259281900390910190a3505050565b6001600160a01b0383166117d35760405162461bcd60e51b81526004018080602001828103825260298152602001806122fb6029913960400191505060405180910390fd5b6001600160a01b0382166118185760405162461bcd60e51b81526004018080602001828103825260278152602001806121506027913960400191505060405180910390fd5b600a5460ff161561187157336000908152600b602052604090205460ff166118715760405162461bcd60e51b815260040180806020018281038252602581526020018061212b6025913960400191505060405180910390fd5b61187a83611b51565b61188382611b51565b6118c0816040518060600160405280602a815260200161223a602a91396001600160a01b03861660009081526005602052604090205491906119b6565b6001600160a01b0380851660009081526005602052604080822093909355908416815220546118ef90826115c8565b6001600160a01b0380841660009081526005602090815260408083209490945591861681526008909152205460ff1615611934576003546119309082611c00565b6003555b6001600160a01b03821660009081526008602052604090205460ff16156119665760035461196290826115c8565b6003555b816001600160a01b0316836001600160a01b03167fddf252ad1be2c89b69c2b068fc378daa952ba7f163c4a11628f55a4df523b3ef836040518082815260200191505060405180910390a3505050565b60008184841115611a455760405162461bcd60e51b81526004018080602001828103825283818151815260200191508051906020019080838360005b83811015611a0a5781810151838201526020016119f2565b50505050905090810190601f168015611a375780820380516001836020036101000a031916815260200191505b509250505060405180910390fd5b505050900390565b6001600160a01b038216611a925760405162461bcd60e51b81526004018080602001828103825260238152602001806121776023913960400191505060405180910390fd5b611a9b82611b51565b600254611aa890826115c8565b6002556001600160a01b038216600090815260056020526040902054611ace90826115c8565b6001600160a01b03831660009081526005602090815260408083209390935560089052205460ff1615611b0c57600354611b0890826115c8565b6003555b6040805182815290516001600160a01b038416916000917fddf252ad1be2c89b69c2b068fc378daa952ba7f163c4a11628f55a4df523b3ef9181900360200190a35050565b60005b600754811015610be157600060078281548110611b6d57fe5b6000918252602082200154604080517f5fd619650000000000000000000000000000000000000000000000000000000081526001600160a01b03878116600483015291519190921693508392635fd61965926024808201939182900301818387803b158015611bdb57600080fd5b505af1158015611bef573d6000803e3d6000fd5b505060019093019250611b54915050565b6000610c7883836040518060400160405280601e81526020017f536166654d6174683a207375627472616374696f6e206f766572666c6f7700008152506119b6565b6001600160a01b038216611c875760405162461bcd60e51b81526004018080602001828103825260258152602001806122d66025913960400191505060405180910390fd5b611c9082611b51565b611ccd81604051806060016040528060268152602001612286602691396001600160a01b03851660009081526005602052604090205491906119b6565b6001600160a01b038316600090815260056020526040902055600254611cf39082611c00565b6002556001600160a01b03821660009081526008602052604090205460ff1615611d2857600354611d249082611c00565b6003555b6040805182815290516000916001600160a01b038516917fddf252ad1be2c89b69c2b068fc378daa952ba7f163c4a11628f55a4df523b3ef9181900360200190a35050565b6060611dc2826040518060400160405280602081526020017f5361666545524332303a206c6f772d6c6576656c2063616c6c206661696c6564815250856001600160a01b0316611e1e9092919063ffffffff16565b8051909150156109f957808060200190516020811015611de157600080fd5b50516109f95760405162461bcd60e51b815260040180806020018281038252602a8152602001806122ac602a913960400191505060405180910390fd5b6060611e2d8484600085611e35565b949350505050565b606082471015611e765760405162461bcd60e51b81526004018080602001828103825260268152602001806121ec6026913960400191505060405180910390fd5b611e7f85611f91565b611ed0576040805162461bcd60e51b815260206004820152601d60248201527f416464726573733a2063616c6c20746f206e6f6e2d636f6e7472616374000000604482015290519081900360640190fd5b60006060866001600160a01b031685876040518082805190602001908083835b60208310611f0f5780518252601f199092019160209182019101611ef0565b6001836020036101000a03801982511681845116808217855250505050505090500191505060006040518083038185875af1925050503d8060008114611f71576040519150601f19603f3d011682016040523d82523d6000602084013e611f76565b606091505b5091509150611f86828286611f97565b979650505050505050565b3b151590565b60608315611fa6575081610c78565b825115611fb65782518084602001fd5b60405162461bcd60e51b8152602060048201818152845160248401528451859391928392604401919085019080838360008315611a0a5781810151838201526020016119f2565b82805482825590600052602060002090810192821561205f579160200282015b8281111561205f578251825473ffffffffffffffffffffffffffffffffffffffff19166001600160a01b0390911617825560209092019160019091019061201d565b5061206b9291506120e9565b5090565b828054600181600116156101000203166002900490600052602060002090601f016020900481019282601f106120b057805160ff19168380011785556120dd565b828001600101855582156120dd579182015b828111156120dd5782518255916020019190600101906120c2565b5061206b929150612115565b5b8082111561206b57805473ffffffffffffffffffffffffffffffffffffffff191681556001016120ea565b5b8082111561206b576000815560010161211656fe42617365546f6b656e3a206d73672e73656e646572206e6f742077686974656c697374656442617365546f6b656e3a207472616e7366657220746f20746865207a65726f206164647265737342617365546f6b656e3a206d696e7420746f20746865207a65726f206164647265737342617365546f6b656e3a20617070726f766520746f20746865207a65726f206164647265737342617365546f6b656e3a207472616e7366657220616d6f756e74206578636565647320616c6c6f77616e6365416464726573733a20696e73756666696369656e742062616c616e636520666f722063616c6c42617365546f6b656e3a20617070726f76652066726f6d20746865207a65726f206164647265737342617365546f6b656e3a207472616e7366657220616d6f756e7420657863656564732062616c616e636542617365546f6b656e3a205f6163636f756e7420616c7265616479206d61726b656442617365546f6b656e3a206275726e20616d6f756e7420657863656564732062616c616e63655361666545524332303a204552433230206f7065726174696f6e20646964206e6f74207375636365656442617365546f6b656e3a206275726e2066726f6d20746865207a65726f206164647265737342617365546f6b656e3a207472616e736665722066726f6d20746865207a65726f2061646472657373a2646970667358221220bd030f4453d412bee4a5c07699d5868c0e5fa9ecd6d28575b6408756838c44f864736f6c634300060c003342617365546f6b656e3a206d696e7420746f20746865207a65726f2061646472657373",
  "devdoc": {
    "kind": "dev",
    "methods": {},
    "version": 1
  },
  "userdoc": {
    "kind": "user",
    "methods": {},
    "version": 1
  },
  "storageLayout": {
    "storage": [
      {
        "astId": 21698,
        "contract": "contracts/gmx/MLP.sol:MLP",
        "label": "name",
        "offset": 0,
        "slot": "0",
        "type": "t_string_storage"
      },
      {
        "astId": 21700,
        "contract": "contracts/gmx/MLP.sol:MLP",
        "label": "symbol",
        "offset": 0,
        "slot": "1",
        "type": "t_string_storage"
      },
      {
        "astId": 21706,
        "contract": "contracts/gmx/MLP.sol:MLP",
        "label": "totalSupply",
        "offset": 0,
        "slot": "2",
        "type": "t_uint256"
      },
      {
        "astId": 21708,
        "contract": "contracts/gmx/MLP.sol:MLP",
        "label": "nonStakingSupply",
        "offset": 0,
        "slot": "3",
        "type": "t_uint256"
      },
      {
        "astId": 21710,
        "contract": "contracts/gmx/MLP.sol:MLP",
        "label": "gov",
        "offset": 0,
        "slot": "4",
        "type": "t_address"
      },
      {
        "astId": 21714,
        "contract": "contracts/gmx/MLP.sol:MLP",
        "label": "balances",
        "offset": 0,
        "slot": "5",
        "type": "t_mapping(t_address,t_uint256)"
      },
      {
        "astId": 21720,
        "contract": "contracts/gmx/MLP.sol:MLP",
        "label": "allowances",
        "offset": 0,
        "slot": "6",
        "type": "t_mapping(t_address,t_mapping(t_address,t_uint256))"
      },
      {
        "astId": 21723,
        "contract": "contracts/gmx/MLP.sol:MLP",
        "label": "yieldTrackers",
        "offset": 0,
        "slot": "7",
        "type": "t_array(t_address)dyn_storage"
      },
      {
        "astId": 21727,
        "contract": "contracts/gmx/MLP.sol:MLP",
        "label": "nonStakingAccounts",
        "offset": 0,
        "slot": "8",
        "type": "t_mapping(t_address,t_bool)"
      },
      {
        "astId": 21731,
        "contract": "contracts/gmx/MLP.sol:MLP",
        "label": "admins",
        "offset": 0,
        "slot": "9",
        "type": "t_mapping(t_address,t_bool)"
      },
      {
        "astId": 21733,
        "contract": "contracts/gmx/MLP.sol:MLP",
        "label": "inPrivateTransferMode",
        "offset": 0,
        "slot": "10",
        "type": "t_bool"
      },
      {
        "astId": 21737,
        "contract": "contracts/gmx/MLP.sol:MLP",
        "label": "isHandler",
        "offset": 0,
        "slot": "11",
        "type": "t_mapping(t_address,t_bool)"
      },
      {
        "astId": 22524,
        "contract": "contracts/gmx/MLP.sol:MLP",
        "label": "isMinter",
        "offset": 0,
        "slot": "12",
        "type": "t_mapping(t_address,t_bool)"
      }
    ],
    "types": {
      "t_address": {
        "encoding": "inplace",
        "label": "address",
        "numberOfBytes": "20"
      },
      "t_array(t_address)dyn_storage": {
        "base": "t_address",
        "encoding": "dynamic_array",
        "label": "address[]",
        "numberOfBytes": "32"
      },
      "t_bool": {
        "encoding": "inplace",
        "label": "bool",
        "numberOfBytes": "1"
      },
      "t_mapping(t_address,t_bool)": {
        "encoding": "mapping",
        "key": "t_address",
        "label": "mapping(address => bool)",
        "numberOfBytes": "32",
        "value": "t_bool"
      },
      "t_mapping(t_address,t_mapping(t_address,t_uint256))": {
        "encoding": "mapping",
        "key": "t_address",
        "label": "mapping(address => mapping(address => uint256))",
        "numberOfBytes": "32",
        "value": "t_mapping(t_address,t_uint256)"
      },
      "t_mapping(t_address,t_uint256)": {
        "encoding": "mapping",
        "key": "t_address",
        "label": "mapping(address => uint256)",
        "numberOfBytes": "32",
        "value": "t_uint256"
      },
      "t_string_storage": {
        "encoding": "bytes",
        "label": "string",
        "numberOfBytes": "32"
      },
      "t_uint256": {
        "encoding": "inplace",
        "label": "uint256",
        "numberOfBytes": "32"
      }
    }
  }
}