{
  "address": "0xe9A191E984422Eed9C1D46f287E9819c2d1BdB7C",
  "abi": [
    {
      "inputs": [
        {
          "internalType": "address",
          "name": "_vault",
          "type": "address"
        },
        {
          "internalType": "address",
          "name": "_usdm",
          "type": "address"
        },
        {
          "internalType": "address",
          "name": "_mlp",
          "type": "address"
        },
        {
          "internalType": "address",
          "name": "_shortsTracker",
          "type": "address"
        },
        {
          "internalType": "uint256",
          "name": "_cooldownDuration",
          "type": "uint256"
        }
      ],
      "stateMutability": "nonpayable",
      "type": "constructor"
    },
    {
      "inputs": [
        {
          "internalType": "address",
          "name": "_token",
          "type": "address"
        },
        {
          "internalType": "uint256",
          "name": "_amount",
          "type": "uint256"
        },
        {
          "internalType": "uint256",
          "name": "_minUsdm",
          "type": "uint256"
        },
        {
          "internalType": "uint256",
          "name": "_minMlp",
          "type": "uint256"
        }
      ],
      "name": "addLiquidity",
      "outputs": [
        {
          "internalType": "uint256",
          "name": "",
          "type": "uint256"
        }
      ],
      "stateMutability": "nonpayable",
      "type": "function"
    },
    {
      "inputs": [
        {
          "internalType": "address",
          "name": "_fundingAccount",
          "type": "address"
        },
        {
          "internalType": "address",
          "name": "_account",
          "type": "address"
        },
        {
          "internalType": "address",
          "name": "_token",
          "type": "address"
        },
        {
          "internalType": "uint256",
          "name": "_amount",
          "type": "uint256"
        },
        {
          "internalType": "uint256",
          "name": "_minUsdm",
          "type": "uint256"
        },
        {
          "internalType": "uint256",
          "name": "_minMlp",
          "type": "uint256"
        }
      ],
      "name": "addLiquidityForAccount",
      "outputs": [
        {
          "internalType": "uint256",
          "name": "",
          "type": "uint256"
        }
      ],
      "stateMutability": "nonpayable",
      "type": "function"
    },
    {
      "inputs": [],
      "name": "aumAddition",
      "outputs": [
        {
          "internalType": "uint256",
          "name": "",
          "type": "uint256"
        }
      ],
      "stateMutability": "view",
      "type": "function"
    },
    {
      "inputs": [],
      "name": "aumDeduction",
      "outputs": [
        {
          "internalType": "uint256",
          "name": "",
          "type": "uint256"
        }
      ],
      "stateMutability": "view",
      "type": "function"
    },
    {
      "inputs": [],
      "name": "cooldownDuration",
      "outputs": [
        {
          "internalType": "uint256",
          "name": "",
          "type": "uint256"
        }
      ],
      "stateMutability": "view",
      "type": "function"
    },
    {
      "inputs": [
        {
          "internalType": "bool",
          "name": "maximise",
          "type": "bool"
        }
      ],
      "name": "getAum",
      "outputs": [
        {
          "internalType": "uint256",
          "name": "",
          "type": "uint256"
        }
      ],
      "stateMutability": "view",
      "type": "function"
    },
    {
      "inputs": [
        {
          "internalType": "bool",
          "name": "maximise",
          "type": "bool"
        }
      ],
      "name": "getAumInUsdm",
      "outputs": [
        {
          "internalType": "uint256",
          "name": "",
          "type": "uint256"
        }
      ],
      "stateMutability": "view",
      "type": "function"
    },
    {
      "inputs": [],
      "name": "getAums",
      "outputs": [
        {
          "internalType": "uint256[]",
          "name": "",
          "type": "uint256[]"
        }
      ],
      "stateMutability": "view",
      "type": "function"
    },
    {
      "inputs": [
        {
          "internalType": "address",
          "name": "_token",
          "type": "address"
        }
      ],
      "name": "getGlobalShortAveragePrice",
      "outputs": [
        {
          "internalType": "uint256",
          "name": "",
          "type": "uint256"
        }
      ],
      "stateMutability": "view",
      "type": "function"
    },
    {
      "inputs": [
        {
          "internalType": "address",
          "name": "_token",
          "type": "address"
        },
        {
          "internalType": "uint256",
          "name": "_price",
          "type": "uint256"
        },
        {
          "internalType": "uint256",
          "name": "_size",
          "type": "uint256"
        }
      ],
      "name": "getGlobalShortDelta",
      "outputs": [
        {
          "internalType": "uint256",
          "name": "",
          "type": "uint256"
        },
        {
          "internalType": "bool",
          "name": "",
          "type": "bool"
        }
      ],
      "stateMutability": "view",
      "type": "function"
    },
    {
      "inputs": [
        {
          "internalType": "bool",
          "name": "_maximise",
          "type": "bool"
        }
      ],
      "name": "getPrice",
      "outputs": [
        {
          "internalType": "uint256",
          "name": "",
          "type": "uint256"
        }
      ],
      "stateMutability": "view",
      "type": "function"
    },
    {
      "inputs": [],
      "name": "gov",
      "outputs": [
        {
          "internalType": "address",
          "name": "",
          "type": "address"
        }
      ],
      "stateMutability": "view",
      "type": "function"
    },
    {
      "inputs": [],
      "name": "inPrivateMode",
      "outputs": [
        {
          "internalType": "bool",
          "name": "",
          "type": "bool"
        }
      ],
      "stateMutability": "view",
      "type": "function"
    },
    {
      "inputs": [
        {
          "internalType": "address",
          "name": "",
          "type": "address"
        }
      ],
      "name": "isHandler",
      "outputs": [
        {
          "internalType": "bool",
          "name": "",
          "type": "bool"
        }
      ],
      "stateMutability": "view",
      "type": "function"
    },
    {
      "inputs": [
        {
          "internalType": "address",
          "name": "",
          "type": "address"
        }
      ],
      "name": "lastAddedAt",
      "outputs": [
        {
          "internalType": "uint256",
          "name": "",
          "type": "uint256"
        }
      ],
      "stateMutability": "view",
      "type": "function"
    },
    {
      "inputs": [],
      "name": "mlp",
      "outputs": [
        {
          "internalType": "address",
          "name": "",
          "type": "address"
        }
      ],
      "stateMutability": "view",
      "type": "function"
    },
    {
      "inputs": [
        {
          "internalType": "address",
          "name": "_tokenOut",
          "type": "address"
        },
        {
          "internalType": "uint256",
          "name": "_mlpAmount",
          "type": "uint256"
        },
        {
          "internalType": "uint256",
          "name": "_minOut",
          "type": "uint256"
        },
        {
          "internalType": "address",
          "name": "_receiver",
          "type": "address"
        }
      ],
      "name": "removeLiquidity",
      "outputs": [
        {
          "internalType": "uint256",
          "name": "",
          "type": "uint256"
        }
      ],
      "stateMutability": "nonpayable",
      "type": "function"
    },
    {
      "inputs": [
        {
          "internalType": "address",
          "name": "_account",
          "type": "address"
        },
        {
          "internalType": "address",
          "name": "_tokenOut",
          "type": "address"
        },
        {
          "internalType": "uint256",
          "name": "_mlpAmount",
          "type": "uint256"
        },
        {
          "internalType": "uint256",
          "name": "_minOut",
          "type": "uint256"
        },
        {
          "internalType": "address",
          "name": "_receiver",
          "type": "address"
        }
      ],
      "name": "removeLiquidityForAccount",
      "outputs": [
        {
          "internalType": "uint256",
          "name": "",
          "type": "uint256"
        }
      ],
      "stateMutability": "nonpayable",
      "type": "function"
    },
    {
      "inputs": [
        {
          "internalType": "uint256",
          "name": "_aumAddition",
          "type": "uint256"
        },
        {
          "internalType": "uint256",
          "name": "_aumDeduction",
          "type": "uint256"
        }
      ],
      "name": "setAumAdjustment",
      "outputs": [],
      "stateMutability": "nonpayable",
      "type": "function"
    },
    {
      "inputs": [
        {
          "internalType": "uint256",
          "name": "_cooldownDuration",
          "type": "uint256"
        }
      ],
      "name": "setCooldownDuration",
      "outputs": [],
      "stateMutability": "nonpayable",
      "type": "function"
    },
    {
      "inputs": [
        {
          "internalType": "address",
          "name": "_gov",
          "type": "address"
        }
      ],
      "name": "setGov",
      "outputs": [],
      "stateMutability": "nonpayable",
      "type": "function"
    },
    {
      "inputs": [
        {
          "internalType": "address",
          "name": "_handler",
          "type": "address"
        },
        {
          "internalType": "bool",
          "name": "_isActive",
          "type": "bool"
        }
      ],
      "name": "setHandler",
      "outputs": [],
      "stateMutability": "nonpayable",
      "type": "function"
    },
    {
      "inputs": [
        {
          "internalType": "bool",
          "name": "_inPrivateMode",
          "type": "bool"
        }
      ],
      "name": "setInPrivateMode",
      "outputs": [],
      "stateMutability": "nonpayable",
      "type": "function"
    },
    {
      "inputs": [
        {
          "internalType": "uint256",
          "name": "_shortsTrackerAveragePriceWeight",
          "type": "uint256"
        }
      ],
      "name": "setShortsTrackerAveragePriceWeight",
      "outputs": [],
      "stateMutability": "nonpayable",
      "type": "function"
    },
    {
      "inputs": [],
      "name": "shortsTracker",
      "outputs": [
        {
          "internalType": "contract IShortsTracker",
          "name": "",
          "type": "address"
        }
      ],
      "stateMutability": "view",
      "type": "function"
    },
    {
      "inputs": [],
      "name": "shortsTrackerAveragePriceWeight",
      "outputs": [
        {
          "internalType": "uint256",
          "name": "",
          "type": "uint256"
        }
      ],
      "stateMutability": "view",
      "type": "function"
    },
    {
      "inputs": [],
      "name": "usdm",
      "outputs": [
        {
          "internalType": "address",
          "name": "",
          "type": "address"
        }
      ],
      "stateMutability": "view",
      "type": "function"
    },
    {
      "inputs": [],
      "name": "vault",
      "outputs": [
        {
          "internalType": "contract IVault",
          "name": "",
          "type": "address"
        }
      ],
      "stateMutability": "view",
      "type": "function"
    }
  ],
  "transactionHash": "0x283b73caf680525d702cc50ab26cd10780e387795962827011781f86e6eecc20",
  "args": [
    "0xc54aa813eF930Aa3F3fc4C646e134a53D2d08277",
    "0xe36A1CBd26e8e507f0Eb8252f952F196FE95FD5b",
    "0x74D2848c45e9A52B53cDCCD2F66A04866E4CBFd6",
    "0x0000000000000000000000000000000000000000",
    0
  ],
  "numDeployments": 1,
  "solcInputHash": "59bf562207d3b98a68d8cbf2ed09b4a8",
  "bytecode": "0x608060405234801561001057600080fd5b50604051612989380380612989833981810160405260a081101561003357600080fd5b5080516020820151604083015160608401516080909401516001600081905580546001600160a01b031990811633908117821617909155600280546001600160a01b0396871690831617905560038054948616948216949094179093556004805492851692841692909217909155600580549390941692909116919091179091556008556128c3806100c66000396000f3fe608060405234801561001057600080fd5b50600436106101c45760003560e01c80636a86da19116100f9578063a1acd3d511610097578063e245b5af11610071578063e245b5af14610516578063ed0d1c0414610535578063ee138d0f1461058d578063fbfa77cf14610595576101c4565b8063a1acd3d51461049d578063b172bb0c146104e8578063cfad57a2146104f0576101c4565b80638fed0b2c116100d35780638fed0b2c146103f55780639116c4ae1461042f578063966be075146104525780639cb7de4b1461046f576101c4565b80636a86da191461036c57806371d597ad1461038b5780638b770e11146103cf576101c4565b80633e49e2131161016657806346ea87af1161014057806346ea87af146103175780634f5f6b5e1461033d57806364e6617f1461035c578063657bc5d014610364576101c4565b80633e49e213146102ca578063429e8fad146102d2578063440d828a146102f1576101c4565b806317eb2a15116101a257806317eb2a151461023a578063196b68cb146102825780631ece366a1461028a57806335269315146102c2576101c4565b806303391476146101c9578063070eacee146101fa57806312d43a5114610216575b600080fd5b6101e8600480360360208110156101df57600080fd5b5035151561059d565b60408051918252519081900360200190f35b610202610c7f565b604080519115158252519081900360200190f35b61021e610c8f565b604080516001600160a01b039092168252519081900360200190f35b6101e8600480360360c081101561025057600080fd5b506001600160a01b03813581169160208101358216916040820135169060608101359060808101359060a00135610c9e565b6101e8610d23565b6101e8600480360360808110156102a057600080fd5b506001600160a01b038135169060208101359060408101359060600135610d29565b6101e8610e70565b61021e610e76565b6101e8600480360360208110156102e857600080fd5b50351515610e85565b6101e86004803603602081101561030757600080fd5b50356001600160a01b0316610ebd565b6102026004803603602081101561032d57600080fd5b50356001600160a01b03166111ce565b61035a6004803603602081101561035357600080fd5b50356111e3565b005b6101e86112ca565b61021e6112d0565b61035a6004803603602081101561038257600080fd5b503515156112df565b6101e8600480360360a08110156103a157600080fd5b506001600160a01b03813581169160208101358216916040820135916060810135916080909101351661136f565b6101e8600480360360208110156103e557600080fd5b50356001600160a01b03166113f2565b6101e86004803603608081101561040b57600080fd5b506001600160a01b0381358116916020810135916040820135916060013516611404565b61035a6004803603604081101561044557600080fd5b50803590602001356114fa565b61035a6004803603602081101561046857600080fd5b503561155c565b61035a6004803603604081101561048557600080fd5b506001600160a01b0381351690602001351515611625565b6104cf600480360360608110156104b357600080fd5b506001600160a01b0381351690602081013590604001356116a7565b6040805192835290151560208301528051918290030190f35b6101e86116fb565b61035a6004803603602081101561050657600080fd5b50356001600160a01b0316611701565b6101e86004803603602081101561052c57600080fd5b50351515611792565b61053d61183c565b60408051602080825283518183015283519192839290830191858101910280838360005b83811015610579578181015183820152602001610561565b505050509050019250505060405180910390f35b61021e6118aa565b61021e6118b9565b600080600260009054906101000a90046001600160a01b03166001600160a01b0316630842b0766040518163ffffffff1660e01b815260040160206040518083038186803b1580156105ee57600080fd5b505afa158015610602573d6000803e3d6000fd5b505050506040513d602081101561061857600080fd5b5051600954600254919250906000906001600160a01b0316815b84811015610c3857600254604080517fe468baf00000000000000000000000000000000000000000000000000000000081526004810184905290516000926001600160a01b03169163e468baf0916024808301926020929190829003018186803b15801561069f57600080fd5b505afa1580156106b3573d6000803e3d6000fd5b505050506040513d60208110156106c957600080fd5b5051600254604080517fdaf9c2100000000000000000000000000000000000000000000000000000000081526001600160a01b0380851660048301529151939450600093919092169163daf9c210916024808301926020929190829003018186803b15801561073757600080fd5b505afa15801561074b573d6000803e3d6000fd5b505050506040513d602081101561076157600080fd5b5051905080610771575050610c30565b6000896107f657846001600160a01b03166381a612d6846040518263ffffffff1660e01b815260040180826001600160a01b0316815260200191505060206040518083038186803b1580156107c557600080fd5b505afa1580156107d9573d6000803e3d6000fd5b505050506040513d60208110156107ef57600080fd5b5051610870565b846001600160a01b031663e124e6d2846040518263ffffffff1660e01b815260040180826001600160a01b0316815260200191505060206040518083038186803b15801561084357600080fd5b505afa158015610857573d6000803e3d6000fd5b505050506040513d602081101561086d57600080fd5b50515b90506000856001600160a01b03166352f55eed856040518263ffffffff1660e01b815260040180826001600160a01b0316815260200191505060206040518083038186803b1580156108c157600080fd5b505afa1580156108d5573d6000803e3d6000fd5b505050506040513d60208110156108eb57600080fd5b5051604080517f8ee573ac0000000000000000000000000000000000000000000000000000000081526001600160a01b038781166004830152915192935060009291891691638ee573ac91602480820192602092909190829003018186803b15801561095657600080fd5b505afa15801561096a573d6000803e3d6000fd5b505050506040513d602081101561098057600080fd5b5051604080517f42b60b030000000000000000000000000000000000000000000000000000000081526001600160a01b0388811660048301529151929350908916916342b60b0391602480820192602092909190829003018186803b1580156109e857600080fd5b505afa1580156109fc573d6000803e3d6000fd5b505050506040513d6020811015610a1257600080fd5b505115610a4257610a3b610a34600a83900a610a2e85876118c8565b9061192a565b8a9061196c565b9850610c2a565b6000876001600160a01b0316638a78daa8876040518263ffffffff1660e01b815260040180826001600160a01b0316815260200191505060206040518083038186803b158015610a9157600080fd5b505afa158015610aa5573d6000803e3d6000fd5b505050506040513d6020811015610abb57600080fd5b505190508015610afd57600080610ad38887856116a7565b9150915080610aed57610ae68c8361196c565b9b50610afa565b610af78b8361196c565b9a505b50505b610b80886001600160a01b031663f07456ce886040518263ffffffff1660e01b815260040180826001600160a01b0316815260200191505060206040518083038186803b158015610b4d57600080fd5b505afa158015610b61573d6000803e3d6000fd5b505050506040513d6020811015610b7757600080fd5b50518b9061196c565b99506000886001600160a01b031663c3c7b9e9886040518263ffffffff1660e01b815260040180826001600160a01b0316815260200191505060206040518083038186803b158015610bd157600080fd5b505afa158015610be5573d6000803e3d6000fd5b505050506040513d6020811015610bfb57600080fd5b50519050610c25610c1e600a85900a610a2e88610c1889876119c6565b906118c8565b8c9061196c565b9a5050505b50505050505b600101610632565b50828211610c4f57610c4a83836119c6565b610c52565b60005b925082600a5411610c7057600a54610c6b9084906119c6565b610c73565b60005b9450505050505b919050565b600554600160a01b900460ff1681565b6001546001600160a01b031681565b600060026000541415610cf8576040805162461bcd60e51b815260206004820152601f60248201527f5265656e7472616e637947756172643a207265656e7472616e742063616c6c00604482015290519081900360640190fd5b6002600055610d05611a08565b610d13878787878787611aa1565b6001600055979650505050505050565b60095481565b600060026000541415610d83576040805162461bcd60e51b815260206004820152601f60248201527f5265656e7472616e637947756172643a207265656e7472616e742063616c6c00604482015290519081900360640190fd5b6002600055600554600160a01b900460ff1615610e54576040518060400160405280601e81526020017f4d6c704d616e616765723a20616374696f6e206e6f7420656e61626c6564000081525060405162461bcd60e51b81526004018080602001828103825283818151815260200191508051906020019080838360005b83811015610e19578181015183820152602001610e01565b50505050905090810190601f168015610e465780820380516001836020036101000a031916815260200191505b509250505060405180910390fd5b610e62333387878787611aa1565b600160005595945050505050565b60085481565b6004546001600160a01b031681565b600080610e918361059d565b9050610eb66c0c9f2c9cd04674edea40000000610a2e83670de0b6b3a76400006118c8565b9392505050565b6005546000906001600160a01b0316801580610f3b5750806001600160a01b0316639a11178f6040518163ffffffff1660e01b815260040160206040518083038186803b158015610f0d57600080fd5b505afa158015610f21573d6000803e3d6000fd5b505050506040513d6020811015610f3757600080fd5b5051155b15610fc25760025460408051636274980360e01b81526001600160a01b038681166004830152915191909216916362749803916024808301926020929190829003018186803b158015610f8d57600080fd5b505afa158015610fa1573d6000803e3d6000fd5b505050506040513d6020811015610fb757600080fd5b50519150610c7a9050565b6006548061104d5760025460408051636274980360e01b81526001600160a01b038781166004830152915191909216916362749803916024808301926020929190829003018186803b15801561101757600080fd5b505afa15801561102b573d6000803e3d6000fd5b505050506040513d602081101561104157600080fd5b50519250610c7a915050565b6127108114156110a457816001600160a01b03166362749803856040518263ffffffff1660e01b815260040180826001600160a01b0316815260200191505060206040518083038186803b15801561101757600080fd5b60025460408051636274980360e01b81526001600160a01b03878116600483015291516000939290921691636274980391602480820192602092909190829003018186803b1580156110f557600080fd5b505afa158015611109573d6000803e3d6000fd5b505050506040513d602081101561111f57600080fd5b505160408051636274980360e01b81526001600160a01b038881166004830152915192935060009291861691636274980391602480820192602092909190829003018186803b15801561117157600080fd5b505afa158015611185573d6000803e3d6000fd5b505050506040513d602081101561119b57600080fd5b50519050610c73612710610a2e6111b284876118c8565b6111c86111c1612710896119c6565b87906118c8565b9061196c565b60076020526000908152604090205460ff1681565b6001546001600160a01b0316331461123a576040805162461bcd60e51b815260206004820152601560248201527423b7bb32b93730b136329d103337b93134b23232b760591b604482015290519081900360640190fd5b61271060065411156040518060400160405280601a81526020017f4d6c704d616e616765723a20696e76616c696420776569676874000000000000815250906112c45760405162461bcd60e51b8152602060048201818152835160248401528351909283926044909101919085019080838360008315610e19578181015183820152602001610e01565b50600655565b60065481565b6005546001600160a01b031681565b6001546001600160a01b03163314611336576040805162461bcd60e51b815260206004820152601560248201527423b7bb32b93730b136329d103337b93134b23232b760591b604482015290519081900360640190fd5b60058054911515600160a01b027fffffffffffffffffffffff00ffffffffffffffffffffffffffffffffffffffff909216919091179055565b6000600260005414156113c9576040805162461bcd60e51b815260206004820152601f60248201527f5265656e7472616e637947756172643a207265656e7472616e742063616c6c00604482015290519081900360640190fd5b60026000556113d6611a08565b6113e38686868686611e84565b60016000559695505050505050565b600b6020526000908152604090205481565b60006002600054141561145e576040805162461bcd60e51b815260206004820152601f60248201527f5265656e7472616e637947756172643a207265656e7472616e742063616c6c00604482015290519081900360640190fd5b6002600055600554600160a01b900460ff16156114ed57604080518082018252601e81527f4d6c704d616e616765723a20616374696f6e206e6f7420656e61626c656400006020808301918252925162461bcd60e51b81526004810193845282516024820152825192939283926044909201919080838360008315610e19578181015183820152602001610e01565b610e623386868686611e84565b6001546001600160a01b03163314611551576040805162461bcd60e51b815260206004820152601560248201527423b7bb32b93730b136329d103337b93134b23232b760591b604482015290519081900360640190fd5b600991909155600a55565b6001546001600160a01b031633146115b3576040805162461bcd60e51b815260206004820152601560248201527423b7bb32b93730b136329d103337b93134b23232b760591b604482015290519081900360640190fd5b6202a3008111156040518060600160405280602581526020016127d7602591399061161f5760405162461bcd60e51b8152602060048201818152835160248401528351909283926044909101919085019080838360008315610e19578181015183820152602001610e01565b50600855565b6001546001600160a01b0316331461167c576040805162461bcd60e51b815260206004820152601560248201527423b7bb32b93730b136329d103337b93134b23232b760591b604482015290519081900360640190fd5b6001600160a01b03919091166000908152600760205260409020805460ff1916911515919091179055565b60008060006116b586610ebd565b905060008582116116cf576116ca86836119c6565b6116d9565b6116d982876119c6565b905060006116eb83610a2e88856118c8565b9450505084109050935093915050565b600a5481565b6001546001600160a01b03163314611758576040805162461bcd60e51b815260206004820152601560248201527423b7bb32b93730b136329d103337b93134b23232b760591b604482015290519081900360640190fd5b600180547fffffffffffffffffffffffff0000000000000000000000000000000000000000166001600160a01b0392909216919091179055565b60008061179e8361059d565b90506000600460009054906101000a90046001600160a01b03166001600160a01b03166318160ddd6040518163ffffffff1660e01b815260040160206040518083038186803b1580156117f057600080fd5b505afa158015611804573d6000803e3d6000fd5b505050506040513d602081101561181a57600080fd5b5051905061183481610a2e84670de0b6b3a76400006118c8565b949350505050565b60408051600280825260608083018452928392919060208301908036833701905050905061186a600161059d565b8160008151811061187757fe5b60200260200101818152505061188d600061059d565b8160018151811061189a57fe5b6020908102919091010152905090565b6003546001600160a01b031681565b6002546001600160a01b031681565b6000826118d757506000611924565b828202828482816118e457fe5b04146119215760405162461bcd60e51b81526004018080602001828103825260218152602001806128206021913960400191505060405180910390fd5b90505b92915050565b600061192183836040518060400160405280601a81526020017f536166654d6174683a206469766973696f6e206279207a65726f000000000000815250612415565b600082820183811015611921576040805162461bcd60e51b815260206004820152601b60248201527f536166654d6174683a206164646974696f6e206f766572666c6f770000000000604482015290519081900360640190fd5b600061192183836040518060400160405280601e81526020017f536166654d6174683a207375627472616374696f6e206f766572666c6f77000081525061247a565b33600090815260076020908152604091829020548251808401909352601583527f4d6c704d616e616765723a20666f7262696464656e00000000000000000000009183019190915260ff16611a9e5760405162461bcd60e51b8152602060048201818152835160248401528351909283926044909101919085019080838360008315610e19578181015183820152602001610e01565b50565b60008084116040518060400160405280601b81526020017f4d6c704d616e616765723a20696e76616c6964205f616d6f756e74000000000081525090611b285760405162461bcd60e51b8152602060048201818152835160248401528351909283926044909101919085019080838360008315610e19578181015183820152602001610e01565b506000611b356001610e85565b90506000600460009054906101000a90046001600160a01b03166001600160a01b03166318160ddd6040518163ffffffff1660e01b815260040160206040518083038186803b158015611b8757600080fd5b505afa158015611b9b573d6000803e3d6000fd5b505050506040513d6020811015611bb157600080fd5b5051600254909150611bd2906001600160a01b03898116918c9116896124d4565b600254604080517f86284f5f0000000000000000000000000000000000000000000000000000000081526001600160a01b038a81166004830152306024830152915160009392909216916386284f5f9160448082019260209290919082900301818787803b158015611c4357600080fd5b505af1158015611c57573d6000803e3d6000fd5b505050506040513d6020811015611c6d57600080fd5b50516040805160608101909152602480825291925087831015916127fc602083013990611cdb5760405162461bcd60e51b8152602060048201818152835160248401528351909283926044909101919085019080838360008315610e19578181015183820152602001610e01565b506000831580611ce9575082155b611d0057611cfb84610a2e84866118c8565b611d02565b815b9050858110156040518060600160405280602381526020016128416023913990611d6d5760405162461bcd60e51b8152602060048201818152835160248401528351909283926044909101919085019080838360008315610e19578181015183820152602001610e01565b5060048054604080517f40c10f190000000000000000000000000000000000000000000000000000000081526001600160a01b038e81169482019490945260248101859052905192909116916340c10f199160448082019260009290919082900301818387803b158015611de057600080fd5b505af1158015611df4573d6000803e3d6000fd5b5050506001600160a01b03808c166000818152600b60209081526040918290204290558151928352928d16928201929092528082018b9052606081018790526080810186905260a0810185905260c0810184905290517f38dc38b96482be64113daffd8d464ebda93e856b70ccfc605e69ccf892ab981e92509081900360e00190a19a9950505050505050505050565b60008084116040518060400160405280601e81526020017f4d6c704d616e616765723a20696e76616c6964205f6d6c70416d6f756e74000081525090611f0b5760405162461bcd60e51b8152602060048201818152835160248401528351909283926044909101919085019080838360008315610e19578181015183820152602001610e01565b506008546001600160a01b0387166000908152600b60205260409020544291611f34919061196c565b11156040518060600160405280602c81526020016127ab602c913990611f9b5760405162461bcd60e51b8152602060048201818152835160248401528351909283926044909101919085019080838360008315610e19578181015183820152602001610e01565b506000611fa86000610e85565b90506000600460009054906101000a90046001600160a01b03166001600160a01b03166318160ddd6040518163ffffffff1660e01b815260040160206040518083038186803b158015611ffa57600080fd5b505afa15801561200e573d6000803e3d6000fd5b505050506040513d602081101561202457600080fd5b50519050600061203882610a2e89866118c8565b600354604080517f70a0823100000000000000000000000000000000000000000000000000000000815230600482015290519293506000926001600160a01b03909216916370a0823191602480820192602092909190829003018186803b1580156120a257600080fd5b505afa1580156120b6573d6000803e3d6000fd5b505050506040513d60208110156120cc57600080fd5b5051905080821115612153576003546001600160a01b03166340c10f19306120f485856119c6565b6040518363ffffffff1660e01b815260040180836001600160a01b0316815260200182815260200192505050600060405180830381600087803b15801561213a57600080fd5b505af115801561214e573d6000803e3d6000fd5b505050505b60048054604080517f9dc29fac0000000000000000000000000000000000000000000000000000000081526001600160a01b038e811694820194909452602481018c905290519290911691639dc29fac9160448082019260009290919082900301818387803b1580156121c557600080fd5b505af11580156121d9573d6000803e3d6000fd5b5050600354600254604080517fa9059cbb0000000000000000000000000000000000000000000000000000000081526001600160a01b03928316600482015260248101889052905191909216935063a9059cbb925060448083019260209291908290030181600087803b15801561224f57600080fd5b505af1158015612263573d6000803e3d6000fd5b505050506040513d602081101561227957600080fd5b5050600254604080517f0928a4f80000000000000000000000000000000000000000000000000000000081526001600160a01b038c81166004830152898116602483015291516000939290921691630928a4f89160448082019260209290919082900301818787803b1580156122ee57600080fd5b505af1158015612302573d6000803e3d6000fd5b505050506040513d602081101561231857600080fd5b505160408051808201909152601f81527f4d6c704d616e616765723a20696e73756666696369656e74206f7574707574006020820152909150888210156123a05760405162461bcd60e51b8152602060048201818152835160248401528351909283926044909101919085019080838360008315610e19578181015183820152602001610e01565b50604080516001600160a01b03808e1682528c1660208201528082018b9052606081018790526080810186905260a0810185905260c0810183905290517f87b9679bb9a4944bafa98c267e7cd4a00ab29fed48afdefae25f0fca5da279409181900360e00190a19a9950505050505050505050565b600081836124645760405162461bcd60e51b8152602060048201818152835160248401528351909283926044909101919085019080838360008315610e19578181015183820152602001610e01565b50600083858161247057fe5b0495945050505050565b600081848411156124cc5760405162461bcd60e51b8152602060048201818152835160248401528351909283926044909101919085019080838360008315610e19578181015183820152602001610e01565b505050900390565b604080516001600160a01b0380861660248301528416604482015260648082018490528251808303909101815260849091019091526020810180517bffffffffffffffffffffffffffffffffffffffffffffffffffffffff167f23b872dd0000000000000000000000000000000000000000000000000000000017905261255c908590612562565b50505050565b60606125b7826040518060400160405280602081526020017f5361666545524332303a206c6f772d6c6576656c2063616c6c206661696c6564815250856001600160a01b03166126189092919063ffffffff16565b805190915015612613578080602001905160208110156125d657600080fd5b50516126135760405162461bcd60e51b815260040180806020018281038252602a815260200180612864602a913960400191505060405180910390fd5b505050565b606061183484846000858561262c8561273e565b61267d576040805162461bcd60e51b815260206004820152601d60248201527f416464726573733a2063616c6c20746f206e6f6e2d636f6e7472616374000000604482015290519081900360640190fd5b60006060866001600160a01b031685876040518082805190602001908083835b602083106126bc5780518252601f19909201916020918201910161269d565b6001836020036101000a03801982511681845116808217855250505050505090500191505060006040518083038185875af1925050503d806000811461271e576040519150601f19603f3d011682016040523d82523d6000602084013e612723565b606091505b5091509150612733828286612744565b979650505050505050565b3b151590565b60608315612753575081610eb6565b8251156127635782518084602001fd5b60405162461bcd60e51b8152602060048201818152845160248401528451859391928392604401919085019080838360008315610e19578181015183820152602001610e0156fe4d6c704d616e616765723a20636f6f6c646f776e206475726174696f6e206e6f7420796574207061737365644d6c704d616e616765723a20696e76616c6964205f636f6f6c646f776e4475726174696f6e4d6c704d616e616765723a20696e73756666696369656e74205553444d206f7574707574536166654d6174683a206d756c7469706c69636174696f6e206f766572666c6f774d6c704d616e616765723a20696e73756666696369656e74204d4c50206f75747075745361666545524332303a204552433230206f7065726174696f6e20646964206e6f742073756363656564a2646970667358221220042282d63db2a69fdfba52b5b8262d8d35bafcb6f6e53806e067ec850ce5e7a764736f6c634300060c0033",
  "devdoc": {
    "kind": "dev",
    "methods": {},
    "version": 1
  },
  "userdoc": {
    "kind": "user",
    "methods": {},
    "version": 1
  },
  "storageLayout": {
    "storage": [
      {
        "astId": 15155,
        "contract": "contracts/core/MlpManager.sol:MlpManager",
        "label": "_status",
        "offset": 0,
        "slot": "0",
        "type": "t_uint256"
      },
      {
        "astId": 3,
        "contract": "contracts/core/MlpManager.sol:MlpManager",
        "label": "gov",
        "offset": 0,
        "slot": "1",
        "type": "t_address"
      },
      {
        "astId": 12099,
        "contract": "contracts/core/MlpManager.sol:MlpManager",
        "label": "vault",
        "offset": 0,
        "slot": "2",
        "type": "t_contract(IVault)7173"
      },
      {
        "astId": 12102,
        "contract": "contracts/core/MlpManager.sol:MlpManager",
        "label": "usdm",
        "offset": 0,
        "slot": "3",
        "type": "t_address"
      },
      {
        "astId": 12104,
        "contract": "contracts/core/MlpManager.sol:MlpManager",
        "label": "mlp",
        "offset": 0,
        "slot": "4",
        "type": "t_address"
      },
      {
        "astId": 12106,
        "contract": "contracts/core/MlpManager.sol:MlpManager",
        "label": "shortsTracker",
        "offset": 0,
        "slot": "5",
        "type": "t_contract(IShortsTracker)6537"
      },
      {
        "astId": 12108,
        "contract": "contracts/core/MlpManager.sol:MlpManager",
        "label": "inPrivateMode",
        "offset": 20,
        "slot": "5",
        "type": "t_bool"
      },
      {
        "astId": 12110,
        "contract": "contracts/core/MlpManager.sol:MlpManager",
        "label": "shortsTrackerAveragePriceWeight",
        "offset": 0,
        "slot": "6",
        "type": "t_uint256"
      },
      {
        "astId": 12114,
        "contract": "contracts/core/MlpManager.sol:MlpManager",
        "label": "isHandler",
        "offset": 0,
        "slot": "7",
        "type": "t_mapping(t_address,t_bool)"
      },
      {
        "astId": 12117,
        "contract": "contracts/core/MlpManager.sol:MlpManager",
        "label": "cooldownDuration",
        "offset": 0,
        "slot": "8",
        "type": "t_uint256"
      },
      {
        "astId": 12119,
        "contract": "contracts/core/MlpManager.sol:MlpManager",
        "label": "aumAddition",
        "offset": 0,
        "slot": "9",
        "type": "t_uint256"
      },
      {
        "astId": 12121,
        "contract": "contracts/core/MlpManager.sol:MlpManager",
        "label": "aumDeduction",
        "offset": 0,
        "slot": "10",
        "type": "t_uint256"
      },
      {
        "astId": 12132,
        "contract": "contracts/core/MlpManager.sol:MlpManager",
        "label": "lastAddedAt",
        "offset": 0,
        "slot": "11",
        "type": "t_mapping(t_address,t_uint256)"
      }
    ],
    "types": {
      "t_address": {
        "encoding": "inplace",
        "label": "address",
        "numberOfBytes": "20"
      },
      "t_bool": {
        "encoding": "inplace",
        "label": "bool",
        "numberOfBytes": "1"
      },
      "t_contract(IShortsTracker)6537": {
        "encoding": "inplace",
        "label": "contract IShortsTracker",
        "numberOfBytes": "20"
      },
      "t_contract(IVault)7173": {
        "encoding": "inplace",
        "label": "contract IVault",
        "numberOfBytes": "20"
      },
      "t_mapping(t_address,t_bool)": {
        "encoding": "mapping",
        "key": "t_address",
        "label": "mapping(address => bool)",
        "numberOfBytes": "32",
        "value": "t_bool"
      },
      "t_mapping(t_address,t_uint256)": {
        "encoding": "mapping",
        "key": "t_address",
        "label": "mapping(address => uint256)",
        "numberOfBytes": "32",
        "value": "t_uint256"
      },
      "t_uint256": {
        "encoding": "inplace",
        "label": "uint256",
        "numberOfBytes": "32"
      }
    }
  }
}