{
  "address": "0x388Ca3664Cb1635aE8348AB2A1Bb6C0652f5E693",
  "abi": [
    {
      "inputs": [
        {
          "internalType": "address",
          "name": "_vault",
          "type": "address"
        },
        {
          "internalType": "address",
          "name": "_router",
          "type": "address"
        },
        {
          "internalType": "address",
          "name": "_shortsTracker",
          "type": "address"
        },
        {
          "internalType": "address",
          "name": "_weth",
          "type": "address"
        },
        {
          "internalType": "uint256",
          "name": "_depositFee",
          "type": "uint256"
        },
        {
          "internalType": "address",
          "name": "_orderBook",
          "type": "address"
        }
      ],
      "stateMutability": "nonpayable",
      "type": "constructor"
    },
    {
      "inputs": [],
      "name": "BASIS_POINTS_DIVISOR",
      "outputs": [
        {
          "internalType": "uint256",
          "name": "",
          "type": "uint256"
        }
      ],
      "stateMutability": "view",
      "type": "function"
    },
    {
      "inputs": [],
      "name": "admin",
      "outputs": [
        {
          "internalType": "address",
          "name": "",
          "type": "address"
        }
      ],
      "stateMutability": "view",
      "type": "function"
    },
    {
      "inputs": [
        {
          "internalType": "address",
          "name": "_token",
          "type": "address"
        },
        {
          "internalType": "address",
          "name": "_spender",
          "type": "address"
        },
        {
          "internalType": "uint256",
          "name": "_amount",
          "type": "uint256"
        }
      ],
      "name": "approve",
      "outputs": [],
      "stateMutability": "nonpayable",
      "type": "function"
    },
    {
      "inputs": [
        {
          "internalType": "address[]",
          "name": "_path",
          "type": "address[]"
        },
        {
          "internalType": "address",
          "name": "_indexToken",
          "type": "address"
        },
        {
          "internalType": "uint256",
          "name": "_collateralDelta",
          "type": "uint256"
        },
        {
          "internalType": "uint256",
          "name": "_sizeDelta",
          "type": "uint256"
        },
        {
          "internalType": "bool",
          "name": "_isLong",
          "type": "bool"
        },
        {
          "internalType": "address",
          "name": "_receiver",
          "type": "address"
        },
        {
          "internalType": "uint256",
          "name": "_price",
          "type": "uint256"
        },
        {
          "internalType": "uint256",
          "name": "_minOut",
          "type": "uint256"
        },
        {
          "internalType": "bool",
          "name": "_withdrawETH",
          "type": "bool"
        }
      ],
      "name": "decreasePosition",
      "outputs": [],
      "stateMutability": "nonpayable",
      "type": "function"
    },
    {
      "inputs": [],
      "name": "depositFee",
      "outputs": [
        {
          "internalType": "uint256",
          "name": "",
          "type": "uint256"
        }
      ],
      "stateMutability": "view",
      "type": "function"
    },
    {
      "inputs": [
        {
          "internalType": "address",
          "name": "",
          "type": "address"
        }
      ],
      "name": "feeReserves",
      "outputs": [
        {
          "internalType": "uint256",
          "name": "",
          "type": "uint256"
        }
      ],
      "stateMutability": "view",
      "type": "function"
    },
    {
      "inputs": [],
      "name": "gov",
      "outputs": [
        {
          "internalType": "address",
          "name": "",
          "type": "address"
        }
      ],
      "stateMutability": "view",
      "type": "function"
    },
    {
      "inputs": [
        {
          "internalType": "address[]",
          "name": "_path",
          "type": "address[]"
        },
        {
          "internalType": "address",
          "name": "_indexToken",
          "type": "address"
        },
        {
          "internalType": "uint256",
          "name": "_amountIn",
          "type": "uint256"
        },
        {
          "internalType": "uint256",
          "name": "_minOut",
          "type": "uint256"
        },
        {
          "internalType": "uint256",
          "name": "_sizeDelta",
          "type": "uint256"
        },
        {
          "internalType": "bool",
          "name": "_isLong",
          "type": "bool"
        },
        {
          "internalType": "uint256",
          "name": "_price",
          "type": "uint256"
        }
      ],
      "name": "increasePosition",
      "outputs": [],
      "stateMutability": "nonpayable",
      "type": "function"
    },
    {
      "inputs": [],
      "name": "increasePositionBufferBps",
      "outputs": [
        {
          "internalType": "uint256",
          "name": "",
          "type": "uint256"
        }
      ],
      "stateMutability": "view",
      "type": "function"
    },
    {
      "inputs": [
        {
          "internalType": "address[]",
          "name": "_path",
          "type": "address[]"
        },
        {
          "internalType": "address",
          "name": "_indexToken",
          "type": "address"
        },
        {
          "internalType": "uint256",
          "name": "_minOut",
          "type": "uint256"
        },
        {
          "internalType": "uint256",
          "name": "_sizeDelta",
          "type": "uint256"
        },
        {
          "internalType": "bool",
          "name": "_isLong",
          "type": "bool"
        },
        {
          "internalType": "uint256",
          "name": "_price",
          "type": "uint256"
        }
      ],
      "name": "increasePositionETH",
      "outputs": [],
      "stateMutability": "payable",
      "type": "function"
    },
    {
      "inputs": [
        {
          "internalType": "address",
          "name": "",
          "type": "address"
        }
      ],
      "name": "isLiquidator",
      "outputs": [
        {
          "internalType": "bool",
          "name": "",
          "type": "bool"
        }
      ],
      "stateMutability": "view",
      "type": "function"
    },
    {
      "inputs": [
        {
          "internalType": "address",
          "name": "",
          "type": "address"
        }
      ],
      "name": "isOrderKeeper",
      "outputs": [
        {
          "internalType": "bool",
          "name": "",
          "type": "bool"
        }
      ],
      "stateMutability": "view",
      "type": "function"
    },
    {
      "inputs": [
        {
          "internalType": "address",
          "name": "",
          "type": "address"
        }
      ],
      "name": "isPartner",
      "outputs": [
        {
          "internalType": "bool",
          "name": "",
          "type": "bool"
        }
      ],
      "stateMutability": "view",
      "type": "function"
    },
    {
      "inputs": [
        {
          "internalType": "address",
          "name": "_account",
          "type": "address"
        },
        {
          "internalType": "address",
          "name": "_collateralToken",
          "type": "address"
        },
        {
          "internalType": "address",
          "name": "_indexToken",
          "type": "address"
        },
        {
          "internalType": "bool",
          "name": "_isLong",
          "type": "bool"
        },
        {
          "internalType": "address",
          "name": "_feeReceiver",
          "type": "address"
        }
      ],
      "name": "liquidatePosition",
      "outputs": [],
      "stateMutability": "nonpayable",
      "type": "function"
    },
    {
      "inputs": [
        {
          "internalType": "address",
          "name": "",
          "type": "address"
        }
      ],
      "name": "maxGlobalLongSizes",
      "outputs": [
        {
          "internalType": "uint256",
          "name": "",
          "type": "uint256"
        }
      ],
      "stateMutability": "view",
      "type": "function"
    },
    {
      "inputs": [
        {
          "internalType": "address",
          "name": "",
          "type": "address"
        }
      ],
      "name": "maxGlobalShortSizes",
      "outputs": [
        {
          "internalType": "uint256",
          "name": "",
          "type": "uint256"
        }
      ],
      "stateMutability": "view",
      "type": "function"
    },
    {
      "inputs": [],
      "name": "opened",
      "outputs": [
        {
          "internalType": "bool",
          "name": "",
          "type": "bool"
        }
      ],
      "stateMutability": "view",
      "type": "function"
    },
    {
      "inputs": [],
      "name": "orderBook",
      "outputs": [
        {
          "internalType": "address",
          "name": "",
          "type": "address"
        }
      ],
      "stateMutability": "view",
      "type": "function"
    },
    {
      "inputs": [],
      "name": "referralStorage",
      "outputs": [
        {
          "internalType": "address",
          "name": "",
          "type": "address"
        }
      ],
      "stateMutability": "view",
      "type": "function"
    },
    {
      "inputs": [],
      "name": "router",
      "outputs": [
        {
          "internalType": "address",
          "name": "",
          "type": "address"
        }
      ],
      "stateMutability": "view",
      "type": "function"
    },
    {
      "inputs": [
        {
          "internalType": "address payable",
          "name": "_receiver",
          "type": "address"
        },
        {
          "internalType": "uint256",
          "name": "_amount",
          "type": "uint256"
        }
      ],
      "name": "sendValue",
      "outputs": [],
      "stateMutability": "nonpayable",
      "type": "function"
    },
    {
      "inputs": [
        {
          "internalType": "address",
          "name": "_admin",
          "type": "address"
        }
      ],
      "name": "setAdmin",
      "outputs": [],
      "stateMutability": "nonpayable",
      "type": "function"
    },
    {
      "inputs": [
        {
          "internalType": "uint256",
          "name": "_depositFee",
          "type": "uint256"
        }
      ],
      "name": "setDepositFee",
      "outputs": [],
      "stateMutability": "nonpayable",
      "type": "function"
    },
    {
      "inputs": [
        {
          "internalType": "address",
          "name": "_gov",
          "type": "address"
        }
      ],
      "name": "setGov",
      "outputs": [],
      "stateMutability": "nonpayable",
      "type": "function"
    },
    {
      "inputs": [
        {
          "internalType": "uint256",
          "name": "_increasePositionBufferBps",
          "type": "uint256"
        }
      ],
      "name": "setIncreasePositionBufferBps",
      "outputs": [],
      "stateMutability": "nonpayable",
      "type": "function"
    },
    {
      "inputs": [
        {
          "internalType": "address",
          "name": "_account",
          "type": "address"
        },
        {
          "internalType": "bool",
          "name": "_isActive",
          "type": "bool"
        }
      ],
      "name": "setLiquidator",
      "outputs": [],
      "stateMutability": "nonpayable",
      "type": "function"
    },
    {
      "inputs": [
        {
          "internalType": "address[]",
          "name": "_tokens",
          "type": "address[]"
        },
        {
          "internalType": "uint256[]",
          "name": "_longSizes",
          "type": "uint256[]"
        },
        {
          "internalType": "uint256[]",
          "name": "_shortSizes",
          "type": "uint256[]"
        }
      ],
      "name": "setMaxGlobalSizes",
      "outputs": [],
      "stateMutability": "nonpayable",
      "type": "function"
    },
    {
      "inputs": [
        {
          "internalType": "bool",
          "name": "_opened",
          "type": "bool"
        }
      ],
      "name": "setOpened",
      "outputs": [],
      "stateMutability": "nonpayable",
      "type": "function"
    },
    {
      "inputs": [
        {
          "internalType": "address",
          "name": "_account",
          "type": "address"
        },
        {
          "internalType": "bool",
          "name": "_isActive",
          "type": "bool"
        }
      ],
      "name": "setOrderKeeper",
      "outputs": [],
      "stateMutability": "nonpayable",
      "type": "function"
    },
    {
      "inputs": [
        {
          "internalType": "address",
          "name": "_account",
          "type": "address"
        },
        {
          "internalType": "bool",
          "name": "_isActive",
          "type": "bool"
        }
      ],
      "name": "setPartner",
      "outputs": [],
      "stateMutability": "nonpayable",
      "type": "function"
    },
    {
      "inputs": [
        {
          "internalType": "address",
          "name": "_referralStorage",
          "type": "address"
        }
      ],
      "name": "setReferralStorage",
      "outputs": [],
      "stateMutability": "nonpayable",
      "type": "function"
    },
    {
      "inputs": [
        {
          "internalType": "bool",
          "name": "_shouldValidateIncreaseOrder",
          "type": "bool"
        }
      ],
      "name": "setShouldValidateIncreaseOrder",
      "outputs": [],
      "stateMutability": "nonpayable",
      "type": "function"
    },
    {
      "inputs": [],
      "name": "shortsTracker",
      "outputs": [
        {
          "internalType": "address",
          "name": "",
          "type": "address"
        }
      ],
      "stateMutability": "view",
      "type": "function"
    },
    {
      "inputs": [],
      "name": "shouldValidateIncreaseOrder",
      "outputs": [
        {
          "internalType": "bool",
          "name": "",
          "type": "bool"
        }
      ],
      "stateMutability": "view",
      "type": "function"
    },
    {
      "inputs": [],
      "name": "vault",
      "outputs": [
        {
          "internalType": "address",
          "name": "",
          "type": "address"
        }
      ],
      "stateMutability": "view",
      "type": "function"
    },
    {
      "inputs": [],
      "name": "weth",
      "outputs": [
        {
          "internalType": "address",
          "name": "",
          "type": "address"
        }
      ],
      "stateMutability": "view",
      "type": "function"
    },
    {
      "inputs": [
        {
          "internalType": "address",
          "name": "_token",
          "type": "address"
        },
        {
          "internalType": "address",
          "name": "_receiver",
          "type": "address"
        }
      ],
      "name": "withdrawFees",
      "outputs": [],
      "stateMutability": "nonpayable",
      "type": "function"
    },
    {
      "stateMutability": "payable",
      "type": "receive"
    }
  ],
  "transactionHash": "0x87a0cc36e7141f776bb3e01a12004409addc51678145b11f995b53e355d2c6b2",
  "args": [
    "0xc54aa813eF930Aa3F3fc4C646e134a53D2d08277",
    "0xDf6B69098507cbbE21f57BC7a58790D75A61AAdA",
    "0x165a116e1da7cf312085505475311d448Cd20890",
    "0x09Ed1597f5803360189F39E3348Ea9C342Fd0233",
    50,
    "0xeF10b34cEd3cFefaB6c0Da20d6615739b4ECc2Dd"
  ],
  "numDeployments": 1,
  "solcInputHash": "59bf562207d3b98a68d8cbf2ed09b4a8",
  "bytecode": "0x60806040526002805461ff001916610100179055606460075534801561002457600080fd5b50604051620044c9380380620044c9833981810160405260c081101561004957600080fd5b508051602082015160408301516060840151608085015160a090950151600080546001600160a01b03199081163390811790925560018055600980546001600160a01b03988916908316179055600b805496881696821696909617909555600c805493871693861693909317909255600695909555600a805492851692841692909217909155600880549092161790556002805491909216620100000262010000600160b01b03199091161790556143c280620001076000396000f3fe60806040526004361061026d5760003560e01c806367a5279311610153578063b7ddc992116100cb578063ef12c67e1161007f578063f851a44011610064578063f851a44014610cb5578063f887ea4014610cca578063fbfa77cf14610cdf57610327565b8063ef12c67e14610ac2578063f255527814610c7a57610327565b8063de2ea948116100b0578063de2ea94814610940578063e1f21c6714610995578063e7dae9fe146109d857610327565b8063b7ddc99214610835578063cfad57a21461090d57610327565b80639698d25a116101225780639a0a18bf116101075780639a0a18bf14610711578063ae4d7f9a1461073d578063b32755de1461077057610327565b80639698d25a146106c957806398d1e03a146106fc57610327565b806367a5279314610639578063704b6c021461064e578063776af5ba146106815780638c0f9aac1461069657610327565b806324a084df116101e65780634584bd4b116101b5578063529a356f1161019a578063529a356f146105dc5780635f88eade1461060f578063657bc5d01461062457610327565b80634584bd4b1461059d578063490ae210146105b257610327565b806324a084df146104cd5780633833f5f5146105065780633fc8cef31461054d5780634453a3741461056257610327565b80631b9043591161023d5780631e261538116102225780631e2615381461042d57806321acf65914610468578063233bfe3b146104a357610327565b80631b904359146103cc5780631ce9cb8f146103fa57610327565b80626cc35e1461032c5780631045c74e1461035d578063126082cf146103a257806312d43a51146103b757610327565b3661032757600c54604080516060810190915260238082526001600160a01b0390921633149161431b6020830139906103245760405162461bcd60e51b81526004018080602001828103825283818151815260200191508051906020019080838360005b838110156102e95781810151838201526020016102d1565b50505050905090810190601f1680156103165780820380516001836020036101000a031916815260200191505b509250505060405180910390fd5b50005b600080fd5b34801561033857600080fd5b50610341610cf4565b604080516001600160a01b039092168252519081900360200190f35b34801561036957600080fd5b506103906004803603602081101561038057600080fd5b50356001600160a01b0316610d03565b60408051918252519081900360200190f35b3480156103ae57600080fd5b50610390610d15565b3480156103c357600080fd5b50610341610d1b565b3480156103d857600080fd5b506103f8600480360360208110156103ef57600080fd5b50351515610d2a565b005b34801561040657600080fd5b506103906004803603602081101561041d57600080fd5b50356001600160a01b0316610dd8565b34801561043957600080fd5b506103f86004803603604081101561045057600080fd5b506001600160a01b0381351690602001351515610dea565b34801561047457600080fd5b506103f86004803603604081101561048b57600080fd5b506001600160a01b0381351690602001351515610ea9565b3480156104af57600080fd5b506103f8600480360360208110156104c657600080fd5b5035610f6c565b3480156104d957600080fd5b506103f8600480360360408110156104f057600080fd5b506001600160a01b038135169060200135611006565b34801561051257600080fd5b506105396004803603602081101561052957600080fd5b50356001600160a01b0316611074565b604080519115158252519081900360200190f35b34801561055957600080fd5b50610341611089565b34801561056e57600080fd5b506103f86004803603604081101561058557600080fd5b506001600160a01b0381351690602001351515611098565b3480156105a957600080fd5b50610539611157565b3480156105be57600080fd5b506103f8600480360360208110156105d557600080fd5b5035611165565b3480156105e857600080fd5b50610539600480360360208110156105ff57600080fd5b50356001600160a01b03166111ff565b34801561061b57600080fd5b50610539611214565b34801561063057600080fd5b5061034161121d565b34801561064557600080fd5b5061039061122c565b34801561065a57600080fd5b506103f86004803603602081101561067157600080fd5b50356001600160a01b0316611232565b34801561068d57600080fd5b506103416112ea565b3480156106a257600080fd5b50610539600480360360208110156106b957600080fd5b50356001600160a01b03166112ff565b3480156106d557600080fd5b50610390600480360360208110156106ec57600080fd5b50356001600160a01b0316611314565b34801561070857600080fd5b50610390611326565b34801561071d57600080fd5b506103f86004803603602081101561073457600080fd5b5035151561132c565b34801561074957600080fd5b506103f86004803603602081101561076057600080fd5b50356001600160a01b03166113d2565b6103f8600480360360c081101561078657600080fd5b8101906020810181356401000000008111156107a157600080fd5b8201836020820111156107b357600080fd5b803590602001918460208302840111640100000000831117156107d557600080fd5b919080806020026020016040519081016040528093929190818152602001838360200280828437600092019190915250929550506001600160a01b0383351693505050602081013590604081013590606081013515159060800135611492565b34801561084157600080fd5b506103f8600480360360e081101561085857600080fd5b81019060208101813564010000000081111561087357600080fd5b82018360208201111561088557600080fd5b803590602001918460208302840111640100000000831117156108a757600080fd5b919080806020026020016040519081016040528093929190818152602001838360200280828437600092019190915250929550506001600160a01b0383351693505050602081013590604081013590606081013590608081013515159060a0013561178f565b34801561091957600080fd5b506103f86004803603602081101561093057600080fd5b50356001600160a01b0316611b00565b34801561094c57600080fd5b506103f8600480360360a081101561096357600080fd5b506001600160a01b03813581169160208101358216916040820135811691606081013515159160809091013516611b86565b3480156109a157600080fd5b506103f8600480360360608110156109b857600080fd5b506001600160a01b038135811691602081013590911690604001356120b0565b3480156109e457600080fd5b506103f860048036036101208110156109fc57600080fd5b810190602081018135640100000000811115610a1757600080fd5b820183602082011115610a2957600080fd5b80359060200191846020830284011164010000000083111715610a4b57600080fd5b919080806020026020016040519081016040528093929190818152602001838360200280828437600092019190915250929550505081356001600160a01b0390811693506020830135926040810135925060608101351515916080820135169060a08101359060c08101359060e00135151561218f565b348015610ace57600080fd5b506103f860048036036060811015610ae557600080fd5b810190602081018135640100000000811115610b0057600080fd5b820183602082011115610b1257600080fd5b80359060200191846020830284011164010000000083111715610b3457600080fd5b9190808060200260200160405190810160405280939291908181526020018383602002808284376000920191909152509295949360208101935035915050640100000000811115610b8457600080fd5b820183602082011115610b9657600080fd5b80359060200191846020830284011164010000000083111715610bb857600080fd5b9190808060200260200160405190810160405280939291908181526020018383602002808284376000920191909152509295949360208101935035915050640100000000811115610c0857600080fd5b820183602082011115610c1a57600080fd5b80359060200191846020830284011164010000000083111715610c3c57600080fd5b919080806020026020016040519081016040528093929190818152602001838360200280828437600092019190915250929550612463945050505050565b348015610c8657600080fd5b506103f860048036036040811015610c9d57600080fd5b506001600160a01b0381358116916020013516612664565b348015610cc157600080fd5b5061034161275a565b348015610cd657600080fd5b50610341612769565b348015610ceb57600080fd5b50610341612778565b600d546001600160a01b031681565b600e6020526000908152604090205481565b61271081565b6000546001600160a01b031681565b6008546001600160a01b03163314610d89576040805162461bcd60e51b815260206004820152601e60248201527f42617365506f736974696f6e4d616e616765723a20666f7262696464656e0000604482015290519081900360640190fd5b60028054821515610100810261ff00199092169190911790915560408051918252517fa956222e37fe025ff51e5440ac729a9bd417ff91e485e14dcffa2c0ba8894f409181900360200190a150565b60106020526000908152604090205481565b6008546001600160a01b03163314610e49576040805162461bcd60e51b815260206004820152601e60248201527f42617365506f736974696f6e4d616e616765723a20666f7262696464656e0000604482015290519081900360640190fd5b6001600160a01b038216600081815260036020908152604091829020805460ff1916851515908117909155825190815291517f1d5bc0255b943d6a5b5279e8a55d74d620baccbceecb25e87a3558f14c4c118e9281900390910190a25050565b6008546001600160a01b03163314610f08576040805162461bcd60e51b815260206004820152601e60248201527f42617365506f736974696f6e4d616e616765723a20666f7262696464656e0000604482015290519081900360640190fd5b6001600160a01b038216600081815260046020908152604091829020805460ff191685151590811790915582519384529083015280517fa4e46c70ff429a91de7d1716d736e877c7cca1c22ac850b23d242530dd95e4749281900390910190a15050565b6008546001600160a01b03163314610fcb576040805162461bcd60e51b815260206004820152601e60248201527f42617365506f736974696f6e4d616e616765723a20666f7262696464656e0000604482015290519081900360640190fd5b60078190556040805182815290517f21167d0d4661af93817ebce920f18986eed3d75d5e1c03f2aed05efcbafbc4529181900360200190a150565b6000546001600160a01b0316331461105d576040805162461bcd60e51b815260206004820152601560248201527423b7bb32b93730b136329d103337b93134b23232b760591b604482015290519081900360640190fd5b6110706001600160a01b03831682612787565b5050565b60036020526000908152604090205460ff1681565b600c546001600160a01b031681565b6008546001600160a01b031633146110f7576040805162461bcd60e51b815260206004820152601e60248201527f42617365506f736974696f6e4d616e616765723a20666f7262696464656e0000604482015290519081900360640190fd5b6001600160a01b038216600081815260056020908152604091829020805460ff1916851515908117909155825190815291517f8c0d56805c3b43d441481229dc64bee168253ffe4305f37ab7cfe63b1c4268c69281900390910190a25050565b600254610100900460ff1681565b6008546001600160a01b031633146111c4576040805162461bcd60e51b815260206004820152601e60248201527f42617365506f736974696f6e4d616e616765723a20666f7262696464656e0000604482015290519081900360640190fd5b60068190556040805182815290517f974fd3c1fcb4653dfc4fb740c4c692cd212d55c28f163f310128cb64d83006759181900360200190a150565b60056020526000908152604090205460ff1681565b60025460ff1681565b600a546001600160a01b031681565b60065481565b6000546001600160a01b03163314611289576040805162461bcd60e51b815260206004820152601560248201527423b7bb32b93730b136329d103337b93134b23232b760591b604482015290519081900360640190fd5b600880546001600160a01b03831673ffffffffffffffffffffffffffffffffffffffff19909116811790915560408051918252517f5a272403b402d892977df56625f4164ccaf70ca3863991c43ecfe76a6905b0a19181900360200190a150565b6002546201000090046001600160a01b031681565b60046020526000908152604090205460ff1681565b600f6020526000908152604090205481565b60075481565b6008546001600160a01b0316331461138b576040805162461bcd60e51b815260206004820152601e60248201527f42617365506f736974696f6e4d616e616765723a20666f7262696464656e0000604482015290519081900360640190fd5b6002805482151560ff19909116811790915560408051918252517fb396a770d36909ca07c2b7d7d408f43c9bb74425c5d17caf44336c4f09c420949181900360200190a150565b6008546001600160a01b03163314611431576040805162461bcd60e51b815260206004820152601e60248201527f42617365506f736974696f6e4d616e616765723a20666f7262696464656e0000604482015290519081900360640190fd5b600d80546001600160a01b03831673ffffffffffffffffffffffffffffffffffffffff19909116811790915560408051918252517f828abcccea18192c21d645e575652c49e20b986dab777906fc473d056b01b6a89181900360200190a150565b600260015414156114ea576040805162461bcd60e51b815260206004820152601f60248201527f5265656e7472616e637947756172643a207265656e7472616e742063616c6c00604482015290519081900360640190fd5b60026001553360009081526004602052604090205460ff168061150f575060025460ff165b6040518060400160405280601a81526020017f506f736974696f6e4d616e616765723a20666f7262696464656e000000000000815250906115915760405162461bcd60e51b81526020600482018181528351602484015283519092839260449091019190850190808383600083156102e95781810151838201526020016102d1565b508551600114806115a3575085516002145b60405180606001604052806025815260200161436860259139906116085760405162461bcd60e51b81526020600482018181528351602484015283519092839260449091019190850190808383600083156102e95781810151838201526020016102d1565b50600c5486516001600160a01b0390911690879060009061162557fe5b60200260200101516001600160a01b0316146040518060400160405280601e81526020017f506f736974696f6e4d616e616765723a20696e76616c6964205f706174680000815250906116b95760405162461bcd60e51b81526020600482018181528351602484015283519092839260449091019190850190808383600083156102e95781810151838201526020016102d1565b50341561175e576116c8612871565b85513490600110156116ff57600954600c546116f1916001600160a01b039182169116346128dd565b6116fc87863061295d565b90505b600061170f3389848a888a612a0b565b905061175b600960009054906101000a90046001600160a01b0316828a60018c51038151811061173b57fe5b60200260200101516001600160a01b03166128dd9092919063ffffffff16565b50505b611783338760018951038151811061177257fe5b602002602001015187868686612aea565b50506001805550505050565b600260015414156117e7576040805162461bcd60e51b815260206004820152601f60248201527f5265656e7472616e637947756172643a207265656e7472616e742063616c6c00604482015290519081900360640190fd5b60026001553360009081526004602052604090205460ff168061180c575060025460ff165b6040518060400160405280601a81526020017f506f736974696f6e4d616e616765723a20666f7262696464656e0000000000008152509061188e5760405162461bcd60e51b81526020600482018181528351602484015283519092839260449091019190850190808383600083156102e95781810151838201526020016102d1565b508651600114806118a0575086516002145b60405180606001604052806025815260200161436860259139906119055760405162461bcd60e51b81526020600482018181528351602484015283519092839260449091019190850190808383600083156102e95781810151838201526020016102d1565b508415611ace578651600114156119c657600b5487516001600160a01b0390911690631b82787890899060009061193857fe5b60200260200101513330896040518563ffffffff1660e01b815260040180856001600160a01b03168152602001846001600160a01b03168152602001836001600160a01b03168152602001828152602001945050505050600060405180830381600087803b1580156119a957600080fd5b505af11580156119bd573d6000803e3d6000fd5b50505050611a90565b600b5487516001600160a01b0390911690631b8278789089906000906119e857fe5b6020908102919091010151600954604080517fffffffff0000000000000000000000000000000000000000000000000000000060e086901b1681526001600160a01b0393841660048201523360248201529290911660448301526064820189905251608480830192600092919082900301818387803b158015611a6a57600080fd5b505af1158015611a7e573d6000803e3d6000fd5b50505050611a8d87853061295d565b94505b6000611aa03389888a8789612a0b565b9050611acc600960009054906101000a90046001600160a01b0316828a60018c51038151811061173b57fe5b505b611af3338860018a510381518110611ae257fe5b602002602001015188868686612aea565b5050600180555050505050565b6000546001600160a01b03163314611b57576040805162461bcd60e51b815260206004820152601560248201527423b7bb32b93730b136329d103337b93134b23232b760591b604482015290519081900360640190fd5b6000805473ffffffffffffffffffffffffffffffffffffffff19166001600160a01b0392909216919091179055565b60026001541415611bde576040805162461bcd60e51b815260206004820152601f60248201527f5265656e7472616e637947756172643a207265656e7472616e742063616c6c00604482015290519081900360640190fd5b600260015533600090815260056020908152604091829020548251808401909352601a83527f506f736974696f6e4d616e616765723a20666f7262696464656e0000000000009183019190915260ff16611c795760405162461bcd60e51b81526020600482018181528351602484015283519092839260449091019190850190808383600083156102e95781810151838201526020016102d1565b50600954604080517f12d43a5100000000000000000000000000000000000000000000000000000000815290516001600160a01b039092169160009183916312d43a5191600480820192602092909190829003018186803b158015611cdd57600080fd5b505afa158015611cf1573d6000803e3d6000fd5b505050506040513d6020811015611d0757600080fd5b505160095460408051634a3f088d60e01b81526001600160a01b038b811660048301528a811660248301528981166044830152881515606483015291519394506000939190921691634a3f088d91608480830192610100929190829003018186803b158015611d7557600080fd5b505afa158015611d89573d6000803e3d6000fd5b505050506040513d610100811015611da057600080fd5b50519050600085611e2957836001600160a01b031663e124e6d2886040518263ffffffff1660e01b815260040180826001600160a01b0316815260200191505060206040518083038186803b158015611df857600080fd5b505afa158015611e0c573d6000803e3d6000fd5b505050506040513d6020811015611e2257600080fd5b5051611ea3565b836001600160a01b03166381a612d6886040518263ffffffff1660e01b815260040180826001600160a01b0316815260200191505060206040518083038186803b158015611e7657600080fd5b505afa158015611e8a573d6000803e3d6000fd5b505050506040513d6020811015611ea057600080fd5b50515b600a5460408051633cc8e33b60e21b81526001600160a01b038d811660048301528c811660248301528b811660448301528a151560648301526084820187905260a48201859052600060c4830181905292519495509092169263f3238cec9260e480820193929182900301818387803b158015611f1f57600080fd5b505af1158015611f33573d6000803e3d6000fd5b50505050826001600160a01b0316636d63c1d0856040518263ffffffff1660e01b815260040180826001600160a01b03168152602001915050600060405180830381600087803b158015611f8657600080fd5b505af1158015611f9a573d6000803e3d6000fd5b5050604080517fde2ea9480000000000000000000000000000000000000000000000000000000081526001600160a01b038d811660048301528c811660248301528b811660448301528a1515606483015289811660848301529151918816935063de2ea948925060a48082019260009290919082900301818387803b15801561202257600080fd5b505af1158015612036573d6000803e3d6000fd5b50505050826001600160a01b031663d3c87bbb856040518263ffffffff1660e01b815260040180826001600160a01b03168152602001915050600060405180830381600087803b15801561208957600080fd5b505af115801561209d573d6000803e3d6000fd5b5050600180555050505050505050505050565b6000546001600160a01b03163314612107576040805162461bcd60e51b815260206004820152601560248201527423b7bb32b93730b136329d103337b93134b23232b760591b604482015290519081900360640190fd5b826001600160a01b031663095ea7b383836040518363ffffffff1660e01b815260040180836001600160a01b0316815260200182815260200192505050602060405180830381600087803b15801561215e57600080fd5b505af1158015612172573d6000803e3d6000fd5b505050506040513d602081101561218857600080fd5b5050505050565b600260015414156121e7576040805162461bcd60e51b815260206004820152601f60248201527f5265656e7472616e637947756172643a207265656e7472616e742063616c6c00604482015290519081900360640190fd5b60026001553360009081526004602052604090205460ff168061220c575060025460ff165b6040518060400160405280601a81526020017f506f736974696f6e4d616e616765723a20666f7262696464656e0000000000008152509061228e5760405162461bcd60e51b81526020600482018181528351602484015283519092839260449091019190850190808383600083156102e95781810151838201526020016102d1565b508851600114806122a0575088516002145b60405180606001604052806025815260200161436860259139906123055760405162461bcd60e51b81526020600482018181528351602484015283519092839260449091019190850190808383600083156102e95781810151838201526020016102d1565b5080156123c357600c5489516001600160a01b03909116908a90600019810190811061232d57fe5b60200260200101516001600160a01b0316146040518060400160405280601e81526020017f506f736974696f6e4d616e616765723a20696e76616c6964205f706174680000815250906123c15760405162461bcd60e51b81526020600482018181528351602484015283519092839260449091019190850190808383600083156102e95781810151838201526020016102d1565b505b60006123e9338b6000815181106123d657fe5b60200260200101518b8b8b8b308b612f5f565b905080156124535760018a511115612429576009548a5161241b916001600160a01b03169083908d9060009061173b57fe5b6124268a843061295d565b90505b811561243e576124398186613468565b612453565b61245385828c60018e51038151811061173b57fe5b5050600180555050505050505050565b6008546001600160a01b031633146124c2576040805162461bcd60e51b815260206004820152601e60248201527f42617365506f736974696f6e4d616e616765723a20666f7262696464656e0000604482015290519081900360640190fd5b60005b835181101561255d5760008482815181106124dc57fe5b602002602001015190508382815181106124f257fe5b6020026020010151600e6000836001600160a01b03166001600160a01b031681526020019081526020016000208190555082828151811061252f57fe5b6020908102919091018101516001600160a01b039092166000908152600f90915260409020556001016124c5565b507fae32d569b058895b9620d6552b09aaffedc9a6f396be4d595a224ad09f8b213983838360405180806020018060200180602001848103845287818151815260200191508051906020019060200280838360005b838110156125ca5781810151838201526020016125b2565b50505050905001848103835286818151815260200191508051906020019060200280838360005b838110156126095781810151838201526020016125f1565b50505050905001848103825285818151815260200191508051906020019060200280838360005b83811015612648578181015183820152602001612630565b50505050905001965050505050505060405180910390a1505050565b6008546001600160a01b031633146126c3576040805162461bcd60e51b815260206004820152601e60248201527f42617365506f736974696f6e4d616e616765723a20666f7262696464656e0000604482015290519081900360640190fd5b6001600160a01b038216600090815260106020526040902054806126e75750611070565b6001600160a01b03831660008181526010602052604081205561270b9083836128dd565b604080516001600160a01b0380861682528416602082015280820183905290517f4f1b51dd7a2fcb861aa2670f668be66835c4ee12b4bbbf037e4d0018f39819e49181900360600190a1505050565b6008546001600160a01b031681565b600b546001600160a01b031681565b6009546001600160a01b031681565b804710156127dc576040805162461bcd60e51b815260206004820152601d60248201527f416464726573733a20696e73756666696369656e742062616c616e6365000000604482015290519081900360640190fd5b6040516000906001600160a01b0384169083908381818185875af1925050503d8060008114612827576040519150601f19603f3d011682016040523d82523d6000602084013e61282c565b606091505b505090508061286c5760405162461bcd60e51b815260040180806020018281038252603a8152602001806141e1603a913960400191505060405180910390fd5b505050565b34156128db57600c60009054906101000a90046001600160a01b03166001600160a01b031663d0e30db0346040518263ffffffff1660e01b81526004016000604051808303818588803b1580156128c757600080fd5b505af1158015612188573d6000803e3d6000fd5b565b604080516001600160a01b038416602482015260448082018490528251808303909101815260649091019091526020810180517bffffffffffffffffffffffffffffffffffffffffffffffffffffffff167fa9059cbb0000000000000000000000000000000000000000000000000000000017905261286c90849061351c565b60008351600214156129a45761299d8460008151811061297957fe5b60200260200101518560018151811061298e57fe5b602002602001015185856135cd565b9050612a04565b6040518060600160405280602981526020016142f26029913960405162461bcd60e51b81526020600482018181528351602484015283519092839260449091019190850190808383600083156102e95781810151838201526020016102d1565b9392505050565b600080612a1c8888888888886136e8565b90508015612adb576000612a53612710612a4d612a466006546127106138c590919063ffffffff16565b8a90613910565b90613969565b90506000612a6188836138c5565b905060008960018b510381518110612a7557fe5b60200260200101519050612ab78260106000846001600160a01b03166001600160a01b03168152602001908152602001600020546139ab90919063ffffffff16565b6001600160a01b03909116600090815260106020526040902055509150612ae09050565b859150505b9695505050505050565b6009546001600160a01b0316600083612b7b57816001600160a01b03166381a612d6876040518263ffffffff1660e01b815260040180826001600160a01b0316815260200191505060206040518083038186803b158015612b4a57600080fd5b505afa158015612b5e573d6000803e3d6000fd5b505050506040513d6020811015612b7457600080fd5b5051612bf5565b816001600160a01b031663e124e6d2876040518263ffffffff1660e01b815260040180826001600160a01b0316815260200191505060206040518083038186803b158015612bc857600080fd5b505afa158015612bdc573d6000803e3d6000fd5b505050506040513d6020811015612bf257600080fd5b50515b90508315612c6c57828111156040518060600160405280603181526020016142c16031913990612c665760405162461bcd60e51b81526020600482018181528351602484015283519092839260449091019190850190808383600083156102e95781810151838201526020016102d1565b50612cd7565b828110156040518060600160405280603081526020016142416030913990612cd55760405162461bcd60e51b81526020600482018181528351602484015283519092839260449091019190850190808383600083156102e95781810151838201526020016102d1565b505b612ce2868587613a05565b6000826001600160a01b03166312d43a516040518163ffffffff1660e01b815260040160206040518083038186803b158015612d1d57600080fd5b505afa158015612d31573d6000803e3d6000fd5b505050506040513d6020811015612d4757600080fd5b5051600a5460408051633cc8e33b60e21b81526001600160a01b038d811660048301528c811660248301528b811660448301528915156064830152608482018b905260a48201879052600160c4830152915193945091169163f3238cec9160e48082019260009290919082900301818387803b158015612dc657600080fd5b505af1158015612dda573d6000803e3d6000fd5b50505050806001600160a01b0316636d63c1d0846040518263ffffffff1660e01b815260040180826001600160a01b03168152602001915050600060405180830381600087803b158015612e2d57600080fd5b505af1158015612e41573d6000803e3d6000fd5b5050600b54604080517f1f1dd1760000000000000000000000000000000000000000000000000000000081526001600160a01b038e811660048301528d811660248301528c81166044830152606482018c90528a151560848301529151919092169350631f1dd176925060a480830192600092919082900301818387803b158015612ecb57600080fd5b505af1158015612edf573d6000803e3d6000fd5b50505050806001600160a01b031663d3c87bbb846040518263ffffffff1660e01b815260040180826001600160a01b03168152602001915050600060405180830381600087803b158015612f3257600080fd5b505af1158015612f46573d6000803e3d6000fd5b50505050612f548987613c41565b505050505050505050565b6009546000906001600160a01b03168185612ff257816001600160a01b031663e124e6d28a6040518263ffffffff1660e01b815260040180826001600160a01b0316815260200191505060206040518083038186803b158015612fc157600080fd5b505afa158015612fd5573d6000803e3d6000fd5b505050506040513d6020811015612feb57600080fd5b505161306c565b816001600160a01b03166381a612d68a6040518263ffffffff1660e01b815260040180826001600160a01b0316815260200191505060206040518083038186803b15801561303f57600080fd5b505afa158015613053573d6000803e3d6000fd5b505050506040513d602081101561306957600080fd5b50515b905085156130e3578381101560405180606001604052806030815260200161424160309139906130dd5760405162461bcd60e51b81526020600482018181528351602484015283519092839260449091019190850190808383600083156102e95781810151838201526020016102d1565b5061314e565b838111156040518060600160405280603181526020016142c1603191399061314c5760405162461bcd60e51b81526020600482018181528351602484015283519092839260449091019190850190808383600083156102e95781810151838201526020016102d1565b505b6000826001600160a01b03166312d43a516040518163ffffffff1660e01b815260040160206040518083038186803b15801561318957600080fd5b505afa15801561319d573d6000803e3d6000fd5b505050506040513d60208110156131b357600080fd5b81019080805190602001909291905050509050600a60009054906101000a90046001600160a01b03166001600160a01b031663f3238cec8d8d8d8b8d8860006040518863ffffffff1660e01b815260040180886001600160a01b03168152602001876001600160a01b03168152602001866001600160a01b0316815260200185151581526020018481526020018381526020018215158152602001975050505050505050600060405180830381600087803b15801561327157600080fd5b505af1158015613285573d6000803e3d6000fd5b50505050806001600160a01b0316636d63c1d0846040518263ffffffff1660e01b815260040180826001600160a01b03168152602001915050600060405180830381600087803b1580156132d857600080fd5b505af11580156132ec573d6000803e3d6000fd5b505050506000600b60009054906101000a90046001600160a01b03166001600160a01b0316632662166b8e8e8e8e8e8e8e6040518863ffffffff1660e01b815260040180886001600160a01b03168152602001876001600160a01b03168152602001866001600160a01b031681526020018581526020018481526020018315158152602001826001600160a01b03168152602001975050505050505050602060405180830381600087803b1580156133a357600080fd5b505af11580156133b7573d6000803e3d6000fd5b505050506040513d60208110156133cd57600080fd5b5051604080517fd3c87bbb0000000000000000000000000000000000000000000000000000000081526001600160a01b03878116600483015291519293509084169163d3c87bbb9160248082019260009290919082900301818387803b15801561343657600080fd5b505af115801561344a573d6000803e3d6000fd5b505050506134588d8a613dcd565b9c9b505050505050505050505050565b600c54604080517f2e1a7d4d0000000000000000000000000000000000000000000000000000000081526004810185905290516001600160a01b0390921691632e1a7d4d9160248082019260009290919082900301818387803b1580156134ce57600080fd5b505af11580156134e2573d6000803e3d6000fd5b50506040516001600160a01b038416925084156108fc02915084906000818181858888f1935050505015801561286c573d6000803e3d6000fd5b6060613571826040518060400160405280602081526020017f5361666545524332303a206c6f772d6c6576656c2063616c6c206661696c6564815250856001600160a01b0316613ee99092919063ffffffff16565b80519091501561286c5780806020019051602081101561359057600080fd5b505161286c5760405162461bcd60e51b815260040180806020018281038252602a81526020018061433e602a913960400191505060405180910390fd5b600954604080517f933162120000000000000000000000000000000000000000000000000000000081526001600160a01b03878116600483015286811660248301528481166044830152915160009384931691639331621291606480830192602092919082900301818787803b15801561364657600080fd5b505af115801561365a573d6000803e3d6000fd5b505050506040513d602081101561367057600080fd5b50516040805160608101909152602b80825291925085831015916141b66020830139906136de5760405162461bcd60e51b81526020600482018181528351602484015283519092839260449091019190850190808383600083156102e95781810151838201526020016102d1565b5095945050505050565b6000826136f757506000612ae0565b8161370457506001612ae0565b60008660018851038151811061371657fe5b602090810291909101015160095460408051634a3f088d60e01b81526001600160a01b038c81166004830152808516602483015289811660448301528815156064830152915193945091169160009182918491634a3f088d91608480830192610100929190829003018186803b15801561378f57600080fd5b505afa1580156137a3573d6000803e3d6000fd5b505050506040513d6101008110156137ba57600080fd5b5080516020909101519092509050816137da576000945050505050612ae0565b60006137e683886139ab565b90506000846001600160a01b0316630a48d5a9878d6040518363ffffffff1660e01b815260040180836001600160a01b031681526020018281526020019250505060206040518083038186803b15801561383f57600080fd5b505afa158015613853573d6000803e3d6000fd5b505050506040513d602081101561386957600080fd5b50519050600061387984836139ab565b9050600061388d85612a4d88612710613910565b905060006138ae83612a4d600754612710018861391090919063ffffffff16565b919091109f9e505050505050505050505050505050565b600061390783836040518060400160405280601e81526020017f536166654d6174683a207375627472616374696f6e206f766572666c6f770000815250613f00565b90505b92915050565b60008261391f5750600061390a565b8282028284828161392c57fe5b04146139075760405162461bcd60e51b81526004018080602001828103825260218152602001806142a06021913960400191505060405180910390fd5b600061390783836040518060400160405280601a81526020017f536166654d6174683a206469766973696f6e206279207a65726f000000000000815250613f5a565b600082820183811015613907576040805162461bcd60e51b815260206004820152601b60248201527f536166654d6174683a206164646974696f6e206f766572666c6f770000000000604482015290519081900360640190fd5b80613a0f5761286c565b8115613b44576001600160a01b0383166000908152600e60205260409020548015801590613ad95750600954604080517ff07456ce0000000000000000000000000000000000000000000000000000000081526001600160a01b03878116600483015291518493613ad793879391169163f07456ce91602480820192602092909190829003018186803b158015613aa557600080fd5b505afa158015613ab9573d6000803e3d6000fd5b505050506040513d6020811015613acf57600080fd5b5051906139ab565b115b15613b3e576040518060600160405280602e8152602001614188602e913960405162461bcd60e51b81526020600482018181528351602484015283519092839260449091019190850190808383600083156102e95781810151838201526020016102d1565b5061286c565b6001600160a01b0383166000908152600f60205260409020548015801590613bd65750600954604080517f8a78daa80000000000000000000000000000000000000000000000000000000081526001600160a01b03878116600483015291518493613bd4938793911691638a78daa891602480820192602092909190829003018186803b158015613aa557600080fd5b115b15613c3b576040518060600160405280602f8152602001614271602f913960405162461bcd60e51b81526020600482018181528351602484015283519092839260449091019190850190808383600083156102e95781810151838201526020016102d1565b50505050565b600d546001600160a01b031680613c585750611070565b600080826001600160a01b031663534ef883866040518263ffffffff1660e01b815260040180826001600160a01b03168152602001915050604080518083038186803b158015613ca757600080fd5b505afa158015613cbb573d6000803e3d6000fd5b505050506040513d6040811015613cd157600080fd5b508051602091820151600954604080517f318bc68900000000000000000000000000000000000000000000000000000000815290519396509194507fc2414023ce7002ee98557d1e7be21e5559073336f2217ee5f9b2e50fd85f71ee93899389936001600160a01b039093169263318bc689926004808301939192829003018186803b158015613d6057600080fd5b505afa158015613d74573d6000803e3d6000fd5b505050506040513d6020811015613d8a57600080fd5b5051604080516001600160a01b03948516815260208101939093528281019190915260608201869052918416608082015290519081900360a00190a15050505050565b600d546001600160a01b031680613de45750611070565b600080826001600160a01b031663534ef883866040518263ffffffff1660e01b815260040180826001600160a01b03168152602001915050604080518083038186803b158015613e3357600080fd5b505afa158015613e47573d6000803e3d6000fd5b505050506040513d6040811015613e5d57600080fd5b508051602090910151909250905081613e7857505050611070565b7f474c763ff84bf2c2039a6d9fea955ecd0f724030e3c365b91169c6a16fe751b78585600960009054906101000a90046001600160a01b03166001600160a01b031663318bc6896040518163ffffffff1660e01b815260040160206040518083038186803b158015613d6057600080fd5b6060613ef88484600085613fbf565b949350505050565b60008184841115613f525760405162461bcd60e51b81526020600482018181528351602484015283519092839260449091019190850190808383600083156102e95781810151838201526020016102d1565b505050900390565b60008183613fa95760405162461bcd60e51b81526020600482018181528351602484015283519092839260449091019190850190808383600083156102e95781810151838201526020016102d1565b506000838581613fb557fe5b0495945050505050565b6060824710156140005760405162461bcd60e51b815260040180806020018281038252602681526020018061421b6026913960400191505060405180910390fd5b6140098561411b565b61405a576040805162461bcd60e51b815260206004820152601d60248201527f416464726573733a2063616c6c20746f206e6f6e2d636f6e7472616374000000604482015290519081900360640190fd5b60006060866001600160a01b031685876040518082805190602001908083835b602083106140995780518252601f19909201916020918201910161407a565b6001836020036101000a03801982511681845116808217855250505050505090500191505060006040518083038185875af1925050503d80600081146140fb576040519150601f19603f3d011682016040523d82523d6000602084013e614100565b606091505b5091509150614110828286614121565b979650505050505050565b3b151590565b60608315614130575081612a04565b8251156141405782518084602001fd5b60405162461bcd60e51b81526020600482018181528451602484015284518593919283926044019190850190808383600083156102e95781810151838201526020016102d156fe42617365506f736974696f6e4d616e616765723a206d617820676c6f62616c206c6f6e677320657863656564656442617365506f736974696f6e4d616e616765723a20696e73756666696369656e7420616d6f756e744f7574416464726573733a20756e61626c6520746f2073656e642076616c75652c20726563697069656e74206d61792068617665207265766572746564416464726573733a20696e73756666696369656e742062616c616e636520666f722063616c6c42617365506f736974696f6e4d616e616765723a206d61726b207072696365206c6f776572207468616e206c696d697442617365506f736974696f6e4d616e616765723a206d617820676c6f62616c2073686f727473206578636565646564536166654d6174683a206d756c7469706c69636174696f6e206f766572666c6f7742617365506f736974696f6e4d616e616765723a206d61726b20707269636520686967686572207468616e206c696d697442617365506f736974696f6e4d616e616765723a20696e76616c6964205f706174682e6c656e67746842617365506f736974696f6e4d616e616765723a20696e76616c69642073656e6465725361666545524332303a204552433230206f7065726174696f6e20646964206e6f742073756363656564506f736974696f6e4d616e616765723a20696e76616c6964205f706174682e6c656e677468a26469706673582212200076238d90e059c3e4e1c3444d04ce94260a00d42897eca7d6d5c38c96297ede64736f6c634300060c0033",
  "devdoc": {
    "kind": "dev",
    "methods": {},
    "version": 1
  },
  "userdoc": {
    "kind": "user",
    "methods": {},
    "version": 1
  },
  "storageLayout": {
    "storage": [
      {
        "astId": 3,
        "contract": "contracts/core/PositionManager.sol:PositionManager",
        "label": "gov",
        "offset": 0,
        "slot": "0",
        "type": "t_address"
      },
      {
        "astId": 15155,
        "contract": "contracts/core/PositionManager.sol:PositionManager",
        "label": "_status",
        "offset": 0,
        "slot": "1",
        "type": "t_uint256"
      },
      {
        "astId": 12203,
        "contract": "contracts/core/PositionManager.sol:PositionManager",
        "label": "opened",
        "offset": 0,
        "slot": "2",
        "type": "t_bool"
      },
      {
        "astId": 12206,
        "contract": "contracts/core/PositionManager.sol:PositionManager",
        "label": "shouldValidateIncreaseOrder",
        "offset": 1,
        "slot": "2",
        "type": "t_bool"
      },
      {
        "astId": 12208,
        "contract": "contracts/core/PositionManager.sol:PositionManager",
        "label": "orderBook",
        "offset": 2,
        "slot": "2",
        "type": "t_address"
      },
      {
        "astId": 12212,
        "contract": "contracts/core/PositionManager.sol:PositionManager",
        "label": "isOrderKeeper",
        "offset": 0,
        "slot": "3",
        "type": "t_mapping(t_address,t_bool)"
      },
      {
        "astId": 12216,
        "contract": "contracts/core/PositionManager.sol:PositionManager",
        "label": "isPartner",
        "offset": 0,
        "slot": "4",
        "type": "t_mapping(t_address,t_bool)"
      },
      {
        "astId": 12220,
        "contract": "contracts/core/PositionManager.sol:PositionManager",
        "label": "isLiquidator",
        "offset": 0,
        "slot": "5",
        "type": "t_mapping(t_address,t_bool)"
      },
      {
        "astId": 12006,
        "contract": "contracts/core/PositionManager.sol:PositionManager",
        "label": "depositFee",
        "offset": 0,
        "slot": "6",
        "type": "t_uint256"
      },
      {
        "astId": 12009,
        "contract": "contracts/core/PositionManager.sol:PositionManager",
        "label": "increasePositionBufferBps",
        "offset": 0,
        "slot": "7",
        "type": "t_uint256"
      },
      {
        "astId": 12011,
        "contract": "contracts/core/PositionManager.sol:PositionManager",
        "label": "admin",
        "offset": 0,
        "slot": "8",
        "type": "t_address"
      },
      {
        "astId": 12013,
        "contract": "contracts/core/PositionManager.sol:PositionManager",
        "label": "vault",
        "offset": 0,
        "slot": "9",
        "type": "t_address"
      },
      {
        "astId": 12015,
        "contract": "contracts/core/PositionManager.sol:PositionManager",
        "label": "shortsTracker",
        "offset": 0,
        "slot": "10",
        "type": "t_address"
      },
      {
        "astId": 12017,
        "contract": "contracts/core/PositionManager.sol:PositionManager",
        "label": "router",
        "offset": 0,
        "slot": "11",
        "type": "t_address"
      },
      {
        "astId": 12019,
        "contract": "contracts/core/PositionManager.sol:PositionManager",
        "label": "weth",
        "offset": 0,
        "slot": "12",
        "type": "t_address"
      },
      {
        "astId": 12021,
        "contract": "contracts/core/PositionManager.sol:PositionManager",
        "label": "referralStorage",
        "offset": 0,
        "slot": "13",
        "type": "t_address"
      },
      {
        "astId": 12026,
        "contract": "contracts/core/PositionManager.sol:PositionManager",
        "label": "maxGlobalLongSizes",
        "offset": 0,
        "slot": "14",
        "type": "t_mapping(t_address,t_uint256)"
      },
      {
        "astId": 12031,
        "contract": "contracts/core/PositionManager.sol:PositionManager",
        "label": "maxGlobalShortSizes",
        "offset": 0,
        "slot": "15",
        "type": "t_mapping(t_address,t_uint256)"
      },
      {
        "astId": 12035,
        "contract": "contracts/core/PositionManager.sol:PositionManager",
        "label": "feeReserves",
        "offset": 0,
        "slot": "16",
        "type": "t_mapping(t_address,t_uint256)"
      }
    ],
    "types": {
      "t_address": {
        "encoding": "inplace",
        "label": "address",
        "numberOfBytes": "20"
      },
      "t_bool": {
        "encoding": "inplace",
        "label": "bool",
        "numberOfBytes": "1"
      },
      "t_mapping(t_address,t_bool)": {
        "encoding": "mapping",
        "key": "t_address",
        "label": "mapping(address => bool)",
        "numberOfBytes": "32",
        "value": "t_bool"
      },
      "t_mapping(t_address,t_uint256)": {
        "encoding": "mapping",
        "key": "t_address",
        "label": "mapping(address => uint256)",
        "numberOfBytes": "32",
        "value": "t_uint256"
      },
      "t_uint256": {
        "encoding": "inplace",
        "label": "uint256",
        "numberOfBytes": "32"
      }
    }
  }
}