{
  "address": "0x69DC763488380051BC2B0420c8d15e8B588887dc",
  "abi": [
    {
      "inputs": [],
      "name": "bnMold",
      "outputs": [
        {
          "internalType": "address",
          "name": "",
          "type": "address"
        }
      ],
      "stateMutability": "view",
      "type": "function"
    },
    {
      "inputs": [],
      "name": "bonusMoldTracker",
      "outputs": [
        {
          "internalType": "address",
          "name": "",
          "type": "address"
        }
      ],
      "stateMutability": "view",
      "type": "function"
    },
    {
      "inputs": [],
      "name": "esMold",
      "outputs": [
        {
          "internalType": "address",
          "name": "",
          "type": "address"
        }
      ],
      "stateMutability": "view",
      "type": "function"
    },
    {
      "inputs": [],
      "name": "feeMlpTracker",
      "outputs": [
        {
          "internalType": "address",
          "name": "",
          "type": "address"
        }
      ],
      "stateMutability": "view",
      "type": "function"
    },
    {
      "inputs": [],
      "name": "feeMoldTracker",
      "outputs": [
        {
          "internalType": "address",
          "name": "",
          "type": "address"
        }
      ],
      "stateMutability": "view",
      "type": "function"
    },
    {
      "inputs": [],
      "name": "gov",
      "outputs": [
        {
          "internalType": "address",
          "name": "",
          "type": "address"
        }
      ],
      "stateMutability": "view",
      "type": "function"
    },
    {
      "inputs": [
        {
          "internalType": "address",
          "name": "_weth",
          "type": "address"
        },
        {
          "internalType": "address",
          "name": "_mold",
          "type": "address"
        },
        {
          "internalType": "address",
          "name": "_esMold",
          "type": "address"
        },
        {
          "internalType": "address",
          "name": "_bnMold",
          "type": "address"
        },
        {
          "internalType": "address",
          "name": "_mlp",
          "type": "address"
        },
        {
          "internalType": "address",
          "name": "_stakedMoldTracker",
          "type": "address"
        },
        {
          "internalType": "address",
          "name": "_bonusMoldTracker",
          "type": "address"
        },
        {
          "internalType": "address",
          "name": "_feeMoldTracker",
          "type": "address"
        },
        {
          "internalType": "address",
          "name": "_feeMlpTracker",
          "type": "address"
        },
        {
          "internalType": "address",
          "name": "_stakedMlpTracker",
          "type": "address"
        },
        {
          "internalType": "address",
          "name": "_mlpManager",
          "type": "address"
        },
        {
          "internalType": "address",
          "name": "_moldVester",
          "type": "address"
        },
        {
          "internalType": "address",
          "name": "_mlpVester",
          "type": "address"
        }
      ],
      "name": "initialize",
      "outputs": [],
      "stateMutability": "nonpayable",
      "type": "function"
    },
    {
      "inputs": [],
      "name": "isInitialized",
      "outputs": [
        {
          "internalType": "bool",
          "name": "",
          "type": "bool"
        }
      ],
      "stateMutability": "view",
      "type": "function"
    },
    {
      "inputs": [
        {
          "internalType": "address",
          "name": "_token",
          "type": "address"
        },
        {
          "internalType": "uint256",
          "name": "_amount",
          "type": "uint256"
        },
        {
          "internalType": "uint256",
          "name": "_minUsdm",
          "type": "uint256"
        },
        {
          "internalType": "uint256",
          "name": "_minMlp",
          "type": "uint256"
        }
      ],
      "name": "mintAndStakeMlp",
      "outputs": [
        {
          "internalType": "uint256",
          "name": "",
          "type": "uint256"
        }
      ],
      "stateMutability": "nonpayable",
      "type": "function"
    },
    {
      "inputs": [
        {
          "internalType": "uint256",
          "name": "_minUsdm",
          "type": "uint256"
        },
        {
          "internalType": "uint256",
          "name": "_minMlp",
          "type": "uint256"
        }
      ],
      "name": "mintAndStakeMlpETH",
      "outputs": [
        {
          "internalType": "uint256",
          "name": "",
          "type": "uint256"
        }
      ],
      "stateMutability": "payable",
      "type": "function"
    },
    {
      "inputs": [],
      "name": "mlp",
      "outputs": [
        {
          "internalType": "address",
          "name": "",
          "type": "address"
        }
      ],
      "stateMutability": "view",
      "type": "function"
    },
    {
      "inputs": [],
      "name": "mlpManager",
      "outputs": [
        {
          "internalType": "address",
          "name": "",
          "type": "address"
        }
      ],
      "stateMutability": "view",
      "type": "function"
    },
    {
      "inputs": [],
      "name": "mlpVester",
      "outputs": [
        {
          "internalType": "address",
          "name": "",
          "type": "address"
        }
      ],
      "stateMutability": "view",
      "type": "function"
    },
    {
      "inputs": [],
      "name": "mold",
      "outputs": [
        {
          "internalType": "address",
          "name": "",
          "type": "address"
        }
      ],
      "stateMutability": "view",
      "type": "function"
    },
    {
      "inputs": [],
      "name": "moldVester",
      "outputs": [
        {
          "internalType": "address",
          "name": "",
          "type": "address"
        }
      ],
      "stateMutability": "view",
      "type": "function"
    },
    {
      "inputs": [
        {
          "internalType": "address",
          "name": "",
          "type": "address"
        }
      ],
      "name": "pendingReceivers",
      "outputs": [
        {
          "internalType": "address",
          "name": "",
          "type": "address"
        }
      ],
      "stateMutability": "view",
      "type": "function"
    },
    {
      "inputs": [
        {
          "internalType": "address",
          "name": "_gov",
          "type": "address"
        }
      ],
      "name": "setGov",
      "outputs": [],
      "stateMutability": "nonpayable",
      "type": "function"
    },
    {
      "inputs": [],
      "name": "stakedMlpTracker",
      "outputs": [
        {
          "internalType": "address",
          "name": "",
          "type": "address"
        }
      ],
      "stateMutability": "view",
      "type": "function"
    },
    {
      "inputs": [],
      "name": "stakedMoldTracker",
      "outputs": [
        {
          "internalType": "address",
          "name": "",
          "type": "address"
        }
      ],
      "stateMutability": "view",
      "type": "function"
    },
    {
      "inputs": [
        {
          "internalType": "address",
          "name": "_tokenOut",
          "type": "address"
        },
        {
          "internalType": "uint256",
          "name": "_mlpAmount",
          "type": "uint256"
        },
        {
          "internalType": "uint256",
          "name": "_minOut",
          "type": "uint256"
        },
        {
          "internalType": "address",
          "name": "_receiver",
          "type": "address"
        }
      ],
      "name": "unstakeAndRedeemMlp",
      "outputs": [
        {
          "internalType": "uint256",
          "name": "",
          "type": "uint256"
        }
      ],
      "stateMutability": "nonpayable",
      "type": "function"
    },
    {
      "inputs": [
        {
          "internalType": "uint256",
          "name": "_mlpAmount",
          "type": "uint256"
        },
        {
          "internalType": "uint256",
          "name": "_minOut",
          "type": "uint256"
        },
        {
          "internalType": "address payable",
          "name": "_receiver",
          "type": "address"
        }
      ],
      "name": "unstakeAndRedeemMlpETH",
      "outputs": [
        {
          "internalType": "uint256",
          "name": "",
          "type": "uint256"
        }
      ],
      "stateMutability": "nonpayable",
      "type": "function"
    },
    {
      "inputs": [],
      "name": "weth",
      "outputs": [
        {
          "internalType": "address",
          "name": "",
          "type": "address"
        }
      ],
      "stateMutability": "view",
      "type": "function"
    },
    {
      "stateMutability": "payable",
      "type": "receive"
    }
  ],
  "transactionHash": "0x3505d67045b7ec45e7d4b572d6d5aeb7ae3ef272869978d2a575ed9f23285b2b",
  "args": [],
  "numDeployments": 1,
  "solcInputHash": "59bf562207d3b98a68d8cbf2ed09b4a8",
  "bytecode": "0x608060405234801561001057600080fd5b506001600081905580546001600160a01b03191633179055611311806100376000396000f3fe6080604052600436106101795760003560e01c8063944b4e5f116100cb578063cbb91c5e1161007f578063e1b9db8911610059578063e1b9db8914610532578063f5e3587914610565578063fc8b6fc1146105aa5761024c565b8063cbb91c5e146104d5578063cfad57a2146104ea578063d4d933f01461051d5761024c565b8063b2a39a2a116100b0578063b2a39a2a14610496578063b77aae8f146104ab578063bf23e32f146104c05761024c565b8063944b4e5f1461045e578063aec61443146104815761024c565b80633e49e2131161012d57806353f33a551161010757806353f33a55146103ed5780635e39e99614610434578063882acc1c146104495761024c565b80633e49e213146103725780633fc8cef3146103875780635387701e1461039c5761024c565b80632ce73b681161015e5780632ce73b68146102975780632fdd983d146102ac578063392e53cd146103495761024c565b806312d43a51146102515780632456d3df146102825761024c565b3661024c5760025460408051808201909152601681527f526f757465723a20696e76616c69642073656e646572000000000000000000006020820152906001600160a01b031633146102495760405162461bcd60e51b81526004018080602001828103825283818151815260200191508051906020019080838360005b8381101561020e5781810151838201526020016101f6565b50505050905090810190601f16801561023b5780820380516001836020036101000a031916815260200191505b509250505060405180910390fd5b50005b600080fd5b34801561025d57600080fd5b506102666105bf565b604080516001600160a01b039092168252519081900360200190f35b34801561028e57600080fd5b506102666105ce565b3480156102a357600080fd5b506102666105dd565b3480156102b857600080fd5b5061034760048036036101a08110156102d057600080fd5b506001600160a01b038135811691602081013582169160408201358116916060810135821691608082013581169160a081013582169160c082013581169160e081013582169161010082013581169161012081013582169161014082013581169161016081013582169161018090910135166105ec565b005b34801561035557600080fd5b5061035e6107e1565b604080519115158252519081900360200190f35b34801561037e57600080fd5b506102666107f1565b34801561039357600080fd5b50610266610800565b3480156103a857600080fd5b506103db600480360360608110156103bf57600080fd5b50803590602081013590604001356001600160a01b031661080f565b60408051918252519081900360200190f35b3480156103f957600080fd5b506103db6004803603608081101561041057600080fd5b506001600160a01b0381358116916020810135916040820135916060013516610a72565b34801561044057600080fd5b50610266610c42565b34801561045557600080fd5b50610266610c51565b6103db6004803603604081101561047457600080fd5b5080359060200135610c60565b34801561048d57600080fd5b50610266610ef4565b3480156104a257600080fd5b50610266610f03565b3480156104b757600080fd5b50610266610f12565b3480156104cc57600080fd5b50610266610f21565b3480156104e157600080fd5b50610266610f30565b3480156104f657600080fd5b506103476004803603602081101561050d57600080fd5b50356001600160a01b0316610f3f565b34801561052957600080fd5b50610266610fcd565b34801561053e57600080fd5b506102666004803603602081101561055557600080fd5b50356001600160a01b0316610fdc565b34801561057157600080fd5b506103db6004803603608081101561058857600080fd5b506001600160a01b038135169060208101359060408101359060600135610ff7565b3480156105b657600080fd5b50610266611187565b6001546001600160a01b031681565b6005546001600160a01b031681565b600e546001600160a01b031681565b6001546001600160a01b0316331461064b576040805162461bcd60e51b815260206004820152601560248201527f476f7665726e61626c653a20666f7262696464656e0000000000000000000000604482015290519081900360640190fd5b600160149054906101000a900460ff16156040518060600160405280602181526020016112bb60219139906106c15760405162461bcd60e51b815260206004820181815283516024840152835190928392604490910191908501908083836000831561020e5781810151838201526020016101f6565b50600180547fffffffffffffffffffffff00ffffffffffffffffffffffffffffffffffffffff16600160a01b179055600280546001600160a01b039e8f1673ffffffffffffffffffffffffffffffffffffffff1991821617909155600380549d8f169d82169d909d17909c55600480549b8e169b8d169b909b17909a5560058054998d16998c169990991790985560068054978c16978b169790971790965560078054958b16958a169590951790945560088054938a169389169390931790925560098054918916918816919091179055600b8054918816918716919091179055600a8054918716918616919091179055600c8054918616918516919091179055600e8054918516918416919091179055600d8054919093169116179055565b600154600160a01b900460ff1681565b6006546001600160a01b031681565b6002546001600160a01b031681565b600060026000541415610869576040805162461bcd60e51b815260206004820152601f60248201527f5265656e7472616e637947756172643a207265656e7472616e742063616c6c00604482015290519081900360640190fd5b60026000556040805180820190915260208082527f526577617264526f757465723a20696e76616c6964205f6d6c70416d6f756e7490820152846108ee5760405162461bcd60e51b815260206004820181815283516024840152835190928392604490910191908501908083836000831561020e5781810151838201526020016101f6565b50600c54600254604080516371d597ad60e01b815233600482018190526001600160a01b03938416602483015260448201899052606482018890523060848301529151919360009316916371d597ad9160a48082019260209290919082900301818787803b15801561095f57600080fd5b505af1158015610973573d6000803e3d6000fd5b505050506040513d602081101561098957600080fd5b5051600254604080517f2e1a7d4d0000000000000000000000000000000000000000000000000000000081526004810184905290519293506001600160a01b0390911691632e1a7d4d9160248082019260009290919082900301818387803b1580156109f457600080fd5b505af1158015610a08573d6000803e3d6000fd5b50610a20925050506001600160a01b03851682611196565b604080516001600160a01b03841681526020810188905281517fcc7cb940d1fa10f6c95397bd7355aef0bad1b89bfc9cd922162720bff9110094929181900390910190a1600160005595945050505050565b600060026000541415610acc576040805162461bcd60e51b815260206004820152601f60248201527f5265656e7472616e637947756172643a207265656e7472616e742063616c6c00604482015290519081900360640190fd5b60026000556040805180820190915260208082527f526577617264526f757465723a20696e76616c6964205f6d6c70416d6f756e749082015284610b515760405162461bcd60e51b815260206004820181815283516024840152835190928392604490910191908501908083836000831561020e5781810151838201526020016101f6565b50600c54604080516371d597ad60e01b815233600482018190526001600160a01b038981166024840152604483018990526064830188905286811660848401529251909360009316916371d597ad9160a480830192602092919082900301818787803b158015610bc057600080fd5b505af1158015610bd4573d6000803e3d6000fd5b505050506040513d6020811015610bea57600080fd5b5051604080516001600160a01b03851681526020810189905281519293507fcc7cb940d1fa10f6c95397bd7355aef0bad1b89bfc9cd922162720bff9110094929081900390910190a160016000559695505050505050565b6009546001600160a01b031681565b6008546001600160a01b031681565b600060026000541415610cba576040805162461bcd60e51b815260206004820152601f60248201527f5265656e7472616e637947756172643a207265656e7472616e742063616c6c00604482015290519081900360640190fd5b600260005560408051808201909152601f81527f526577617264526f757465723a20696e76616c6964206d73672e76616c756500602082015234610d3f5760405162461bcd60e51b815260206004820181815283516024840152835190928392604490910191908501908083836000831561020e5781810151838201526020016101f6565b50600260009054906101000a90046001600160a01b03166001600160a01b031663d0e30db0346040518263ffffffff1660e01b81526004016000604051808303818588803b158015610d9057600080fd5b505af1158015610da4573d6000803e3d6000fd5b5050600254600c54604080517f095ea7b30000000000000000000000000000000000000000000000000000000081526001600160a01b039283166004820152346024820152905191909216945063095ea7b39350604480830193506020928290030181600087803b158015610e1857600080fd5b505af1158015610e2c573d6000803e3d6000fd5b505050506040513d6020811015610e4257600080fd5b5050600c54600254604080516317eb2a1560e01b815230600482015233602482018190526001600160a01b0393841660448301523460648301526084820188905260a482018790529151919360009316916317eb2a159160c48082019260209290919082900301818787803b158015610eba57600080fd5b505af1158015610ece573d6000803e3d6000fd5b505050506040513d6020811015610ee457600080fd5b5051600160005595945050505050565b6004546001600160a01b031681565b600d546001600160a01b031681565b6003546001600160a01b031681565b6007546001600160a01b031681565b600c546001600160a01b031681565b6001546001600160a01b03163314610f9e576040805162461bcd60e51b815260206004820152601560248201527f476f7665726e61626c653a20666f7262696464656e0000000000000000000000604482015290519081900360640190fd5b6001805473ffffffffffffffffffffffffffffffffffffffff19166001600160a01b0392909216919091179055565b600a546001600160a01b031681565b600f602052600090815260409020546001600160a01b031681565b600060026000541415611051576040805162461bcd60e51b815260206004820152601f60248201527f5265656e7472616e637947756172643a207265656e7472616e742063616c6c00604482015290519081900360640190fd5b600260005560408051808201909152601d81527f526577617264526f757465723a20696e76616c6964205f616d6f756e740000006020820152846110d65760405162461bcd60e51b815260206004820181815283516024840152835190928392604490910191908501908083836000831561020e5781810151838201526020016101f6565b50600c54604080516317eb2a1560e01b81523360048201819052602482018190526001600160a01b038981166044840152606483018990526084830188905260a483018790529251909360009316916317eb2a159160c480830192602092919082900301818787803b15801561114b57600080fd5b505af115801561115f573d6000803e3d6000fd5b505050506040513d602081101561117557600080fd5b50516001600055979650505050505050565b600b546001600160a01b031681565b804710156111eb576040805162461bcd60e51b815260206004820152601d60248201527f416464726573733a20696e73756666696369656e742062616c616e6365000000604482015290519081900360640190fd5b6040516000906001600160a01b0384169083908381818185875af1925050503d8060008114611236576040519150601f19603f3d011682016040523d82523d6000602084013e61123b565b606091505b505090508061127b5760405162461bcd60e51b815260040180806020018281038252603a815260200180611281603a913960400191505060405180910390fd5b50505056fe416464726573733a20756e61626c6520746f2073656e642076616c75652c20726563697069656e74206d61792068617665207265766572746564526577617264526f757465723a20616c726561647920696e697469616c697a6564a2646970667358221220a94930a1ca9cb86be9dbaa9fc3e0289b3c1155984915974dee60ee015dc4853f64736f6c634300060c0033",
  "devdoc": {
    "kind": "dev",
    "methods": {},
    "version": 1
  },
  "userdoc": {
    "kind": "user",
    "methods": {},
    "version": 1
  },
  "storageLayout": {
    "storage": [
      {
        "astId": 15155,
        "contract": "contracts/staking/RewardRouterV2.sol:RewardRouterV2",
        "label": "_status",
        "offset": 0,
        "slot": "0",
        "type": "t_uint256"
      },
      {
        "astId": 3,
        "contract": "contracts/staking/RewardRouterV2.sol:RewardRouterV2",
        "label": "gov",
        "offset": 0,
        "slot": "1",
        "type": "t_address"
      },
      {
        "astId": 12328,
        "contract": "contracts/staking/RewardRouterV2.sol:RewardRouterV2",
        "label": "isInitialized",
        "offset": 20,
        "slot": "1",
        "type": "t_bool"
      },
      {
        "astId": 12330,
        "contract": "contracts/staking/RewardRouterV2.sol:RewardRouterV2",
        "label": "weth",
        "offset": 0,
        "slot": "2",
        "type": "t_address"
      },
      {
        "astId": 12332,
        "contract": "contracts/staking/RewardRouterV2.sol:RewardRouterV2",
        "label": "mold",
        "offset": 0,
        "slot": "3",
        "type": "t_address"
      },
      {
        "astId": 12334,
        "contract": "contracts/staking/RewardRouterV2.sol:RewardRouterV2",
        "label": "esMold",
        "offset": 0,
        "slot": "4",
        "type": "t_address"
      },
      {
        "astId": 12336,
        "contract": "contracts/staking/RewardRouterV2.sol:RewardRouterV2",
        "label": "bnMold",
        "offset": 0,
        "slot": "5",
        "type": "t_address"
      },
      {
        "astId": 12338,
        "contract": "contracts/staking/RewardRouterV2.sol:RewardRouterV2",
        "label": "mlp",
        "offset": 0,
        "slot": "6",
        "type": "t_address"
      },
      {
        "astId": 12340,
        "contract": "contracts/staking/RewardRouterV2.sol:RewardRouterV2",
        "label": "stakedMoldTracker",
        "offset": 0,
        "slot": "7",
        "type": "t_address"
      },
      {
        "astId": 12342,
        "contract": "contracts/staking/RewardRouterV2.sol:RewardRouterV2",
        "label": "bonusMoldTracker",
        "offset": 0,
        "slot": "8",
        "type": "t_address"
      },
      {
        "astId": 12344,
        "contract": "contracts/staking/RewardRouterV2.sol:RewardRouterV2",
        "label": "feeMoldTracker",
        "offset": 0,
        "slot": "9",
        "type": "t_address"
      },
      {
        "astId": 12346,
        "contract": "contracts/staking/RewardRouterV2.sol:RewardRouterV2",
        "label": "stakedMlpTracker",
        "offset": 0,
        "slot": "10",
        "type": "t_address"
      },
      {
        "astId": 12348,
        "contract": "contracts/staking/RewardRouterV2.sol:RewardRouterV2",
        "label": "feeMlpTracker",
        "offset": 0,
        "slot": "11",
        "type": "t_address"
      },
      {
        "astId": 12350,
        "contract": "contracts/staking/RewardRouterV2.sol:RewardRouterV2",
        "label": "mlpManager",
        "offset": 0,
        "slot": "12",
        "type": "t_address"
      },
      {
        "astId": 12352,
        "contract": "contracts/staking/RewardRouterV2.sol:RewardRouterV2",
        "label": "mlpVester",
        "offset": 0,
        "slot": "13",
        "type": "t_address"
      },
      {
        "astId": 12354,
        "contract": "contracts/staking/RewardRouterV2.sol:RewardRouterV2",
        "label": "moldVester",
        "offset": 0,
        "slot": "14",
        "type": "t_address"
      },
      {
        "astId": 12358,
        "contract": "contracts/staking/RewardRouterV2.sol:RewardRouterV2",
        "label": "pendingReceivers",
        "offset": 0,
        "slot": "15",
        "type": "t_mapping(t_address,t_address)"
      }
    ],
    "types": {
      "t_address": {
        "encoding": "inplace",
        "label": "address",
        "numberOfBytes": "20"
      },
      "t_bool": {
        "encoding": "inplace",
        "label": "bool",
        "numberOfBytes": "1"
      },
      "t_mapping(t_address,t_address)": {
        "encoding": "mapping",
        "key": "t_address",
        "label": "mapping(address => address)",
        "numberOfBytes": "32",
        "value": "t_address"
      },
      "t_uint256": {
        "encoding": "inplace",
        "label": "uint256",
        "numberOfBytes": "32"
      }
    }
  }
}