{
  "address": "0xDf6B69098507cbbE21f57BC7a58790D75A61AAdA",
  "abi": [
    {
      "inputs": [
        {
          "internalType": "address",
          "name": "_vault",
          "type": "address"
        },
        {
          "internalType": "address",
          "name": "_usdm",
          "type": "address"
        },
        {
          "internalType": "address",
          "name": "_weth",
          "type": "address"
        }
      ],
      "stateMutability": "nonpayable",
      "type": "constructor"
    },
    {
      "inputs": [
        {
          "internalType": "address",
          "name": "_plugin",
          "type": "address"
        }
      ],
      "name": "addPlugin",
      "outputs": [],
      "stateMutability": "nonpayable",
      "type": "function"
    },
    {
      "inputs": [
        {
          "internalType": "address",
          "name": "_plugin",
          "type": "address"
        }
      ],
      "name": "approvePlugin",
      "outputs": [],
      "stateMutability": "nonpayable",
      "type": "function"
    },
    {
      "inputs": [
        {
          "internalType": "address",
          "name": "",
          "type": "address"
        },
        {
          "internalType": "address",
          "name": "",
          "type": "address"
        }
      ],
      "name": "approvedPlugins",
      "outputs": [
        {
          "internalType": "bool",
          "name": "",
          "type": "bool"
        }
      ],
      "stateMutability": "view",
      "type": "function"
    },
    {
      "inputs": [
        {
          "internalType": "address",
          "name": "_collateralToken",
          "type": "address"
        },
        {
          "internalType": "address",
          "name": "_indexToken",
          "type": "address"
        },
        {
          "internalType": "uint256",
          "name": "_collateralDelta",
          "type": "uint256"
        },
        {
          "internalType": "uint256",
          "name": "_sizeDelta",
          "type": "uint256"
        },
        {
          "internalType": "bool",
          "name": "_isLong",
          "type": "bool"
        },
        {
          "internalType": "address",
          "name": "_receiver",
          "type": "address"
        },
        {
          "internalType": "uint256",
          "name": "_price",
          "type": "uint256"
        }
      ],
      "name": "decreasePosition",
      "outputs": [],
      "stateMutability": "nonpayable",
      "type": "function"
    },
    {
      "inputs": [
        {
          "internalType": "address[]",
          "name": "_path",
          "type": "address[]"
        },
        {
          "internalType": "address",
          "name": "_indexToken",
          "type": "address"
        },
        {
          "internalType": "uint256",
          "name": "_collateralDelta",
          "type": "uint256"
        },
        {
          "internalType": "uint256",
          "name": "_sizeDelta",
          "type": "uint256"
        },
        {
          "internalType": "bool",
          "name": "_isLong",
          "type": "bool"
        },
        {
          "internalType": "address",
          "name": "_receiver",
          "type": "address"
        },
        {
          "internalType": "uint256",
          "name": "_price",
          "type": "uint256"
        },
        {
          "internalType": "uint256",
          "name": "_minOut",
          "type": "uint256"
        }
      ],
      "name": "decreasePositionAndSwap",
      "outputs": [],
      "stateMutability": "nonpayable",
      "type": "function"
    },
    {
      "inputs": [
        {
          "internalType": "address[]",
          "name": "_path",
          "type": "address[]"
        },
        {
          "internalType": "address",
          "name": "_indexToken",
          "type": "address"
        },
        {
          "internalType": "uint256",
          "name": "_collateralDelta",
          "type": "uint256"
        },
        {
          "internalType": "uint256",
          "name": "_sizeDelta",
          "type": "uint256"
        },
        {
          "internalType": "bool",
          "name": "_isLong",
          "type": "bool"
        },
        {
          "internalType": "address payable",
          "name": "_receiver",
          "type": "address"
        },
        {
          "internalType": "uint256",
          "name": "_price",
          "type": "uint256"
        },
        {
          "internalType": "uint256",
          "name": "_minOut",
          "type": "uint256"
        }
      ],
      "name": "decreasePositionAndSwapETH",
      "outputs": [],
      "stateMutability": "nonpayable",
      "type": "function"
    },
    {
      "inputs": [
        {
          "internalType": "address",
          "name": "_collateralToken",
          "type": "address"
        },
        {
          "internalType": "address",
          "name": "_indexToken",
          "type": "address"
        },
        {
          "internalType": "uint256",
          "name": "_collateralDelta",
          "type": "uint256"
        },
        {
          "internalType": "uint256",
          "name": "_sizeDelta",
          "type": "uint256"
        },
        {
          "internalType": "bool",
          "name": "_isLong",
          "type": "bool"
        },
        {
          "internalType": "address payable",
          "name": "_receiver",
          "type": "address"
        },
        {
          "internalType": "uint256",
          "name": "_price",
          "type": "uint256"
        }
      ],
      "name": "decreasePositionETH",
      "outputs": [],
      "stateMutability": "nonpayable",
      "type": "function"
    },
    {
      "inputs": [
        {
          "internalType": "address",
          "name": "_plugin",
          "type": "address"
        }
      ],
      "name": "denyPlugin",
      "outputs": [],
      "stateMutability": "nonpayable",
      "type": "function"
    },
    {
      "inputs": [
        {
          "internalType": "address",
          "name": "_token",
          "type": "address"
        },
        {
          "internalType": "uint256",
          "name": "_amount",
          "type": "uint256"
        }
      ],
      "name": "directPoolDeposit",
      "outputs": [],
      "stateMutability": "nonpayable",
      "type": "function"
    },
    {
      "inputs": [],
      "name": "gov",
      "outputs": [
        {
          "internalType": "address",
          "name": "",
          "type": "address"
        }
      ],
      "stateMutability": "view",
      "type": "function"
    },
    {
      "inputs": [
        {
          "internalType": "address[]",
          "name": "_path",
          "type": "address[]"
        },
        {
          "internalType": "address",
          "name": "_indexToken",
          "type": "address"
        },
        {
          "internalType": "uint256",
          "name": "_amountIn",
          "type": "uint256"
        },
        {
          "internalType": "uint256",
          "name": "_minOut",
          "type": "uint256"
        },
        {
          "internalType": "uint256",
          "name": "_sizeDelta",
          "type": "uint256"
        },
        {
          "internalType": "bool",
          "name": "_isLong",
          "type": "bool"
        },
        {
          "internalType": "uint256",
          "name": "_price",
          "type": "uint256"
        }
      ],
      "name": "increasePosition",
      "outputs": [],
      "stateMutability": "nonpayable",
      "type": "function"
    },
    {
      "inputs": [
        {
          "internalType": "address[]",
          "name": "_path",
          "type": "address[]"
        },
        {
          "internalType": "address",
          "name": "_indexToken",
          "type": "address"
        },
        {
          "internalType": "uint256",
          "name": "_minOut",
          "type": "uint256"
        },
        {
          "internalType": "uint256",
          "name": "_sizeDelta",
          "type": "uint256"
        },
        {
          "internalType": "bool",
          "name": "_isLong",
          "type": "bool"
        },
        {
          "internalType": "uint256",
          "name": "_price",
          "type": "uint256"
        }
      ],
      "name": "increasePositionETH",
      "outputs": [],
      "stateMutability": "payable",
      "type": "function"
    },
    {
      "inputs": [
        {
          "internalType": "address",
          "name": "_account",
          "type": "address"
        },
        {
          "internalType": "address",
          "name": "_collateralToken",
          "type": "address"
        },
        {
          "internalType": "address",
          "name": "_indexToken",
          "type": "address"
        },
        {
          "internalType": "uint256",
          "name": "_collateralDelta",
          "type": "uint256"
        },
        {
          "internalType": "uint256",
          "name": "_sizeDelta",
          "type": "uint256"
        },
        {
          "internalType": "bool",
          "name": "_isLong",
          "type": "bool"
        },
        {
          "internalType": "address",
          "name": "_receiver",
          "type": "address"
        }
      ],
      "name": "pluginDecreasePosition",
      "outputs": [
        {
          "internalType": "uint256",
          "name": "",
          "type": "uint256"
        }
      ],
      "stateMutability": "nonpayable",
      "type": "function"
    },
    {
      "inputs": [
        {
          "internalType": "address",
          "name": "_account",
          "type": "address"
        },
        {
          "internalType": "address",
          "name": "_collateralToken",
          "type": "address"
        },
        {
          "internalType": "address",
          "name": "_indexToken",
          "type": "address"
        },
        {
          "internalType": "uint256",
          "name": "_sizeDelta",
          "type": "uint256"
        },
        {
          "internalType": "bool",
          "name": "_isLong",
          "type": "bool"
        }
      ],
      "name": "pluginIncreasePosition",
      "outputs": [],
      "stateMutability": "nonpayable",
      "type": "function"
    },
    {
      "inputs": [
        {
          "internalType": "address",
          "name": "_token",
          "type": "address"
        },
        {
          "internalType": "address",
          "name": "_account",
          "type": "address"
        },
        {
          "internalType": "address",
          "name": "_receiver",
          "type": "address"
        },
        {
          "internalType": "uint256",
          "name": "_amount",
          "type": "uint256"
        }
      ],
      "name": "pluginTransfer",
      "outputs": [],
      "stateMutability": "nonpayable",
      "type": "function"
    },
    {
      "inputs": [
        {
          "internalType": "address",
          "name": "",
          "type": "address"
        }
      ],
      "name": "plugins",
      "outputs": [
        {
          "internalType": "bool",
          "name": "",
          "type": "bool"
        }
      ],
      "stateMutability": "view",
      "type": "function"
    },
    {
      "inputs": [
        {
          "internalType": "address",
          "name": "_plugin",
          "type": "address"
        }
      ],
      "name": "removePlugin",
      "outputs": [],
      "stateMutability": "nonpayable",
      "type": "function"
    },
    {
      "inputs": [
        {
          "internalType": "address",
          "name": "_gov",
          "type": "address"
        }
      ],
      "name": "setGov",
      "outputs": [],
      "stateMutability": "nonpayable",
      "type": "function"
    },
    {
      "inputs": [
        {
          "internalType": "address[]",
          "name": "_path",
          "type": "address[]"
        },
        {
          "internalType": "uint256",
          "name": "_amountIn",
          "type": "uint256"
        },
        {
          "internalType": "uint256",
          "name": "_minOut",
          "type": "uint256"
        },
        {
          "internalType": "address",
          "name": "_receiver",
          "type": "address"
        }
      ],
      "name": "swap",
      "outputs": [],
      "stateMutability": "nonpayable",
      "type": "function"
    },
    {
      "inputs": [
        {
          "internalType": "address[]",
          "name": "_path",
          "type": "address[]"
        },
        {
          "internalType": "uint256",
          "name": "_minOut",
          "type": "uint256"
        },
        {
          "internalType": "address",
          "name": "_receiver",
          "type": "address"
        }
      ],
      "name": "swapETHToTokens",
      "outputs": [],
      "stateMutability": "payable",
      "type": "function"
    },
    {
      "inputs": [
        {
          "internalType": "address[]",
          "name": "_path",
          "type": "address[]"
        },
        {
          "internalType": "uint256",
          "name": "_amountIn",
          "type": "uint256"
        },
        {
          "internalType": "uint256",
          "name": "_minOut",
          "type": "uint256"
        },
        {
          "internalType": "address payable",
          "name": "_receiver",
          "type": "address"
        }
      ],
      "name": "swapTokensToETH",
      "outputs": [],
      "stateMutability": "nonpayable",
      "type": "function"
    },
    {
      "inputs": [],
      "name": "usdm",
      "outputs": [
        {
          "internalType": "address",
          "name": "",
          "type": "address"
        }
      ],
      "stateMutability": "view",
      "type": "function"
    },
    {
      "inputs": [],
      "name": "vault",
      "outputs": [
        {
          "internalType": "address",
          "name": "",
          "type": "address"
        }
      ],
      "stateMutability": "view",
      "type": "function"
    },
    {
      "inputs": [],
      "name": "weth",
      "outputs": [
        {
          "internalType": "address",
          "name": "",
          "type": "address"
        }
      ],
      "stateMutability": "view",
      "type": "function"
    },
    {
      "stateMutability": "payable",
      "type": "receive"
    }
  ],
  "transactionHash": "0x3b3aea914c58a4f3e1838f5597909943c940a72861def4161c1fd60a2e2b40a9",
  "args": [
    "0xc54aa813eF930Aa3F3fc4C646e134a53D2d08277",
    "0xe36A1CBd26e8e507f0Eb8252f952F196FE95FD5b",
    "0x09Ed1597f5803360189F39E3348Ea9C342Fd0233"
  ],
  "numDeployments": 1,
  "solcInputHash": "59bf562207d3b98a68d8cbf2ed09b4a8",
  "bytecode": "0x608060405234801561001057600080fd5b506040516129733803806129738339818101604052606081101561003357600080fd5b5080516020820151604090920151600380546001600160a01b039384166001600160a01b0319918216179091556002805494841694821694909417909355600180549290911691831691909117905560008054909116331790556128d78061009c6000396000f3fe60806040526004361061018f5760003560e01c806390205d8c116100d6578063b7ddc9921161007f578063d8867fc811610059578063d8867fc814610b9b578063ee138d0f14610bce578063fbfa77cf14610be357610262565b8063b7ddc99214610a5d578063cedd437514610b35578063cfad57a214610b6857610262565b8063a4d95b64116100b0578063a4d95b64146108b4578063abe68eaa146108e7578063b32755de1461099857610262565b806390205d8c146107e157806390b64ad314610840578063956f285e1461087957610262565b806338c74dd9116101385780634b12e643116101125780634b12e643146105f45780635fc8500e1461063b5780636023e9661461071d57610262565b806338c74dd91461054d5780633fc8cef314610580578063430ed37c1461059557610262565b80632662166b116101695780632662166b146103345780632d4ba6a7146103a75780633039e37f1461046b57610262565b806312d43a51146102675780631b827878146102985780631f1dd176146102e357610262565b366102625760015460408051808201909152601681527f526f757465723a20696e76616c69642073656e646572000000000000000000006020820152906001600160a01b0316331461025f5760405162461bcd60e51b81526004018080602001828103825283818151815260200191508051906020019080838360005b8381101561022457818101518382015260200161020c565b50505050905090810190601f1680156102515780820380516001836020036101000a031916815260200191505b509250505060405180910390fd5b50005b600080fd5b34801561027357600080fd5b5061027c610bf8565b604080516001600160a01b039092168252519081900360200190f35b3480156102a457600080fd5b506102e1600480360360808110156102bb57600080fd5b506001600160a01b03813581169160208101358216916040820135169060600135610c07565b005b3480156102ef57600080fd5b506102e1600480360360a081101561030657600080fd5b506001600160a01b038135811691602081013582169160408201351690606081013590608001351515610c2b565b34801561034057600080fd5b50610395600480360360e081101561035757600080fd5b506001600160a01b0381358116916020810135821691604082013581169160608101359160808201359160a081013515159160c09091013516610cd9565b60408051918252519081900360200190f35b3480156103b357600080fd5b506102e1600480360360808110156103ca57600080fd5b8101906020810181356401000000008111156103e557600080fd5b8201836020820111156103f757600080fd5b8035906020019184602083028401116401000000008311171561041957600080fd5b91908080602002602001604051908101604052809392919081815260200183836020028082843760009201919091525092955050823593505050602081013590604001356001600160a01b0316610db2565b34801561047757600080fd5b506102e1600480360361010081101561048f57600080fd5b8101906020810181356401000000008111156104aa57600080fd5b8201836020820111156104bc57600080fd5b803590602001918460208302840111640100000000831117156104de57600080fd5b919080806020026020016040519081016040528093929190818152602001838360200280828437600092019190915250929550505081356001600160a01b0390811693506020830135926040810135925060608101351515916080820135169060a08101359060c00135610f67565b34801561055957600080fd5b506102e16004803603602081101561057057600080fd5b50356001600160a01b03166110a8565b34801561058c57600080fd5b5061027c6110d9565b3480156105a157600080fd5b506102e1600480360360e08110156105b857600080fd5b506001600160a01b0381358116916020810135821691604082013591606081013591608082013515159160a08101359091169060c001356110e8565b34801561060057600080fd5b506106276004803603602081101561061757600080fd5b50356001600160a01b031661110f565b604080519115158252519081900360200190f35b34801561064757600080fd5b506102e1600480360361010081101561065f57600080fd5b81019060208101813564010000000081111561067a57600080fd5b82018360208201111561068c57600080fd5b803590602001918460208302840111640100000000831117156106ae57600080fd5b919080806020026020016040519081016040528093929190818152602001838360200280828437600092019190915250929550505081356001600160a01b0390811693506020830135926040810135925060608101351515916080820135169060a08101359060c00135611124565b34801561072957600080fd5b506102e16004803603608081101561074057600080fd5b81019060208101813564010000000081111561075b57600080fd5b82018360208201111561076d57600080fd5b8035906020019184602083028401116401000000008311171561078f57600080fd5b91908080602002602001604051908101604052809392919081815260200183836020028082843760009201919091525092955050823593505050602081013590604001356001600160a01b031661116a565b3480156107ed57600080fd5b506102e1600480360360e081101561080457600080fd5b506001600160a01b0381358116916020810135821691604082013591606081013591608082013515159160a08101359091169060c001356111b3565b34801561084c57600080fd5b506102e16004803603604081101561086357600080fd5b506001600160a01b0381351690602001356111c2565b34801561088557600080fd5b506106276004803603604081101561089c57600080fd5b506001600160a01b0381358116916020013516611267565b3480156108c057600080fd5b506102e1600480360360208110156108d757600080fd5b50356001600160a01b0316611287565b6102e1600480360360608110156108fd57600080fd5b81019060208101813564010000000081111561091857600080fd5b82018360208201111561092a57600080fd5b8035906020019184602083028401116401000000008311171561094c57600080fd5b91908080602002602001604051908101604052809392919081815260200183836020028082843760009201919091525092955050823593505050602001356001600160a01b031661132b565b6102e1600480360360c08110156109ae57600080fd5b8101906020810181356401000000008111156109c957600080fd5b8201836020820111156109db57600080fd5b803590602001918460208302840111640100000000831117156109fd57600080fd5b919080806020026020016040519081016040528093929190818152602001838360200280828437600092019190915250929550506001600160a01b038335169350505060208101359060408101359060608101351515906080013561148e565b348015610a6957600080fd5b506102e1600480360360e0811015610a8057600080fd5b810190602081018135640100000000811115610a9b57600080fd5b820183602082011115610aad57600080fd5b80359060200191846020830284011164010000000083111715610acf57600080fd5b919080806020026020016040519081016040528093929190818152602001838360200280828437600092019190915250929550506001600160a01b0383351693505050602081013590604081013590606081013590608081013515159060a001356115ba565b348015610b4157600080fd5b506102e160048036036020811015610b5857600080fd5b50356001600160a01b0316611667565b348015610b7457600080fd5b506102e160048036036020811015610b8b57600080fd5b50356001600160a01b0316611695565b348015610ba757600080fd5b506102e160048036036020811015610bbe57600080fd5b50356001600160a01b0316611752565b348015610bda57600080fd5b5061027c6117f9565b348015610bef57600080fd5b5061027c611808565b6000546001600160a01b031681565b610c1083611817565b610c256001600160a01b038516848484611959565b50505050565b610c3485611817565b600354604080517f48d91abf0000000000000000000000000000000000000000000000000000000081526001600160a01b03888116600483015287811660248301528681166044830152606482018690528415156084830152915191909216916348d91abf9160a480830192600092919082900301818387803b158015610cba57600080fd5b505af1158015610cce573d6000803e3d6000fd5b505050505050505050565b6000610ce488611817565b600354604080517f82a084900000000000000000000000000000000000000000000000000000000081526001600160a01b038b811660048301528a811660248301528981166044830152606482018990526084820188905286151560a483015285811660c4830152915191909216916382a084909160e48083019260209291908290030181600087803b158015610d7a57600080fd5b505af1158015610d8e573d6000803e3d6000fd5b505050506040513d6020811015610da457600080fd5b505198975050505050505050565b60015484516001600160a01b039091169085906000198101908110610dd357fe5b60200260200101516001600160a01b031614604051806040016040528060158152602001740a4deeae8cae47440d2dcecc2d8d2c840bee0c2e8d605b1b81525090610e5f5760405162461bcd60e51b815260206004820181815283516024840152835190928392604490910191908501908083836000831561022457818101518382015260200161020c565b50610eaa610e6b6119e1565b60035486516001600160a01b039091169086908890600090610e8957fe5b60200260200101516001600160a01b0316611959909392919063ffffffff16565b6000610eb78584306119e5565b9050610ec38183611b51565b7fcd3829a3813dc3cdd188fd3d01dcf3268c16be2fdd2dd21d0665418816e460623386600081518110610ef257fe5b602002602001015187600189510381518110610f0a57fe5b6020026020010151878560405180866001600160a01b03168152602001856001600160a01b03168152602001846001600160a01b031681526020018381526020018281526020019550505050505060405180910390a15050505050565b60015488516001600160a01b039091169089906000198101908110610f8857fe5b60200260200101516001600160a01b031614604051806040016040528060158152602001740a4deeae8cae47440d2dcecc2d8d2c840bee0c2e8d605b1b815250906110145760405162461bcd60e51b815260206004820181815283516024840152835190928392604490910191908501908083836000831561022457818101518382015260200161020c565b50600061103a8960008151811061102757fe5b6020026020010151898989893089611be3565b9050611083600360009054906101000a90046001600160a01b0316828b60008151811061106357fe5b60200260200101516001600160a01b0316611e659092919063ffffffff16565b60006110908a84306119e5565b905061109c8186611b51565b50505050505050505050565b3360009081526005602090815260408083206001600160a01b0394909416835292905220805460ff19166001179055565b6001546001600160a01b031681565b60006110f988888888883088611be3565b90506111058184611b51565b5050505050505050565b60046020526000908152604090205460ff1681565b60006111368960008151811061102757fe5b905061115f600360009054906101000a90046001600160a01b0316828b60008151811061106357fe5b61109c8983866119e5565b611175610e6b6119e1565b60006111828584846119e5565b90507fcd3829a3813dc3cdd188fd3d01dcf3268c16be2fdd2dd21d0665418816e460623386600081518110610ef257fe5b61110587878787878787611be3565b6111e46111cd6119e1565b6003546001600160a01b0385811692911684611959565b600354604080517f5f7bc1190000000000000000000000000000000000000000000000000000000081526001600160a01b03858116600483015291519190921691635f7bc11991602480830192600092919082900301818387803b15801561124b57600080fd5b505af115801561125f573d6000803e3d6000fd5b505050505050565b600560209081526000928352604080842090915290825290205460ff1681565b6000546040805180820190915260118152702937baba32b91d103337b93134b23232b760791b6020820152906001600160a01b031633146113095760405162461bcd60e51b815260206004820181815283516024840152835190928392604490910191908501908083836000831561022457818101518382015260200161020c565b506001600160a01b03166000908152600460205260409020805460ff19169055565b60015483516001600160a01b0390911690849060009061134757fe5b60200260200101516001600160a01b031614604051806040016040528060158152602001740a4deeae8cae47440d2dcecc2d8d2c840bee0c2e8d605b1b815250906113d35760405162461bcd60e51b815260206004820181815283516024840152835190928392604490910191908501908083836000831561022457818101518382015260200161020c565b506113dc611eea565b60006113e98484846119e5565b90507fcd3829a3813dc3cdd188fd3d01dcf3268c16be2fdd2dd21d0665418816e46062338560008151811061141a57fe5b60200260200101518660018851038151811061143257fe5b6020026020010151348560405180866001600160a01b03168152602001856001600160a01b03168152602001846001600160a01b031681526020018381526020018281526020019550505050505060405180910390a150505050565b60015486516001600160a01b039091169087906000906114aa57fe5b60200260200101516001600160a01b031614604051806040016040528060158152602001740a4deeae8cae47440d2dcecc2d8d2c840bee0c2e8d605b1b815250906115365760405162461bcd60e51b815260206004820181815283516024840152835190928392604490910191908501908083836000831561022457818101518382015260200161020c565b50341561154557611545611eea565b600186511180156115565750600034115b156115965760006115688786306119e5565b9050611594600360009054906101000a90046001600160a01b0316828960018b51038151811061106357fe5b505b61125f866001885103815181106115a957fe5b602002602001015186858585611f73565b84156115e9576115e96115cb6119e1565b60035489516001600160a01b039091169088908b90600090610e8957fe5b600187511180156115fa5750600085115b1561163a57600061160c8886306119e5565b9050611638600360009054906101000a90046001600160a01b0316828a60018c51038151811061106357fe5b505b61165e8760018951038151811061164d57fe5b602002602001015187858585611f73565b50505050505050565b3360009081526005602090815260408083206001600160a01b0394909416835292905220805460ff19169055565b6000546040805180820190915260118152702937baba32b91d103337b93134b23232b760791b6020820152906001600160a01b031633146117175760405162461bcd60e51b815260206004820181815283516024840152835190928392604490910191908501908083836000831561022457818101518382015260200161020c565b50600080547fffffffffffffffffffffffff0000000000000000000000000000000000000000166001600160a01b0392909216919091179055565b6000546040805180820190915260118152702937baba32b91d103337b93134b23232b760791b6020820152906001600160a01b031633146117d45760405162461bcd60e51b815260206004820181815283516024840152835190928392604490910191908501908083836000831561022457818101518382015260200161020c565b506001600160a01b03166000908152600460205260409020805460ff19166001179055565b6002546001600160a01b031681565b6003546001600160a01b031681565b33600090815260046020908152604091829020548251808401909352601683527f526f757465723a20696e76616c696420706c7567696e000000000000000000009183019190915260ff166118ad5760405162461bcd60e51b815260206004820181815283516024840152835190928392604490910191908501908083836000831561022457818101518382015260200161020c565b506001600160a01b0381166000908152600560209081526040808320338452825291829020548251808401909352601b83527f526f757465723a20706c7567696e206e6f7420617070726f76656400000000009183019190915260ff166119555760405162461bcd60e51b815260206004820181815283516024840152835190928392604490910191908501908083836000831561022457818101518382015260200161020c565b5050565b604080516001600160a01b0380861660248301528416604482015260648082018490528251808303909101815260849091019091526020810180517bffffffffffffffffffffffffffffffffffffffffffffffffffffffff167f23b872dd00000000000000000000000000000000000000000000000000000000179052610c259085906121e3565b3390565b6000835160021415611a2c57611a2584600081518110611a0157fe5b602002602001015185600181518110611a1657fe5b60200260200101518585612294565b9050611b4a565b835160031415611ad2576000611a6d85600081518110611a4857fe5b602002602001015186600181518110611a5d57fe5b6020026020010151600030612294565b9050611a96600360009054906101000a90046001600160a01b0316828760018151811061106357fe5b611aca85600181518110611aa657fe5b602002602001015186600281518110611abb57fe5b60200260200101518686612294565b915050611b4a565b604080518082018252601c81527f526f757465723a20696e76616c6964205f706174682e6c656e677468000000006020808301918252925162461bcd60e51b8152600481019384528251602482015282519293928392604490920191908083836000831561022457818101518382015260200161020c565b9392505050565b600154604080517f2e1a7d4d0000000000000000000000000000000000000000000000000000000081526004810185905290516001600160a01b0390921691632e1a7d4d9160248082019260009290919082900301818387803b158015611bb757600080fd5b505af1158015611bcb573d6000803e3d6000fd5b50611955925050506001600160a01b0382168361250c565b60008315611cd757600354604080516340d3096b60e11b81526001600160a01b038a811660048301529151859392909216916381a612d691602480820192602092909190829003018186803b158015611c3b57600080fd5b505afa158015611c4f573d6000803e3d6000fd5b505050506040513d6020811015611c6557600080fd5b505160408051606081019091526023808252929091101591612831602083013990611cd15760405162461bcd60e51b815260206004820181815283516024840152835190928392604490910191908501908083836000831561022457818101518382015260200161020c565b50611dbf565b60035460408051637092736960e11b81526001600160a01b038a8116600483015291518593929092169163e124e6d291602480820192602092909190829003018186803b158015611d2757600080fd5b505afa158015611d3b573d6000803e3d6000fd5b505050506040513d6020811015611d5157600080fd5b50516040805160608101909152602480825292909111159161287e602083013990611dbd5760405162461bcd60e51b815260206004820181815283516024840152835190928392604490910191908501908083836000831561022457818101518382015260200161020c565b505b6003546001600160a01b03166382a08490611dd86119e1565b604080517fffffffff0000000000000000000000000000000000000000000000000000000060e085901b1681526001600160a01b039283166004820152828d166024820152828c166044820152606481018b9052608481018a905288151560a482015291871660c48301525160e48083019260209291908290030181600087803b158015610d7a57600080fd5b604080516001600160a01b038416602482015260448082018490528251808303909101815260649091019091526020810180517bffffffffffffffffffffffffffffffffffffffffffffffffffffffff167fa9059cbb00000000000000000000000000000000000000000000000000000000179052611ee59084906121e3565b505050565b600160009054906101000a90046001600160a01b03166001600160a01b031663d0e30db0346040518263ffffffff1660e01b81526004016000604051808303818588803b158015611f3a57600080fd5b505af1158015611f4e573d6000803e3d6000fd5b5050600354600154611f7194506001600160a01b03908116935016905034611e65565b565b81156120655760035460408051637092736960e11b81526001600160a01b03878116600483015291518493929092169163e124e6d291602480820192602092909190829003018186803b158015611fc957600080fd5b505afa158015611fdd573d6000803e3d6000fd5b505050506040513d6020811015611ff357600080fd5b50516040805160608101909152602480825292909111159161287e60208301399061205f5760405162461bcd60e51b815260206004820181815283516024840152835190928392604490910191908501908083836000831561022457818101518382015260200161020c565b5061214d565b600354604080516340d3096b60e11b81526001600160a01b0387811660048301529151849392909216916381a612d691602480820192602092909190829003018186803b1580156120b557600080fd5b505afa1580156120c9573d6000803e3d6000fd5b505050506040513d60208110156120df57600080fd5b50516040805160608101909152602380825292909110159161283160208301399061214b5760405162461bcd60e51b815260206004820181815283516024840152835190928392604490910191908501908083836000831561022457818101518382015260200161020c565b505b6003546001600160a01b03166348d91abf6121666119e1565b604080517fffffffff0000000000000000000000000000000000000000000000000000000060e085901b1681526001600160a01b039283166004820152828a16602482015291881660448301526064820187905285151560848301525160a480830192600092919082900301818387803b158015610cba57600080fd5b6060612238826040518060400160405280602081526020017f5361666545524332303a206c6f772d6c6576656c2063616c6c206661696c6564815250856001600160a01b03166125f19092919063ffffffff16565b805190915015611ee55780806020019051602081101561225757600080fd5b5051611ee55760405162461bcd60e51b815260040180806020018281038252602a815260200180612854602a913960400191505060405180910390fd5b60025460009081906001600160a01b038681169116141561235257600354604080517f86284f5f0000000000000000000000000000000000000000000000000000000081526001600160a01b0389811660048301528681166024830152915191909216916386284f5f9160448083019260209291908290030181600087803b15801561231f57600080fd5b505af1158015612333573d6000803e3d6000fd5b505050506040513d602081101561234957600080fd5b5051905061247f565b6002546001600160a01b03878116911614156123d857600354604080517f0928a4f80000000000000000000000000000000000000000000000000000000081526001600160a01b038881166004830152868116602483015291519190921691630928a4f89160448083019260209291908290030181600087803b15801561231f57600080fd5b600354604080517f933162120000000000000000000000000000000000000000000000000000000081526001600160a01b038981166004830152888116602483015286811660448301529151919092169163933162129160648083019260209291908290030181600087803b15801561245057600080fd5b505af1158015612464573d6000803e3d6000fd5b505050506040513d602081101561247a57600080fd5b505190505b60408051808201909152601e81527f526f757465723a20696e73756666696369656e7420616d6f756e744f757400006020820152848210156125025760405162461bcd60e51b815260206004820181815283516024840152835190928392604490910191908501908083836000831561022457818101518382015260200161020c565b5095945050505050565b80471015612561576040805162461bcd60e51b815260206004820152601d60248201527f416464726573733a20696e73756666696369656e742062616c616e6365000000604482015290519081900360640190fd5b6040516000906001600160a01b0384169083908381818185875af1925050503d80600081146125ac576040519150601f19603f3d011682016040523d82523d6000602084013e6125b1565b606091505b5050905080611ee55760405162461bcd60e51b815260040180806020018281038252603a8152602001806127d1603a913960400191505060405180910390fd5b60606126008484600085612608565b949350505050565b6060824710156126495760405162461bcd60e51b815260040180806020018281038252602681526020018061280b6026913960400191505060405180910390fd5b61265285612764565b6126a3576040805162461bcd60e51b815260206004820152601d60248201527f416464726573733a2063616c6c20746f206e6f6e2d636f6e7472616374000000604482015290519081900360640190fd5b60006060866001600160a01b031685876040518082805190602001908083835b602083106126e25780518252601f1990920191602091820191016126c3565b6001836020036101000a03801982511681845116808217855250505050505090500191505060006040518083038185875af1925050503d8060008114612744576040519150601f19603f3d011682016040523d82523d6000602084013e612749565b606091505b509150915061275982828661276a565b979650505050505050565b3b151590565b60608315612779575081611b4a565b8251156127895782518084602001fd5b60405162461bcd60e51b815260206004820181815284516024840152845185939192839260440191908501908083836000831561022457818101518382015260200161020c56fe416464726573733a20756e61626c6520746f2073656e642076616c75652c20726563697069656e74206d61792068617665207265766572746564416464726573733a20696e73756666696369656e742062616c616e636520666f722063616c6c526f757465723a206d61726b207072696365206c6f776572207468616e206c696d69745361666545524332303a204552433230206f7065726174696f6e20646964206e6f742073756363656564526f757465723a206d61726b20707269636520686967686572207468616e206c696d6974a26469706673582212207c89cec782908e4390be5745dcc5b9f35ab5ae5428b6f4570ee81e18fdb0f9e564736f6c634300060c0033",
  "devdoc": {
    "kind": "dev",
    "methods": {},
    "version": 1
  },
  "userdoc": {
    "kind": "user",
    "methods": {},
    "version": 1
  },
  "storageLayout": {
    "storage": [
      {
        "astId": 12375,
        "contract": "contracts/core/Router.sol:Router",
        "label": "gov",
        "offset": 0,
        "slot": "0",
        "type": "t_address"
      },
      {
        "astId": 12377,
        "contract": "contracts/core/Router.sol:Router",
        "label": "weth",
        "offset": 0,
        "slot": "1",
        "type": "t_address"
      },
      {
        "astId": 12379,
        "contract": "contracts/core/Router.sol:Router",
        "label": "usdm",
        "offset": 0,
        "slot": "2",
        "type": "t_address"
      },
      {
        "astId": 12381,
        "contract": "contracts/core/Router.sol:Router",
        "label": "vault",
        "offset": 0,
        "slot": "3",
        "type": "t_address"
      },
      {
        "astId": 12385,
        "contract": "contracts/core/Router.sol:Router",
        "label": "plugins",
        "offset": 0,
        "slot": "4",
        "type": "t_mapping(t_address,t_bool)"
      },
      {
        "astId": 12391,
        "contract": "contracts/core/Router.sol:Router",
        "label": "approvedPlugins",
        "offset": 0,
        "slot": "5",
        "type": "t_mapping(t_address,t_mapping(t_address,t_bool))"
      }
    ],
    "types": {
      "t_address": {
        "encoding": "inplace",
        "label": "address",
        "numberOfBytes": "20"
      },
      "t_bool": {
        "encoding": "inplace",
        "label": "bool",
        "numberOfBytes": "1"
      },
      "t_mapping(t_address,t_bool)": {
        "encoding": "mapping",
        "key": "t_address",
        "label": "mapping(address => bool)",
        "numberOfBytes": "32",
        "value": "t_bool"
      },
      "t_mapping(t_address,t_mapping(t_address,t_bool))": {
        "encoding": "mapping",
        "key": "t_address",
        "label": "mapping(address => mapping(address => bool))",
        "numberOfBytes": "32",
        "value": "t_mapping(t_address,t_bool)"
      }
    }
  }
}