{
  "address": "0x165a116e1da7cf312085505475311d448Cd20890",
  "abi": [
    {
      "inputs": [
        {
          "internalType": "address",
          "name": "_vault",
          "type": "address"
        }
      ],
      "stateMutability": "nonpayable",
      "type": "constructor"
    },
    {
      "inputs": [
        {
          "internalType": "uint256",
          "name": "_averagePrice",
          "type": "uint256"
        },
        {
          "internalType": "uint256",
          "name": "_nextPrice",
          "type": "uint256"
        },
        {
          "internalType": "uint256",
          "name": "_nextSize",
          "type": "uint256"
        },
        {
          "internalType": "uint256",
          "name": "_delta",
          "type": "uint256"
        },
        {
          "internalType": "int256",
          "name": "_realisedPnl",
          "type": "int256"
        }
      ],
      "name": "_getNextGlobalAveragePrice",
      "outputs": [
        {
          "internalType": "uint256",
          "name": "",
          "type": "uint256"
        }
      ],
      "stateMutability": "pure",
      "type": "function"
    },
    {
      "inputs": [
        {
          "internalType": "bytes32",
          "name": "",
          "type": "bytes32"
        }
      ],
      "name": "data",
      "outputs": [
        {
          "internalType": "bytes32",
          "name": "",
          "type": "bytes32"
        }
      ],
      "stateMutability": "view",
      "type": "function"
    },
    {
      "inputs": [
        {
          "internalType": "address",
          "name": "_account",
          "type": "address"
        },
        {
          "internalType": "address",
          "name": "_collateralToken",
          "type": "address"
        },
        {
          "internalType": "address",
          "name": "_indexToken",
          "type": "address"
        },
        {
          "internalType": "uint256",
          "name": "_nextPrice",
          "type": "uint256"
        },
        {
          "internalType": "uint256",
          "name": "_sizeDelta",
          "type": "uint256"
        },
        {
          "internalType": "bool",
          "name": "_isIncrease",
          "type": "bool"
        }
      ],
      "name": "getNextGlobalShortData",
      "outputs": [
        {
          "internalType": "uint256",
          "name": "",
          "type": "uint256"
        },
        {
          "internalType": "uint256",
          "name": "",
          "type": "uint256"
        }
      ],
      "stateMutability": "view",
      "type": "function"
    },
    {
      "inputs": [
        {
          "internalType": "address",
          "name": "_account",
          "type": "address"
        },
        {
          "internalType": "address",
          "name": "_collateralToken",
          "type": "address"
        },
        {
          "internalType": "address",
          "name": "_indexToken",
          "type": "address"
        },
        {
          "internalType": "uint256",
          "name": "_sizeDelta",
          "type": "uint256"
        },
        {
          "internalType": "bool",
          "name": "_isIncrease",
          "type": "bool"
        }
      ],
      "name": "getRealisedPnl",
      "outputs": [
        {
          "internalType": "int256",
          "name": "",
          "type": "int256"
        }
      ],
      "stateMutability": "view",
      "type": "function"
    },
    {
      "inputs": [
        {
          "internalType": "address",
          "name": "",
          "type": "address"
        }
      ],
      "name": "globalShortAveragePrices",
      "outputs": [
        {
          "internalType": "uint256",
          "name": "",
          "type": "uint256"
        }
      ],
      "stateMutability": "view",
      "type": "function"
    },
    {
      "inputs": [],
      "name": "gov",
      "outputs": [
        {
          "internalType": "address",
          "name": "",
          "type": "address"
        }
      ],
      "stateMutability": "view",
      "type": "function"
    },
    {
      "inputs": [],
      "name": "isGlobalShortDataReady",
      "outputs": [
        {
          "internalType": "bool",
          "name": "",
          "type": "bool"
        }
      ],
      "stateMutability": "view",
      "type": "function"
    },
    {
      "inputs": [
        {
          "internalType": "address",
          "name": "",
          "type": "address"
        }
      ],
      "name": "isHandler",
      "outputs": [
        {
          "internalType": "bool",
          "name": "",
          "type": "bool"
        }
      ],
      "stateMutability": "view",
      "type": "function"
    },
    {
      "inputs": [
        {
          "internalType": "address",
          "name": "_gov",
          "type": "address"
        }
      ],
      "name": "setGov",
      "outputs": [],
      "stateMutability": "nonpayable",
      "type": "function"
    },
    {
      "inputs": [
        {
          "internalType": "address",
          "name": "_handler",
          "type": "address"
        },
        {
          "internalType": "bool",
          "name": "_isActive",
          "type": "bool"
        }
      ],
      "name": "setHandler",
      "outputs": [],
      "stateMutability": "nonpayable",
      "type": "function"
    },
    {
      "inputs": [
        {
          "internalType": "address[]",
          "name": "_tokens",
          "type": "address[]"
        },
        {
          "internalType": "uint256[]",
          "name": "_averagePrices",
          "type": "uint256[]"
        }
      ],
      "name": "setInitData",
      "outputs": [],
      "stateMutability": "nonpayable",
      "type": "function"
    },
    {
      "inputs": [
        {
          "internalType": "bool",
          "name": "value",
          "type": "bool"
        }
      ],
      "name": "setIsGlobalShortDataReady",
      "outputs": [],
      "stateMutability": "nonpayable",
      "type": "function"
    },
    {
      "inputs": [
        {
          "internalType": "address",
          "name": "_account",
          "type": "address"
        },
        {
          "internalType": "address",
          "name": "_collateralToken",
          "type": "address"
        },
        {
          "internalType": "address",
          "name": "_indexToken",
          "type": "address"
        },
        {
          "internalType": "bool",
          "name": "_isLong",
          "type": "bool"
        },
        {
          "internalType": "uint256",
          "name": "_sizeDelta",
          "type": "uint256"
        },
        {
          "internalType": "uint256",
          "name": "_markPrice",
          "type": "uint256"
        },
        {
          "internalType": "bool",
          "name": "_isIncrease",
          "type": "bool"
        }
      ],
      "name": "updateGlobalShortData",
      "outputs": [],
      "stateMutability": "nonpayable",
      "type": "function"
    },
    {
      "inputs": [],
      "name": "vault",
      "outputs": [
        {
          "internalType": "contract IVault",
          "name": "",
          "type": "address"
        }
      ],
      "stateMutability": "view",
      "type": "function"
    }
  ],
  "transactionHash": "0xd5eae1d5df597c72b8182e0a8a85a94ec9e4fe3968d3ce3582d1009c917ceaf2",
  "args": [
    "0xc54aa813eF930Aa3F3fc4C646e134a53D2d08277"
  ],
  "numDeployments": 1,
  "solcInputHash": "59bf562207d3b98a68d8cbf2ed09b4a8",
  "bytecode": "0x608060405234801561001057600080fd5b506040516110f73803806110f78339818101604052602081101561003357600080fd5b5051600080546001600160a01b03199081163317909155600180546001600160a01b0390931692909116919091179055611085806100726000396000f3fe608060405234801561001057600080fd5b50600436106100ea5760003560e01c80639cb7de4b1161008c578063bbd9718711610066578063bbd97187146102d5578063cfad57a214610397578063f3238cec146103bd578063fbfa77cf1461040f576100ea565b80639cb7de4b146102005780639cdeb5931461022e578063a83b75fd14610291576100ea565b806346ea87af116100c857806346ea87af146101635780635886b7111461019d57806362749803146101d25780639a11178f146101f8576100ea565b80630147fb0c146100ef57806312d43a511461011e5780633d30cabf14610142575b600080fd5b61010c6004803603602081101561010557600080fd5b5035610417565b60408051918252519081900360200190f35b610126610429565b604080516001600160a01b039092168252519081900360200190f35b6101616004803603602081101561015857600080fd5b50351515610438565b005b6101896004803603602081101561017957600080fd5b50356001600160a01b03166104a2565b604080519115158252519081900360200190f35b61010c600480360360a08110156101b357600080fd5b50803590602081013590604081013590606081013590608001356104b7565b61010c600480360360208110156101e857600080fd5b50356001600160a01b031661050e565b610189610520565b6101616004803603604081101561021657600080fd5b506001600160a01b0381351690602001351515610529565b610278600480360360c081101561024457600080fd5b506001600160a01b03813581169160208101358216916040820135169060608101359060808101359060a001351515610672565b6040805192835260208301919091528051918290030190f35b61010c600480360360a08110156102a757600080fd5b506001600160a01b0381358116916020810135821691604082013516906060810135906080013515156107df565b610161600480360360408110156102eb57600080fd5b81019060208101813564010000000081111561030657600080fd5b82018360208201111561031857600080fd5b8035906020019184602083028401116401000000008311171561033a57600080fd5b91939092909160208101903564010000000081111561035857600080fd5b82018360208201111561036a57600080fd5b8035906020019184602083028401116401000000008311171561038c57600080fd5b509092509050610a42565b610161600480360360208110156103ad57600080fd5b50356001600160a01b0316610b8e565b610161600480360360e08110156103d357600080fd5b506001600160a01b038135811691602081013582169160408201351690606081013515159060808101359060a08101359060c001351515610c1f565b610126610d47565b60056020526000908152604090205481565b6000546001600160a01b031681565b6000546001600160a01b0316331461048f576040805162461bcd60e51b815260206004820152601560248201527423b7bb32b93730b136329d103337b93134b23232b760591b604482015290519081900360640190fd5b6004805460ff1916911515919091179055565b60026020526000908152604090205460ff1681565b60008060006104c885898987610d56565b9150915060006104ff836104e5576104e08884610e13565b6104ef565b6104ef8884610e76565b6104f98a8a610eb8565b90610f11565b93505050505b95945050505050565b60036020526000908152604090205481565b60045460ff1681565b6000546001600160a01b03163314610580576040805162461bcd60e51b815260206004820152601560248201527423b7bb32b93730b136329d103337b93134b23232b760591b604482015290519081900360640190fd5b60408051808201909152601f81527f53686f727473547261636b65723a20696e76616c6964205f68616e646c65720060208201526001600160a01b0383166106465760405162461bcd60e51b81526004018080602001828103825283818151815260200191508051906020019080838360005b8381101561060b5781810151838201526020016105f3565b50505050905090810190601f1680156106385780820380516001836020036101000a031916815260200191505b509250505060405180910390fd5b506001600160a01b03919091166000908152600260205260409020805460ff1916911515919091179055565b600080600061068489898988886107df565b6001600160a01b0388166000908152600360205260408120549192508782116106b6576106b18883610e76565b6106c0565b6106c08289610e76565b600154604080517f8a78daa80000000000000000000000000000000000000000000000000000000081526001600160a01b038d811660048301529151939450600093849384931691638a78daa8916024808301926020929190829003018186803b15801561072d57600080fd5b505afa158015610741573d6000803e3d6000fd5b505050506040513d602081101561075757600080fd5b505190508861076f5761076a818b610e76565b610779565b610779818b610e13565b92508261079257600080975097505050505050506107d4565b846107a857828b975097505050505050506107d4565b6107b6856104f98387610eb8565b91505060006107c8858c85858a6104b7565b92975091955050505050505b965096945050505050565b600081156107ef57506000610505565b600154604080517f4a3f088d0000000000000000000000000000000000000000000000000000000081526001600160a01b038981166004830152888116602483015287811660448301526000606483018190529251931692829182918591634a3f088d91608480830192610100929190829003018186803b15801561087357600080fd5b505afa158015610887573d6000803e3d6000fd5b505050506040513d61010081101561089e57600080fd5b50805160408083015160e09093015181517f5c07eaab0000000000000000000000000000000000000000000000000000000081526001600160a01b038d811660048301526024820185905260448201869052600060648301819052608483018490528451959950959750919550849391891692635c07eaab9260a480840193829003018186803b15801561093157600080fd5b505afa158015610945573d6000803e3d6000fd5b505050506040513d604081101561095b57600080fd5b50805160209091015190925090506000610979866104f98c85610eb8565b90507f7fffffffffffffffffffffffffffffffffffffffffffffffffffffffffffffff81106040518060400160405280601781526020017f53686f727473547261636b65723a206f766572666c6f7700000000000000000081525090610a205760405162461bcd60e51b815260206004820181815283516024840152835190928392604490910191908501908083836000831561060b5781810151838201526020016105f3565b5082610a2f5780600003610a31565b805b9d9c50505050505050505050505050565b6000546001600160a01b03163314610a99576040805162461bcd60e51b815260206004820152601560248201527423b7bb32b93730b136329d103337b93134b23232b760591b604482015290519081900360640190fd5b60045460408051808201909152601f81527f53686f727473547261636b65723a20616c7265616479206d696772617465640060208201529060ff1615610b205760405162461bcd60e51b815260206004820181815283516024840152835190928392604490910191908501908083836000831561060b5781810151838201526020016105f3565b5060005b83811015610b7a57828282818110610b3857fe5b9050602002013560036000878785818110610b4f57fe5b602090810292909201356001600160a01b031683525081019190915260400160002055600101610b24565b50506004805460ff19166001179055505050565b6000546001600160a01b03163314610be5576040805162461bcd60e51b815260206004820152601560248201527423b7bb32b93730b136329d103337b93134b23232b760591b604482015290519081900360640190fd5b600080547fffffffffffffffffffffffff0000000000000000000000000000000000000000166001600160a01b0392909216919091179055565b33600090815260026020908152604091829020548251808401909352601883527f53686f727473547261636b65723a20666f7262696464656e00000000000000009183019190915260ff16610cb55760405162461bcd60e51b815260206004820181815283516024840152835190928392604490910191908501908083836000831561060b5781810151838201526020016105f3565b508380610cc0575082155b15610cca57610d3e565b60045460ff16610cd957610d3e565b600080610cea898989878988610672565b91509150610cf88782610f53565b604080518381526020810183905281516001600160a01b038a16927fd6137be44db128ffcf1ea1821dbe8f889f67f949be7656c2d8acba2a4a891a02928290030190a250505b50505050505050565b6001546001600160a01b031681565b6000808385118015610db5576000841315610d9a5786841115610d8857610d7d8488610e76565b965060009050610d95565b610d928785610e76565b96505b610dab565b610da8876000869003610e13565b96505b9150859050610e0a565b6000841315610dcf57610dc88785610e13565b9650610e04565b86846000031115610df357610de8600085900388610e76565b965060019050610e04565b610e01876000869003610e76565b96505b91508590505b94509492505050565b600082820183811015610e6d576040805162461bcd60e51b815260206004820152601b60248201527f536166654d6174683a206164646974696f6e206f766572666c6f770000000000604482015290519081900360640190fd5b90505b92915050565b6000610e6d83836040518060400160405280601e81526020017f536166654d6174683a207375627472616374696f6e206f766572666c6f770000815250610f6f565b600082610ec757506000610e70565b82820282848281610ed457fe5b0414610e6d5760405162461bcd60e51b815260040180806020018281038252602181526020018061102f6021913960400191505060405180910390fd5b6000610e6d83836040518060400160405280601a81526020017f536166654d6174683a206469766973696f6e206279207a65726f000000000000815250610fc9565b6001600160a01b03909116600090815260036020526040902055565b60008184841115610fc15760405162461bcd60e51b815260206004820181815283516024840152835190928392604490910191908501908083836000831561060b5781810151838201526020016105f3565b505050900390565b600081836110185760405162461bcd60e51b815260206004820181815283516024840152835190928392604490910191908501908083836000831561060b5781810151838201526020016105f3565b50600083858161102457fe5b049594505050505056fe536166654d6174683a206d756c7469706c69636174696f6e206f766572666c6f77a26469706673582212208537927d23928e6bddcc3fc806435f14d9b4be0fcdc6d39686243d781562a5a064736f6c634300060c0033",
  "devdoc": {
    "kind": "dev",
    "methods": {},
    "version": 1
  },
  "userdoc": {
    "kind": "user",
    "methods": {},
    "version": 1
  },
  "storageLayout": {
    "storage": [
      {
        "astId": 3,
        "contract": "contracts/core/ShortsTracker.sol:ShortsTracker",
        "label": "gov",
        "offset": 0,
        "slot": "0",
        "type": "t_address"
      },
      {
        "astId": 12435,
        "contract": "contracts/core/ShortsTracker.sol:ShortsTracker",
        "label": "vault",
        "offset": 0,
        "slot": "1",
        "type": "t_contract(IVault)7173"
      },
      {
        "astId": 12439,
        "contract": "contracts/core/ShortsTracker.sol:ShortsTracker",
        "label": "isHandler",
        "offset": 0,
        "slot": "2",
        "type": "t_mapping(t_address,t_bool)"
      },
      {
        "astId": 12444,
        "contract": "contracts/core/ShortsTracker.sol:ShortsTracker",
        "label": "globalShortAveragePrices",
        "offset": 0,
        "slot": "3",
        "type": "t_mapping(t_address,t_uint256)"
      },
      {
        "astId": 12447,
        "contract": "contracts/core/ShortsTracker.sol:ShortsTracker",
        "label": "isGlobalShortDataReady",
        "offset": 0,
        "slot": "4",
        "type": "t_bool"
      },
      {
        "astId": 12451,
        "contract": "contracts/core/ShortsTracker.sol:ShortsTracker",
        "label": "data",
        "offset": 0,
        "slot": "5",
        "type": "t_mapping(t_bytes32,t_bytes32)"
      }
    ],
    "types": {
      "t_address": {
        "encoding": "inplace",
        "label": "address",
        "numberOfBytes": "20"
      },
      "t_bool": {
        "encoding": "inplace",
        "label": "bool",
        "numberOfBytes": "1"
      },
      "t_bytes32": {
        "encoding": "inplace",
        "label": "bytes32",
        "numberOfBytes": "32"
      },
      "t_contract(IVault)7173": {
        "encoding": "inplace",
        "label": "contract IVault",
        "numberOfBytes": "20"
      },
      "t_mapping(t_address,t_bool)": {
        "encoding": "mapping",
        "key": "t_address",
        "label": "mapping(address => bool)",
        "numberOfBytes": "32",
        "value": "t_bool"
      },
      "t_mapping(t_address,t_uint256)": {
        "encoding": "mapping",
        "key": "t_address",
        "label": "mapping(address => uint256)",
        "numberOfBytes": "32",
        "value": "t_uint256"
      },
      "t_mapping(t_bytes32,t_bytes32)": {
        "encoding": "mapping",
        "key": "t_bytes32",
        "label": "mapping(bytes32 => bytes32)",
        "numberOfBytes": "32",
        "value": "t_bytes32"
      },
      "t_uint256": {
        "encoding": "inplace",
        "label": "uint256",
        "numberOfBytes": "32"
      }
    }
  }
}