{
  "address": "0xe36A1CBd26e8e507f0Eb8252f952F196FE95FD5b",
  "abi": [
    {
      "inputs": [
        {
          "internalType": "address",
          "name": "_vault",
          "type": "address"
        }
      ],
      "stateMutability": "nonpayable",
      "type": "constructor"
    },
    {
      "anonymous": false,
      "inputs": [
        {
          "indexed": true,
          "internalType": "address",
          "name": "owner",
          "type": "address"
        },
        {
          "indexed": true,
          "internalType": "address",
          "name": "spender",
          "type": "address"
        },
        {
          "indexed": false,
          "internalType": "uint256",
          "name": "value",
          "type": "uint256"
        }
      ],
      "name": "Approval",
      "type": "event"
    },
    {
      "anonymous": false,
      "inputs": [
        {
          "indexed": true,
          "internalType": "address",
          "name": "from",
          "type": "address"
        },
        {
          "indexed": true,
          "internalType": "address",
          "name": "to",
          "type": "address"
        },
        {
          "indexed": false,
          "internalType": "uint256",
          "name": "value",
          "type": "uint256"
        }
      ],
      "name": "Transfer",
      "type": "event"
    },
    {
      "inputs": [
        {
          "internalType": "address",
          "name": "_account",
          "type": "address"
        }
      ],
      "name": "addAdmin",
      "outputs": [],
      "stateMutability": "nonpayable",
      "type": "function"
    },
    {
      "inputs": [
        {
          "internalType": "address",
          "name": "_account",
          "type": "address"
        }
      ],
      "name": "addNonStakingAccount",
      "outputs": [],
      "stateMutability": "nonpayable",
      "type": "function"
    },
    {
      "inputs": [
        {
          "internalType": "address",
          "name": "_vault",
          "type": "address"
        }
      ],
      "name": "addVault",
      "outputs": [],
      "stateMutability": "nonpayable",
      "type": "function"
    },
    {
      "inputs": [
        {
          "internalType": "address",
          "name": "",
          "type": "address"
        }
      ],
      "name": "admins",
      "outputs": [
        {
          "internalType": "bool",
          "name": "",
          "type": "bool"
        }
      ],
      "stateMutability": "view",
      "type": "function"
    },
    {
      "inputs": [
        {
          "internalType": "address",
          "name": "_owner",
          "type": "address"
        },
        {
          "internalType": "address",
          "name": "_spender",
          "type": "address"
        }
      ],
      "name": "allowance",
      "outputs": [
        {
          "internalType": "uint256",
          "name": "",
          "type": "uint256"
        }
      ],
      "stateMutability": "view",
      "type": "function"
    },
    {
      "inputs": [
        {
          "internalType": "address",
          "name": "",
          "type": "address"
        },
        {
          "internalType": "address",
          "name": "",
          "type": "address"
        }
      ],
      "name": "allowances",
      "outputs": [
        {
          "internalType": "uint256",
          "name": "",
          "type": "uint256"
        }
      ],
      "stateMutability": "view",
      "type": "function"
    },
    {
      "inputs": [
        {
          "internalType": "address",
          "name": "_spender",
          "type": "address"
        },
        {
          "internalType": "uint256",
          "name": "_amount",
          "type": "uint256"
        }
      ],
      "name": "approve",
      "outputs": [
        {
          "internalType": "bool",
          "name": "",
          "type": "bool"
        }
      ],
      "stateMutability": "nonpayable",
      "type": "function"
    },
    {
      "inputs": [
        {
          "internalType": "address",
          "name": "_account",
          "type": "address"
        }
      ],
      "name": "balanceOf",
      "outputs": [
        {
          "internalType": "uint256",
          "name": "",
          "type": "uint256"
        }
      ],
      "stateMutability": "view",
      "type": "function"
    },
    {
      "inputs": [
        {
          "internalType": "address",
          "name": "",
          "type": "address"
        }
      ],
      "name": "balances",
      "outputs": [
        {
          "internalType": "uint256",
          "name": "",
          "type": "uint256"
        }
      ],
      "stateMutability": "view",
      "type": "function"
    },
    {
      "inputs": [
        {
          "internalType": "address",
          "name": "_account",
          "type": "address"
        },
        {
          "internalType": "uint256",
          "name": "_amount",
          "type": "uint256"
        }
      ],
      "name": "burn",
      "outputs": [],
      "stateMutability": "nonpayable",
      "type": "function"
    },
    {
      "inputs": [
        {
          "internalType": "address",
          "name": "_receiver",
          "type": "address"
        }
      ],
      "name": "claim",
      "outputs": [],
      "stateMutability": "nonpayable",
      "type": "function"
    },
    {
      "inputs": [],
      "name": "decimals",
      "outputs": [
        {
          "internalType": "uint8",
          "name": "",
          "type": "uint8"
        }
      ],
      "stateMutability": "view",
      "type": "function"
    },
    {
      "inputs": [],
      "name": "gov",
      "outputs": [
        {
          "internalType": "address",
          "name": "",
          "type": "address"
        }
      ],
      "stateMutability": "view",
      "type": "function"
    },
    {
      "inputs": [],
      "name": "inWhitelistMode",
      "outputs": [
        {
          "internalType": "bool",
          "name": "",
          "type": "bool"
        }
      ],
      "stateMutability": "view",
      "type": "function"
    },
    {
      "inputs": [
        {
          "internalType": "address",
          "name": "_account",
          "type": "address"
        },
        {
          "internalType": "uint256",
          "name": "_amount",
          "type": "uint256"
        }
      ],
      "name": "mint",
      "outputs": [],
      "stateMutability": "nonpayable",
      "type": "function"
    },
    {
      "inputs": [],
      "name": "name",
      "outputs": [
        {
          "internalType": "string",
          "name": "",
          "type": "string"
        }
      ],
      "stateMutability": "view",
      "type": "function"
    },
    {
      "inputs": [
        {
          "internalType": "address",
          "name": "",
          "type": "address"
        }
      ],
      "name": "nonStakingAccounts",
      "outputs": [
        {
          "internalType": "bool",
          "name": "",
          "type": "bool"
        }
      ],
      "stateMutability": "view",
      "type": "function"
    },
    {
      "inputs": [],
      "name": "nonStakingSupply",
      "outputs": [
        {
          "internalType": "uint256",
          "name": "",
          "type": "uint256"
        }
      ],
      "stateMutability": "view",
      "type": "function"
    },
    {
      "inputs": [
        {
          "internalType": "address",
          "name": "_account",
          "type": "address"
        },
        {
          "internalType": "address",
          "name": "_receiver",
          "type": "address"
        }
      ],
      "name": "recoverClaim",
      "outputs": [],
      "stateMutability": "nonpayable",
      "type": "function"
    },
    {
      "inputs": [
        {
          "internalType": "address",
          "name": "_account",
          "type": "address"
        }
      ],
      "name": "removeAdmin",
      "outputs": [],
      "stateMutability": "nonpayable",
      "type": "function"
    },
    {
      "inputs": [
        {
          "internalType": "address",
          "name": "_account",
          "type": "address"
        }
      ],
      "name": "removeNonStakingAccount",
      "outputs": [],
      "stateMutability": "nonpayable",
      "type": "function"
    },
    {
      "inputs": [
        {
          "internalType": "address",
          "name": "_vault",
          "type": "address"
        }
      ],
      "name": "removeVault",
      "outputs": [],
      "stateMutability": "nonpayable",
      "type": "function"
    },
    {
      "inputs": [
        {
          "internalType": "address",
          "name": "_gov",
          "type": "address"
        }
      ],
      "name": "setGov",
      "outputs": [],
      "stateMutability": "nonpayable",
      "type": "function"
    },
    {
      "inputs": [
        {
          "internalType": "bool",
          "name": "_inWhitelistMode",
          "type": "bool"
        }
      ],
      "name": "setInWhitelistMode",
      "outputs": [],
      "stateMutability": "nonpayable",
      "type": "function"
    },
    {
      "inputs": [
        {
          "internalType": "string",
          "name": "_name",
          "type": "string"
        },
        {
          "internalType": "string",
          "name": "_symbol",
          "type": "string"
        }
      ],
      "name": "setInfo",
      "outputs": [],
      "stateMutability": "nonpayable",
      "type": "function"
    },
    {
      "inputs": [
        {
          "internalType": "address",
          "name": "_handler",
          "type": "address"
        },
        {
          "internalType": "bool",
          "name": "_isWhitelisted",
          "type": "bool"
        }
      ],
      "name": "setWhitelistedHandler",
      "outputs": [],
      "stateMutability": "nonpayable",
      "type": "function"
    },
    {
      "inputs": [
        {
          "internalType": "address[]",
          "name": "_yieldTrackers",
          "type": "address[]"
        }
      ],
      "name": "setYieldTrackers",
      "outputs": [],
      "stateMutability": "nonpayable",
      "type": "function"
    },
    {
      "inputs": [
        {
          "internalType": "address",
          "name": "_account",
          "type": "address"
        }
      ],
      "name": "stakedBalance",
      "outputs": [
        {
          "internalType": "uint256",
          "name": "",
          "type": "uint256"
        }
      ],
      "stateMutability": "view",
      "type": "function"
    },
    {
      "inputs": [],
      "name": "symbol",
      "outputs": [
        {
          "internalType": "string",
          "name": "",
          "type": "string"
        }
      ],
      "stateMutability": "view",
      "type": "function"
    },
    {
      "inputs": [],
      "name": "totalStaked",
      "outputs": [
        {
          "internalType": "uint256",
          "name": "",
          "type": "uint256"
        }
      ],
      "stateMutability": "view",
      "type": "function"
    },
    {
      "inputs": [],
      "name": "totalSupply",
      "outputs": [
        {
          "internalType": "uint256",
          "name": "",
          "type": "uint256"
        }
      ],
      "stateMutability": "view",
      "type": "function"
    },
    {
      "inputs": [
        {
          "internalType": "address",
          "name": "_recipient",
          "type": "address"
        },
        {
          "internalType": "uint256",
          "name": "_amount",
          "type": "uint256"
        }
      ],
      "name": "transfer",
      "outputs": [
        {
          "internalType": "bool",
          "name": "",
          "type": "bool"
        }
      ],
      "stateMutability": "nonpayable",
      "type": "function"
    },
    {
      "inputs": [
        {
          "internalType": "address",
          "name": "_sender",
          "type": "address"
        },
        {
          "internalType": "address",
          "name": "_recipient",
          "type": "address"
        },
        {
          "internalType": "uint256",
          "name": "_amount",
          "type": "uint256"
        }
      ],
      "name": "transferFrom",
      "outputs": [
        {
          "internalType": "bool",
          "name": "",
          "type": "bool"
        }
      ],
      "stateMutability": "nonpayable",
      "type": "function"
    },
    {
      "inputs": [
        {
          "internalType": "address",
          "name": "",
          "type": "address"
        }
      ],
      "name": "vaults",
      "outputs": [
        {
          "internalType": "bool",
          "name": "",
          "type": "bool"
        }
      ],
      "stateMutability": "view",
      "type": "function"
    },
    {
      "inputs": [
        {
          "internalType": "address",
          "name": "",
          "type": "address"
        }
      ],
      "name": "whitelistedHandlers",
      "outputs": [
        {
          "internalType": "bool",
          "name": "",
          "type": "bool"
        }
      ],
      "stateMutability": "view",
      "type": "function"
    },
    {
      "inputs": [
        {
          "internalType": "address",
          "name": "_token",
          "type": "address"
        },
        {
          "internalType": "address",
          "name": "_account",
          "type": "address"
        },
        {
          "internalType": "uint256",
          "name": "_amount",
          "type": "uint256"
        }
      ],
      "name": "withdrawToken",
      "outputs": [],
      "stateMutability": "nonpayable",
      "type": "function"
    },
    {
      "inputs": [
        {
          "internalType": "uint256",
          "name": "",
          "type": "uint256"
        }
      ],
      "name": "yieldTrackers",
      "outputs": [
        {
          "internalType": "address",
          "name": "",
          "type": "address"
        }
      ],
      "stateMutability": "view",
      "type": "function"
    }
  ],
  "transactionHash": "0x61b9c8ae493a64897277f3b78ef6786ae7cb64bf2a6edf07a82d9c6dd5bd148d",
  "args": [
    "0xc54aa813eF930Aa3F3fc4C646e134a53D2d08277"
  ],
  "numDeployments": 1,
  "solcInputHash": "59bf562207d3b98a68d8cbf2ed09b4a8",
  "bytecode": "0x60806040523480156200001157600080fd5b506040516200285538038062002855833981810160405260208110156200003757600080fd5b505160408051808201825260088152671554d108135bdb1960c21b6020828101918252835180850190945260048452635553444d60e01b908401528151919291600091620000889183919062000342565b5081516200009e90600190602085019062000342565b5060048054610100600160a81b031916336101008102919091179091556000818152600960205260409020805460ff19166001179055620000e090826200010b565b5050506001600160a01b03166000908152600b60205260409020805460ff19166001179055620003de565b6001600160a01b038216620001525760405162461bcd60e51b8152600401808060200182810382526024815260200180620028316024913960400191505060405180910390fd5b6200015d8262000241565b6200017981600254620002e060201b620016e41790919060201c565b6002556001600160a01b038216600090815260066020908152604090912054620001ae918390620016e4620002e0821b17901c565b6001600160a01b03831660009081526006602090815260408083209390935560089052205460ff1615620001fc57620001f881600354620002e060201b620016e41790919060201c565b6003555b6040805182815290516001600160a01b038416916000917fddf252ad1be2c89b69c2b068fc378daa952ba7f163c4a11628f55a4df523b3ef9181900360200190a35050565b60005b600554811015620002dc576000600582815481106200025f57fe5b600091825260208220015460408051635fd6196560e01b81526001600160a01b03878116600483015291519190921693508392635fd61965926024808201939182900301818387803b158015620002b557600080fd5b505af1158015620002ca573d6000803e3d6000fd5b50506001909301925062000244915050565b5050565b6000828201838110156200033b576040805162461bcd60e51b815260206004820152601b60248201527f536166654d6174683a206164646974696f6e206f766572666c6f770000000000604482015290519081900360640190fd5b9392505050565b828054600181600116156101000203166002900490600052602060002090601f016020900481019282601f106200038557805160ff1916838001178555620003b5565b82800160010185558215620003b5579182015b82811115620003b557825182559160200191906001019062000398565b50620003c3929150620003c7565b5090565b5b80821115620003c35760008155600101620003c8565b61244380620003ee6000396000f3fe608060405234801561001057600080fd5b50600436106102775760003560e01c806355b6ed5c116101605780639dc29fac116100d8578063ceb68c231161008c578063d92fc87e11610071578063d92fc87e14610923578063dd62ed3e14610951578063fb30d9161461097f57610277565b8063ceb68c23146108d7578063cfad57a2146108fd57610277565b8063a9059cbb116100bd578063a9059cbb14610776578063a923fc40146107a2578063c93be636146108cf57610277565b80639dc29fac14610724578063a622ee7c1461075057610277565b806370a082311161012f5780639554381a116101145780639554381a146106c857806395d89b41146106ee578063996f11ee146106f657610277565b806370a082311461069a578063817b1cd2146106c057610277565b806355b6ed5c146105fa5780636021726714610628578063622890771461064e578063704802751461067457610277565b8063276eab4e116101f357806336300051116101c2578063429b62e5116101a7578063429b62e5146105985780634cb5bbe3146105be57806352cd38d9146105dd57610277565b8063363000511461054657806340c10f191461056c57610277565b8063276eab4e1461045757806327e235e3146104fa578063293d698714610520578063313ce5671461052857610277565b80631785f53c1161024a5780631e83409a1161022f5780631e83409a146103d557806323b872dd146103fb578063256b5a021461043157610277565b80631785f53c1461039557806318160ddd146103bb57610277565b806301e336671461027c57806306fdde03146102b4578063095ea7b31461033157806312d43a5114610371575b600080fd5b6102b26004803603606081101561029257600080fd5b506001600160a01b038135811691602081013590911690604001356109a5565b005b6102bc610a1a565b6040805160208082528351818301528351919283929083019185019080838360005b838110156102f65781810151838201526020016102de565b50505050905090810190601f1680156103235780820380516001836020036101000a031916815260200191505b509250505060405180910390f35b61035d6004803603604081101561034757600080fd5b506001600160a01b038135169060200135610aa8565b604080519115158252519081900360200190f35b610379610abe565b604080516001600160a01b039092168252519081900360200190f35b6102b2600480360360208110156103ab57600080fd5b50356001600160a01b0316610ad2565b6103c3610b4f565b60408051918252519081900360200190f35b6102b2600480360360208110156103eb57600080fd5b50356001600160a01b0316610b55565b61035d6004803603606081101561041157600080fd5b506001600160a01b03813581169160208101359091169060400135610c0c565b6102b26004803603602081101561044757600080fd5b50356001600160a01b0316610c7c565b6102b26004803603602081101561046d57600080fd5b81019060208101813564010000000081111561048857600080fd5b82018360208201111561049a57600080fd5b803590602001918460208302840111640100000000831117156104bc57600080fd5b919080806020026020016040519081016040528093929190818152602001838360200280828437600092019190915250929550610cfc945050505050565b6103c36004803603602081101561051057600080fd5b50356001600160a01b0316610d6b565b61035d610d7d565b610530610d86565b6040805160ff9092168252519081900360200190f35b61035d6004803603602081101561055c57600080fd5b50356001600160a01b0316610d8b565b6102b26004803603604081101561058257600080fd5b506001600160a01b038135169060200135610da0565b61035d600480360360208110156105ae57600080fd5b50356001600160a01b0316610e7e565b6102b2600480360360208110156105d457600080fd5b50351515610e93565b610379600480360360208110156105f357600080fd5b5035610f02565b6103c36004803603604081101561061057600080fd5b506001600160a01b0381358116916020013516610f29565b6103c36004803603602081101561063e57600080fd5b50356001600160a01b0316610f46565b6102b26004803603602081101561066457600080fd5b50356001600160a01b0316610f8f565b6102b26004803603602081101561068a57600080fd5b50356001600160a01b031661108c565b6103c3600480360360208110156106b057600080fd5b50356001600160a01b031661110c565b6103c3611127565b61035d600480360360208110156106de57600080fd5b50356001600160a01b0316611145565b6102bc61115a565b6102b26004803603604081101561070c57600080fd5b506001600160a01b03813581169160200135166111b4565b6102b26004803603604081101561073a57600080fd5b506001600160a01b0381351690602001356112c5565b61035d6004803603602081101561076657600080fd5b50356001600160a01b0316611366565b61035d6004803603604081101561078c57600080fd5b506001600160a01b03813516906020013561137b565b6102b2600480360360408110156107b857600080fd5b8101906020810181356401000000008111156107d357600080fd5b8201836020820111156107e557600080fd5b8035906020019184600183028401116401000000008311171561080757600080fd5b91908080601f016020809104026020016040519081016040528093929190818152602001838380828437600092019190915250929594936020810193503591505064010000000081111561085a57600080fd5b82018360208201111561086c57600080fd5b8035906020019184600183028401116401000000008311171561088e57600080fd5b91908080601f016020809104026020016040519081016040528093929190818152602001838380828437600092019190915250929550611388945050505050565b6103c361140b565b6102b2600480360360208110156108ed57600080fd5b50356001600160a01b0316611411565b6102b26004803603602081101561091357600080fd5b50356001600160a01b031661148e565b6102b26004803603604081101561093957600080fd5b506001600160a01b0381351690602001351515611529565b6103c36004803603604081101561096757600080fd5b506001600160a01b03813581169160200135166115b0565b6102b26004803603602081101561099557600080fd5b50356001600160a01b03166115db565b60045461010090046001600160a01b03163314610a01576040805162461bcd60e51b81526020600482015260156024820152742cb4b2b6322a37b5b2b71d103337b93134b23232b760591b604482015290519081900360640190fd5b610a156001600160a01b038416838361173e565b505050565b6000805460408051602060026001851615610100026000190190941693909304601f81018490048402820184019092528181529291830182828015610aa05780601f10610a7557610100808354040283529160200191610aa0565b820191906000526020600020905b815481529060010190602001808311610a8357829003601f168201915b505050505081565b6000610ab53384846117be565b50600192915050565b60045461010090046001600160a01b031681565b60045461010090046001600160a01b03163314610b2e576040805162461bcd60e51b81526020600482015260156024820152742cb4b2b6322a37b5b2b71d103337b93134b23232b760591b604482015290519081900360640190fd5b6001600160a01b03166000908152600960205260409020805460ff19169055565b60025481565b60005b600554811015610c0857600060058281548110610b7157fe5b6000918252602080832090910154604080516310e059a160e11b81523360048201526001600160a01b038881166024830152915191909216945084936321c0b34293604480850194919392918390030190829087803b158015610bd357600080fd5b505af1158015610be7573d6000803e3d6000fd5b505050506040513d6020811015610bfd57600080fd5b505050600101610b58565b5050565b600080610c57836040518060600160405280602d8152602001612390602d91396001600160a01b038816600090815260076020908152604080832033845290915290205491906118aa565b9050610c648533836117be565b610c6f858585611904565b60019150505b9392505050565b60045461010090046001600160a01b03163314610cd8576040805162461bcd60e51b81526020600482015260156024820152742cb4b2b6322a37b5b2b71d103337b93134b23232b760591b604482015290519081900360640190fd5b6001600160a01b03166000908152600b60205260409020805460ff19166001179055565b60045461010090046001600160a01b03163314610d58576040805162461bcd60e51b81526020600482015260156024820152742cb4b2b6322a37b5b2b71d103337b93134b23232b760591b604482015290519081900360640190fd5b8051610c089060059060208401906120dc565b60066020526000908152604090205481565b60045460ff1681565b601281565b600a6020526000908152604090205460ff1681565b336000908152600b6020908152604091829020548251808401909352600f83527f5553444d3a20666f7262696464656e00000000000000000000000000000000009183019190915260ff16610e735760405162461bcd60e51b81526004018080602001828103825283818151815260200191508051906020019080838360005b83811015610e38578181015183820152602001610e20565b50505050905090810190601f168015610e655780820380516001836020036101000a031916815260200191505b509250505060405180910390fd5b50610c088282611b2c565b60096020526000908152604090205460ff1681565b60045461010090046001600160a01b03163314610eef576040805162461bcd60e51b81526020600482015260156024820152742cb4b2b6322a37b5b2b71d103337b93134b23232b760591b604482015290519081900360640190fd5b6004805460ff1916911515919091179055565b60058181548110610f0f57fe5b6000918252602090912001546001600160a01b0316905081565b600760209081526000928352604080842090915290825290205481565b6001600160a01b03811660009081526008602052604081205460ff1615610f6f57506000610f8a565b506001600160a01b0381166000908152600660205260409020545b919050565b3360009081526009602052604090205460ff16610feb576040805162461bcd60e51b81526020600482015260156024820152742cb4b2b6322a37b5b2b71d103337b93134b23232b760591b604482015290519081900360640190fd5b6001600160a01b03811660009081526008602052604090205460ff16156110435760405162461bcd60e51b815260040180806020018281038252602381526020018061220a6023913960400191505060405180910390fd5b61104c81611c30565b6001600160a01b0381166000908152600860209081526040808320805460ff191660011790556006909152902054600354611086916116e4565b60035550565b60045461010090046001600160a01b031633146110e8576040805162461bcd60e51b81526020600482015260156024820152742cb4b2b6322a37b5b2b71d103337b93134b23232b760591b604482015290519081900360640190fd5b6001600160a01b03166000908152600960205260409020805460ff19166001179055565b6001600160a01b031660009081526006602052604090205490565b6000611140600354600254611cdf90919063ffffffff16565b905090565b60086020526000908152604090205460ff1681565b60018054604080516020600284861615610100026000190190941693909304601f81018490048402820184019092528181529291830182828015610aa05780601f10610a7557610100808354040283529160200191610aa0565b3360009081526009602052604090205460ff16611210576040805162461bcd60e51b81526020600482015260156024820152742cb4b2b6322a37b5b2b71d103337b93134b23232b760591b604482015290519081900360640190fd5b60005b600554811015610a155760006005828154811061122c57fe5b6000918252602080832090910154604080516310e059a160e11b81526001600160a01b0389811660048301528881166024830152915191909216945084936321c0b34293604480850194919392918390030190829087803b15801561129057600080fd5b505af11580156112a4573d6000803e3d6000fd5b505050506040513d60208110156112ba57600080fd5b505050600101611213565b336000908152600b6020908152604091829020548251808401909352600f83527f5553444d3a20666f7262696464656e00000000000000000000000000000000009183019190915260ff1661135b5760405162461bcd60e51b8152602060048201818152835160248401528351909283926044909101919085019080838360008315610e38578181015183820152602001610e20565b50610c088282611d21565b600b6020526000908152604090205460ff1681565b6000610ab5338484611904565b60045461010090046001600160a01b031633146113e4576040805162461bcd60e51b81526020600482015260156024820152742cb4b2b6322a37b5b2b71d103337b93134b23232b760591b604482015290519081900360640190fd5b81516113f790600090602085019061214e565b508051610a1590600190602084019061214e565b60035481565b60045461010090046001600160a01b0316331461146d576040805162461bcd60e51b81526020600482015260156024820152742cb4b2b6322a37b5b2b71d103337b93134b23232b760591b604482015290519081900360640190fd5b6001600160a01b03166000908152600b60205260409020805460ff19169055565b60045461010090046001600160a01b031633146114ea576040805162461bcd60e51b81526020600482015260156024820152742cb4b2b6322a37b5b2b71d103337b93134b23232b760591b604482015290519081900360640190fd5b600480546001600160a01b03909216610100027fffffffffffffffffffffff0000000000000000000000000000000000000000ff909216919091179055565b60045461010090046001600160a01b03163314611585576040805162461bcd60e51b81526020600482015260156024820152742cb4b2b6322a37b5b2b71d103337b93134b23232b760591b604482015290519081900360640190fd5b6001600160a01b03919091166000908152600a60205260409020805460ff1916911515919091179055565b6001600160a01b03918216600090815260076020908152604080832093909416825291909152205490565b3360009081526009602052604090205460ff16611637576040805162461bcd60e51b81526020600482015260156024820152742cb4b2b6322a37b5b2b71d103337b93134b23232b760591b604482015290519081900360640190fd5b6001600160a01b03811660009081526008602052604090205460ff166116a4576040805162461bcd60e51b815260206004820152601f60248201527f5969656c64546f6b656e3a205f6163636f756e74206e6f74206d61726b656400604482015290519081900360640190fd5b6116ad81611c30565b6001600160a01b0381166000908152600860209081526040808320805460ff19169055600690915290205460035461108691611cdf565b600082820183811015610c75576040805162461bcd60e51b815260206004820152601b60248201527f536166654d6174683a206164646974696f6e206f766572666c6f770000000000604482015290519081900360640190fd5b604080516001600160a01b038416602482015260448082018490528251808303909101815260649091019091526020810180517bffffffffffffffffffffffffffffffffffffffffffffffffffffffff167fa9059cbb00000000000000000000000000000000000000000000000000000000179052610a15908490611e4c565b6001600160a01b0383166118035760405162461bcd60e51b81526004018080602001828103825260298152602001806123676029913960400191505060405180910390fd5b6001600160a01b0382166118485760405162461bcd60e51b81526004018080602001828103825260278152602001806122cb6027913960400191505060405180910390fd5b6001600160a01b03808416600081815260076020908152604080832094871680845294825291829020859055815185815291517f8c5be1e5ebec7d5bd14f71427d1e84f3dd0314c0f7b2291e5b200ac8c7c3b9259281900390910190a3505050565b600081848411156118fc5760405162461bcd60e51b8152602060048201818152835160248401528351909283926044909101919085019080838360008315610e38578181015183820152602001610e20565b505050900390565b6001600160a01b0383166119495760405162461bcd60e51b815260040180806020018281038252602a815260200180612255602a913960400191505060405180910390fd5b6001600160a01b03821661198e5760405162461bcd60e51b815260040180806020018281038252602881526020018061222d6028913960400191505060405180910390fd5b60045460ff16156119e757336000908152600a602052604090205460ff166119e75760405162461bcd60e51b81526004018080602001828103825260268152602001806123bd6026913960400191505060405180910390fd5b6119f083611c30565b6119f982611c30565b611a36816040518060600160405280602b81526020016123e3602b91396001600160a01b03861660009081526006602052604090205491906118aa565b6001600160a01b038085166000908152600660205260408082209390935590841681522054611a6590826116e4565b6001600160a01b0380841660009081526006602090815260408083209490945591861681526008909152205460ff1615611aaa57600354611aa69082611cdf565b6003555b6001600160a01b03821660009081526008602052604090205460ff1615611adc57600354611ad890826116e4565b6003555b816001600160a01b0316836001600160a01b03167fddf252ad1be2c89b69c2b068fc378daa952ba7f163c4a11628f55a4df523b3ef836040518082815260200191505060405180910390a3505050565b6001600160a01b038216611b715760405162461bcd60e51b81526004018080602001828103825260248152602001806123196024913960400191505060405180910390fd5b611b7a82611c30565b600254611b8790826116e4565b6002556001600160a01b038216600090815260066020526040902054611bad90826116e4565b6001600160a01b03831660009081526006602090815260408083209390935560089052205460ff1615611beb57600354611be790826116e4565b6003555b6040805182815290516001600160a01b038416916000917fddf252ad1be2c89b69c2b068fc378daa952ba7f163c4a11628f55a4df523b3ef9181900360200190a35050565b60005b600554811015610c0857600060058281548110611c4c57fe5b6000918252602082200154604080517f5fd619650000000000000000000000000000000000000000000000000000000081526001600160a01b03878116600483015291519190921693508392635fd61965926024808201939182900301818387803b158015611cba57600080fd5b505af1158015611cce573d6000803e3d6000fd5b505060019093019250611c33915050565b6000610c7583836040518060400160405280601e81526020017f536166654d6174683a207375627472616374696f6e206f766572666c6f7700008152506118aa565b6001600160a01b038216611d665760405162461bcd60e51b815260040180806020018281038252602681526020018061227f6026913960400191505060405180910390fd5b611d6f82611c30565b611dac816040518060600160405280602781526020016122f2602791396001600160a01b03851660009081526006602052604090205491906118aa565b6001600160a01b038316600090815260066020526040902055600254611dd29082611cdf565b6002556001600160a01b03821660009081526008602052604090205460ff1615611e0757600354611e039082611cdf565b6003555b6040805182815290516000916001600160a01b038516917fddf252ad1be2c89b69c2b068fc378daa952ba7f163c4a11628f55a4df523b3ef9181900360200190a35050565b6060611ea1826040518060400160405280602081526020017f5361666545524332303a206c6f772d6c6576656c2063616c6c206661696c6564815250856001600160a01b0316611efd9092919063ffffffff16565b805190915015610a1557808060200190516020811015611ec057600080fd5b5051610a155760405162461bcd60e51b815260040180806020018281038252602a81526020018061233d602a913960400191505060405180910390fd5b6060611f0c8484600085611f14565b949350505050565b606082471015611f555760405162461bcd60e51b81526004018080602001828103825260268152602001806122a56026913960400191505060405180910390fd5b611f5e85612070565b611faf576040805162461bcd60e51b815260206004820152601d60248201527f416464726573733a2063616c6c20746f206e6f6e2d636f6e7472616374000000604482015290519081900360640190fd5b60006060866001600160a01b031685876040518082805190602001908083835b60208310611fee5780518252601f199092019160209182019101611fcf565b6001836020036101000a03801982511681845116808217855250505050505090500191505060006040518083038185875af1925050503d8060008114612050576040519150601f19603f3d011682016040523d82523d6000602084013e612055565b606091505b5091509150612065828286612076565b979650505050505050565b3b151590565b60608315612085575081610c75565b8251156120955782518084602001fd5b60405162461bcd60e51b8152602060048201818152845160248401528451859391928392604401919085019080838360008315610e38578181015183820152602001610e20565b82805482825590600052602060002090810192821561213e579160200282015b8281111561213e578251825473ffffffffffffffffffffffffffffffffffffffff19166001600160a01b039091161782556020909201916001909101906120fc565b5061214a9291506121c8565b5090565b828054600181600116156101000203166002900490600052602060002090601f016020900481019282601f1061218f57805160ff19168380011785556121bc565b828001600101855582156121bc579182015b828111156121bc5782518255916020019190600101906121a1565b5061214a9291506121f4565b5b8082111561214a57805473ffffffffffffffffffffffffffffffffffffffff191681556001016121c9565b5b8082111561214a57600081556001016121f556fe5969656c64546f6b656e3a205f6163636f756e7420616c7265616479206d61726b65645969656c64546f6b656e3a207472616e7366657220746f20746865207a65726f20616464726573735969656c64546f6b656e3a207472616e736665722066726f6d20746865207a65726f20616464726573735969656c64546f6b656e3a206275726e2066726f6d20746865207a65726f2061646472657373416464726573733a20696e73756666696369656e742062616c616e636520666f722063616c6c5969656c64546f6b656e3a20617070726f766520746f20746865207a65726f20616464726573735969656c64546f6b656e3a206275726e20616d6f756e7420657863656564732062616c616e63655969656c64546f6b656e3a206d696e7420746f20746865207a65726f20616464726573735361666545524332303a204552433230206f7065726174696f6e20646964206e6f7420737563636565645969656c64546f6b656e3a20617070726f76652066726f6d20746865207a65726f20616464726573735969656c64546f6b656e3a207472616e7366657220616d6f756e74206578636565647320616c6c6f77616e63655969656c64546f6b656e3a206d73672e73656e646572206e6f742077686974656c69737465645969656c64546f6b656e3a207472616e7366657220616d6f756e7420657863656564732062616c616e6365a2646970667358221220c264d6ea88c7b69fb1e9e6305d6167b41612be1d99f4740c69224db81a76bcca64736f6c634300060c00335969656c64546f6b656e3a206d696e7420746f20746865207a65726f2061646472657373",
  "devdoc": {
    "kind": "dev",
    "methods": {},
    "version": 1
  },
  "userdoc": {
    "kind": "user",
    "methods": {},
    "version": 1
  },
  "storageLayout": {
    "storage": [
      {
        "astId": 12987,
        "contract": "contracts/tokens/USDM.sol:USDM",
        "label": "name",
        "offset": 0,
        "slot": "0",
        "type": "t_string_storage"
      },
      {
        "astId": 12989,
        "contract": "contracts/tokens/USDM.sol:USDM",
        "label": "symbol",
        "offset": 0,
        "slot": "1",
        "type": "t_string_storage"
      },
      {
        "astId": 12995,
        "contract": "contracts/tokens/USDM.sol:USDM",
        "label": "totalSupply",
        "offset": 0,
        "slot": "2",
        "type": "t_uint256"
      },
      {
        "astId": 12997,
        "contract": "contracts/tokens/USDM.sol:USDM",
        "label": "nonStakingSupply",
        "offset": 0,
        "slot": "3",
        "type": "t_uint256"
      },
      {
        "astId": 12999,
        "contract": "contracts/tokens/USDM.sol:USDM",
        "label": "inWhitelistMode",
        "offset": 0,
        "slot": "4",
        "type": "t_bool"
      },
      {
        "astId": 13001,
        "contract": "contracts/tokens/USDM.sol:USDM",
        "label": "gov",
        "offset": 1,
        "slot": "4",
        "type": "t_address"
      },
      {
        "astId": 13004,
        "contract": "contracts/tokens/USDM.sol:USDM",
        "label": "yieldTrackers",
        "offset": 0,
        "slot": "5",
        "type": "t_array(t_address)dyn_storage"
      },
      {
        "astId": 13008,
        "contract": "contracts/tokens/USDM.sol:USDM",
        "label": "balances",
        "offset": 0,
        "slot": "6",
        "type": "t_mapping(t_address,t_uint256)"
      },
      {
        "astId": 13014,
        "contract": "contracts/tokens/USDM.sol:USDM",
        "label": "allowances",
        "offset": 0,
        "slot": "7",
        "type": "t_mapping(t_address,t_mapping(t_address,t_uint256))"
      },
      {
        "astId": 13018,
        "contract": "contracts/tokens/USDM.sol:USDM",
        "label": "nonStakingAccounts",
        "offset": 0,
        "slot": "8",
        "type": "t_mapping(t_address,t_bool)"
      },
      {
        "astId": 13022,
        "contract": "contracts/tokens/USDM.sol:USDM",
        "label": "admins",
        "offset": 0,
        "slot": "9",
        "type": "t_mapping(t_address,t_bool)"
      },
      {
        "astId": 13026,
        "contract": "contracts/tokens/USDM.sol:USDM",
        "label": "whitelistedHandlers",
        "offset": 0,
        "slot": "10",
        "type": "t_mapping(t_address,t_bool)"
      },
      {
        "astId": 22615,
        "contract": "contracts/tokens/USDM.sol:USDM",
        "label": "vaults",
        "offset": 0,
        "slot": "11",
        "type": "t_mapping(t_address,t_bool)"
      }
    ],
    "types": {
      "t_address": {
        "encoding": "inplace",
        "label": "address",
        "numberOfBytes": "20"
      },
      "t_array(t_address)dyn_storage": {
        "base": "t_address",
        "encoding": "dynamic_array",
        "label": "address[]",
        "numberOfBytes": "32"
      },
      "t_bool": {
        "encoding": "inplace",
        "label": "bool",
        "numberOfBytes": "1"
      },
      "t_mapping(t_address,t_bool)": {
        "encoding": "mapping",
        "key": "t_address",
        "label": "mapping(address => bool)",
        "numberOfBytes": "32",
        "value": "t_bool"
      },
      "t_mapping(t_address,t_mapping(t_address,t_uint256))": {
        "encoding": "mapping",
        "key": "t_address",
        "label": "mapping(address => mapping(address => uint256))",
        "numberOfBytes": "32",
        "value": "t_mapping(t_address,t_uint256)"
      },
      "t_mapping(t_address,t_uint256)": {
        "encoding": "mapping",
        "key": "t_address",
        "label": "mapping(address => uint256)",
        "numberOfBytes": "32",
        "value": "t_uint256"
      },
      "t_string_storage": {
        "encoding": "bytes",
        "label": "string",
        "numberOfBytes": "32"
      },
      "t_uint256": {
        "encoding": "inplace",
        "label": "uint256",
        "numberOfBytes": "32"
      }
    }
  }
}