{
  "address": "0x621Fc00Dd6Fc50204dcCaF84b03Cc991D5a2A218",
  "abi": [
    {
      "inputs": [],
      "stateMutability": "nonpayable",
      "type": "constructor"
    },
    {
      "inputs": [
        {
          "internalType": "address",
          "name": "",
          "type": "address"
        }
      ],
      "name": "adjustmentBasisPoints",
      "outputs": [
        {
          "internalType": "uint256",
          "name": "",
          "type": "uint256"
        }
      ],
      "stateMutability": "view",
      "type": "function"
    },
    {
      "inputs": [],
      "name": "bnb",
      "outputs": [
        {
          "internalType": "address",
          "name": "",
          "type": "address"
        }
      ],
      "stateMutability": "view",
      "type": "function"
    },
    {
      "inputs": [],
      "name": "bnbBusd",
      "outputs": [
        {
          "internalType": "address",
          "name": "",
          "type": "address"
        }
      ],
      "stateMutability": "view",
      "type": "function"
    },
    {
      "inputs": [],
      "name": "btc",
      "outputs": [
        {
          "internalType": "address",
          "name": "",
          "type": "address"
        }
      ],
      "stateMutability": "view",
      "type": "function"
    },
    {
      "inputs": [],
      "name": "btcBnb",
      "outputs": [
        {
          "internalType": "address",
          "name": "",
          "type": "address"
        }
      ],
      "stateMutability": "view",
      "type": "function"
    },
    {
      "inputs": [],
      "name": "chainlinkFlags",
      "outputs": [
        {
          "internalType": "address",
          "name": "",
          "type": "address"
        }
      ],
      "stateMutability": "view",
      "type": "function"
    },
    {
      "inputs": [],
      "name": "eth",
      "outputs": [
        {
          "internalType": "address",
          "name": "",
          "type": "address"
        }
      ],
      "stateMutability": "view",
      "type": "function"
    },
    {
      "inputs": [],
      "name": "ethBnb",
      "outputs": [
        {
          "internalType": "address",
          "name": "",
          "type": "address"
        }
      ],
      "stateMutability": "view",
      "type": "function"
    },
    {
      "inputs": [],
      "name": "favorPrimaryPrice",
      "outputs": [
        {
          "internalType": "bool",
          "name": "",
          "type": "bool"
        }
      ],
      "stateMutability": "view",
      "type": "function"
    },
    {
      "inputs": [
        {
          "internalType": "address",
          "name": "_token",
          "type": "address"
        }
      ],
      "name": "getAmmPrice",
      "outputs": [
        {
          "internalType": "uint256",
          "name": "",
          "type": "uint256"
        }
      ],
      "stateMutability": "view",
      "type": "function"
    },
    {
      "inputs": [
        {
          "internalType": "address",
          "name": "_token",
          "type": "address"
        },
        {
          "internalType": "bool",
          "name": "_maximise",
          "type": "bool"
        },
        {
          "internalType": "uint256",
          "name": "_primaryPrice",
          "type": "uint256"
        }
      ],
      "name": "getAmmPriceV2",
      "outputs": [
        {
          "internalType": "uint256",
          "name": "",
          "type": "uint256"
        }
      ],
      "stateMutability": "view",
      "type": "function"
    },
    {
      "inputs": [
        {
          "internalType": "address",
          "name": "_token",
          "type": "address"
        }
      ],
      "name": "getLatestPrimaryPrice",
      "outputs": [
        {
          "internalType": "uint256",
          "name": "",
          "type": "uint256"
        }
      ],
      "stateMutability": "view",
      "type": "function"
    },
    {
      "inputs": [
        {
          "internalType": "address",
          "name": "_pair",
          "type": "address"
        },
        {
          "internalType": "bool",
          "name": "_divByReserve0",
          "type": "bool"
        }
      ],
      "name": "getPairPrice",
      "outputs": [
        {
          "internalType": "uint256",
          "name": "",
          "type": "uint256"
        }
      ],
      "stateMutability": "view",
      "type": "function"
    },
    {
      "inputs": [
        {
          "internalType": "address",
          "name": "_token",
          "type": "address"
        },
        {
          "internalType": "bool",
          "name": "_maximise",
          "type": "bool"
        },
        {
          "internalType": "bool",
          "name": "_includeAmmPrice",
          "type": "bool"
        },
        {
          "internalType": "bool",
          "name": "",
          "type": "bool"
        }
      ],
      "name": "getPrice",
      "outputs": [
        {
          "internalType": "uint256",
          "name": "",
          "type": "uint256"
        }
      ],
      "stateMutability": "view",
      "type": "function"
    },
    {
      "inputs": [
        {
          "internalType": "address",
          "name": "_token",
          "type": "address"
        },
        {
          "internalType": "bool",
          "name": "_maximise",
          "type": "bool"
        },
        {
          "internalType": "bool",
          "name": "_includeAmmPrice",
          "type": "bool"
        }
      ],
      "name": "getPriceV1",
      "outputs": [
        {
          "internalType": "uint256",
          "name": "",
          "type": "uint256"
        }
      ],
      "stateMutability": "view",
      "type": "function"
    },
    {
      "inputs": [
        {
          "internalType": "address",
          "name": "_token",
          "type": "address"
        },
        {
          "internalType": "bool",
          "name": "_maximise",
          "type": "bool"
        },
        {
          "internalType": "bool",
          "name": "_includeAmmPrice",
          "type": "bool"
        }
      ],
      "name": "getPriceV2",
      "outputs": [
        {
          "internalType": "uint256",
          "name": "",
          "type": "uint256"
        }
      ],
      "stateMutability": "view",
      "type": "function"
    },
    {
      "inputs": [
        {
          "internalType": "address",
          "name": "_token",
          "type": "address"
        },
        {
          "internalType": "bool",
          "name": "_maximise",
          "type": "bool"
        }
      ],
      "name": "getPrimaryPrice",
      "outputs": [
        {
          "internalType": "uint256",
          "name": "",
          "type": "uint256"
        }
      ],
      "stateMutability": "view",
      "type": "function"
    },
    {
      "inputs": [
        {
          "internalType": "address",
          "name": "_token",
          "type": "address"
        },
        {
          "internalType": "uint256",
          "name": "_referencePrice",
          "type": "uint256"
        },
        {
          "internalType": "bool",
          "name": "_maximise",
          "type": "bool"
        }
      ],
      "name": "getSecondaryPrice",
      "outputs": [
        {
          "internalType": "uint256",
          "name": "",
          "type": "uint256"
        }
      ],
      "stateMutability": "view",
      "type": "function"
    },
    {
      "inputs": [],
      "name": "gov",
      "outputs": [
        {
          "internalType": "address",
          "name": "",
          "type": "address"
        }
      ],
      "stateMutability": "view",
      "type": "function"
    },
    {
      "inputs": [
        {
          "internalType": "address",
          "name": "",
          "type": "address"
        }
      ],
      "name": "isAdjustmentAdditive",
      "outputs": [
        {
          "internalType": "bool",
          "name": "",
          "type": "bool"
        }
      ],
      "stateMutability": "view",
      "type": "function"
    },
    {
      "inputs": [],
      "name": "isAmmEnabled",
      "outputs": [
        {
          "internalType": "bool",
          "name": "",
          "type": "bool"
        }
      ],
      "stateMutability": "view",
      "type": "function"
    },
    {
      "inputs": [],
      "name": "isSecondaryPriceEnabled",
      "outputs": [
        {
          "internalType": "bool",
          "name": "",
          "type": "bool"
        }
      ],
      "stateMutability": "view",
      "type": "function"
    },
    {
      "inputs": [
        {
          "internalType": "address",
          "name": "",
          "type": "address"
        }
      ],
      "name": "lastAdjustmentTimings",
      "outputs": [
        {
          "internalType": "uint256",
          "name": "",
          "type": "uint256"
        }
      ],
      "stateMutability": "view",
      "type": "function"
    },
    {
      "inputs": [],
      "name": "maxStrictPriceDeviation",
      "outputs": [
        {
          "internalType": "uint256",
          "name": "",
          "type": "uint256"
        }
      ],
      "stateMutability": "view",
      "type": "function"
    },
    {
      "inputs": [
        {
          "internalType": "address",
          "name": "",
          "type": "address"
        }
      ],
      "name": "priceDecimals",
      "outputs": [
        {
          "internalType": "uint256",
          "name": "",
          "type": "uint256"
        }
      ],
      "stateMutability": "view",
      "type": "function"
    },
    {
      "inputs": [
        {
          "internalType": "address",
          "name": "",
          "type": "address"
        }
      ],
      "name": "priceFeeds",
      "outputs": [
        {
          "internalType": "address",
          "name": "",
          "type": "address"
        }
      ],
      "stateMutability": "view",
      "type": "function"
    },
    {
      "inputs": [],
      "name": "priceSampleSpace",
      "outputs": [
        {
          "internalType": "uint256",
          "name": "",
          "type": "uint256"
        }
      ],
      "stateMutability": "view",
      "type": "function"
    },
    {
      "inputs": [],
      "name": "secondaryPriceFeed",
      "outputs": [
        {
          "internalType": "address",
          "name": "",
          "type": "address"
        }
      ],
      "stateMutability": "view",
      "type": "function"
    },
    {
      "inputs": [
        {
          "internalType": "address",
          "name": "_token",
          "type": "address"
        },
        {
          "internalType": "bool",
          "name": "_isAdditive",
          "type": "bool"
        },
        {
          "internalType": "uint256",
          "name": "_adjustmentBps",
          "type": "uint256"
        }
      ],
      "name": "setAdjustment",
      "outputs": [],
      "stateMutability": "nonpayable",
      "type": "function"
    },
    {
      "inputs": [
        {
          "internalType": "address",
          "name": "_chainlinkFlags",
          "type": "address"
        }
      ],
      "name": "setChainlinkFlags",
      "outputs": [],
      "stateMutability": "nonpayable",
      "type": "function"
    },
    {
      "inputs": [
        {
          "internalType": "bool",
          "name": "_favorPrimaryPrice",
          "type": "bool"
        }
      ],
      "name": "setFavorPrimaryPrice",
      "outputs": [],
      "stateMutability": "nonpayable",
      "type": "function"
    },
    {
      "inputs": [
        {
          "internalType": "address",
          "name": "_gov",
          "type": "address"
        }
      ],
      "name": "setGov",
      "outputs": [],
      "stateMutability": "nonpayable",
      "type": "function"
    },
    {
      "inputs": [
        {
          "internalType": "bool",
          "name": "_isEnabled",
          "type": "bool"
        }
      ],
      "name": "setIsAmmEnabled",
      "outputs": [],
      "stateMutability": "nonpayable",
      "type": "function"
    },
    {
      "inputs": [
        {
          "internalType": "bool",
          "name": "_isEnabled",
          "type": "bool"
        }
      ],
      "name": "setIsSecondaryPriceEnabled",
      "outputs": [],
      "stateMutability": "nonpayable",
      "type": "function"
    },
    {
      "inputs": [
        {
          "internalType": "uint256",
          "name": "_maxStrictPriceDeviation",
          "type": "uint256"
        }
      ],
      "name": "setMaxStrictPriceDeviation",
      "outputs": [],
      "stateMutability": "nonpayable",
      "type": "function"
    },
    {
      "inputs": [
        {
          "internalType": "address",
          "name": "_bnbBusd",
          "type": "address"
        },
        {
          "internalType": "address",
          "name": "_ethBnb",
          "type": "address"
        },
        {
          "internalType": "address",
          "name": "_btcBnb",
          "type": "address"
        }
      ],
      "name": "setPairs",
      "outputs": [],
      "stateMutability": "nonpayable",
      "type": "function"
    },
    {
      "inputs": [
        {
          "internalType": "uint256",
          "name": "_priceSampleSpace",
          "type": "uint256"
        }
      ],
      "name": "setPriceSampleSpace",
      "outputs": [],
      "stateMutability": "nonpayable",
      "type": "function"
    },
    {
      "inputs": [
        {
          "internalType": "address",
          "name": "_secondaryPriceFeed",
          "type": "address"
        }
      ],
      "name": "setSecondaryPriceFeed",
      "outputs": [],
      "stateMutability": "nonpayable",
      "type": "function"
    },
    {
      "inputs": [
        {
          "internalType": "address",
          "name": "_token",
          "type": "address"
        },
        {
          "internalType": "uint256",
          "name": "_spreadBasisPoints",
          "type": "uint256"
        }
      ],
      "name": "setSpreadBasisPoints",
      "outputs": [],
      "stateMutability": "nonpayable",
      "type": "function"
    },
    {
      "inputs": [
        {
          "internalType": "uint256",
          "name": "_spreadThresholdBasisPoints",
          "type": "uint256"
        }
      ],
      "name": "setSpreadThresholdBasisPoints",
      "outputs": [],
      "stateMutability": "nonpayable",
      "type": "function"
    },
    {
      "inputs": [
        {
          "internalType": "address",
          "name": "_token",
          "type": "address"
        },
        {
          "internalType": "address",
          "name": "_priceFeed",
          "type": "address"
        },
        {
          "internalType": "uint256",
          "name": "_priceDecimals",
          "type": "uint256"
        },
        {
          "internalType": "bool",
          "name": "_isStrictStable",
          "type": "bool"
        }
      ],
      "name": "setTokenConfig",
      "outputs": [],
      "stateMutability": "nonpayable",
      "type": "function"
    },
    {
      "inputs": [
        {
          "internalType": "address",
          "name": "_btc",
          "type": "address"
        },
        {
          "internalType": "address",
          "name": "_eth",
          "type": "address"
        },
        {
          "internalType": "address",
          "name": "_bnb",
          "type": "address"
        }
      ],
      "name": "setTokens",
      "outputs": [],
      "stateMutability": "nonpayable",
      "type": "function"
    },
    {
      "inputs": [
        {
          "internalType": "bool",
          "name": "_useV2Pricing",
          "type": "bool"
        }
      ],
      "name": "setUseV2Pricing",
      "outputs": [],
      "stateMutability": "nonpayable",
      "type": "function"
    },
    {
      "inputs": [
        {
          "internalType": "address",
          "name": "",
          "type": "address"
        }
      ],
      "name": "spreadBasisPoints",
      "outputs": [
        {
          "internalType": "uint256",
          "name": "",
          "type": "uint256"
        }
      ],
      "stateMutability": "view",
      "type": "function"
    },
    {
      "inputs": [],
      "name": "spreadThresholdBasisPoints",
      "outputs": [
        {
          "internalType": "uint256",
          "name": "",
          "type": "uint256"
        }
      ],
      "stateMutability": "view",
      "type": "function"
    },
    {
      "inputs": [
        {
          "internalType": "address",
          "name": "",
          "type": "address"
        }
      ],
      "name": "strictStableTokens",
      "outputs": [
        {
          "internalType": "bool",
          "name": "",
          "type": "bool"
        }
      ],
      "stateMutability": "view",
      "type": "function"
    },
    {
      "inputs": [],
      "name": "useV2Pricing",
      "outputs": [
        {
          "internalType": "bool",
          "name": "",
          "type": "bool"
        }
      ],
      "stateMutability": "view",
      "type": "function"
    }
  ],
  "transactionHash": "0x738ad4a58f62f73d6181f39437a9c53f9c8d7b6573cad7cbc86bbe2846ed28a8",
  "args": [],
  "numDeployments": 1,
  "solcInputHash": "59bf562207d3b98a68d8cbf2ed09b4a8",
  "bytecode": "0x6080604052601e600090815560036001818155600292909255805463ffff00001961ff001960ff19909216909317166101001791909116905534801561004457600080fd5b5060038054600160201b600160c01b031916336401000000000217905561271f806100706000396000f3fe608060405234801561001057600080fd5b50600436106103155760003560e01c8063826e055f116101a7578063a2ad7b93116100ee578063cefe0f2111610097578063e4440e0211610071578063e4440e02146108af578063eb1c92a9146108b7578063fd34ec40146108d657610315565b8063cefe0f211461082f578063cfad57a214610855578063d694376c1461087b57610315565b8063b731dd87116100c8578063b731dd87146107c6578063b8f61105146107e3578063c2138d8c1461080957610315565b8063a2ad7b931461075c578063a39c73a31461078a578063b02a2de41461079257610315565b80639917dc74116101505780639dcb511a1161012a5780639dcb511a14610708578063a27ea3861461072e578063a28d57d81461075457610315565b80639917dc74146106975780639a0a6635146106b65780639b889380146106dc57610315565b806393f690741161018157806393f690741461064f578063971bd3961461068757806397dfade71461068f57610315565b8063826e055f146106195780638b86616c1461063f5780638c7c9e0c1461064757610315565b8063443be2091161026b578063593d9e80116102145780636fc80708116101ee5780636fc80708146105b5578063717cfe7a146105bd578063732391b4146105e357610315565b8063593d9e8014610568578063604f37e9146105705780636ce8a44b1461058f57610315565b80634b9ade47116102455780634b9ade47146104d657806356bf9de41461051457806356c8c2c11461053a57610315565b8063443be2091461047057806348cac277146104a857806349a876e4146104ce57610315565b806330536ee5116102cd5780633eba8d36116102a75780633eba8d361461042c5780633ebbc601146104605780633f0c3bb71461046857610315565b806330536ee5146103d2578063378e7bf7146103ee5780633d949c5f146103f657610315565b80632fa03b8f116102fe5780632fa03b8f146103465780632fbfe3d3146103655780632fc3a70a1461038257610315565b80631193c8091461031a57806312d43a511461033e575b600080fd5b6103226108f5565b604080516001600160a01b039092168252519081900360200190f35b610322610904565b6103636004803603602081101561035c57600080fd5b503561091b565b005b6103636004803603602081101561037b57600080fd5b5035610a4c565b6103c06004803603608081101561039857600080fd5b506001600160a01b038135169060208101351515906040810135151590606001351515610ad6565b60408051918252519081900360200190f35b6103da610b93565b604080519115158252519081900360200190f35b6103c0610ba2565b6103c06004803603606081101561040c57600080fd5b506001600160a01b03813516906020810135151590604001351515610ba8565b6103c06004803603606081101561044257600080fd5b506001600160a01b0381351690602081013590604001351515610d7a565b6103da610e3d565b6103da610e4b565b6103636004803603606081101561048657600080fd5b506001600160a01b038135811691602081013582169160409091013516610e54565b6103c0600480360360208110156104be57600080fd5b50356001600160a01b0316610f18565b610322610f2a565b610363600480360360808110156104ec57600080fd5b506001600160a01b038135811691602081013590911690604081013590606001351515610f39565b6103c06004803603602081101561052a57600080fd5b50356001600160a01b0316611013565b6103c06004803603604081101561055057600080fd5b506001600160a01b0381351690602001351515611197565b6103da6116fa565b6103636004803603602081101561058657600080fd5b5035151561170a565b6103da600480360360208110156105a557600080fd5b50356001600160a01b03166117ad565b6103c06117c2565b6103c0600480360360208110156105d357600080fd5b50356001600160a01b03166117c8565b6103c0600480360360608110156105f957600080fd5b506001600160a01b038135169060208101351515906040013515156117da565b6103636004803603602081101561062f57600080fd5b50356001600160a01b0316611826565b6103226118cd565b6103226118dc565b6103636004803603606081101561066557600080fd5b506001600160a01b0381358116916020810135821691604090910135166118eb565b6103226119af565b6103226119be565b610363600480360360208110156106ad57600080fd5b503515156119cd565b610363600480360360208110156106cc57600080fd5b50356001600160a01b0316611a65565b610363600480360360408110156106f257600080fd5b506001600160a01b038135169060200135611b0c565b6103226004803603602081101561071e57600080fd5b50356001600160a01b0316611c18565b6103c06004803603602081101561074457600080fd5b50356001600160a01b0316611c33565b610322611c45565b6103c06004803603604081101561077257600080fd5b506001600160a01b0381351690602001351515611c54565b6103c0611d4a565b6103c0600480360360608110156107a857600080fd5b506001600160a01b0381351690602081013515159060400135611d50565b610363600480360360208110156107dc57600080fd5b5035611e18565b6103da600480360360208110156107f957600080fd5b50356001600160a01b0316611ea2565b6103c06004803603602081101561081f57600080fd5b50356001600160a01b0316611eb7565b6103c06004803603602081101561084557600080fd5b50356001600160a01b0316611fb6565b6103636004803603602081101561086b57600080fd5b50356001600160a01b0316611fc8565b6103636004803603606081101561089157600080fd5b506001600160a01b038135169060208101351515906040013561208f565b610322612251565b610363600480360360208110156108cd57600080fd5b50351515612260565b610363600480360360208110156108ec57600080fd5b503515156122ff565b600a546001600160a01b031681565b60035464010000000090046001600160a01b031681565b600354604080518082019091526019815260008051602061265983398151915260208201529064010000000090046001600160a01b031633146109dc5760405162461bcd60e51b81526004018080602001828103825283818151815260200191508051906020019080838360005b838110156109a1578181015183820152602001610989565b50505050905090810190601f1680156109ce5780820380516001836020036101000a031916815260200191505b509250505060405180910390fd5b50600081116040518060600160405280602981526020016125976029913990610a465760405162461bcd60e51b81526020600482018181528351602484015283519092839260449091019190850190808383600083156109a1578181015183820152602001610989565b50600155565b600354604080518082019091526019815260008051602061265983398151915260208201529064010000000090046001600160a01b03163314610ad05760405162461bcd60e51b81526020600482018181528351602484015283519092839260449091019190850190808383600083156109a1578181015183820152602001610989565b50600255565b600354600090819062010000900460ff16610afb57610af6868686610ba8565b610b06565b610b068686866117da565b6001600160a01b0387166000908152601060205260409020549091508015610b89576001600160a01b03871660009081526011602052604090205460ff168015610b7157610b6a612710610b64610b5d82866123a0565b86906123fa565b90612453565b9250610b87565b610b84612710610b64610b5d8286612495565b92505b505b5095945050505050565b60035462010000900460ff1681565b60025481565b600080610bb58585611197565b9050828015610bc6575060035460ff165b15610c0b576000610bd686611eb7565b90508015610c0957848015610bea57508181115b15610bf3578091505b84158015610c0057508181105b15610c09578091505b505b600354610100900460ff1615610c2957610c26858286610d7a565b90505b6001600160a01b0385166000908152600f602052604090205460ff1615610d195760006c0c9f2c9cd04674edea400000008211610c7c57610c776c0c9f2c9cd04674edea4000000083612495565b610c93565b610c93826c0c9f2c9cd04674edea40000000612495565b90506002548111610cb5576c0c9f2c9cd04674edea4000000092505050610d73565b848015610cce57506c0c9f2c9cd04674edea4000000082115b15610cdb57509050610d73565b84158015610cf557506c0c9f2c9cd04674edea4000000082105b15610d0257509050610d73565b6c0c9f2c9cd04674edea4000000092505050610d73565b6001600160a01b0385166000908152600e60205260409020548415610d5b57610d52612710610b64610d4b82856123a0565b85906123fa565b92505050610d73565b610d6e612710610b64610d4b8285612495565b925050505b9392505050565b6005546000906001600160a01b0316610d94575081610d73565b600554604080517f7fece3680000000000000000000000000000000000000000000000000000000081526001600160a01b03878116600483015260248201879052851515604483015291519190921691637fece368916064808301926020929190829003018186803b158015610e0957600080fd5b505afa158015610e1d573d6000803e3d6000fd5b505050506040513d6020811015610e3357600080fd5b5051949350505050565b600354610100900460ff1681565b60035460ff1681565b600354604080518082019091526019815260008051602061265983398151915260208201529064010000000090046001600160a01b03163314610ed85760405162461bcd60e51b81526020600482018181528351602484015283519092839260449091019190850190808383600083156109a1578181015183820152602001610989565b50600680546001600160a01b039485166001600160a01b031991821617909155600780549385169382169390931790925560088054919093169116179055565b60106020526000908152604090205481565b6008546001600160a01b031681565b600354604080518082019091526019815260008051602061265983398151915260208201529064010000000090046001600160a01b03163314610fbd5760405162461bcd60e51b81526020600482018181528351602484015283519092839260449091019190850190808383600083156109a1578181015183820152602001610989565b506001600160a01b039384166000908152600c6020908152604080832080546001600160a01b0319169690971695909517909555600d855283812092909255600f90935220805460ff1916911515919091179055565b6001600160a01b038082166000908152600c6020908152604080832054815160608101909252602280835293941692831515926126c890830139906110995760405162461bcd60e51b81526020600482018181528351602484015283519092839260449091019190850190808383600083156109a1578181015183820152602001610989565b5060008190506000816001600160a01b03166350d25bcd6040518163ffffffff1660e01b815260040160206040518083038186803b1580156110da57600080fd5b505afa1580156110ee573d6000803e3d6000fd5b505050506040513d602081101561110457600080fd5b505160408051808201909152601d81527f5661756c745072696365466565643a20696e76616c696420707269636500000060208201529091506000821361118c5760405162461bcd60e51b81526020600482018181528351602484015283519092839260449091019190850190808383600083156109a1578181015183820152602001610989565b50925050505b919050565b6001600160a01b038083166000908152600c6020908152604080832054815160608101909252602280835293941692831515926126c8908301399061121d5760405162461bcd60e51b81526020600482018181528351602484015283519092839260449091019190850190808383600083156109a1578181015183820152602001610989565b506004546001600160a01b0316156113415760048054604080517f357e47fe00000000000000000000000000000000000000000000000000000000815273a438451d6458044c3c8cd2f6f31c91ac882a6d9193810193909352516000926001600160a01b039092169163357e47fe916024808301926020929190829003018186803b1580156112ab57600080fd5b505afa1580156112bf573d6000803e3d6000fd5b505050506040513d60208110156112d557600080fd5b50519050801561133f576040518060600160405280602581526020016126796025913960405162461bcd60e51b81526020600482018181528351602484015283519092839260449091019190850190808383600083156109a1578181015183820152602001610989565b505b6000819050600080826001600160a01b031663668a0f026040518163ffffffff1660e01b815260040160206040518083038186803b15801561138257600080fd5b505afa158015611396573d6000803e3d6000fd5b505050506040513d60208110156113ac57600080fd5b5051905060005b6001548169ffffffffffffffffffff161015611649578069ffffffffffffffffffff168269ffffffffffffffffffff16116113ed57611649565b600069ffffffffffffffffffff82166114f5576000856001600160a01b03166350d25bcd6040518163ffffffff1660e01b815260040160206040518083038186803b15801561143b57600080fd5b505afa15801561144f573d6000803e3d6000fd5b505050506040513d602081101561146557600080fd5b505160408051808201909152601d81527f5661756c745072696365466565643a20696e76616c69642070726963650000006020820152909150600082136114ed5760405162461bcd60e51b81526020600482018181528351602484015283519092839260449091019190850190808383600083156109a1578181015183820152602001610989565b509050611605565b6000856001600160a01b0316639a6fc8f58486036040518263ffffffff1660e01b8152600401808269ffffffffffffffffffff16815260200191505060a06040518083038186803b15801561154957600080fd5b505afa15801561155d573d6000803e3d6000fd5b505050506040513d60a081101561157357600080fd5b5060209081015160408051808201909152601d81527f5661756c745072696365466565643a20696e76616c6964207072696365000000928101929092529150600082136116015760405162461bcd60e51b81526020600482018181528351602484015283519092839260449091019190850190808383600083156109a1578181015183820152602001610989565b5090505b83611611579250611641565b87801561161d57508381115b15611629579250611641565b8715801561163657508381105b1561163f578093505b505b6001016113b3565b50600082116040518060600160405280602581526020016125c060259139906116b35760405162461bcd60e51b81526020600482018181528351602484015283519092839260449091019190850190808383600083156109a1578181015183820152602001610989565b506001600160a01b0387166000908152600d60205260409020546116ec600a82900a610b64856c0c9f2c9cd04674edea400000006123fa565b955050505050505b92915050565b6003546301000000900460ff1681565b600354604080518082019091526019815260008051602061265983398151915260208201529064010000000090046001600160a01b0316331461178e5760405162461bcd60e51b81526020600482018181528351602484015283519092839260449091019190850190808383600083156109a1578181015183820152602001610989565b506003805491151563010000000263ff00000019909216919091179055565b60116020526000908152604090205460ff1681565b60015481565b60126020526000908152604090205481565b6000806117e78585611197565b90508280156117f8575060035460ff165b15610c0b57611808858583611d50565b905060035460ff6101009091041615610c2957610c26858286610d7a565b600354604080518082019091526019815260008051602061265983398151915260208201529064010000000090046001600160a01b031633146118aa5760405162461bcd60e51b81526020600482018181528351602484015283519092839260449091019190850190808383600083156109a1578181015183820152602001610989565b50600480546001600160a01b0319166001600160a01b0392909216919091179055565b6005546001600160a01b031681565b6007546001600160a01b031681565b600354604080518082019091526019815260008051602061265983398151915260208201529064010000000090046001600160a01b0316331461196f5760405162461bcd60e51b81526020600482018181528351602484015283519092839260449091019190850190808383600083156109a1578181015183820152602001610989565b50600980546001600160a01b039485166001600160a01b031991821617909155600a805493851693821693909317909255600b8054919093169116179055565b600b546001600160a01b031681565b6009546001600160a01b031681565b600354604080518082019091526019815260008051602061265983398151915260208201529064010000000090046001600160a01b03163314611a515760405162461bcd60e51b81526020600482018181528351602484015283519092839260449091019190850190808383600083156109a1578181015183820152602001610989565b506003805460ff1916911515919091179055565b600354604080518082019091526019815260008051602061265983398151915260208201529064010000000090046001600160a01b03163314611ae95760405162461bcd60e51b81526020600482018181528351602484015283519092839260449091019190850190808383600083156109a1578181015183820152602001610989565b50600580546001600160a01b0319166001600160a01b0392909216919091179055565b600354604080518082019091526019815260008051602061265983398151915260208201529064010000000090046001600160a01b03163314611b905760405162461bcd60e51b81526020600482018181528351602484015283519092839260449091019190850190808383600083156109a1578181015183820152602001610989565b5060328111156040518060600160405280602a815260200161269e602a913990611bfb5760405162461bcd60e51b81526020600482018181528351602484015283519092839260449091019190850190808383600083156109a1578181015183820152602001610989565b506001600160a01b039091166000908152600e6020526040902055565b600c602052600090815260409020546001600160a01b031681565b600e6020526000908152604090205481565b6006546001600160a01b031681565b6000806000846001600160a01b0316630902f1ac6040518163ffffffff1660e01b815260040160606040518083038186803b158015611c9257600080fd5b505afa158015611ca6573d6000803e3d6000fd5b505050506040513d6060811015611cbc57600080fd5b5080516020909101516dffffffffffffffffffffffffffff91821693501690508315611d165781611cf2576000925050506116f4565b611d0d82610b64836c0c9f2c9cd04674edea400000006123fa565b925050506116f4565b80611d26576000925050506116f4565b611d4181610b64846c0c9f2c9cd04674edea400000006123fa565b95945050505050565b60005481565b600080611d5c85611eb7565b905080611d6c5782915050610d73565b6000838211611d8457611d7f8483612495565b611d8e565b611d8e8285612495565b9050611da5600054856123fa90919063ffffffff16565b611db1826127106123fa565b1015611ddb576003546301000000900460ff1615611dd3578392505050610d73565b509050610d73565b848015611de757508382115b15611df457509050610d73565b84158015611e0157508382105b15611e0e57509050610d73565b5091949350505050565b600354604080518082019091526019815260008051602061265983398151915260208201529064010000000090046001600160a01b03163314611e9c5760405162461bcd60e51b81526020600482018181528351602484015283519092839260449091019190850190808383600083156109a1578181015183820152602001610989565b50600055565b600f6020526000908152604090205460ff1681565b6008546000906001600160a01b0383811691161415611eee57600954611ee7906001600160a01b03166001611c54565b9050611192565b6007546001600160a01b0383811691161415611f6157600954600090611f1e906001600160a01b03166001611c54565b600a54909150600090611f3b906001600160a01b03166001611c54565b9050611f586c0c9f2c9cd04674edea40000000610b6484846123fa565b92505050611192565b6006546001600160a01b0383811691161415611fae57600954600090611f91906001600160a01b03166001611c54565b600b54909150600090611f3b906001600160a01b03166001611c54565b506000919050565b600d6020526000908152604090205481565b600354604080518082019091526019815260008051602061265983398151915260208201529064010000000090046001600160a01b0316331461204c5760405162461bcd60e51b81526020600482018181528351602484015283519092839260449091019190850190808383600083156109a1578181015183820152602001610989565b50600380546001600160a01b03909216640100000000027fffffffffffffffff0000000000000000000000000000000000000000ffffffff909216919091179055565b600354604080518082019091526019815260008051602061265983398151915260208201529064010000000090046001600160a01b031633146121135760405162461bcd60e51b81526020600482018181528351602484015283519092839260449091019190850190808383600083156109a1578181015183820152602001610989565b506001600160a01b038316600090815260126020526040902054429061213b90611c206123a0565b106040518060600160405280602d815260200161262c602d9139906121a15760405162461bcd60e51b81526020600482018181528351602484015283519092839260449091019190850190808383600083156109a1578181015183820152602001610989565b5060148111156040518060600160405280602681526020016125e5602691399061220c5760405162461bcd60e51b81526020600482018181528351602484015283519092839260449091019190850190808383600083156109a1578181015183820152602001610989565b506001600160a01b03929092166000908152601160209081526040808320805460ff191694151594909417909355601081528282209390935560129092529020429055565b6004546001600160a01b031681565b600354604080518082019091526019815260008051602061265983398151915260208201529064010000000090046001600160a01b031633146122e45760405162461bcd60e51b81526020600482018181528351602484015283519092839260449091019190850190808383600083156109a1578181015183820152602001610989565b50600380549115156101000261ff0019909216919091179055565b600354604080518082019091526019815260008051602061265983398151915260208201529064010000000090046001600160a01b031633146123835760405162461bcd60e51b81526020600482018181528351602484015283519092839260449091019190850190808383600083156109a1578181015183820152602001610989565b5060038054911515620100000262ff000019909216919091179055565b600082820183811015610d73576040805162461bcd60e51b815260206004820152601b60248201527f536166654d6174683a206164646974696f6e206f766572666c6f770000000000604482015290519081900360640190fd5b600082612409575060006116f4565b8282028284828161241657fe5b0414610d735760405162461bcd60e51b815260040180806020018281038252602181526020018061260b6021913960400191505060405180910390fd5b6000610d7383836040518060400160405280601a81526020017f536166654d6174683a206469766973696f6e206279207a65726f0000000000008152506124d7565b6000610d7383836040518060400160405280601e81526020017f536166654d6174683a207375627472616374696f6e206f766572666c6f77000081525061253c565b600081836125265760405162461bcd60e51b81526020600482018181528351602484015283519092839260449091019190850190808383600083156109a1578181015183820152602001610989565b50600083858161253257fe5b0495945050505050565b6000818484111561258e5760405162461bcd60e51b81526020600482018181528351602484015283519092839260449091019190850190808383600083156109a1578181015183820152602001610989565b50505090039056fe5661756c745072696365466565643a20696e76616c6964205f707269636553616d706c6553706163655661756c745072696365466565643a20636f756c64206e6f742066657463682070726963655661756c747072696365666565643a20696e76616c6964205f61646a7573746d656e74427073536166654d6174683a206d756c7469706c69636174696f6e206f766572666c6f775661756c745072696365466565643a2061646a7573746d656e74206672657175656e63792065786365656465645661756c745072696365466565643a20666f7262696464656e00000000000000436861696e6c696e6b20666565647320617265206e6f74206265696e6720757064617465645661756c745072696365466565643a20696e76616c6964205f7370726561644261736973506f696e74735661756c745072696365466565643a20696e76616c69642070726963652066656564a26469706673582212204731910159a5e84a533f58c149cfa9adb119a71afc036cd574fddd9d464df4ee64736f6c634300060c0033",
  "devdoc": {
    "kind": "dev",
    "methods": {},
    "version": 1
  },
  "userdoc": {
    "kind": "user",
    "methods": {},
    "version": 1
  },
  "storageLayout": {
    "storage": [
      {
        "astId": 12634,
        "contract": "contracts/core/VaultPriceFeed.sol:VaultPriceFeed",
        "label": "spreadThresholdBasisPoints",
        "offset": 0,
        "slot": "0",
        "type": "t_uint256"
      },
      {
        "astId": 12637,
        "contract": "contracts/core/VaultPriceFeed.sol:VaultPriceFeed",
        "label": "priceSampleSpace",
        "offset": 0,
        "slot": "1",
        "type": "t_uint256"
      },
      {
        "astId": 12640,
        "contract": "contracts/core/VaultPriceFeed.sol:VaultPriceFeed",
        "label": "maxStrictPriceDeviation",
        "offset": 0,
        "slot": "2",
        "type": "t_uint256"
      },
      {
        "astId": 12643,
        "contract": "contracts/core/VaultPriceFeed.sol:VaultPriceFeed",
        "label": "isAmmEnabled",
        "offset": 0,
        "slot": "3",
        "type": "t_bool"
      },
      {
        "astId": 12646,
        "contract": "contracts/core/VaultPriceFeed.sol:VaultPriceFeed",
        "label": "isSecondaryPriceEnabled",
        "offset": 1,
        "slot": "3",
        "type": "t_bool"
      },
      {
        "astId": 12649,
        "contract": "contracts/core/VaultPriceFeed.sol:VaultPriceFeed",
        "label": "useV2Pricing",
        "offset": 2,
        "slot": "3",
        "type": "t_bool"
      },
      {
        "astId": 12652,
        "contract": "contracts/core/VaultPriceFeed.sol:VaultPriceFeed",
        "label": "favorPrimaryPrice",
        "offset": 3,
        "slot": "3",
        "type": "t_bool"
      },
      {
        "astId": 12654,
        "contract": "contracts/core/VaultPriceFeed.sol:VaultPriceFeed",
        "label": "gov",
        "offset": 4,
        "slot": "3",
        "type": "t_address"
      },
      {
        "astId": 12656,
        "contract": "contracts/core/VaultPriceFeed.sol:VaultPriceFeed",
        "label": "chainlinkFlags",
        "offset": 0,
        "slot": "4",
        "type": "t_address"
      },
      {
        "astId": 12658,
        "contract": "contracts/core/VaultPriceFeed.sol:VaultPriceFeed",
        "label": "secondaryPriceFeed",
        "offset": 0,
        "slot": "5",
        "type": "t_address"
      },
      {
        "astId": 12660,
        "contract": "contracts/core/VaultPriceFeed.sol:VaultPriceFeed",
        "label": "btc",
        "offset": 0,
        "slot": "6",
        "type": "t_address"
      },
      {
        "astId": 12662,
        "contract": "contracts/core/VaultPriceFeed.sol:VaultPriceFeed",
        "label": "eth",
        "offset": 0,
        "slot": "7",
        "type": "t_address"
      },
      {
        "astId": 12664,
        "contract": "contracts/core/VaultPriceFeed.sol:VaultPriceFeed",
        "label": "bnb",
        "offset": 0,
        "slot": "8",
        "type": "t_address"
      },
      {
        "astId": 12666,
        "contract": "contracts/core/VaultPriceFeed.sol:VaultPriceFeed",
        "label": "bnbBusd",
        "offset": 0,
        "slot": "9",
        "type": "t_address"
      },
      {
        "astId": 12668,
        "contract": "contracts/core/VaultPriceFeed.sol:VaultPriceFeed",
        "label": "ethBnb",
        "offset": 0,
        "slot": "10",
        "type": "t_address"
      },
      {
        "astId": 12670,
        "contract": "contracts/core/VaultPriceFeed.sol:VaultPriceFeed",
        "label": "btcBnb",
        "offset": 0,
        "slot": "11",
        "type": "t_address"
      },
      {
        "astId": 12674,
        "contract": "contracts/core/VaultPriceFeed.sol:VaultPriceFeed",
        "label": "priceFeeds",
        "offset": 0,
        "slot": "12",
        "type": "t_mapping(t_address,t_address)"
      },
      {
        "astId": 12678,
        "contract": "contracts/core/VaultPriceFeed.sol:VaultPriceFeed",
        "label": "priceDecimals",
        "offset": 0,
        "slot": "13",
        "type": "t_mapping(t_address,t_uint256)"
      },
      {
        "astId": 12682,
        "contract": "contracts/core/VaultPriceFeed.sol:VaultPriceFeed",
        "label": "spreadBasisPoints",
        "offset": 0,
        "slot": "14",
        "type": "t_mapping(t_address,t_uint256)"
      },
      {
        "astId": 12686,
        "contract": "contracts/core/VaultPriceFeed.sol:VaultPriceFeed",
        "label": "strictStableTokens",
        "offset": 0,
        "slot": "15",
        "type": "t_mapping(t_address,t_bool)"
      },
      {
        "astId": 12691,
        "contract": "contracts/core/VaultPriceFeed.sol:VaultPriceFeed",
        "label": "adjustmentBasisPoints",
        "offset": 0,
        "slot": "16",
        "type": "t_mapping(t_address,t_uint256)"
      },
      {
        "astId": 12696,
        "contract": "contracts/core/VaultPriceFeed.sol:VaultPriceFeed",
        "label": "isAdjustmentAdditive",
        "offset": 0,
        "slot": "17",
        "type": "t_mapping(t_address,t_bool)"
      },
      {
        "astId": 12700,
        "contract": "contracts/core/VaultPriceFeed.sol:VaultPriceFeed",
        "label": "lastAdjustmentTimings",
        "offset": 0,
        "slot": "18",
        "type": "t_mapping(t_address,t_uint256)"
      }
    ],
    "types": {
      "t_address": {
        "encoding": "inplace",
        "label": "address",
        "numberOfBytes": "20"
      },
      "t_bool": {
        "encoding": "inplace",
        "label": "bool",
        "numberOfBytes": "1"
      },
      "t_mapping(t_address,t_address)": {
        "encoding": "mapping",
        "key": "t_address",
        "label": "mapping(address => address)",
        "numberOfBytes": "32",
        "value": "t_address"
      },
      "t_mapping(t_address,t_bool)": {
        "encoding": "mapping",
        "key": "t_address",
        "label": "mapping(address => bool)",
        "numberOfBytes": "32",
        "value": "t_bool"
      },
      "t_mapping(t_address,t_uint256)": {
        "encoding": "mapping",
        "key": "t_address",
        "label": "mapping(address => uint256)",
        "numberOfBytes": "32",
        "value": "t_uint256"
      },
      "t_uint256": {
        "encoding": "inplace",
        "label": "uint256",
        "numberOfBytes": "32"
      }
    }
  }
}