{
  "address": "0xdB6C38B998f2f8cF3f69806C48D0608Aa8980693",
  "abi": [
    {
      "inputs": [
        {
          "internalType": "address",
          "name": "_vault",
          "type": "address"
        },
        {
          "internalType": "address",
          "name": "_positionManager",
          "type": "address"
        },
        {
          "internalType": "address",
          "name": "_weth",
          "type": "address"
        },
        {
          "internalType": "uint256",
          "name": "_usdmAmount",
          "type": "uint256"
        },
        {
          "internalType": "address[]",
          "name": "_tokens",
          "type": "address[]"
        }
      ],
      "name": "getVaultTokenInfoV3",
      "outputs": [
        {
          "internalType": "uint256[]",
          "name": "",
          "type": "uint256[]"
        }
      ],
      "stateMutability": "view",
      "type": "function"
    },
    {
      "inputs": [
        {
          "internalType": "address",
          "name": "_vault",
          "type": "address"
        },
        {
          "internalType": "address",
          "name": "_positionManager",
          "type": "address"
        },
        {
          "internalType": "address",
          "name": "_weth",
          "type": "address"
        },
        {
          "internalType": "uint256",
          "name": "_usdmAmount",
          "type": "uint256"
        },
        {
          "internalType": "address[]",
          "name": "_tokens",
          "type": "address[]"
        }
      ],
      "name": "getVaultTokenInfoV4",
      "outputs": [
        {
          "internalType": "uint256[]",
          "name": "",
          "type": "uint256[]"
        }
      ],
      "stateMutability": "view",
      "type": "function"
    }
  ],
  "transactionHash": "0x09599d7b9e8e2221d8e05570dfc3b99d2e14d574c9f60b58557c8b25bc71247c",
  "args": [],
  "numDeployments": 1,
  "solcInputHash": "59bf562207d3b98a68d8cbf2ed09b4a8",
  "bytecode": "0x608060405234801561001057600080fd5b506115c6806100206000396000f3fe608060405234801561001057600080fd5b50600436106100365760003560e01c8063d3f3265c1461003b578063f75e810114610156575b600080fd5b610106600480360360a081101561005157600080fd5b6001600160a01b03823581169260208101358216926040820135909216916060820135919081019060a08101608082013564010000000081111561009457600080fd5b8201836020820111156100a657600080fd5b803590602001918460208302840111640100000000831117156100c857600080fd5b919080806020026020016040519081016040528093929190818152602001838360200280828437600092019190915250929550610221945050505050565b60408051602080825283518183015283519192839290830191858101910280838360005b8381101561014257818101518382015260200161012a565b505050509050019250505060405180910390f35b610106600480360360a081101561016c57600080fd5b6001600160a01b03823581169260208101358216926040820135909216916060820135919081019060a0810160808201356401000000008111156101af57600080fd5b8201836020820111156101c157600080fd5b803590602001918460208302840111640100000000831117156101e357600080fd5b919080806020026020016040519081016040528093929190818152602001838360200280828437600092019190915250929550610c2c945050505050565b60606000600f905060008790506000816001600160a01b031663741bef1a6040518163ffffffff1660e01b815260040160206040518083038186803b15801561026957600080fd5b505afa15801561027d573d6000803e3d6000fd5b505050506040513d602081101561029357600080fd5b505185519091508890606090850267ffffffffffffffff811180156102b757600080fd5b506040519080825280602002602001820160405280156102e1578160200160208202803683370190505b50905060005b8751811015610c1d5760008882815181106102fe57fe5b6020026020010151905060006001600160a01b0316816001600160a01b031614156103265750895b856001600160a01b03166352f55eed826040518263ffffffff1660e01b815260040180826001600160a01b0316815260200191505060206040518083038186803b15801561037357600080fd5b505afa158015610387573d6000803e3d6000fd5b505050506040513d602081101561039d57600080fd5b505183518490848a029081106103af57fe5b602002602001018181525050856001600160a01b031663c3c7b9e9826040518263ffffffff1660e01b815260040180826001600160a01b0316815260200191505060206040518083038186803b15801561040857600080fd5b505afa15801561041c573d6000803e3d6000fd5b505050506040513d602081101561043257600080fd5b5051835184906001858b020190811061044757fe5b602002602001018181525050856001600160a01b03166383867b2d826040518263ffffffff1660e01b815260040180826001600160a01b0316815260200191505060206040518083038186803b1580156104a057600080fd5b505afa1580156104b4573d6000803e3d6000fd5b505050506040513d60208110156104ca57600080fd5b5051835184906002858b02019081106104df57fe5b602002602001018181525050856001600160a01b0316632c668ec1828c6040518363ffffffff1660e01b815260040180836001600160a01b031681526020018281526020019250505060206040518083038186803b15801561054057600080fd5b505afa158015610554573d6000803e3d6000fd5b505050506040513d602081101561056a57600080fd5b5051835184906003858b020190811061057f57fe5b602002602001018181525050856001600160a01b031663ab2f3ad4826040518263ffffffff1660e01b815260040180826001600160a01b0316815260200191505060206040518083038186803b1580156105d857600080fd5b505afa1580156105ec573d6000803e3d6000fd5b505050506040513d602081101561060257600080fd5b5051835184906004858b020190811061061757fe5b602002602001018181525050856001600160a01b0316634a993ee9826040518263ffffffff1660e01b815260040180826001600160a01b0316815260200191505060206040518083038186803b15801561067057600080fd5b505afa158015610684573d6000803e3d6000fd5b505050506040513d602081101561069a57600080fd5b5051835184906005858b02019081106106af57fe5b602002602001018181525050856001600160a01b0316639acc6b33826040518263ffffffff1660e01b815260040180826001600160a01b0316815260200191505060206040518083038186803b15801561070857600080fd5b505afa15801561071c573d6000803e3d6000fd5b505050506040513d602081101561073257600080fd5b5051835184906006858b020190811061074757fe5b602002602001018181525050856001600160a01b0316638a78daa8826040518263ffffffff1660e01b815260040180826001600160a01b0316815260200191505060206040518083038186803b1580156107a057600080fd5b505afa1580156107b4573d6000803e3d6000fd5b505050506040513d60208110156107ca57600080fd5b5051835184906007858b02019081106107df57fe5b602002602001018181525050836001600160a01b0316639698d25a826040518263ffffffff1660e01b815260040180826001600160a01b0316815260200191505060206040518083038186803b15801561083857600080fd5b505afa15801561084c573d6000803e3d6000fd5b505050506040513d602081101561086257600080fd5b5051835184906008858b020190811061087757fe5b602002602001018181525050836001600160a01b0316631045c74e826040518263ffffffff1660e01b815260040180826001600160a01b0316815260200191505060206040518083038186803b1580156108d057600080fd5b505afa1580156108e4573d6000803e3d6000fd5b505050506040513d60208110156108fa57600080fd5b5051835184906009858b020190811061090f57fe5b602002602001018181525050856001600160a01b03166381a612d6826040518263ffffffff1660e01b815260040180826001600160a01b0316815260200191505060206040518083038186803b15801561096857600080fd5b505afa15801561097c573d6000803e3d6000fd5b505050506040513d602081101561099257600080fd5b505183518490600a858b02019081106109a757fe5b602002602001018181525050856001600160a01b031663e124e6d2826040518263ffffffff1660e01b815260040180826001600160a01b0316815260200191505060206040518083038186803b158015610a0057600080fd5b505afa158015610a14573d6000803e3d6000fd5b505050506040513d6020811015610a2a57600080fd5b505183518490600b858b0201908110610a3f57fe5b602002602001018181525050856001600160a01b031663f07456ce826040518263ffffffff1660e01b815260040180826001600160a01b0316815260200191505060206040518083038186803b158015610a9857600080fd5b505afa158015610aac573d6000803e3d6000fd5b505050506040513d6020811015610ac257600080fd5b505183518490600c858b0201908110610ad757fe5b602090810291909101810191909152604080516356c8c2c160e01b81526001600160a01b038481166004830152600060248301529151918816926356c8c2c192604480840193829003018186803b158015610b3157600080fd5b505afa158015610b45573d6000803e3d6000fd5b505050506040513d6020811015610b5b57600080fd5b505183518490600d858b0201908110610b7057fe5b602090810291909101810191909152604080516356c8c2c160e01b81526001600160a01b038481166004830152600160248301529151918816926356c8c2c192604480840193829003018186803b158015610bca57600080fd5b505afa158015610bde573d6000803e3d6000fd5b505050506040513d6020811015610bf457600080fd5b505183518490600e858b0201908110610c0957fe5b6020908102919091010152506001016102e7565b509a9950505050505050505050565b60606000600e905060008790506000816001600160a01b031663741bef1a6040518163ffffffff1660e01b815260040160206040518083038186803b158015610c7457600080fd5b505afa158015610c88573d6000803e3d6000fd5b505050506040513d6020811015610c9e57600080fd5b505185519091508890606090850267ffffffffffffffff81118015610cc257600080fd5b50604051908082528060200260200182016040528015610cec578160200160208202803683370190505b50905060005b8751811015610c1d576000888281518110610d0957fe5b6020026020010151905060006001600160a01b0316816001600160a01b03161415610d315750895b856001600160a01b03166352f55eed826040518263ffffffff1660e01b815260040180826001600160a01b0316815260200191505060206040518083038186803b158015610d7e57600080fd5b505afa158015610d92573d6000803e3d6000fd5b505050506040513d6020811015610da857600080fd5b505183518490848a02908110610dba57fe5b602002602001018181525050856001600160a01b031663c3c7b9e9826040518263ffffffff1660e01b815260040180826001600160a01b0316815260200191505060206040518083038186803b158015610e1357600080fd5b505afa158015610e27573d6000803e3d6000fd5b505050506040513d6020811015610e3d57600080fd5b5051835184906001858b0201908110610e5257fe5b602002602001018181525050856001600160a01b03166383867b2d826040518263ffffffff1660e01b815260040180826001600160a01b0316815260200191505060206040518083038186803b158015610eab57600080fd5b505afa158015610ebf573d6000803e3d6000fd5b505050506040513d6020811015610ed557600080fd5b5051835184906002858b0201908110610eea57fe5b602002602001018181525050856001600160a01b0316632c668ec1828c6040518363ffffffff1660e01b815260040180836001600160a01b031681526020018281526020019250505060206040518083038186803b158015610f4b57600080fd5b505afa158015610f5f573d6000803e3d6000fd5b505050506040513d6020811015610f7557600080fd5b5051835184906003858b0201908110610f8a57fe5b602002602001018181525050856001600160a01b031663ab2f3ad4826040518263ffffffff1660e01b815260040180826001600160a01b0316815260200191505060206040518083038186803b158015610fe357600080fd5b505afa158015610ff7573d6000803e3d6000fd5b505050506040513d602081101561100d57600080fd5b5051835184906004858b020190811061102257fe5b602002602001018181525050856001600160a01b0316634a993ee9826040518263ffffffff1660e01b815260040180826001600160a01b0316815260200191505060206040518083038186803b15801561107b57600080fd5b505afa15801561108f573d6000803e3d6000fd5b505050506040513d60208110156110a557600080fd5b5051835184906005858b02019081106110ba57fe5b602002602001018181525050856001600160a01b0316639acc6b33826040518263ffffffff1660e01b815260040180826001600160a01b0316815260200191505060206040518083038186803b15801561111357600080fd5b505afa158015611127573d6000803e3d6000fd5b505050506040513d602081101561113d57600080fd5b5051835184906006858b020190811061115257fe5b602002602001018181525050856001600160a01b0316638a78daa8826040518263ffffffff1660e01b815260040180826001600160a01b0316815260200191505060206040518083038186803b1580156111ab57600080fd5b505afa1580156111bf573d6000803e3d6000fd5b505050506040513d60208110156111d557600080fd5b5051835184906007858b02019081106111ea57fe5b602002602001018181525050836001600160a01b0316639698d25a826040518263ffffffff1660e01b815260040180826001600160a01b0316815260200191505060206040518083038186803b15801561124357600080fd5b505afa158015611257573d6000803e3d6000fd5b505050506040513d602081101561126d57600080fd5b5051835184906008858b020190811061128257fe5b602002602001018181525050856001600160a01b03166381a612d6826040518263ffffffff1660e01b815260040180826001600160a01b0316815260200191505060206040518083038186803b1580156112db57600080fd5b505afa1580156112ef573d6000803e3d6000fd5b505050506040513d602081101561130557600080fd5b5051835184906009858b020190811061131a57fe5b602002602001018181525050856001600160a01b031663e124e6d2826040518263ffffffff1660e01b815260040180826001600160a01b0316815260200191505060206040518083038186803b15801561137357600080fd5b505afa158015611387573d6000803e3d6000fd5b505050506040513d602081101561139d57600080fd5b505183518490600a858b02019081106113b257fe5b602002602001018181525050856001600160a01b031663f07456ce826040518263ffffffff1660e01b815260040180826001600160a01b0316815260200191505060206040518083038186803b15801561140b57600080fd5b505afa15801561141f573d6000803e3d6000fd5b505050506040513d602081101561143557600080fd5b505183518490600b858b020190811061144a57fe5b602090810291909101810191909152604080516356c8c2c160e01b81526001600160a01b038481166004830152600060248301529151918816926356c8c2c192604480840193829003018186803b1580156114a457600080fd5b505afa1580156114b8573d6000803e3d6000fd5b505050506040513d60208110156114ce57600080fd5b505183518490600c858b02019081106114e357fe5b602090810291909101810191909152604080516356c8c2c160e01b81526001600160a01b038481166004830152600160248301529151918816926356c8c2c192604480840193829003018186803b15801561153d57600080fd5b505afa158015611551573d6000803e3d6000fd5b505050506040513d602081101561156757600080fd5b505183518490600d858b020190811061157c57fe5b602090810291909101015250600101610cf256fea264697066735822122007ecd5b820833b476c376ed1e29ec62f3a28ebd21bccf5a40af162a254ed6b1464736f6c634300060c0033",
  "devdoc": {
    "kind": "dev",
    "methods": {},
    "version": 1
  },
  "userdoc": {
    "kind": "user",
    "methods": {},
    "version": 1
  },
  "storageLayout": {
    "storage": [],
    "types": null
  }
}