{
  "address": "0x3dE1a8aFeF5d4F4A14247f2E7344BD5dAefB6c6c",
  "abi": [
    {
      "inputs": [
        {
          "internalType": "contract IVault",
          "name": "_vault",
          "type": "address"
        }
      ],
      "stateMutability": "nonpayable",
      "type": "constructor"
    },
    {
      "inputs": [
        {
          "internalType": "address",
          "name": "_token",
          "type": "address"
        },
        {
          "internalType": "uint256",
          "name": "_usdmAmount",
          "type": "uint256"
        }
      ],
      "name": "getBuyUsdmFeeBasisPoints",
      "outputs": [
        {
          "internalType": "uint256",
          "name": "",
          "type": "uint256"
        }
      ],
      "stateMutability": "view",
      "type": "function"
    },
    {
      "inputs": [
        {
          "internalType": "address",
          "name": "_collateralToken",
          "type": "address"
        },
        {
          "internalType": "address",
          "name": "",
          "type": "address"
        },
        {
          "internalType": "bool",
          "name": "",
          "type": "bool"
        }
      ],
      "name": "getEntryFundingRate",
      "outputs": [
        {
          "internalType": "uint256",
          "name": "",
          "type": "uint256"
        }
      ],
      "stateMutability": "view",
      "type": "function"
    },
    {
      "inputs": [
        {
          "internalType": "address",
          "name": "_token",
          "type": "address"
        },
        {
          "internalType": "uint256",
          "name": "_usdmDelta",
          "type": "uint256"
        },
        {
          "internalType": "uint256",
          "name": "_feeBasisPoints",
          "type": "uint256"
        },
        {
          "internalType": "uint256",
          "name": "_taxBasisPoints",
          "type": "uint256"
        },
        {
          "internalType": "bool",
          "name": "_increment",
          "type": "bool"
        }
      ],
      "name": "getFeeBasisPoints",
      "outputs": [
        {
          "internalType": "uint256",
          "name": "",
          "type": "uint256"
        }
      ],
      "stateMutability": "view",
      "type": "function"
    },
    {
      "inputs": [
        {
          "internalType": "address",
          "name": "",
          "type": "address"
        },
        {
          "internalType": "address",
          "name": "_collateralToken",
          "type": "address"
        },
        {
          "internalType": "address",
          "name": "",
          "type": "address"
        },
        {
          "internalType": "bool",
          "name": "",
          "type": "bool"
        },
        {
          "internalType": "uint256",
          "name": "_size",
          "type": "uint256"
        },
        {
          "internalType": "uint256",
          "name": "_entryFundingRate",
          "type": "uint256"
        }
      ],
      "name": "getFundingFee",
      "outputs": [
        {
          "internalType": "uint256",
          "name": "",
          "type": "uint256"
        }
      ],
      "stateMutability": "view",
      "type": "function"
    },
    {
      "inputs": [
        {
          "internalType": "address",
          "name": "",
          "type": "address"
        },
        {
          "internalType": "address",
          "name": "",
          "type": "address"
        },
        {
          "internalType": "address",
          "name": "",
          "type": "address"
        },
        {
          "internalType": "bool",
          "name": "",
          "type": "bool"
        },
        {
          "internalType": "uint256",
          "name": "_sizeDelta",
          "type": "uint256"
        }
      ],
      "name": "getPositionFee",
      "outputs": [
        {
          "internalType": "uint256",
          "name": "",
          "type": "uint256"
        }
      ],
      "stateMutability": "view",
      "type": "function"
    },
    {
      "inputs": [
        {
          "internalType": "address",
          "name": "_token",
          "type": "address"
        },
        {
          "internalType": "uint256",
          "name": "_usdmAmount",
          "type": "uint256"
        }
      ],
      "name": "getSellUsdmFeeBasisPoints",
      "outputs": [
        {
          "internalType": "uint256",
          "name": "",
          "type": "uint256"
        }
      ],
      "stateMutability": "view",
      "type": "function"
    },
    {
      "inputs": [
        {
          "internalType": "address",
          "name": "_tokenIn",
          "type": "address"
        },
        {
          "internalType": "address",
          "name": "_tokenOut",
          "type": "address"
        },
        {
          "internalType": "uint256",
          "name": "_usdmAmount",
          "type": "uint256"
        }
      ],
      "name": "getSwapFeeBasisPoints",
      "outputs": [
        {
          "internalType": "uint256",
          "name": "",
          "type": "uint256"
        }
      ],
      "stateMutability": "view",
      "type": "function"
    },
    {
      "inputs": [],
      "name": "gov",
      "outputs": [
        {
          "internalType": "address",
          "name": "",
          "type": "address"
        }
      ],
      "stateMutability": "view",
      "type": "function"
    },
    {
      "inputs": [
        {
          "internalType": "address",
          "name": "_gov",
          "type": "address"
        }
      ],
      "name": "setGov",
      "outputs": [],
      "stateMutability": "nonpayable",
      "type": "function"
    },
    {
      "inputs": [
        {
          "internalType": "address",
          "name": "",
          "type": "address"
        },
        {
          "internalType": "address",
          "name": "",
          "type": "address"
        }
      ],
      "name": "updateCumulativeFundingRate",
      "outputs": [
        {
          "internalType": "bool",
          "name": "",
          "type": "bool"
        }
      ],
      "stateMutability": "nonpayable",
      "type": "function"
    },
    {
      "inputs": [
        {
          "internalType": "address",
          "name": "",
          "type": "address"
        },
        {
          "internalType": "address",
          "name": "",
          "type": "address"
        },
        {
          "internalType": "address",
          "name": "",
          "type": "address"
        },
        {
          "internalType": "uint256",
          "name": "",
          "type": "uint256"
        },
        {
          "internalType": "uint256",
          "name": "",
          "type": "uint256"
        },
        {
          "internalType": "bool",
          "name": "",
          "type": "bool"
        },
        {
          "internalType": "address",
          "name": "",
          "type": "address"
        }
      ],
      "name": "validateDecreasePosition",
      "outputs": [],
      "stateMutability": "view",
      "type": "function"
    },
    {
      "inputs": [
        {
          "internalType": "address",
          "name": "",
          "type": "address"
        },
        {
          "internalType": "address",
          "name": "",
          "type": "address"
        },
        {
          "internalType": "address",
          "name": "",
          "type": "address"
        },
        {
          "internalType": "uint256",
          "name": "",
          "type": "uint256"
        },
        {
          "internalType": "bool",
          "name": "",
          "type": "bool"
        }
      ],
      "name": "validateIncreasePosition",
      "outputs": [],
      "stateMutability": "view",
      "type": "function"
    },
    {
      "inputs": [
        {
          "internalType": "address",
          "name": "_account",
          "type": "address"
        },
        {
          "internalType": "address",
          "name": "_collateralToken",
          "type": "address"
        },
        {
          "internalType": "address",
          "name": "_indexToken",
          "type": "address"
        },
        {
          "internalType": "bool",
          "name": "_isLong",
          "type": "bool"
        },
        {
          "internalType": "bool",
          "name": "_raise",
          "type": "bool"
        }
      ],
      "name": "validateLiquidation",
      "outputs": [
        {
          "internalType": "uint256",
          "name": "",
          "type": "uint256"
        },
        {
          "internalType": "uint256",
          "name": "",
          "type": "uint256"
        }
      ],
      "stateMutability": "view",
      "type": "function"
    },
    {
      "inputs": [],
      "name": "vault",
      "outputs": [
        {
          "internalType": "contract IVault",
          "name": "",
          "type": "address"
        }
      ],
      "stateMutability": "view",
      "type": "function"
    }
  ],
  "transactionHash": "0xe2a7408dff897c03425361b7f44204b2a39bee4cdfa90e2203b3ea17f040a548",
  "args": [
    "0xc54aa813eF930Aa3F3fc4C646e134a53D2d08277"
  ],
  "numDeployments": 1,
  "solcInputHash": "59bf562207d3b98a68d8cbf2ed09b4a8",
  "bytecode": "0x608060405234801561001057600080fd5b506040516118183803806118188339818101604052602081101561003357600080fd5b5051600080546001600160a01b03199081163317909155600180546001600160a01b03909316929091169190911790556117a6806100726000396000f3fe608060405234801561001057600080fd5b50600436106100ea5760003560e01c8063cfad57a21161008c578063da76524c11610066578063da76524c1461034a578063fbfa77cf14610394578063fbfded6d1461039c578063fdaf6ac3146103de576100ea565b8063cfad57a21461028f578063d54d5a9f146102b5578063da13381614610314576100ea565b806381d11a23116100c857806381d11a231461017d5780639d5c28fa146101d3578063b1cc53ab14610217578063c7e074c31461024f576100ea565b806312d43a51146100ef5780634355218c1461011357806378f15db814610151575b600080fd5b6100f7610422565b604080516001600160a01b039092168252519081900360200190f35b61013f6004803603604081101561012957600080fd5b506001600160a01b038135169060200135610431565b60408051918252519081900360200190f35b61013f6004803603604081101561016757600080fd5b506001600160a01b038135169060200135610533565b6101d1600480360360e081101561019357600080fd5b506001600160a01b0381358116916020810135821691604082013581169160608101359160808201359160a081013515159160c0909101351661062c565b005b6101d1600480360360a08110156101e957600080fd5b506001600160a01b038135811691602081013582169160408201351690606081013590608001351515610635565b61013f6004803603606081101561022d57600080fd5b506001600160a01b03813581169160208101359091169060400135151561063c565b61013f600480360360a081101561026557600080fd5b506001600160a01b03813516906020810135906040810135906060810135906080013515156106c1565b6101d1600480360360208110156102a557600080fd5b50356001600160a01b03166109a0565b6102fb600480360360a08110156102cb57600080fd5b506001600160a01b0381358116916020810135821691604082013516906060810135151590608001351515610a39565b6040805192835260208301919091528051918290030190f35b61013f6004803603606081101561032a57600080fd5b506001600160a01b03813581169160208101359091169060400135610f08565b61013f600480360360c081101561036057600080fd5b506001600160a01b038135811691602081013582169160408201351690606081013515159060808101359060a0013561124c565b6100f7611312565b6103ca600480360360408110156103b257600080fd5b506001600160a01b0381358116916020013516611321565b604080519115158252519081900360200190f35b61013f600480360360a08110156103f457600080fd5b506001600160a01b038135811691602081013582169160408201351690606081013515159060800135611329565b6000546001600160a01b031681565b600061052a8383600160009054906101000a90046001600160a01b03166001600160a01b0316634d47b3046040518163ffffffff1660e01b815260040160206040518083038186803b15801561048657600080fd5b505afa15801561049a573d6000803e3d6000fd5b505050506040513d60208110156104b057600080fd5b505160015460408051637a210a2b60e01b815290516001600160a01b0390921691637a210a2b91600480820192602092909190829003018186803b1580156104f757600080fd5b505afa15801561050b573d6000803e3d6000fd5b505050506040513d602081101561052157600080fd5b505160006106c1565b90505b92915050565b600061052a8383600160009054906101000a90046001600160a01b03166001600160a01b0316634d47b3046040518163ffffffff1660e01b815260040160206040518083038186803b15801561058857600080fd5b505afa15801561059c573d6000803e3d6000fd5b505050506040513d60208110156105b257600080fd5b505160015460408051637a210a2b60e01b815290516001600160a01b0390921691637a210a2b91600480820192602092909190829003018186803b1580156105f957600080fd5b505afa15801561060d573d6000803e3d6000fd5b505050506040513d602081101561062357600080fd5b505160016106c1565b50505050505050565b5050505050565b6001546040805163c65bc7b160e01b81526001600160a01b0386811660048301529151600093929092169163c65bc7b191602480820192602092909190829003018186803b15801561068d57600080fd5b505afa1580156106a1573d6000803e3d6000fd5b505050506040513d60208110156106b757600080fd5b5051949350505050565b600154604080517f9f392eb300000000000000000000000000000000000000000000000000000000815290516000926001600160a01b031691639f392eb3916004808301926020929190829003018186803b15801561071f57600080fd5b505afa158015610733573d6000803e3d6000fd5b505050506040513d602081101561074957600080fd5b5051610756575082610997565b600154604080517f83867b2d0000000000000000000000000000000000000000000000000000000081526001600160a01b038981166004830152915160009392909216916383867b2d91602480820192602092909190829003018186803b1580156107c057600080fd5b505afa1580156107d4573d6000803e3d6000fd5b505050506040513d60208110156107ea57600080fd5b5051905060006107fa82886113e7565b90508361081d57818711610817576108128288611441565b61081a565b60005b90505b600154604080517f37af6e7e0000000000000000000000000000000000000000000000000000000081526001600160a01b038b81166004830152915160009392909216916337af6e7e91602480820192602092909190829003018186803b15801561088757600080fd5b505afa15801561089b573d6000803e3d6000fd5b505050506040513d60208110156108b157600080fd5b50519050806108c557869350505050610997565b60008184116108dd576108d88285611441565b6108e7565b6108e78483611441565b90506000828411610901576108fc8385611441565b61090b565b61090b8484611441565b90508181101561095357600061092b846109258b86611483565b906114dc565b90508981116109435761093e8a82611441565b610946565b60005b9650505050505050610997565b6000610964600261092585856113e7565b9050838111156109715750825b6000610981856109258c85611483565b905061098d8b826113e7565b9750505050505050505b95945050505050565b6000546001600160a01b031633146109ff576040805162461bcd60e51b815260206004820152601560248201527f476f7665726e61626c653a20666f7262696464656e0000000000000000000000604482015290519081900360640190fd5b600080547fffffffffffffffffffffffff0000000000000000000000000000000000000000166001600160a01b0392909216919091179055565b600080610a446116e9565b610a508888888861151e565b600154815160408084015160c085015182517f5c07eaab0000000000000000000000000000000000000000000000000000000081526001600160a01b038d81166004830152602482019590955260448101929092528a1515606483015260848201528151949550919092169260009283928592635c07eaab9260a480840193919291829003018186803b158015610ae657600080fd5b505afa158015610afa573d6000803e3d6000fd5b505050506040513d6040811015610b1057600080fd5b50805160209091015185516060870151929450909250600091610b3b918e918e918e918e919061124c565b9050610b58610b518d8d8d8d8a60000151611329565b82906113e7565b905082158015610b6b5750818560200151105b15610c40578715610c30576040518060400160405280601f81526020017f5661756c743a206c6f737365732065786365656420636f6c6c61746572616c0081525060405162461bcd60e51b81526004018080602001828103825283818151815260200191508051906020019080838360005b83811015610bf5578181015183820152602001610bdd565b50505050905090810190601f168015610c225780820380516001836020036101000a031916815260200191505b509250505060405180910390fd5b600196509450610efe9350505050565b602085015183610c5c576020860151610c599084611441565b90505b81811015610cf3578815610ce257604080518082018252601d81527f5661756c743a20666565732065786365656420636f6c6c61746572616c0000006020808301918252925162461bcd60e51b81526004810193845282516024820152825192939283926044909201919080838360008315610bf5578181015183820152602001610bdd565b600197509550610efe945050505050565b610d62856001600160a01b031663174d26946040518163ffffffff1660e01b815260040160206040518083038186803b158015610d2f57600080fd5b505afa158015610d43573d6000803e3d6000fd5b505050506040513d6020811015610d5957600080fd5b505183906113e7565b811015610de0578815610dcf576040518060600160405280602981526020016117276029913960405162461bcd60e51b8152602060048201818152835160248401528351909283926044909101919085019080838360008315610bf5578181015183820152602001610bdd565b50600196509450610efe9350505050565b8551610dee90612710611483565b610e5d866001600160a01b031663ae3302c26040518163ffffffff1660e01b815260040160206040518083038186803b158015610e2a57600080fd5b505afa158015610e3e573d6000803e3d6000fd5b505050506040513d6020811015610e5457600080fd5b50518390611483565b1015610ef2578815610ee157604080518082018252601b81527f5661756c743a206d61784c6576657261676520657863656564656400000000006020808301918252925162461bcd60e51b81526004810193845282516024820152825192939283926044909201919080838360008315610bf5578181015183820152602001610bdd565b50600296509450610efe9350505050565b50600096509450505050505b9550959350505050565b600154604080516342b60b0360e01b81526001600160a01b0386811660048301529151600093849316916342b60b03916024808301926020929190829003018186803b158015610f5757600080fd5b505afa158015610f6b573d6000803e3d6000fd5b505050506040513d6020811015610f8157600080fd5b505180156110045750600154604080516342b60b0360e01b81526001600160a01b038781166004830152915191909216916342b60b03916024808301926020929190829003018186803b158015610fd757600080fd5b505afa158015610feb573d6000803e3d6000fd5b505050506040513d602081101561100157600080fd5b50515b905060008161108c57600160009054906101000a90046001600160a01b03166001600160a01b031663a22f23926040518163ffffffff1660e01b815260040160206040518083038186803b15801561105b57600080fd5b505afa15801561106f573d6000803e3d6000fd5b505050506040513d602081101561108557600080fd5b5051611107565b600160009054906101000a90046001600160a01b03166001600160a01b031663df73a2676040518163ffffffff1660e01b815260040160206040518083038186803b1580156110da57600080fd5b505afa1580156110ee573d6000803e3d6000fd5b505050506040513d602081101561110457600080fd5b50515b905060008261118f57600160009054906101000a90046001600160a01b03166001600160a01b0316637a210a2b6040518163ffffffff1660e01b815260040160206040518083038186803b15801561115e57600080fd5b505afa158015611172573d6000803e3d6000fd5b505050506040513d602081101561118857600080fd5b505161120a565b600160009054906101000a90046001600160a01b03166001600160a01b03166310eb56c26040518163ffffffff1660e01b815260040160206040518083038186803b1580156111dd57600080fd5b505afa1580156111f1573d6000803e3d6000fd5b505050506040513d602081101561120757600080fd5b50515b9050600061121c8887858560016106c1565b9050600061122e8888868660006106c1565b905080821161123d578061123f565b815b9998505050505050505050565b60008261125b57506000611308565b6001546040805163c65bc7b160e01b81526001600160a01b03898116600483015291516000936112e293879391169163c65bc7b191602480820192602092909190829003018186803b1580156112b057600080fd5b505afa1580156112c4573d6000803e3d6000fd5b505050506040513d60208110156112da57600080fd5b505190611441565b9050806112f3576000915050611308565b611304620f42406109258684611483565b9150505b9695505050505050565b6001546001600160a01b031681565b600192915050565b60008161133857506000610997565b60006113d06127106109256113c9600160009054906101000a90046001600160a01b03166001600160a01b031663318bc6896040518163ffffffff1660e01b815260040160206040518083038186803b15801561139457600080fd5b505afa1580156113a8573d6000803e3d6000fd5b505050506040513d60208110156113be57600080fd5b505161271090611441565b8690611483565b90506113dc8382611441565b979650505050505050565b60008282018381101561052a576040805162461bcd60e51b815260206004820152601b60248201527f536166654d6174683a206164646974696f6e206f766572666c6f770000000000604482015290519081900360640190fd5b600061052a83836040518060400160405280601e81526020017f536166654d6174683a207375627472616374696f6e206f766572666c6f77000081525061162a565b6000826114925750600061052d565b8282028284828161149f57fe5b041461052a5760405162461bcd60e51b81526004018080602001828103825260218152602001806117506021913960400191505060405180910390fd5b600061052a83836040518060400160405280601a81526020017f536166654d6174683a206469766973696f6e206279207a65726f000000000000815250611684565b6115266116e9565b6001546001600160a01b031661153a6116e9565b6000806000806000866001600160a01b0316634a3f088d8d8d8d8d6040518563ffffffff1660e01b815260040180856001600160a01b03168152602001846001600160a01b03168152602001836001600160a01b0316815260200182151581526020019450505050506101006040518083038186803b1580156115bc57600080fd5b505afa1580156115d0573d6000803e3d6000fd5b505050506040513d6101008110156115e757600080fd5b50805160208083015160408085015160608087015160e090970151958d52938c01929092528a015288019190915260c087015250939a9950505050505050505050565b6000818484111561167c5760405162461bcd60e51b8152602060048201818152835160248401528351909283926044909101919085019080838360008315610bf5578181015183820152602001610bdd565b505050900390565b600081836116d35760405162461bcd60e51b8152602060048201818152835160248401528351909283926044909101919085019080838360008315610bf5578181015183820152602001610bdd565b5060008385816116df57fe5b0495945050505050565b6040518060e0016040528060008152602001600081526020016000815260200160008152602001600081526020016000815260200160008152509056fe5661756c743a206c69717569646174696f6e20666565732065786365656420636f6c6c61746572616c536166654d6174683a206d756c7469706c69636174696f6e206f766572666c6f77a26469706673582212205f356057bd6e48467e29fdb38d134a351d7169e5cb54a6cb4b483018cf9ac41464736f6c634300060c0033",
  "devdoc": {
    "kind": "dev",
    "methods": {},
    "version": 1
  },
  "userdoc": {
    "kind": "user",
    "methods": {},
    "version": 1
  },
  "storageLayout": {
    "storage": [
      {
        "astId": 3,
        "contract": "contracts/core/VaultUtils.sol:VaultUtils",
        "label": "gov",
        "offset": 0,
        "slot": "0",
        "type": "t_address"
      },
      {
        "astId": 12970,
        "contract": "contracts/core/VaultUtils.sol:VaultUtils",
        "label": "vault",
        "offset": 0,
        "slot": "1",
        "type": "t_contract(IVault)7173"
      }
    ],
    "types": {
      "t_address": {
        "encoding": "inplace",
        "label": "address",
        "numberOfBytes": "20"
      },
      "t_contract(IVault)7173": {
        "encoding": "inplace",
        "label": "contract IVault",
        "numberOfBytes": "20"
      }
    }
  }
}