{
  "address": "0x96ab91B6EaE66d5EC86849e602Ac7A883bd5d310",
  "abi": [
    {
      "inputs": [],
      "name": "gov",
      "outputs": [
        {
          "internalType": "address",
          "name": "",
          "type": "address"
        }
      ],
      "stateMutability": "view",
      "type": "function"
    },
    {
      "inputs": [
        {
          "internalType": "contract IVault",
          "name": "_vault",
          "type": "address"
        },
        {
          "internalType": "string[]",
          "name": "_errors",
          "type": "string[]"
        }
      ],
      "name": "setErrors",
      "outputs": [],
      "stateMutability": "nonpayable",
      "type": "function"
    },
    {
      "inputs": [
        {
          "internalType": "address",
          "name": "_gov",
          "type": "address"
        }
      ],
      "name": "setGov",
      "outputs": [],
      "stateMutability": "nonpayable",
      "type": "function"
    }
  ],
  "transactionHash": "0xd1dbee922757290bba7116c522ed2f350ad58c2d06d2391f9ff9416d32f86761",
  "args": [],
  "numDeployments": 1,
  "solcInputHash": "59bf562207d3b98a68d8cbf2ed09b4a8",
  "bytecode": "0x608060405234801561001057600080fd5b50600080546001600160a01b0319163317905561038d806100326000396000f3fe608060405234801561001057600080fd5b50600436106100415760003560e01c806312d43a51146100465780636216c01b14610064578063cfad57a214610079575b600080fd5b61004e61008c565b60405161005b9190610272565b60405180910390f35b6100776100723660046101f0565b61009b565b005b6100776100873660046101cd565b610169565b6000546001600160a01b031681565b6000546001600160a01b031633146100ce5760405162461bcd60e51b81526004016100c590610286565b60405180910390fd5b60005b8181101561016357836001600160a01b03166328e67be5828585858181106100f557fe5b905060200281019061010791906102f3565b6040518463ffffffff1660e01b8152600401610125939291906102bd565b600060405180830381600087803b15801561013f57600080fd5b505af1158015610153573d6000803e3d6000fd5b5050600190920191506100d19050565b50505050565b6000546001600160a01b031633146101935760405162461bcd60e51b81526004016100c590610286565b600080547fffffffffffffffffffffffff0000000000000000000000000000000000000000166001600160a01b0392909216919091179055565b6000602082840312156101de578081fd5b81356101e98161033f565b9392505050565b600080600060408486031215610204578182fd5b833561020f8161033f565b9250602084013567ffffffffffffffff8082111561022b578384fd5b818601915086601f83011261023e578384fd5b81358181111561024c578485fd5b876020808302850101111561025f578485fd5b6020830194508093505050509250925092565b6001600160a01b0391909116815260200190565b60208082526015908201527f476f7665726e61626c653a20666f7262696464656e0000000000000000000000604082015260600190565b60008482526040602083015282604083015282846060840137818301606090810191909152601f909201601f1916010192915050565b6000808335601e19843603018112610309578283fd5b83018035915067ffffffffffffffff821115610323578283fd5b60200191503681900382131561033857600080fd5b9250929050565b6001600160a01b038116811461035457600080fd5b5056fea26469706673582212209b03f000a282e6eeebf73111a710725caad53a6b0296c1fd24f73a1c84453f2c64736f6c634300060c0033",
  "devdoc": {
    "kind": "dev",
    "methods": {},
    "version": 1
  },
  "userdoc": {
    "kind": "user",
    "methods": {},
    "version": 1
  },
  "storageLayout": {
    "storage": [
      {
        "astId": 3,
        "contract": "contracts/core/VaultErrorController.sol:VaultErrorController",
        "label": "gov",
        "offset": 0,
        "slot": "0",
        "type": "t_address"
      }
    ],
    "types": {
      "t_address": {
        "encoding": "inplace",
        "label": "address",
        "numberOfBytes": "20"
      }
    }
  }
}