{
  "address": "0x6ae590a5710A9493DA8b13fFb624A597282d9B52",
  "abi": [
    {
      "inputs": [
        {
          "internalType": "string",
          "name": "_n",
          "type": "string"
        },
        {
          "internalType": "uint8",
          "name": "_dc",
          "type": "uint8"
        },
        {
          "internalType": "uint256",
          "name": "_faucetTotal",
          "type": "uint256"
        },
        {
          "internalType": "uint256",
          "name": "_faucetAmount",
          "type": "uint256"
        }
      ],
      "stateMutability": "nonpayable",
      "type": "constructor"
    },
    {
      "anonymous": false,
      "inputs": [
        {
          "indexed": true,
          "internalType": "address",
          "name": "owner",
          "type": "address"
        },
        {
          "indexed": true,
          "internalType": "address",
          "name": "spender",
          "type": "address"
        },
        {
          "indexed": false,
          "internalType": "uint256",
          "name": "value",
          "type": "uint256"
        }
      ],
      "name": "Approval",
      "type": "event"
    },
    {
      "anonymous": false,
      "inputs": [
        {
          "indexed": true,
          "internalType": "address",
          "name": "from",
          "type": "address"
        },
        {
          "indexed": true,
          "internalType": "address",
          "name": "to",
          "type": "address"
        },
        {
          "indexed": false,
          "internalType": "uint256",
          "name": "value",
          "type": "uint256"
        }
      ],
      "name": "Transfer",
      "type": "event"
    },
    {
      "inputs": [
        {
          "internalType": "address",
          "name": "owner",
          "type": "address"
        },
        {
          "internalType": "address",
          "name": "spender",
          "type": "address"
        }
      ],
      "name": "allowance",
      "outputs": [
        {
          "internalType": "uint256",
          "name": "",
          "type": "uint256"
        }
      ],
      "stateMutability": "view",
      "type": "function"
    },
    {
      "inputs": [
        {
          "internalType": "address",
          "name": "spender",
          "type": "address"
        },
        {
          "internalType": "uint256",
          "name": "amount",
          "type": "uint256"
        }
      ],
      "name": "approve",
      "outputs": [
        {
          "internalType": "bool",
          "name": "",
          "type": "bool"
        }
      ],
      "stateMutability": "nonpayable",
      "type": "function"
    },
    {
      "inputs": [
        {
          "internalType": "address",
          "name": "account",
          "type": "address"
        }
      ],
      "name": "balanceOf",
      "outputs": [
        {
          "internalType": "uint256",
          "name": "",
          "type": "uint256"
        }
      ],
      "stateMutability": "view",
      "type": "function"
    },
    {
      "inputs": [
        {
          "internalType": "address",
          "name": "account",
          "type": "address"
        },
        {
          "internalType": "uint256",
          "name": "amount",
          "type": "uint256"
        }
      ],
      "name": "burn",
      "outputs": [],
      "stateMutability": "nonpayable",
      "type": "function"
    },
    {
      "inputs": [],
      "name": "decimals",
      "outputs": [
        {
          "internalType": "uint8",
          "name": "",
          "type": "uint8"
        }
      ],
      "stateMutability": "view",
      "type": "function"
    },
    {
      "inputs": [
        {
          "internalType": "address",
          "name": "spender",
          "type": "address"
        },
        {
          "internalType": "uint256",
          "name": "subtractedValue",
          "type": "uint256"
        }
      ],
      "name": "decreaseAllowance",
      "outputs": [
        {
          "internalType": "bool",
          "name": "",
          "type": "bool"
        }
      ],
      "stateMutability": "nonpayable",
      "type": "function"
    },
    {
      "inputs": [],
      "name": "deposit",
      "outputs": [],
      "stateMutability": "payable",
      "type": "function"
    },
    {
      "inputs": [],
      "name": "faucet",
      "outputs": [],
      "stateMutability": "nonpayable",
      "type": "function"
    },
    {
      "inputs": [],
      "name": "faucetAmount",
      "outputs": [
        {
          "internalType": "uint256",
          "name": "",
          "type": "uint256"
        }
      ],
      "stateMutability": "view",
      "type": "function"
    },
    {
      "inputs": [],
      "name": "faucetEnabled",
      "outputs": [
        {
          "internalType": "bool",
          "name": "",
          "type": "bool"
        }
      ],
      "stateMutability": "view",
      "type": "function"
    },
    {
      "inputs": [],
      "name": "faucetTotal",
      "outputs": [
        {
          "internalType": "uint256",
          "name": "",
          "type": "uint256"
        }
      ],
      "stateMutability": "view",
      "type": "function"
    },
    {
      "inputs": [],
      "name": "giveawayTotal",
      "outputs": [
        {
          "internalType": "uint256",
          "name": "",
          "type": "uint256"
        }
      ],
      "stateMutability": "view",
      "type": "function"
    },
    {
      "inputs": [
        {
          "internalType": "address",
          "name": "spender",
          "type": "address"
        },
        {
          "internalType": "uint256",
          "name": "addedValue",
          "type": "uint256"
        }
      ],
      "name": "increaseAllowance",
      "outputs": [
        {
          "internalType": "bool",
          "name": "",
          "type": "bool"
        }
      ],
      "stateMutability": "nonpayable",
      "type": "function"
    },
    {
      "inputs": [],
      "name": "interval",
      "outputs": [
        {
          "internalType": "uint256",
          "name": "",
          "type": "uint256"
        }
      ],
      "stateMutability": "view",
      "type": "function"
    },
    {
      "inputs": [
        {
          "internalType": "address",
          "name": "account",
          "type": "address"
        },
        {
          "internalType": "uint256",
          "name": "amount",
          "type": "uint256"
        }
      ],
      "name": "mint",
      "outputs": [],
      "stateMutability": "nonpayable",
      "type": "function"
    },
    {
      "inputs": [],
      "name": "name",
      "outputs": [
        {
          "internalType": "string",
          "name": "",
          "type": "string"
        }
      ],
      "stateMutability": "view",
      "type": "function"
    },
    {
      "inputs": [],
      "name": "openMint",
      "outputs": [
        {
          "internalType": "bool",
          "name": "",
          "type": "bool"
        }
      ],
      "stateMutability": "view",
      "type": "function"
    },
    {
      "inputs": [
        {
          "internalType": "uint256",
          "name": "_faucetAmount",
          "type": "uint256"
        }
      ],
      "name": "setFaucetAmount",
      "outputs": [],
      "stateMutability": "nonpayable",
      "type": "function"
    },
    {
      "inputs": [
        {
          "internalType": "bool",
          "name": "_faucetEnabled",
          "type": "bool"
        }
      ],
      "name": "setFaucetEnabled",
      "outputs": [],
      "stateMutability": "nonpayable",
      "type": "function"
    },
    {
      "inputs": [
        {
          "internalType": "uint256",
          "name": "_faucetTotal",
          "type": "uint256"
        }
      ],
      "name": "setFaucetTotal",
      "outputs": [],
      "stateMutability": "nonpayable",
      "type": "function"
    },
    {
      "inputs": [
        {
          "internalType": "uint256",
          "name": "_inverval",
          "type": "uint256"
        }
      ],
      "name": "setInterval",
      "outputs": [],
      "stateMutability": "nonpayable",
      "type": "function"
    },
    {
      "inputs": [
        {
          "internalType": "bool",
          "name": "open",
          "type": "bool"
        }
      ],
      "name": "setOpenMint",
      "outputs": [],
      "stateMutability": "nonpayable",
      "type": "function"
    },
    {
      "inputs": [],
      "name": "symbol",
      "outputs": [
        {
          "internalType": "string",
          "name": "",
          "type": "string"
        }
      ],
      "stateMutability": "view",
      "type": "function"
    },
    {
      "inputs": [],
      "name": "totalSupply",
      "outputs": [
        {
          "internalType": "uint256",
          "name": "",
          "type": "uint256"
        }
      ],
      "stateMutability": "view",
      "type": "function"
    },
    {
      "inputs": [
        {
          "internalType": "address",
          "name": "recipient",
          "type": "address"
        },
        {
          "internalType": "uint256",
          "name": "amount",
          "type": "uint256"
        }
      ],
      "name": "transfer",
      "outputs": [
        {
          "internalType": "bool",
          "name": "",
          "type": "bool"
        }
      ],
      "stateMutability": "nonpayable",
      "type": "function"
    },
    {
      "inputs": [
        {
          "internalType": "address",
          "name": "sender",
          "type": "address"
        },
        {
          "internalType": "address",
          "name": "recipient",
          "type": "address"
        },
        {
          "internalType": "uint256",
          "name": "amount",
          "type": "uint256"
        }
      ],
      "name": "transferFrom",
      "outputs": [
        {
          "internalType": "bool",
          "name": "",
          "type": "bool"
        }
      ],
      "stateMutability": "nonpayable",
      "type": "function"
    },
    {
      "inputs": [
        {
          "internalType": "uint256",
          "name": "amount",
          "type": "uint256"
        }
      ],
      "name": "withdraw",
      "outputs": [],
      "stateMutability": "nonpayable",
      "type": "function"
    },
    {
      "inputs": [
        {
          "internalType": "address",
          "name": "token",
          "type": "address"
        },
        {
          "internalType": "address",
          "name": "account",
          "type": "address"
        },
        {
          "internalType": "uint256",
          "name": "amount",
          "type": "uint256"
        }
      ],
      "name": "withdrawToken",
      "outputs": [],
      "stateMutability": "nonpayable",
      "type": "function"
    }
  ],
  "transactionHash": "0x10e39d35d960dd488c841bcb496b0a354600b4030edbfa043ad0328d3453e8f3",
  "args": [
    "WBTC",
    8,
    "1000000000000",
    "100000000"
  ],
  "numDeployments": 1,
  "solcInputHash": "59bf562207d3b98a68d8cbf2ed09b4a8",
  "bytecode": "0x6080604052600a805461ff001960ff19909116600117166101001790553480156200002957600080fd5b50604051620017b5380380620017b5833981810160405260808110156200004f57600080fd5b81019080805160405193929190846401000000008211156200007057600080fd5b9083019060208201858111156200008657600080fd5b8251640100000000811182820188101715620000a157600080fd5b82525081516020918201929091019080838360005b83811015620000d0578181015183820152602001620000b6565b50505050905090810190601f168015620000fe5780820380516001836020036101000a031916815260200191505b5060409081526020828101519183015160609093015186519295509293506200012d9160039187019062000185565b5083516200014390600490602087019062000185565b50600580546201518060065560079390935560089190915560ff1990911660ff9290921691909117610100600160a81b03191661010033021790555062000221565b828054600181600116156101000203166002900490600052602060002090601f016020900481019282601f10620001c857805160ff1916838001178555620001f8565b82800160010185558215620001f8579182015b82811115620001f8578251825591602001919060010190620001db565b50620002069291506200020a565b5090565b5b808211156200020657600081556001016200020b565b61158480620002316000396000f3fe6080604052600436106101b75760003560e01c806381d2fd9c116100ec578063a457c2d71161008a578063d0e30db011610064578063d0e30db014610624578063dd62ed3e1461062c578063de5f72fd14610667578063e2af30f41461067c576101b7565b8063a457c2d71461059d578063a9059cbb146105d6578063bce6d6721461060f576101b7565b806395d89b41116100c657806395d89b41146105105780639c281430146105255780639dc29fac1461053a578063a01c2d7114610573576101b7565b806381d2fd9c146104a55780638f303e96146104cf578063947a36fb146104fb576101b7565b80632e1a7d4d1161015957806340c10f191161013357806340c10f191461040f5780634c303cb2146104485780635d1c3f041461045d57806370a0823114610472576101b7565b80632e1a7d4d14610381578063313ce567146103ab57806339509351146103d6576101b7565b806318160ddd1161019557806318160ddd146102d857806322a90082146102ff57806323b872dd14610329578063294e4c661461036c576101b7565b806301e33667146101bc57806306fdde0314610201578063095ea7b31461028b575b600080fd5b3480156101c857600080fd5b506101ff600480360360608110156101df57600080fd5b506001600160a01b038135811691602081013590911690604001356106a8565b005b34801561020d57600080fd5b50610216610730565b6040805160208082528351818301528351919283929083019185019080838360005b83811015610250578181015183820152602001610238565b50505050905090810190601f16801561027d5780820380516001836020036101000a031916815260200191505b509250505060405180910390f35b34801561029757600080fd5b506102c4600480360360408110156102ae57600080fd5b506001600160a01b0381351690602001356107c6565b604080519115158252519081900360200190f35b3480156102e457600080fd5b506102ed6107e3565b60408051918252519081900360200190f35b34801561030b57600080fd5b506101ff6004803603602081101561032257600080fd5b50356107e9565b34801561033557600080fd5b506102c46004803603606081101561034c57600080fd5b506001600160a01b0381358116916020810135909116906040013561085d565b34801561037857600080fd5b506102ed6108e4565b34801561038d57600080fd5b506101ff600480360360208110156103a457600080fd5b50356108ea565b3480156103b757600080fd5b506103c0610989565b6040805160ff9092168252519081900360200190f35b3480156103e257600080fd5b506102c4600480360360408110156103f957600080fd5b506001600160a01b038135169060200135610992565b34801561041b57600080fd5b506101ff6004803603604081101561043257600080fd5b506001600160a01b0381351690602001356109e0565b34801561045457600080fd5b506102ed610a68565b34801561046957600080fd5b506102c4610a6e565b34801561047e57600080fd5b506102ed6004803603602081101561049557600080fd5b50356001600160a01b0316610a77565b3480156104b157600080fd5b506101ff600480360360208110156104c857600080fd5b5035610a92565b3480156104db57600080fd5b506101ff600480360360208110156104f257600080fd5b50351515610b06565b34801561050757600080fd5b506102ed610b88565b34801561051c57600080fd5b50610216610b8e565b34801561053157600080fd5b506102ed610bef565b34801561054657600080fd5b506101ff6004803603604081101561055d57600080fd5b506001600160a01b038135169060200135610bf5565b34801561057f57600080fd5b506101ff6004803603602081101561059657600080fd5b5035610c6e565b3480156105a957600080fd5b506102c4600480360360408110156105c057600080fd5b506001600160a01b038135169060200135610c73565b3480156105e257600080fd5b506102c4600480360360408110156105f957600080fd5b506001600160a01b038135169060200135610cdb565b34801561061b57600080fd5b506102c4610cef565b6101ff610cfd565b34801561063857600080fd5b506102ed6004803603604081101561064f57600080fd5b506001600160a01b0381358116916020013516610d09565b34801561067357600080fd5b506101ff610d34565b34801561068857600080fd5b506101ff6004803603602081101561069f57600080fd5b50351515610e7a565b826001600160a01b031663a9059cbb83836040518363ffffffff1660e01b815260040180836001600160a01b0316815260200182815260200192505050602060405180830381600087803b1580156106ff57600080fd5b505af1158015610713573d6000803e3d6000fd5b505050506040513d602081101561072957600080fd5b5050505050565b60038054604080516020601f60026000196101006001881615020190951694909404938401819004810282018101909252828152606093909290918301828280156107bc5780601f10610791576101008083540402835291602001916107bc565b820191906000526020600020905b81548152906001019060200180831161079f57829003601f168201915b5050505050905090565b60006107da6107d3610e94565b8484610e98565b50600192915050565b60025490565b6107f1610e94565b60055461010090046001600160a01b03908116911614610858576040805162461bcd60e51b815260206004820152601760248201527f43616c6c6572206973206e6f7420746865206f776e6572000000000000000000604482015290519081900360640190fd5b600655565b600061086a848484610f84565b6108da84610876610e94565b6108d585604051806060016040528060288152602001611498602891396001600160a01b038a166000908152600160205260408120906108b4610e94565b6001600160a01b0316815260208101919091526040016000205491906110df565b610e98565b5060019392505050565b60095481565b3360009081526020819052604090205481111561094e576040805162461bcd60e51b815260206004820152601b60248201527f546f6b656e3a20696e73756666696369656e742062616c616e63650000000000604482015290519081900360640190fd5b6109583382611176565b604051339082156108fc029083906000818181858888f19350505050158015610985573d6000803e3d6000fd5b5050565b60055460ff1690565b60006107da61099f610e94565b846108d585600160006109b0610e94565b6001600160a01b03908116825260208083019390935260409182016000908120918c168152925290205490611272565b600a54610100900460ff16610a5e576109f7610e94565b60055461010090046001600160a01b03908116911614610a5e576040805162461bcd60e51b815260206004820152601760248201527f43616c6c6572206973206e6f7420746865206f776e6572000000000000000000604482015290519081900360640190fd5b61098582826112d3565b60075481565b600a5460ff1681565b6001600160a01b031660009081526020819052604090205490565b610a9a610e94565b60055461010090046001600160a01b03908116911614610b01576040805162461bcd60e51b815260206004820152601760248201527f43616c6c6572206973206e6f7420746865206f776e6572000000000000000000604482015290519081900360640190fd5b600855565b610b0e610e94565b60055461010090046001600160a01b03908116911614610b75576040805162461bcd60e51b815260206004820152601760248201527f43616c6c6572206973206e6f7420746865206f776e6572000000000000000000604482015290519081900360640190fd5b600a805460ff1916911515919091179055565b60065481565b60048054604080516020601f60026000196101006001881615020190951694909404938401819004810282018101909252828152606093909290918301828280156107bc5780601f10610791576101008083540402835291602001916107bc565b60085481565b610bfd610e94565b60055461010090046001600160a01b03908116911614610c64576040805162461bcd60e51b815260206004820152601760248201527f43616c6c6572206973206e6f7420746865206f776e6572000000000000000000604482015290519081900360640190fd5b6109858282611176565b600755565b60006107da610c80610e94565b846108d58560405180606001604052806025815260200161152a6025913960016000610caa610e94565b6001600160a01b03908116825260208083019390935260409182016000908120918d168152925290205491906110df565b60006107da610ce8610e94565b8484610f84565b600a54610100900460ff1681565b610d0733346112d3565b565b6001600160a01b03918216600090815260016020908152604080832093909416825291909152205490565b600a5460ff16610d8b576040805162461bcd60e51b815260206004820152601a60248201527f466175636574206973206e6f7420656e61626c6564206e6f772e000000000000604482015290519081900360640190fd5b600854600954016007541015610de8576040805162461bcd60e51b815260206004820181905260248201527f46617563657420746f74616c2069732072756e6e696e67206f7574206e6f772e604482015290519081900360640190fd5b600654336000908152600b6020526040902054420311610e4f576040805162461bcd60e51b815260206004820152601f60248201527f46617563657420696e74657276616c206973206e6f7420657870697265642e00604482015290519081900360640190fd5b60088054600980549091019055336000818152600b602052604090204290559054610d0791906112d3565b600a80549115156101000261ff0019909216919091179055565b3390565b6001600160a01b038316610edd5760405162461bcd60e51b81526004018080602001828103825260248152602001806115066024913960400191505060405180910390fd5b6001600160a01b038216610f225760405162461bcd60e51b81526004018080602001828103825260228152602001806114506022913960400191505060405180910390fd5b6001600160a01b03808416600081815260016020908152604080832094871680845294825291829020859055815185815291517f8c5be1e5ebec7d5bd14f71427d1e84f3dd0314c0f7b2291e5b200ac8c7c3b9259281900390910190a3505050565b6001600160a01b038316610fc95760405162461bcd60e51b81526004018080602001828103825260258152602001806114e16025913960400191505060405180910390fd5b6001600160a01b03821661100e5760405162461bcd60e51b815260040180806020018281038252602381526020018061140b6023913960400191505060405180910390fd5b6110198383836113c3565b61105681604051806060016040528060268152602001611472602691396001600160a01b03861660009081526020819052604090205491906110df565b6001600160a01b0380851660009081526020819052604080822093909355908416815220546110859082611272565b6001600160a01b038084166000818152602081815260409182902094909455805185815290519193928716927fddf252ad1be2c89b69c2b068fc378daa952ba7f163c4a11628f55a4df523b3ef92918290030190a3505050565b6000818484111561116e5760405162461bcd60e51b81526004018080602001828103825283818151815260200191508051906020019080838360005b8381101561113357818101518382015260200161111b565b50505050905090810190601f1680156111605780820380516001836020036101000a031916815260200191505b509250505060405180910390fd5b505050900390565b6001600160a01b0382166111bb5760405162461bcd60e51b81526004018080602001828103825260218152602001806114c06021913960400191505060405180910390fd5b6111c7826000836113c3565b6112048160405180606001604052806022815260200161142e602291396001600160a01b03851660009081526020819052604090205491906110df565b6001600160a01b03831660009081526020819052604090205560025461122a90826113c8565b6002556040805182815290516000916001600160a01b038516917fddf252ad1be2c89b69c2b068fc378daa952ba7f163c4a11628f55a4df523b3ef9181900360200190a35050565b6000828201838110156112cc576040805162461bcd60e51b815260206004820152601b60248201527f536166654d6174683a206164646974696f6e206f766572666c6f770000000000604482015290519081900360640190fd5b9392505050565b6001600160a01b03821661132e576040805162461bcd60e51b815260206004820152601f60248201527f45524332303a206d696e7420746f20746865207a65726f206164647265737300604482015290519081900360640190fd5b61133a600083836113c3565b6002546113479082611272565b6002556001600160a01b03821660009081526020819052604090205461136d9082611272565b6001600160a01b0383166000818152602081815260408083209490945583518581529351929391927fddf252ad1be2c89b69c2b068fc378daa952ba7f163c4a11628f55a4df523b3ef9281900390910190a35050565b505050565b60006112cc83836040518060400160405280601e81526020017f536166654d6174683a207375627472616374696f6e206f766572666c6f7700008152506110df56fe45524332303a207472616e7366657220746f20746865207a65726f206164647265737345524332303a206275726e20616d6f756e7420657863656564732062616c616e636545524332303a20617070726f766520746f20746865207a65726f206164647265737345524332303a207472616e7366657220616d6f756e7420657863656564732062616c616e636545524332303a207472616e7366657220616d6f756e74206578636565647320616c6c6f77616e636545524332303a206275726e2066726f6d20746865207a65726f206164647265737345524332303a207472616e736665722066726f6d20746865207a65726f206164647265737345524332303a20617070726f76652066726f6d20746865207a65726f206164647265737345524332303a2064656372656173656420616c6c6f77616e63652062656c6f77207a65726fa2646970667358221220c42a68df6f4d841a922d9713c6912187b7a7854ba6f69504086473ea7d9276af64736f6c634300060c0033",
  "devdoc": {
    "details": "Implementation of the {IERC20} interface. This implementation is agnostic to the way tokens are created. This means that a supply mechanism has to be added in a derived contract using {_mint}. For a generic mechanism see {ERC20PresetMinterPauser}. TIP: For a detailed writeup see our guide https://forum.zeppelin.solutions/t/how-to-implement-erc20-supply-mechanisms/226[How to implement supply mechanisms]. We have followed general OpenZeppelin guidelines: functions revert instead of returning `false` on failure. This behavior is nonetheless conventional and does not conflict with the expectations of ERC20 applications. Additionally, an {Approval} event is emitted on calls to {transferFrom}. This allows applications to reconstruct the allowance for all accounts just by listening to said events. Other implementations of the EIP may not emit these events, as it isn't required by the specification. Finally, the non-standard {decreaseAllowance} and {increaseAllowance} functions have been added to mitigate the well-known issues around setting allowances. See {IERC20-approve}.",
    "kind": "dev",
    "methods": {
      "allowance(address,address)": {
        "details": "See {IERC20-allowance}."
      },
      "approve(address,uint256)": {
        "details": "See {IERC20-approve}. Requirements: - `spender` cannot be the zero address."
      },
      "balanceOf(address)": {
        "details": "See {IERC20-balanceOf}."
      },
      "constructor": {
        "details": "Sets the values for {name} and {symbol}, initializes {decimals} with a default value of 18. To select a different value for {decimals}, use {_setupDecimals}. All three of these values are immutable: they can only be set once during construction."
      },
      "decimals()": {
        "details": "Returns the number of decimals used to get its user representation. For example, if `decimals` equals `2`, a balance of `505` tokens should be displayed to a user as `5,05` (`505 / 10 ** 2`). Tokens usually opt for a value of 18, imitating the relationship between Ether and Wei. This is the value {ERC20} uses, unless {_setupDecimals} is called. NOTE: This information is only used for _display_ purposes: it in no way affects any of the arithmetic of the contract, including {IERC20-balanceOf} and {IERC20-transfer}."
      },
      "decreaseAllowance(address,uint256)": {
        "details": "Atomically decreases the allowance granted to `spender` by the caller. This is an alternative to {approve} that can be used as a mitigation for problems described in {IERC20-approve}. Emits an {Approval} event indicating the updated allowance. Requirements: - `spender` cannot be the zero address. - `spender` must have allowance for the caller of at least `subtractedValue`."
      },
      "increaseAllowance(address,uint256)": {
        "details": "Atomically increases the allowance granted to `spender` by the caller. This is an alternative to {approve} that can be used as a mitigation for problems described in {IERC20-approve}. Emits an {Approval} event indicating the updated allowance. Requirements: - `spender` cannot be the zero address."
      },
      "name()": {
        "details": "Returns the name of the token."
      },
      "symbol()": {
        "details": "Returns the symbol of the token, usually a shorter version of the name."
      },
      "totalSupply()": {
        "details": "See {IERC20-totalSupply}."
      },
      "transfer(address,uint256)": {
        "details": "See {IERC20-transfer}. Requirements: - `recipient` cannot be the zero address. - the caller must have a balance of at least `amount`."
      },
      "transferFrom(address,address,uint256)": {
        "details": "See {IERC20-transferFrom}. Emits an {Approval} event indicating the updated allowance. This is not required by the EIP. See the note at the beginning of {ERC20}. Requirements: - `sender` and `recipient` cannot be the zero address. - `sender` must have a balance of at least `amount`. - the caller must have allowance for ``sender``'s tokens of at least `amount`."
      }
    },
    "version": 1
  },
  "userdoc": {
    "kind": "user",
    "methods": {},
    "version": 1
  },
  "storageLayout": {
    "storage": [
      {
        "astId": 15198,
        "contract": "contracts/mock/Token.sol:Token",
        "label": "_balances",
        "offset": 0,
        "slot": "0",
        "type": "t_mapping(t_address,t_uint256)"
      },
      {
        "astId": 15204,
        "contract": "contracts/mock/Token.sol:Token",
        "label": "_allowances",
        "offset": 0,
        "slot": "1",
        "type": "t_mapping(t_address,t_mapping(t_address,t_uint256))"
      },
      {
        "astId": 15206,
        "contract": "contracts/mock/Token.sol:Token",
        "label": "_totalSupply",
        "offset": 0,
        "slot": "2",
        "type": "t_uint256"
      },
      {
        "astId": 15208,
        "contract": "contracts/mock/Token.sol:Token",
        "label": "_name",
        "offset": 0,
        "slot": "3",
        "type": "t_string_storage"
      },
      {
        "astId": 15210,
        "contract": "contracts/mock/Token.sol:Token",
        "label": "_symbol",
        "offset": 0,
        "slot": "4",
        "type": "t_string_storage"
      },
      {
        "astId": 15212,
        "contract": "contracts/mock/Token.sol:Token",
        "label": "_decimals",
        "offset": 0,
        "slot": "5",
        "type": "t_uint8"
      },
      {
        "astId": 15214,
        "contract": "contracts/mock/Token.sol:Token",
        "label": "_owner",
        "offset": 1,
        "slot": "5",
        "type": "t_address"
      },
      {
        "astId": 15216,
        "contract": "contracts/mock/Token.sol:Token",
        "label": "interval",
        "offset": 0,
        "slot": "6",
        "type": "t_uint256"
      },
      {
        "astId": 15218,
        "contract": "contracts/mock/Token.sol:Token",
        "label": "faucetTotal",
        "offset": 0,
        "slot": "7",
        "type": "t_uint256"
      },
      {
        "astId": 15220,
        "contract": "contracts/mock/Token.sol:Token",
        "label": "faucetAmount",
        "offset": 0,
        "slot": "8",
        "type": "t_uint256"
      },
      {
        "astId": 15222,
        "contract": "contracts/mock/Token.sol:Token",
        "label": "giveawayTotal",
        "offset": 0,
        "slot": "9",
        "type": "t_uint256"
      },
      {
        "astId": 15225,
        "contract": "contracts/mock/Token.sol:Token",
        "label": "faucetEnabled",
        "offset": 0,
        "slot": "10",
        "type": "t_bool"
      },
      {
        "astId": 15228,
        "contract": "contracts/mock/Token.sol:Token",
        "label": "openMint",
        "offset": 1,
        "slot": "10",
        "type": "t_bool"
      },
      {
        "astId": 15232,
        "contract": "contracts/mock/Token.sol:Token",
        "label": "accountLastTime",
        "offset": 0,
        "slot": "11",
        "type": "t_mapping(t_address,t_uint256)"
      }
    ],
    "types": {
      "t_address": {
        "encoding": "inplace",
        "label": "address",
        "numberOfBytes": "20"
      },
      "t_bool": {
        "encoding": "inplace",
        "label": "bool",
        "numberOfBytes": "1"
      },
      "t_mapping(t_address,t_mapping(t_address,t_uint256))": {
        "encoding": "mapping",
        "key": "t_address",
        "label": "mapping(address => mapping(address => uint256))",
        "numberOfBytes": "32",
        "value": "t_mapping(t_address,t_uint256)"
      },
      "t_mapping(t_address,t_uint256)": {
        "encoding": "mapping",
        "key": "t_address",
        "label": "mapping(address => uint256)",
        "numberOfBytes": "32",
        "value": "t_uint256"
      },
      "t_string_storage": {
        "encoding": "bytes",
        "label": "string",
        "numberOfBytes": "32"
      },
      "t_uint256": {
        "encoding": "inplace",
        "label": "uint256",
        "numberOfBytes": "32"
      },
      "t_uint8": {
        "encoding": "inplace",
        "label": "uint8",
        "numberOfBytes": "1"
      }
    }
  }
}